{
	"contractName": "NFTBankImpl",
	"abi": [
		{
			"inputs": [],
			"name": "AlreadyInWhitelistMode",
			"type": "error"
		},
		{
			"inputs": [
				{
					"internalType": "uint256",
					"name": "requested",
					"type": "uint256"
				},
				{
					"internalType": "uint256",
					"name": "balance",
					"type": "uint256"
				}
			],
			"name": "BalanceIsLessThanRequestedCount",
			"type": "error"
		},
		{
			"inputs": [],
			"name": "CanNotAllocateMoreThanClaimCap",
			"type": "error"
		},
		{
			"inputs": [],
			"name": "CanNotChangeModeBeforeWhitelistMintExpirationDate",
			"type": "error"
		},
		{
			"inputs": [],
			"name": "CanNotImportDataBeforeNFTImportExpirationTime",
			"type": "error"
		},
		{
			"inputs": [],
			"name": "ClaimingHasEnded",
			"type": "error"
		},
		{
			"inputs": [],
			"name": "ClaimingNotStartedYet",
			"type": "error"
		},
		{
			"inputs": [],
			"name": "DoesNotSupportIERC1155",
			"type": "error"
		},
		{
			"inputs": [],
			"name": "DoesNotSupportIERC721",
			"type": "error"
		},
		{
			"inputs": [
				{
					"internalType": "uint256",
					"name": "sent",
					"type": "uint256"
				},
				{
					"internalType": "uint256",
					"name": "minRequired",
					"type": "uint256"
				}
			],
			"name": "InvalidAmount",
			"type": "error"
		},
		{
			"inputs": [],
			"name": "MintingHasEnded",
			"type": "error"
		},
		{
			"inputs": [],
			"name": "MintingNotEndedYet",
			"type": "error"
		},
		{
			"inputs": [],
			"name": "NotAValidTokenType",
			"type": "error"
		},
		{
			"inputs": [],
			"name": "NotEnoughNFTsLeft",
			"type": "error"
		},
		{
			"inputs": [],
			"name": "NotEnoughNFTsToBeClaimed",
			"type": "error"
		},
		{
			"inputs": [],
			"name": "NotInPreparationMode",
			"type": "error"
		},
		{
			"inputs": [],
			"name": "NotInPrivateMode",
			"type": "error"
		},
		{
			"inputs": [],
			"name": "NotWhitelisted",
			"type": "error"
		},
		{
			"inputs": [
				{
					"internalType": "uint256",
					"name": "requested",
					"type": "uint256"
				},
				{
					"internalType": "uint256",
					"name": "actual",
					"type": "uint256"
				}
			],
			"name": "NumberOfFreeSpotsForUserIsWrong",
			"type": "error"
		},
		{
			"inputs": [
				{
					"internalType": "uint256",
					"name": "requested",
					"type": "uint256"
				},
				{
					"internalType": "uint256",
					"name": "actual",
					"type": "uint256"
				}
			],
			"name": "NumberOfGuaranteedSpotsForUserIsWrong",
			"type": "error"
		},
		{
			"inputs": [
				{
					"internalType": "uint256",
					"name": "requested",
					"type": "uint256"
				},
				{
					"internalType": "uint256",
					"name": "actual",
					"type": "uint256"
				}
			],
			"name": "NumberOfRaceSpotsForUserIsWrong",
			"type": "error"
		},
		{
			"inputs": [],
			"name": "RanksMustBeInOrder",
			"type": "error"
		},
		{
			"inputs": [],
			"name": "RequestedFreeClaimCountExceedsTotal",
			"type": "error"
		},
		{
			"inputs": [],
			"name": "RequestedGuaranteedClaimCountExceedsTotal",
			"type": "error"
		},
		{
			"inputs": [],
			"name": "RequestedPrivateModeClaimCountExceedsTotal",
			"type": "error"
		},
		{
			"inputs": [],
			"name": "RequestedRaceClaimCountExceedsTotal",
			"type": "error"
		},
		{
			"inputs": [],
			"name": "RequestedRaceClaimCountExceedsTotalForUser",
			"type": "error"
		},
		{
			"inputs": [],
			"name": "ShouldImportNFTDataFirst",
			"type": "error"
		},
		{
			"inputs": [
				{
					"internalType": "address",
					"name": "user",
					"type": "address"
				},
				{
					"internalType": "uint256",
					"name": "spot",
					"type": "uint256"
				}
			],
			"name": "SpotIsIncorrect",
			"type": "error"
		},
		{
			"inputs": [],
			"name": "TotalAllocationsExceedsMaxMintCount",
			"type": "error"
		},
		{
			"inputs": [
				{
					"internalType": "uint256",
					"name": "requested",
					"type": "uint256"
				},
				{
					"internalType": "uint256",
					"name": "actual",
					"type": "uint256"
				}
			],
			"name": "TotalFreeMintsExceedsFreeNFTs",
			"type": "error"
		},
		{
			"inputs": [
				{
					"internalType": "uint256",
					"name": "requested",
					"type": "uint256"
				},
				{
					"internalType": "uint256",
					"name": "actual",
					"type": "uint256"
				}
			],
			"name": "TotalGuaranteedMintsExceedsGuaranteedNFTs",
			"type": "error"
		},
		{
			"inputs": [],
			"name": "UserIsFreezed",
			"type": "error"
		},
		{
			"inputs": [],
			"name": "WrongBaseURIProvided",
			"type": "error"
		},
		{
			"anonymous": false,
			"inputs": [
				{
					"indexed": false,
					"internalType": "address",
					"name": "caller",
					"type": "address"
				},
				{
					"indexed": false,
					"internalType": "address",
					"name": "receiver",
					"type": "address"
				},
				{
					"indexed": false,
					"internalType": "uint256",
					"name": "amount",
					"type": "uint256"
				}
			],
			"name": "BalanceWithdrawn",
			"type": "event"
		},
		{
			"anonymous": false,
			"inputs": [
				{
					"indexed": false,
					"internalType": "uint256",
					"name": "newClaimCap",
					"type": "uint256"
				},
				{
					"indexed": false,
					"internalType": "uint256",
					"name": "oldClaimCap",
					"type": "uint256"
				}
			],
			"name": "ClaimCapChanged",
			"type": "event"
		},
		{
			"anonymous": false,
			"inputs": [
				{
					"indexed": false,
					"internalType": "uint256",
					"name": "newClaimPrice",
					"type": "uint256"
				},
				{
					"indexed": false,
					"internalType": "uint256",
					"name": "oldClaimPrice",
					"type": "uint256"
				}
			],
			"name": "ClaimPriceChanged",
			"type": "event"
		},
		{
			"anonymous": false,
			"inputs": [
				{
					"indexed": false,
					"internalType": "uint8",
					"name": "version",
					"type": "uint8"
				}
			],
			"name": "Initialized",
			"type": "event"
		},
		{
			"anonymous": false,
			"inputs": [
				{
					"indexed": false,
					"internalType": "address[2]",
					"name": "addresses",
					"type": "address[2]"
				},
				{
					"indexed": false,
					"internalType": "uint256[4]",
					"name": "variables",
					"type": "uint256[4]"
				},
				{
					"indexed": false,
					"internalType": "uint256[]",
					"name": "_nftIds",
					"type": "uint256[]"
				},
				{
					"indexed": false,
					"internalType": "string",
					"name": "symbol",
					"type": "string"
				},
				{
					"indexed": false,
					"internalType": "bytes32",
					"name": "baseURIHash",
					"type": "bytes32"
				}
			],
			"name": "NFTDataImported",
			"type": "event"
		},
		{
			"anonymous": false,
			"inputs": [],
			"name": "PreparationModeIsOn",
			"type": "event"
		},
		{
			"anonymous": false,
			"inputs": [],
			"name": "PrivateModeIsOn",
			"type": "event"
		},
		{
			"anonymous": false,
			"inputs": [],
			"name": "PublicModeIsOn",
			"type": "event"
		},
		{
			"anonymous": false,
			"inputs": [
				{
					"indexed": true,
					"internalType": "bytes32",
					"name": "role",
					"type": "bytes32"
				},
				{
					"indexed": true,
					"internalType": "bytes32",
					"name": "previousAdminRole",
					"type": "bytes32"
				},
				{
					"indexed": true,
					"internalType": "bytes32",
					"name": "newAdminRole",
					"type": "bytes32"
				}
			],
			"name": "RoleAdminChanged",
			"type": "event"
		},
		{
			"anonymous": false,
			"inputs": [
				{
					"indexed": true,
					"internalType": "bytes32",
					"name": "role",
					"type": "bytes32"
				},
				{
					"indexed": true,
					"internalType": "address",
					"name": "account",
					"type": "address"
				},
				{
					"indexed": true,
					"internalType": "address",
					"name": "sender",
					"type": "address"
				}
			],
			"name": "RoleGranted",
			"type": "event"
		},
		{
			"anonymous": false,
			"inputs": [
				{
					"indexed": true,
					"internalType": "bytes32",
					"name": "role",
					"type": "bytes32"
				},
				{
					"indexed": true,
					"internalType": "address",
					"name": "account",
					"type": "address"
				},
				{
					"indexed": true,
					"internalType": "address",
					"name": "sender",
					"type": "address"
				}
			],
			"name": "RoleRevoked",
			"type": "event"
		},
		{
			"anonymous": false,
			"inputs": [
				{
					"indexed": true,
					"internalType": "address",
					"name": "user",
					"type": "address"
				},
				{
					"indexed": false,
					"internalType": "uint256",
					"name": "totalClaimFee",
					"type": "uint256"
				},
				{
					"indexed": false,
					"internalType": "uint256",
					"name": "extraPaid",
					"type": "uint256"
				},
				{
					"indexed": false,
					"internalType": "uint256",
					"name": "launchpadFee",
					"type": "uint256"
				},
				{
					"indexed": false,
					"internalType": "uint256",
					"name": "ClaimedFreeSpotsCount",
					"type": "uint256"
				},
				{
					"indexed": false,
					"internalType": "uint256",
					"name": "ClaimedGuaranteedSpotsCount",
					"type": "uint256"
				},
				{
					"indexed": false,
					"internalType": "uint256",
					"name": "ClaimedRaceSpotsCount",
					"type": "uint256"
				},
				{
					"indexed": false,
					"internalType": "uint256[]",
					"name": "claimedIds",
					"type": "uint256[]"
				}
			],
			"name": "UserClaimed",
			"type": "event"
		},
		{
			"anonymous": false,
			"inputs": [
				{
					"indexed": false,
					"internalType": "address[]",
					"name": "users",
					"type": "address[]"
				}
			],
			"name": "UsersUnfreezed",
			"type": "event"
		},
		{
			"anonymous": false,
			"inputs": [],
			"name": "WhitelistModeIsOn",
			"type": "event"
		},
		{
			"anonymous": false,
			"inputs": [
				{
					"components": [
						{
							"internalType": "address",
							"name": "user",
							"type": "address"
						},
						{
							"internalType": "uint32",
							"name": "rank",
							"type": "uint32"
						},
						{
							"internalType": "uint256[]",
							"name": "spots",
							"type": "uint256[]"
						},
						{
							"internalType": "uint256",
							"name": "freeSpots",
							"type": "uint256"
						},
						{
							"internalType": "uint256",
							"name": "guaranteedSpots",
							"type": "uint256"
						},
						{
							"internalType": "uint256",
							"name": "raceSpots",
							"type": "uint256"
						}
					],
					"indexed": false,
					"internalType": "struct INFTBank.UserAllocation[]",
					"name": "allocations",
					"type": "tuple[]"
				},
				{
					"indexed": false,
					"internalType": "bool",
					"name": "lastSlot",
					"type": "bool"
				},
				{
					"indexed": false,
					"internalType": "bool",
					"name": "deletePreviousWinners",
					"type": "bool"
				},
				{
					"indexed": false,
					"internalType": "address[]",
					"name": "deletedWinners",
					"type": "address[]"
				}
			],
			"name": "WinnersAreSet",
			"type": "event"
		},
		{
			"anonymous": false,
			"inputs": [
				{
					"indexed": true,
					"internalType": "string",
					"name": "baseURI",
					"type": "string"
				}
			],
			"name": "baseURIIsSet",
			"type": "event"
		},
		{
			"inputs": [],
			"name": "ADMIN_ROLE",
			"outputs": [
				{
					"internalType": "bytes32",
					"name": "",
					"type": "bytes32"
				}
			],
			"stateMutability": "view",
			"type": "function"
		},
		{
			"inputs": [],
			"name": "COLLECTION_CREATOR_ROLE",
			"outputs": [
				{
					"internalType": "bytes32",
					"name": "",
					"type": "bytes32"
				}
			],
			"stateMutability": "view",
			"type": "function"
		},
		{
			"inputs": [],
			"name": "DEFAULT_ADMIN_ROLE",
			"outputs": [
				{
					"internalType": "bytes32",
					"name": "",
					"type": "bytes32"
				}
			],
			"stateMutability": "view",
			"type": "function"
		},
		{
			"inputs": [],
			"name": "ERC1155Token",
			"outputs": [
				{
					"internalType": "uint256",
					"name": "",
					"type": "uint256"
				}
			],
			"stateMutability": "view",
			"type": "function"
		},
		{
			"inputs": [],
			"name": "ERC721Token",
			"outputs": [
				{
					"internalType": "uint256",
					"name": "",
					"type": "uint256"
				}
			],
			"stateMutability": "view",
			"type": "function"
		},
		{
			"inputs": [],
			"name": "SUPER_ADMIN_ROLE",
			"outputs": [
				{
					"internalType": "bytes32",
					"name": "",
					"type": "bytes32"
				}
			],
			"stateMutability": "view",
			"type": "function"
		},
		{
			"inputs": [],
			"name": "baseURI",
			"outputs": [
				{
					"internalType": "string",
					"name": "",
					"type": "string"
				}
			],
			"stateMutability": "view",
			"type": "function"
		},
		{
			"inputs": [],
			"name": "baseURIHash",
			"outputs": [
				{
					"internalType": "bytes32",
					"name": "",
					"type": "bytes32"
				}
			],
			"stateMutability": "view",
			"type": "function"
		},
		{
			"inputs": [
				{
					"internalType": "uint256",
					"name": "freeClaimCount",
					"type": "uint256"
				},
				{
					"internalType": "uint256",
					"name": "guaranteedClaimCount",
					"type": "uint256"
				},
				{
					"internalType": "uint256",
					"name": "raceClaimCount",
					"type": "uint256"
				},
				{
					"internalType": "uint256",
					"name": "privateModeClaimCount",
					"type": "uint256"
				}
			],
			"name": "claim",
			"outputs": [],
			"stateMutability": "payable",
			"type": "function"
		},
		{
			"inputs": [],
			"name": "creatorFeeWallet",
			"outputs": [
				{
					"internalType": "address payable",
					"name": "",
					"type": "address"
				}
			],
			"stateMutability": "view",
			"type": "function"
		},
		{
			"inputs": [],
			"name": "freeSpot",
			"outputs": [
				{
					"internalType": "uint256",
					"name": "",
					"type": "uint256"
				}
			],
			"stateMutability": "view",
			"type": "function"
		},
		{
			"inputs": [],
			"name": "getBalance",
			"outputs": [
				{
					"internalType": "uint256",
					"name": "",
					"type": "uint256"
				}
			],
			"stateMutability": "view",
			"type": "function"
		},
		{
			"inputs": [],
			"name": "getMode",
			"outputs": [
				{
					"internalType": "enum INFTBank.Mode",
					"name": "",
					"type": "uint8"
				}
			],
			"stateMutability": "view",
			"type": "function"
		},
		{
			"inputs": [],
			"name": "getNFTType",
			"outputs": [
				{
					"internalType": "enum INFTBank.NFTType",
					"name": "",
					"type": "uint8"
				}
			],
			"stateMutability": "view",
			"type": "function"
		},
		{
			"inputs": [
				{
					"internalType": "address",
					"name": "user",
					"type": "address"
				}
			],
			"name": "getNumberOfRaceSpots",
			"outputs": [
				{
					"internalType": "uint256",
					"name": "",
					"type": "uint256"
				}
			],
			"stateMutability": "view",
			"type": "function"
		},
		{
			"inputs": [
				{
					"internalType": "address",
					"name": "user",
					"type": "address"
				}
			],
			"name": "getNumberOfRemainingFreeSpots",
			"outputs": [
				{
					"internalType": "uint256",
					"name": "",
					"type": "uint256"
				}
			],
			"stateMutability": "view",
			"type": "function"
		},
		{
			"inputs": [
				{
					"internalType": "address",
					"name": "user",
					"type": "address"
				}
			],
			"name": "getNumberOfRemainingGuaranteedSpots",
			"outputs": [
				{
					"internalType": "uint256",
					"name": "",
					"type": "uint256"
				}
			],
			"stateMutability": "view",
			"type": "function"
		},
		{
			"inputs": [
				{
					"internalType": "address",
					"name": "user",
					"type": "address"
				}
			],
			"name": "getNumberOfRemainingRaceSpots",
			"outputs": [
				{
					"internalType": "uint256",
					"name": "",
					"type": "uint256"
				}
			],
			"stateMutability": "view",
			"type": "function"
		},
		{
			"inputs": [],
			"name": "getNumberOfTotalRemainingNFTs",
			"outputs": [
				{
					"internalType": "uint256",
					"name": "",
					"type": "uint256"
				}
			],
			"stateMutability": "view",
			"type": "function"
		},
		{
			"inputs": [],
			"name": "getNumberOfTotalRemainingRaceNFTs",
			"outputs": [
				{
					"internalType": "uint256",
					"name": "",
					"type": "uint256"
				}
			],
			"stateMutability": "view",
			"type": "function"
		},
		{
			"inputs": [
				{
					"internalType": "bytes32",
					"name": "role",
					"type": "bytes32"
				}
			],
			"name": "getRoleAdmin",
			"outputs": [
				{
					"internalType": "bytes32",
					"name": "",
					"type": "bytes32"
				}
			],
			"stateMutability": "view",
			"type": "function"
		},
		{
			"inputs": [
				{
					"internalType": "uint256",
					"name": "guaranteedClaimCount",
					"type": "uint256"
				},
				{
					"internalType": "uint256",
					"name": "raceClaimCount",
					"type": "uint256"
				}
			],
			"name": "getTotalClaimPrice",
			"outputs": [
				{
					"internalType": "uint256",
					"name": "claimFee",
					"type": "uint256"
				}
			],
			"stateMutability": "view",
			"type": "function"
		},
		{
			"inputs": [
				{
					"internalType": "address",
					"name": "user",
					"type": "address"
				}
			],
			"name": "getTotalNumberOfFreeSpots",
			"outputs": [
				{
					"internalType": "uint256",
					"name": "",
					"type": "uint256"
				}
			],
			"stateMutability": "view",
			"type": "function"
		},
		{
			"inputs": [
				{
					"internalType": "address",
					"name": "user",
					"type": "address"
				}
			],
			"name": "getTotalNumberOfGuaranteedSpots",
			"outputs": [
				{
					"internalType": "uint256",
					"name": "",
					"type": "uint256"
				}
			],
			"stateMutability": "view",
			"type": "function"
		},
		{
			"inputs": [
				{
					"internalType": "address",
					"name": "user",
					"type": "address"
				}
			],
			"name": "getUserMintedSpots",
			"outputs": [
				{
					"internalType": "bool[]",
					"name": "",
					"type": "bool[]"
				}
			],
			"stateMutability": "view",
			"type": "function"
		},
		{
			"inputs": [
				{
					"internalType": "address",
					"name": "user",
					"type": "address"
				}
			],
			"name": "getUserSpots",
			"outputs": [
				{
					"internalType": "uint256[]",
					"name": "",
					"type": "uint256[]"
				}
			],
			"stateMutability": "view",
			"type": "function"
		},
		{
			"inputs": [],
			"name": "getWinners",
			"outputs": [
				{
					"internalType": "address[]",
					"name": "",
					"type": "address[]"
				}
			],
			"stateMutability": "view",
			"type": "function"
		},
		{
			"inputs": [
				{
					"internalType": "bytes32",
					"name": "role",
					"type": "bytes32"
				},
				{
					"internalType": "address",
					"name": "account",
					"type": "address"
				}
			],
			"name": "grantRole",
			"outputs": [],
			"stateMutability": "nonpayable",
			"type": "function"
		},
		{
			"inputs": [],
			"name": "guaranteedWithNoDiscountSpot",
			"outputs": [
				{
					"internalType": "uint256",
					"name": "",
					"type": "uint256"
				}
			],
			"stateMutability": "view",
			"type": "function"
		},
		{
			"inputs": [
				{
					"internalType": "bytes32",
					"name": "role",
					"type": "bytes32"
				},
				{
					"internalType": "address",
					"name": "account",
					"type": "address"
				}
			],
			"name": "hasRole",
			"outputs": [
				{
					"internalType": "bool",
					"name": "",
					"type": "bool"
				}
			],
			"stateMutability": "view",
			"type": "function"
		},
		{
			"inputs": [
				{
					"internalType": "address[2]",
					"name": "addresses",
					"type": "address[2]"
				},
				{
					"internalType": "uint256[4]",
					"name": "variables",
					"type": "uint256[4]"
				},
				{
					"internalType": "uint256[]",
					"name": "_nftIds",
					"type": "uint256[]"
				},
				{
					"internalType": "string",
					"name": "_symbol",
					"type": "string"
				},
				{
					"internalType": "bytes32",
					"name": "_baseURIHash",
					"type": "bytes32"
				}
			],
			"name": "importNFTData",
			"outputs": [],
			"stateMutability": "nonpayable",
			"type": "function"
		},
		{
			"inputs": [
				{
					"internalType": "address",
					"name": "user",
					"type": "address"
				}
			],
			"name": "isWhitelisted",
			"outputs": [
				{
					"internalType": "bool",
					"name": "",
					"type": "bool"
				}
			],
			"stateMutability": "view",
			"type": "function"
		},
		{
			"inputs": [],
			"name": "launchpadFeePercentage",
			"outputs": [
				{
					"internalType": "uint256",
					"name": "",
					"type": "uint256"
				}
			],
			"stateMutability": "view",
			"type": "function"
		},
		{
			"inputs": [],
			"name": "launchpadFeeWallet",
			"outputs": [
				{
					"internalType": "address payable",
					"name": "",
					"type": "address"
				}
			],
			"stateMutability": "view",
			"type": "function"
		},
		{
			"inputs": [],
			"name": "maxMintCount",
			"outputs": [
				{
					"internalType": "uint256",
					"name": "",
					"type": "uint256"
				}
			],
			"stateMutability": "view",
			"type": "function"
		},
		{
			"inputs": [],
			"name": "mintCap",
			"outputs": [
				{
					"internalType": "uint256",
					"name": "",
					"type": "uint256"
				}
			],
			"stateMutability": "view",
			"type": "function"
		},
		{
			"inputs": [],
			"name": "mintExpirationTime",
			"outputs": [
				{
					"internalType": "uint256",
					"name": "",
					"type": "uint256"
				}
			],
			"stateMutability": "view",
			"type": "function"
		},
		{
			"inputs": [],
			"name": "mintPrice",
			"outputs": [
				{
					"internalType": "uint256",
					"name": "",
					"type": "uint256"
				}
			],
			"stateMutability": "view",
			"type": "function"
		},
		{
			"inputs": [],
			"name": "mode",
			"outputs": [
				{
					"internalType": "enum INFTBank.Mode",
					"name": "",
					"type": "uint8"
				}
			],
			"stateMutability": "view",
			"type": "function"
		},
		{
			"inputs": [],
			"name": "name",
			"outputs": [
				{
					"internalType": "string",
					"name": "",
					"type": "string"
				}
			],
			"stateMutability": "view",
			"type": "function"
		},
		{
			"inputs": [],
			"name": "nftBankImpl",
			"outputs": [
				{
					"internalType": "address",
					"name": "",
					"type": "address"
				}
			],
			"stateMutability": "view",
			"type": "function"
		},
		{
			"inputs": [],
			"name": "nftBankLaunchDate",
			"outputs": [
				{
					"internalType": "uint256",
					"name": "",
					"type": "uint256"
				}
			],
			"stateMutability": "view",
			"type": "function"
		},
		{
			"inputs": [],
			"name": "nftCollection",
			"outputs": [
				{
					"internalType": "address",
					"name": "",
					"type": "address"
				}
			],
			"stateMutability": "view",
			"type": "function"
		},
		{
			"inputs": [],
			"name": "nftDataImported",
			"outputs": [
				{
					"internalType": "bool",
					"name": "",
					"type": "bool"
				}
			],
			"stateMutability": "view",
			"type": "function"
		},
		{
			"inputs": [
				{
					"internalType": "uint256",
					"name": "",
					"type": "uint256"
				}
			],
			"name": "nftIds",
			"outputs": [
				{
					"internalType": "uint256",
					"name": "",
					"type": "uint256"
				}
			],
			"stateMutability": "view",
			"type": "function"
		},
		{
			"inputs": [],
			"name": "nftImportExpirationTime",
			"outputs": [
				{
					"internalType": "uint256",
					"name": "",
					"type": "uint256"
				}
			],
			"stateMutability": "view",
			"type": "function"
		},
		{
			"inputs": [],
			"name": "nftType",
			"outputs": [
				{
					"internalType": "enum INFTBank.NFTType",
					"name": "",
					"type": "uint8"
				}
			],
			"stateMutability": "view",
			"type": "function"
		},
		{
			"inputs": [],
			"name": "numberOfFreeNFTs",
			"outputs": [
				{
					"internalType": "uint256",
					"name": "",
					"type": "uint256"
				}
			],
			"stateMutability": "view",
			"type": "function"
		},
		{
			"inputs": [],
			"name": "numberOfGuaranteedNFTs",
			"outputs": [
				{
					"internalType": "uint256",
					"name": "",
					"type": "uint256"
				}
			],
			"stateMutability": "view",
			"type": "function"
		},
		{
			"inputs": [],
			"name": "numberOfRaceNFTs",
			"outputs": [
				{
					"internalType": "uint256",
					"name": "",
					"type": "uint256"
				}
			],
			"stateMutability": "view",
			"type": "function"
		},
		{
			"inputs": [
				{
					"internalType": "address",
					"name": "",
					"type": "address"
				},
				{
					"internalType": "address",
					"name": "",
					"type": "address"
				},
				{
					"internalType": "uint256[]",
					"name": "",
					"type": "uint256[]"
				},
				{
					"internalType": "uint256[]",
					"name": "",
					"type": "uint256[]"
				},
				{
					"internalType": "bytes",
					"name": "",
					"type": "bytes"
				}
			],
			"name": "onERC1155BatchReceived",
			"outputs": [
				{
					"internalType": "bytes4",
					"name": "",
					"type": "bytes4"
				}
			],
			"stateMutability": "nonpayable",
			"type": "function"
		},
		{
			"inputs": [
				{
					"internalType": "address",
					"name": "",
					"type": "address"
				},
				{
					"internalType": "address",
					"name": "",
					"type": "address"
				},
				{
					"internalType": "uint256",
					"name": "",
					"type": "uint256"
				},
				{
					"internalType": "uint256",
					"name": "",
					"type": "uint256"
				},
				{
					"internalType": "bytes",
					"name": "",
					"type": "bytes"
				}
			],
			"name": "onERC1155Received",
			"outputs": [
				{
					"internalType": "bytes4",
					"name": "",
					"type": "bytes4"
				}
			],
			"stateMutability": "nonpayable",
			"type": "function"
		},
		{
			"inputs": [
				{
					"internalType": "address",
					"name": "",
					"type": "address"
				},
				{
					"internalType": "address",
					"name": "",
					"type": "address"
				},
				{
					"internalType": "uint256",
					"name": "",
					"type": "uint256"
				},
				{
					"internalType": "bytes",
					"name": "",
					"type": "bytes"
				}
			],
			"name": "onERC721Received",
			"outputs": [
				{
					"internalType": "bytes4",
					"name": "",
					"type": "bytes4"
				}
			],
			"stateMutability": "nonpayable",
			"type": "function"
		},
		{
			"inputs": [],
			"name": "raceSpot",
			"outputs": [
				{
					"internalType": "uint256",
					"name": "",
					"type": "uint256"
				}
			],
			"stateMutability": "view",
			"type": "function"
		},
		{
			"inputs": [
				{
					"internalType": "bytes32",
					"name": "role",
					"type": "bytes32"
				},
				{
					"internalType": "address",
					"name": "account",
					"type": "address"
				}
			],
			"name": "renounceRole",
			"outputs": [],
			"stateMutability": "nonpayable",
			"type": "function"
		},
		{
			"inputs": [
				{
					"internalType": "bytes32",
					"name": "role",
					"type": "bytes32"
				},
				{
					"internalType": "address",
					"name": "account",
					"type": "address"
				}
			],
			"name": "revokeRole",
			"outputs": [],
			"stateMutability": "nonpayable",
			"type": "function"
		},
		{
			"inputs": [
				{
					"internalType": "string",
					"name": "_BaseURI",
					"type": "string"
				}
			],
			"name": "setBaseURI",
			"outputs": [],
			"stateMutability": "nonpayable",
			"type": "function"
		},
		{
			"inputs": [
				{
					"internalType": "uint256",
					"name": "_mintCap",
					"type": "uint256"
				}
			],
			"name": "setMintCap",
			"outputs": [],
			"stateMutability": "nonpayable",
			"type": "function"
		},
		{
			"inputs": [
				{
					"internalType": "uint256",
					"name": "_mintPrice",
					"type": "uint256"
				}
			],
			"name": "setMintPrice",
			"outputs": [],
			"stateMutability": "nonpayable",
			"type": "function"
		},
		{
			"inputs": [],
			"name": "setPreparationMode",
			"outputs": [],
			"stateMutability": "nonpayable",
			"type": "function"
		},
		{
			"inputs": [],
			"name": "setPrivateMode",
			"outputs": [],
			"stateMutability": "nonpayable",
			"type": "function"
		},
		{
			"inputs": [],
			"name": "setPublicMode",
			"outputs": [],
			"stateMutability": "nonpayable",
			"type": "function"
		},
		{
			"inputs": [
				{
					"components": [
						{
							"internalType": "address",
							"name": "user",
							"type": "address"
						},
						{
							"internalType": "uint32",
							"name": "rank",
							"type": "uint32"
						},
						{
							"internalType": "uint256[]",
							"name": "spots",
							"type": "uint256[]"
						},
						{
							"internalType": "uint256",
							"name": "freeSpots",
							"type": "uint256"
						},
						{
							"internalType": "uint256",
							"name": "guaranteedSpots",
							"type": "uint256"
						},
						{
							"internalType": "uint256",
							"name": "raceSpots",
							"type": "uint256"
						}
					],
					"internalType": "struct INFTBank.UserAllocation[]",
					"name": "allocations",
					"type": "tuple[]"
				},
				{
					"internalType": "uint256[3]",
					"name": "numberOfNFTs",
					"type": "uint256[3]"
				},
				{
					"internalType": "address[]",
					"name": "deletedWinners",
					"type": "address[]"
				},
				{
					"internalType": "bool",
					"name": "lastSlot",
					"type": "bool"
				},
				{
					"internalType": "bool",
					"name": "deletePreviousWinners",
					"type": "bool"
				}
			],
			"name": "setWhitelistedUsers",
			"outputs": [],
			"stateMutability": "nonpayable",
			"type": "function"
		},
		{
			"inputs": [
				{
					"internalType": "bytes4",
					"name": "interfaceId",
					"type": "bytes4"
				}
			],
			"name": "supportsInterface",
			"outputs": [
				{
					"internalType": "bool",
					"name": "",
					"type": "bool"
				}
			],
			"stateMutability": "view",
			"type": "function"
		},
		{
			"inputs": [],
			"name": "symbol",
			"outputs": [
				{
					"internalType": "string",
					"name": "",
					"type": "string"
				}
			],
			"stateMutability": "view",
			"type": "function"
		},
		{
			"inputs": [],
			"name": "totalFreeAllocated",
			"outputs": [
				{
					"internalType": "uint256",
					"name": "",
					"type": "uint256"
				}
			],
			"stateMutability": "view",
			"type": "function"
		},
		{
			"inputs": [],
			"name": "totalGuaranteedAllocated",
			"outputs": [
				{
					"internalType": "uint256",
					"name": "",
					"type": "uint256"
				}
			],
			"stateMutability": "view",
			"type": "function"
		},
		{
			"inputs": [],
			"name": "totalRaceMinted",
			"outputs": [
				{
					"internalType": "uint256",
					"name": "",
					"type": "uint256"
				}
			],
			"stateMutability": "view",
			"type": "function"
		},
		{
			"inputs": [
				{
					"internalType": "address[]",
					"name": "users",
					"type": "address[]"
				}
			],
			"name": "unfreezeUsers",
			"outputs": [],
			"stateMutability": "nonpayable",
			"type": "function"
		},
		{
			"inputs": [],
			"name": "whitelistMintStartDate",
			"outputs": [
				{
					"internalType": "uint256",
					"name": "",
					"type": "uint256"
				}
			],
			"stateMutability": "view",
			"type": "function"
		},
		{
			"inputs": [
				{
					"internalType": "address",
					"name": "",
					"type": "address"
				}
			],
			"name": "whitelistedUsers",
			"outputs": [
				{
					"internalType": "uint256",
					"name": "freeSpots",
					"type": "uint256"
				},
				{
					"internalType": "uint256",
					"name": "guaranteedSpots",
					"type": "uint256"
				},
				{
					"internalType": "uint256",
					"name": "raceSpots",
					"type": "uint256"
				},
				{
					"internalType": "uint256",
					"name": "freeSpotsMinted",
					"type": "uint256"
				},
				{
					"internalType": "uint256",
					"name": "raceSpotsMinted",
					"type": "uint256"
				},
				{
					"internalType": "uint256",
					"name": "guaranteedSpotsMinted",
					"type": "uint256"
				},
				{
					"internalType": "uint32",
					"name": "rank",
					"type": "uint32"
				},
				{
					"internalType": "bool",
					"name": "isWhitelisted",
					"type": "bool"
				},
				{
					"internalType": "bool",
					"name": "isFreezed",
					"type": "bool"
				}
			],
			"stateMutability": "view",
			"type": "function"
		},
		{
			"inputs": [
				{
					"internalType": "uint256",
					"name": "",
					"type": "uint256"
				}
			],
			"name": "winners",
			"outputs": [
				{
					"internalType": "address",
					"name": "",
					"type": "address"
				}
			],
			"stateMutability": "view",
			"type": "function"
		},
		{
			"inputs": [
				{
					"internalType": "address payable",
					"name": "receiver",
					"type": "address"
				}
			],
			"name": "withdrawBalance",
			"outputs": [],
			"stateMutability": "nonpayable",
			"type": "function"
		}
	],
	"bytecode": "0x608060405234801561001057600080fd5b506144f2806100206000396000f3fe6080604052600436106104265760003560e01c80637cd6dfb011610229578063bc197c811161012e578063d547741f116100b6578063f23a6e611161007a578063f23a6e6114610ca1578063f32506b114610ccd578063f4a0a52814610ced578063f621cc4814610d0d578063f8be73dd14610dd657600080fd5b8063d547741f14610bd8578063def9888d14610bf8578063df15c37e14610c32578063e46be16c14610c54578063eabbb70414610c7457600080fd5b8063c99e9bf7116100fd578063c99e9bf714610b5b578063caff99ce14610b70578063cc3e751614610b92578063ccbb629914610bab578063d182cf4d14610bc257600080fd5b8063bc197c8114610ab5578063bfbed67c14610ae1578063c3dd93d614610b1b578063c6c9bd4714610b3b57600080fd5b8063a217fddf116101b1578063abf792be11610180578063abf792be14610a29578063b0fe641414610a3e578063b5add71714610a55578063b8662a3e14610a68578063bb8df28214610a9557600080fd5b8063a217fddf14610542578063a2fb1175146109dd578063a870a5b2146109fd578063a87d2c8914610a1457600080fd5b80639711d7e5116101f85780639711d7e51461093f57806398eee484146109565780639b7d707d1461096d578063a188f9bd1461098e578063a1c9f0a5146109c857600080fd5b80637cd6dfb0146108c957806391d14854146108e957806395d89b411461090957806395f148f71461091e57600080fd5b80634070a0c91161032f5780636817c76c116102b757806373ee45081161028657806373ee450814610844578063756af45f1461085a57806375b238fc1461087a57806376c71ca11461089c57806377a714ae146108b357600080fd5b80636817c76c146107ce5780636c0360eb146107e55780636fac889b146107fa578063707109b41461082257600080fd5b80634ecb3cb6116102fe5780634ecb3cb61461071e57806355f804b31461073e5780635813fd3d1461075e57806359b3f435146107755780636588103b1461079557600080fd5b80634070a0c9146106955780634264f40d146106b55780634460bdd6146106cc5780634b4fd03b1461070057600080fd5b8063248a9ca3116103b257806332c60eef1161038157806332c60eef146105ed57806336568abe146106045780633af32abf146106245780633d779f32146106695780633e21d2001461068057600080fd5b8063248a9ca314610557578063295a5212146105875780632e4db810146105b45780632f2ff15d146105cb57600080fd5b806312f09746116103f957806312f09746146104ba57806313ad88ca146104d1578063150b7a02146104e75780631649c6ce1461052b5780631ae13c231461054257600080fd5b806301ffc9a71461042b57806306fdde03146104605780630c26abc31461048257806312065fe0146104a7575b600080fd5b34801561043757600080fd5b5061044b610446366004613731565b610df7565b60405190151581526020015b60405180910390f35b34801561046c57600080fd5b50610475610e22565b604051610457919061378b565b34801561048e57600080fd5b5061049961013a5481565b604051908152602001610457565b3480156104b357600080fd5b5047610499565b3480156104c657600080fd5b506104996101385481565b3480156104dd57600080fd5b5061049961271081565b3480156104f357600080fd5b50610512610502366004613888565b630a85bd0160e11b949350505050565b6040516001600160e01b03199091168152602001610457565b34801561053757600080fd5b5061049961012d5481565b34801561054e57600080fd5b50610499600081565b34801561056357600080fd5b506104996105723660046138f3565b600090815260fb602052604090206001015490565b34801561059357600080fd5b50610143546105a790610100900460ff1681565b6040516104579190613922565b3480156105c057600080fd5b506104996101305481565b3480156105d757600080fd5b506105eb6105e636600461393c565b610eb1565b005b3480156105f957600080fd5b506104996101335481565b34801561061057600080fd5b506105eb61061f36600461393c565b610edb565b34801561063057600080fd5b5061044b61063f36600461396c565b6001600160a01b031660009081526101456020526040902060080154640100000000900460ff1690565b34801561067557600080fd5b5061049961013f5481565b34801561068c57600080fd5b506105eb610f5e565b3480156106a157600080fd5b506105eb6106b03660046138f3565b61100c565b3480156106c157600080fd5b506104996101395481565b3480156106d857600080fd5b506104997f7613a25ecc738585a232ad50a301178f12b3ba8887d13e138b523c4269c4768981565b34801561070c57600080fd5b5061014354610100900460ff166105a7565b34801561072a57600080fd5b5061049961073936600461396c565b6110a9565b34801561074a57600080fd5b506105eb610759366004613989565b6110d7565b34801561076a57600080fd5b506104996101325481565b34801561078157600080fd5b506105eb610790366004613a16565b61118a565b3480156107a157600080fd5b5061013d546107b6906001600160a01b031681565b6040516001600160a01b039091168152602001610457565b3480156107da57600080fd5b506104996101315481565b3480156107f157600080fd5b50610475611c7b565b34801561080657600080fd5b50610143546108159060ff1681565b6040516104579190613ac3565b34801561082e57600080fd5b5061013e5461044b90600160a01b900460ff1681565b34801561085057600080fd5b5061049961048381565b34801561086657600080fd5b506105eb61087536600461396c565b611c89565b34801561088657600080fd5b5061049960008051602061449d83398151915281565b3480156108a857600080fd5b5061049961012e5481565b3480156108bf57600080fd5b506104996102d181565b3480156108d557600080fd5b506105eb6108e4366004613ad7565b611d20565b3480156108f557600080fd5b5061044b61090436600461393c565b612147565b34801561091557600080fd5b50610475612172565b34801561092a57600080fd5b5061013b546107b6906001600160a01b031681565b34801561094b57600080fd5b506104996101365481565b34801561096257600080fd5b506104996101375481565b34801561097957600080fd5b5061013e546107b6906001600160a01b031681565b34801561099a57600080fd5b506104996109a936600461396c565b6001600160a01b03166000908152610145602052604090206003015490565b3480156109d457600080fd5b50610499612180565b3480156109e957600080fd5b506107b66109f83660046138f3565b61219f565b348015610a0957600080fd5b506104996101355481565b348015610a2057600080fd5b506105eb6121ca565b348015610a3557600080fd5b506105eb61221a565b348015610a4a57600080fd5b506104996101345481565b6105eb610a63366004613b76565b612301565b348015610a7457600080fd5b50610a88610a8336600461396c565b612987565b6040516104579190613ba8565b348015610aa157600080fd5b50610499610ab036600461396c565b612a17565b348015610ac157600080fd5b50610512610ad0366004613c7c565b63bc197c8160e01b95945050505050565b348015610aed57600080fd5b50610499610afc36600461396c565b6001600160a01b03166000908152610145602052604090206002015490565b348015610b2757600080fd5b50610499610b36366004613d29565b612a45565b348015610b4757600080fd5b50610499610b563660046138f3565b612a67565b348015610b6757600080fd5b50610499612a89565b348015610b7c57600080fd5b5061049960008051602061447d83398151915281565b348015610b9e57600080fd5b506101435460ff16610815565b348015610bb757600080fd5b5061049961012f5481565b348015610bce57600080fd5b5061049961271181565b348015610be457600080fd5b506105eb610bf336600461393c565b612a9d565b348015610c0457600080fd5b50610499610c1336600461396c565b6001600160a01b03166000908152610145602052604090206004015490565b348015610c3e57600080fd5b50610c47612ac2565b6040516104579190613d4b565b348015610c6057600080fd5b506105eb610c6f366004613d8c565b612b91565b348015610c8057600080fd5b50610c94610c8f36600461396c565b612c5f565b6040516104579190613e60565b348015610cad57600080fd5b50610512610cbc366004613e73565b63f23a6e6160e01b95945050505050565b348015610cd957600080fd5b50610499610ce836600461396c565b612ccb565b348015610cf957600080fd5b506105eb610d083660046138f3565b612cf9565b348015610d1957600080fd5b50610d88610d2836600461396c565b610145602052600090815260409020600281015460038201546004830154600584015460068501546007860154600890960154949593949293919290919063ffffffff81169060ff64010000000082048116916501000000000090041689565b60408051998a5260208a0198909852968801959095526060870193909352608086019190915260a085015263ffffffff1660c0840152151560e0830152151561010082015261012001610457565b348015610de257600080fd5b5061013c546107b6906001600160a01b031681565b60006001600160e01b031982166392209dbf60e01b1480610e1c5750610e1c82612d8d565b92915050565b6101408054610e3090613edb565b80601f0160208091040260200160405190810160405280929190818152602001828054610e5c90613edb565b8015610ea95780601f10610e7e57610100808354040283529160200191610ea9565b820191906000526020600020905b815481529060010190602001808311610e8c57829003601f168201915b505050505081565b600082815260fb6020526040902060010154610ecc81612db2565b610ed68383612dbf565b505050565b6001600160a01b0381163314610f505760405162461bcd60e51b815260206004820152602f60248201527f416363657373436f6e74726f6c3a2063616e206f6e6c792072656e6f756e636560448201526e103937b632b9903337b91039b2b63360891b60648201526084015b60405180910390fd5b610f5a8282612e45565b5050565b60008051602061449d833981519152610f7681612db2565b600261014354610100900460ff166003811115610f9557610f9561390c565b148015610fb25750426101325461013a54610fb09190613f26565b115b15610fd05760405163aed6a6a960e01b815260040160405180910390fd5b610143805461ff0019166103001790556040517fec3efb8ac3d1f490aaeed77d96578dc66d299c77e9424182c3fce563949faa2d90600090a150565b60008051602061449d83398151915261102481612db2565b600161014354610100900460ff1660038111156110435761104361390c565b1461106157604051632120e73960e01b815260040160405180910390fd5b61012e80549083905560408051848152602081018390527fc103dffa33e864b3316844f917fb30d44487abcd1857d90e7ee8c7e8e4982c3191015b60405180910390a1505050565b6001600160a01b0381166000908152610145602052604081206005810154600290910154610e1c9190613f3e565b426101325461013a546110ea9190613f26565b111561110957604051636144e94160e11b815260040160405180910390fd5b8051602082012061013f5481146111335760405163123ffaaf60e01b815260040160405180910390fd5b815161114790610142906020850190613659565b50816040516111569190613f55565b604051908190038120907fe9d738d6b178e227cf51ac49fdfc543527aabf742394e0dae0b0583c802fcf0090600090a25050565b60008051602061449d8339815191526111a281612db2565b81156111c9576111b561014660006136dd565b6000610137819055610138556111c961221a565b600161014354610100900460ff1660038111156111e8576111e861390c565b1461120657604051632120e73960e01b815260040160405180910390fd5b61120e612180565b604087013561122260208901358935613f26565b61122c9190613f26565b111561124b5760405163bdd4d71760e01b815260040160405180910390fd5b831561128d5761128d858580806020026020016040519081016040528093929190818152602001838360200280828437600092019190915250612eac92505050565b60005b87811015611b9b5761014560008a8a848181106112af576112af613f71565b90506020028101906112c19190613f87565b6112cf90602081019061396c565b6001600160a01b03168152602081019190915260400160009081206112f3916136dd565b61014560008a8a8481811061130a5761130a613f71565b905060200281019061131c9190613f87565b61132a90602081019061396c565b6001600160a01b03166001600160a01b03168152602001908152602001600020600101600061135991906136fb565b60008080805b8c8c8681811061137157611371613f71565b90506020028101906113839190613f87565b611391906040810190613f9d565b90508110156116d8576127118d8d878181106113af576113af613f71565b90506020028101906113c19190613f87565b6113cf906040810190613f9d565b838181106113df576113df613f71565b905060200201351115611493578c8c868181106113fe576113fe613f71565b90506020028101906114109190613f87565b61141e90602081019061396c565b8d8d8781811061143057611430613f71565b90506020028101906114429190613f87565b611450906040810190613f9d565b8381811061146057611460613f71565b60405163518c7f8560e11b81526001600160a01b0390941660048501526020029190910135602483015250604401610f47565b60008d8d878181106114a7576114a7613f71565b90506020028101906114b99190613f87565b6114c7906040810190613f9d565b838181106114d7576114d7613f71565b9050602002013514156114f657816114ee81613fe6565b925050611596565b6127108d8d8781811061150b5761150b613f71565b905060200281019061151d9190613f87565b61152b906040810190613f9d565b8381811061153b5761153b613f71565b90506020020135141561157157610137805490600061155983613fe6565b9190505550838061156990613fe6565b945050611596565b610138805490600061158283613fe6565b9190505550828061159290613fe6565b9350505b61014560008e8e888181106115ad576115ad613f71565b90506020028101906115bf9190613f87565b6115cd90602081019061396c565b6001600160a01b0316815260208101919091526040016000208d8d878181106115f8576115f8613f71565b905060200281019061160a9190613f87565b611618906040810190613f9d565b8381811061162857611628613f71565b8354600181018555600094855260208086209202939093013592019190915550610145908e8e8881811061165e5761165e613f71565b90506020028101906116709190613f87565b61167e90602081019061396c565b6001600160a01b0316815260208082019290925260400160009081206001908101805491820181558252908290209181049091018054601f9092166101000a60ff02199091169055806116d081613fe6565b91505061135f565b506000816116e68486613f26565b6116f09190613f26565b905061012e5481111561171657604051632ace374360e21b815260040160405180910390fd5b838d8d8781811061172957611729613f71565b905060200281019061173b9190613f87565b60600135141561179f578361014560008f8f8981811061175d5761175d613f71565b905060200281019061176f9190613f87565b61177d90602081019061396c565b6001600160a01b031681526020810191909152604001600020600201556117eb565b8c8c868181106117b1576117b1613f71565b90506020028101906117c39190613f87565b60405163f80b197560e01b815260609190910135600482015260248101859052604401610f47565b828d8d878181106117fe576117fe613f71565b90506020028101906118109190613f87565b608001351415611874578261014560008f8f8981811061183257611832613f71565b90506020028101906118449190613f87565b61185290602081019061396c565b6001600160a01b031681526020810191909152604001600020600301556118c0565b8c8c8681811061188657611886613f71565b90506020028101906118989190613f87565b604051630ebcb73760e21b815260809190910135600482015260248101849052604401610f47565b818d8d878181106118d3576118d3613f71565b90506020028101906118e59190613f87565b60a001351415611949578161014560008f8f8981811061190757611907613f71565b90506020028101906119199190613f87565b61192790602081019061396c565b6001600160a01b03168152602081019190915260400160002060040155611995565b8c8c8681811061195b5761195b613f71565b905060200281019061196d9190613f87565b604051632157efe360e01b815260a09190910135600482015260248101839052604401610f47565b610146546119a4906001613f26565b8d8d878181106119b6576119b6613f71565b90506020028101906119c89190613f87565b6119d990604081019060200161401a565b63ffffffff16146119fd576040516379b86d0360e11b815260040160405180910390fd5b8c8c86818110611a0f57611a0f613f71565b9050602002810190611a219190613f87565b611a3290604081019060200161401a565b61014560008f8f89818110611a4957611a49613f71565b9050602002810190611a5b9190613f87565b611a6990602081019061396c565b6001600160a01b03166001600160a01b0316815260200190815260200160002060080160006101000a81548163ffffffff021916908363ffffffff160217905550600161014560008f8f89818110611ac357611ac3613f71565b9050602002810190611ad59190613f87565b611ae390602081019061396c565b6001600160a01b03168152602081019190915260400160002060080180549115156401000000000264ff00000000199092169190911790556101468d8d87818110611b3057611b30613f71565b9050602002810190611b429190613f87565b611b5090602081019061396c565b81546001810183556000928352602090922090910180546001600160a01b0319166001600160a01b0390921691909117905550839250611b939150829050613fe6565b915050611290565b506101375486351015611bd057610137546040516386bf399560e01b8152600481019190915286356024820152604401610f47565b6101385460208701351015611c0a5761013854604051630f29075560e31b8152600481019190915260208701356024820152604401610f47565b8535610134556020860135610135556040860135610136558215611c3057611c30612f26565b7f3fbd0e6036cf99eec9ffc75fd3d22eff10fa7d6c549048b45f5eafd2cb9a8ccf888885858989604051611c69969594939291906140a9565b60405180910390a15050505050505050565b6101428054610e3090613edb565b60008051602061447d833981519152611ca181612db2565b60405147906001600160a01b038416906108fc8315029083906000818181858888f19350505050158015611cd9573d6000803e3d6000fd5b50604080513381526001600160a01b03851660208201529081018290527f50630162af2fe1b3638257703351230fbe331ec0b7368aba0eb78f2dabd03c0c9060600161109c565b60008051602061449d833981519152611d3881612db2565b600061014354610100900460ff166003811115611d5757611d5761390c565b14611d7557604051630167f79d60e51b815260040160405180910390fd5b4261012f5461012d54611d889190613f26565b1115611da75760405163ee196b8d60e01b815260040160405180910390fd5b85356102d11415611eba57610143805460ff191690558251611dd190610141906020860190613659565b50611ddf602088018861396c565b6040516301ffc9a760e01b81526380ac58cd60e01b60048201526001600160a01b0391909116906301ffc9a79060240160206040518083038186803b158015611e2757600080fd5b505afa158015611e3b573d6000803e3d6000fd5b505050506040513d601f19601f82011682018060405250810190611e5f91906141de565b15611ea1578660005b602002016020810190611e7b919061396c565b61013d80546001600160a01b0319166001600160a01b0392909216919091179055611f9f565b604051639bcd3dd760e01b815260040160405180910390fd5b85356104831415611f8657610143805460ff19166001179055611ee0602088018861396c565b6040516301ffc9a760e01b8152636cdb3d1360e11b60048201526001600160a01b0391909116906301ffc9a79060240160206040518083038186803b158015611f2857600080fd5b505afa158015611f3c573d6000803e3d6000fd5b505050506040513d601f19601f82011682018060405250810190611f6091906141de565b15611f6d57866000611e68565b60405163793fb30360e11b815260040160405180910390fd5b6040516319a2d27b60e21b815260040160405180910390fd5b611faf604088016020890161396c565b61013e80546001600160a01b0319166001600160a01b0392909216919091179055611ff760008051602061447d833981519152611ff260408a0160208b0161396c565b612fbd565b61200f60008051602061447d83398151915233612fbd565b61203560008051602061447d83398151915260008051602061449d833981519152612fc7565b602086013561013255604086013561013155606086013584101561206c57604051632bfdeca360e11b815260040160405180910390fd5b606086013561013355610147541561208b5761208b61014760006136dd565b60005b848110156120df576101478686838181106120ab576120ab613f71565b83546001810185556000948552602094859020919094029290920135919092015550806120d781613fe6565b91505061208e565b5061013f82905561013e805460ff60a01b1916600160a01b1790556040517f144521d6b7a00ab709cf0a3b3f94d3c8ed8e8ae75c7485f805eb5526786b0715906121369089908990899089906101419089906141fb565b60405180910390a150505050505050565b600091825260fb602090815260408084206001600160a01b0393909316845291905290205460ff1690565b6101418054610e3090613edb565b600061218c6101445490565b6101335461219a9190613f3e565b905090565b61014681815481106121b057600080fd5b6000918252602090912001546001600160a01b0316905081565b60008051602061449d8339815191526121e281612db2565b610143805461ff00191690556040517f59de45fd4a94a0f965e3a4d9194ea5243e0e1575ee2437dc238b2acaa1884de190600090a150565b60008051602061449d83398151915261223281612db2565b61013e54600160a01b900460ff1661225d5760405163af33f4fd60e01b815260040160405180910390fd5b600261014354610100900460ff16600381111561227c5761227c61390c565b1480156122995750426101325461013a546122979190613f26565b115b80156122a757506101465415155b156122c55760405163aed6a6a960e01b815260040160405180910390fd5b610143805461ff0019166101001790556040517fc6b593b6d42393d9d99fae27598a8a34e8fa1d7342ac9734145340e0b52d0e4a90600090a150565b600080806060600161014354610100900460ff1660038111156123265761232661390c565b14156123835784612335612180565b101561235457604051638562e98560e01b815260040160405180910390fd5b610131546123629086614310565b935061236d84613012565b909350915061237c33866130e6565b9050612930565b600261014354610100900460ff1660038111156123a2576123a261390c565b141561290e57426101325461013a546123bb9190613f26565b10156123da5760405163c35e6fed60e01b815260040160405180910390fd5b6123e33361063f565b61240057604051630b094f2760e31b815260040160405180910390fd5b336000908152610145602090815260408083208151815493840281016101809081019093526101608101848152909391928492849184018282801561246457602002820191906000526020600020905b815481526020019060010190808311612450575b50505050508152602001600182018054806020026020016040519081016040528092919081815260200182805480156124dc57602002820191906000526020600020906000905b825461010083900a900460ff1615158152602060019283018181049485019490930390920291018084116124ab5790505b505050918352505060028201546020820152600382015460408201526004820154606082015260058201546080820152600682015460a0820152600782015460c082015260089091015463ffffffff811660e083015260ff64010000000082048116151561010084015265010000000000909104161515610120909101526101408101519091501561258157604051634b9129f160e01b815260040160405180910390fd5b8861258b336110a9565b10156125aa5760405163046eb92160e11b815260040160405180910390fd5b876125b433612a17565b10156125d35760405163a8366b0960e01b815260040160405180910390fd5b866125dd33612ccb565b10156125fc57604051635afd535b60e11b815260040160405180910390fd5b86612605612a89565b10156126245760405163fa4cb32360e01b815260040160405180910390fd5b6000876126318a8c613f26565b61263b9190613f26565b905080612646612180565b101561266557604051631996b5f960e21b815260040160405180910390fd5b61266f8989612a45565b955061267a86613012565b909550935089156126aa57898260a001516126959190613f26565b33600090815261014560205260409020600501555b88156126d557888260e001516126c09190613f26565b33600090815261014560205260409020600701555b871561270057878260c001516126eb9190613f26565b33600090815261014560205260409020600601555b60008080805b8551518110156128f7578d841115801561273e57506127108660000151828151811061273457612734613f71565b6020026020010151145b156127a65733600090815261014560205260409020600190810180548390811061276a5761276a613f71565b90600052602060002090602091828204019190066101000a81548160ff021916908315150217905550838061279e90613fe6565b9450506128e5565b8c83111580156127d45750612711866000015182815181106127ca576127ca613f71565b6020026020010151145b1561283c5733600090815261014560205260409020600190810180548390811061280057612800613f71565b90600052602060002090602091828204019190066101000a81548160ff021916908315150217905550828061283490613fe6565b9350506128e5565b8b8211158015612869575060008660000151828151811061285f5761285f613f71565b6020026020010151145b156128e55733600090815261014560205260409020600190810180548390811061289557612895613f71565b90600052602060002090602091828204019190066101000a81548160ff02191690831515021790555081806128c990613fe6565b610139805491945090915060006128df83613fe6565b91905055505b806128ef81613fe6565b915050612706565b5061290233856130e6565b95505050505050612930565b600361014354610100900460ff16600381111561292d5761292d61390c565b50505b336001600160a01b03167f52bb4130ed89c2c892e5fc190da1fa22ed6c9e7162029f2447338d518b24a78f85858b868c8c88604051612975979695949392919061432f565b60405180910390a25050505050505050565b6001600160a01b03811660009081526101456020908152604091829020600101805483518184028101840190945280845260609392830182828015612a0b57602002820191906000526020600020906000905b825461010083900a900460ff1615158152602060019283018181049485019490930390920291018084116129da5790505b50505050509050919050565b6001600160a01b0381166000908152610145602052604081206007810154600390910154610e1c9190613f3e565b61013154600090612a568385613f26565b612a609190614310565b9392505050565b6101478181548110612a7857600080fd5b600091825260209091200154905081565b6000610139546101365461219a9190613f3e565b600082815260fb6020526040902060010154612ab881612db2565b610ed68383612e45565b610146546060906000906001600160401b03811115612ae357612ae36137d3565b604051908082528060200260200182016040528015612b0c578160200160208202803683370190505b50905060005b61014654811015612b8b576101468181548110612b3157612b31613f71565b9060005260206000200160009054906101000a90046001600160a01b0316828281518110612b6157612b61613f71565b6001600160a01b039092166020928302919091019091015280612b8381613fe6565b915050612b12565b50919050565b60008051602061449d833981519152612ba981612db2565b60005b8251811015612c235760006101456000858481518110612bce57612bce613f71565b60200260200101516001600160a01b03166001600160a01b0316815260200190815260200160002060080160056101000a81548160ff0219169083151502179055508080612c1b90613fe6565b915050612bac565b507f3236a9533d81447296a4e6ad83f2e4402bdbdd6da9a4741ebef63d0e7b71923982604051612c539190613d4b565b60405180910390a15050565b6001600160a01b03811660009081526101456020908152604091829020805483518184028101840190945280845260609392830182828015612a0b57602002820191906000526020600020905b815481526020019060010190808311612cac5750505050509050919050565b6001600160a01b0381166000908152610145602052604081206006810154600490910154610e1c9190613f3e565b60008051602061449d833981519152612d1181612db2565b600161014354610100900460ff166003811115612d3057612d3061390c565b14612d4e57604051632120e73960e01b815260040160405180910390fd5b61013180549083905560408051848152602081018390527fcaab71b360bb6a7de7628be9bf4ed3c17aeb9e51a00cdb9c946bd71f0fc1fcb8910161109c565b60006001600160e01b03198216637965db0b60e01b1480610e1c5750610e1c8261340c565b612dbc8133613441565b50565b612dc98282612147565b610f5a57600082815260fb602090815260408083206001600160a01b03851684529091529020805460ff19166001179055612e013390565b6001600160a01b0316816001600160a01b0316837f2f8788117e7eff1d82e926ec794901d17c78024a50270940304540a733656f0d60405160405180910390a45050565b612e4f8282612147565b15610f5a57600082815260fb602090815260408083206001600160a01b0385168085529252808320805460ff1916905551339285917ff6391f5c32d9c69d2a47ea670b442974b53935d1edc7fd64eb21e047a839171b9190a45050565b60005b8151811015610f5a5760016101456000848481518110612ed157612ed1613f71565b60200260200101516001600160a01b03166001600160a01b0316815260200190815260200160002060080160056101000a81548160ff0219169083151502179055508080612f1e90613fe6565b915050612eaf565b60008051602061449d833981519152612f3e81612db2565b600261014354610100900460ff166003811115612f5d57612f5d61390c565b1415612f7c576040516352137e3560e01b815260040160405180910390fd5b4261013a55610143805461ff0019166102001790556040517f08fe4c227f2b6201ef98f1d240a8a3e0966b3846d06cf8df5df396f94be9b58990600090a150565b610f5a8282612dbf565b600082815260fb6020526040808220600101805490849055905190918391839186917fbd79b86ffe0ab8e8776151514217cd7cacd52c909f66475c3af44e129f0b00ff9190a4505050565b6000803483111561303f576040516307c83fcf60e41b815234600482015260248101849052604401610f47565b82341161304d576000613057565b6130578334613f3e565b915061306f61013054846134a590919063ffffffff16565b61013c546040519192506001600160a01b03169082156108fc029083906000818181858888f193505050501580156130ab573d6000803e3d6000fd5b5081156130e157604051339083156108fc029084906000818181858888f193505050501580156130df573d6000803e3d6000fd5b505b915091565b6060600080836001600160401b03811115613103576131036137d3565b60405190808252806020026020018201604052801561312c578160200160208202803683370190505b50905060006101435460ff1660018111156131495761314961390c565b14156132385760005b84811015613232576101476131676101445490565b8154811061317757613177613f71565b906000526020600020015492508282828151811061319757613197613f71565b6020026020010181815250506131b261014480546001019055565b61013d54604051632142170760e11b81523060048201526001600160a01b03888116602483015260448201869052909116906342842e0e90606401600060405180830381600087803b15801561320757600080fd5b505af115801561321b573d6000803e3d6000fd5b50505050808061322a90613fe6565b915050613152565b50613404565b60016101435460ff1660018111156132525761325261390c565b1415613404576000846001600160401b03811115613272576132726137d3565b60405190808252806020026020018201604052801561329b578160200160208202803683370190505b5090506000856001600160401b038111156132b8576132b86137d3565b6040519080825280602002602001820160405280156132e1578160200160208202803683370190505b50905060005b86811015613397576101476132fc6101445490565b8154811061330c5761330c613f71565b906000526020600020015494508484828151811061332c5761332c613f71565b60200260200101818152505061334761014480546001019055565b8483828151811061335a5761335a613f71565b602002602001018181525050600182828151811061337a5761337a613f71565b60209081029190910101528061338f81613fe6565b9150506132e7565b5061013d54604051631759616b60e11b81526001600160a01b0390911690632eb2c2d6906133cf9030908b9087908790600401614373565b600060405180830381600087803b1580156133e957600080fd5b505af11580156133fd573d6000803e3d6000fd5b5050505050505b949350505050565b60006001600160e01b03198216630271189760e51b1480610e1c57506301ffc9a760e01b6001600160e01b0319831614610e1c565b61344b8282612147565b610f5a57613463816001600160a01b031660146134be565b61346e8360206134be565b60405160200161347f9291906143ce565b60408051601f198184030181529082905262461bcd60e51b8252610f479160040161378b565b60006127106134b48385614310565b612a609190614443565b606060006134cd836002614310565b6134d8906002613f26565b6001600160401b038111156134ef576134ef6137d3565b6040519080825280601f01601f191660200182016040528015613519576020820181803683370190505b509050600360fc1b8160008151811061353457613534613f71565b60200101906001600160f81b031916908160001a905350600f60fb1b8160018151811061356357613563613f71565b60200101906001600160f81b031916908160001a9053506000613587846002614310565b613592906001613f26565b90505b600181111561360a576f181899199a1a9b1b9c1cb0b131b232b360811b85600f16601081106135c6576135c6613f71565b1a60f81b8282815181106135dc576135dc613f71565b60200101906001600160f81b031916908160001a90535060049490941c9361360381614465565b9050613595565b508315612a605760405162461bcd60e51b815260206004820181905260248201527f537472696e67733a20686578206c656e67746820696e73756666696369656e746044820152606401610f47565b82805461366590613edb565b90600052602060002090601f01602090048101928261368757600085556136cd565b82601f106136a057805160ff19168380011785556136cd565b828001600101855582156136cd579182015b828111156136cd5782518255916020019190600101906136b2565b506136d992915061371c565b5090565b5080546000825590600052602060002090810190612dbc919061371c565b50805460008255601f016020900490600052602060002090810190612dbc91905b5b808211156136d9576000815560010161371d565b60006020828403121561374357600080fd5b81356001600160e01b031981168114612a6057600080fd5b60005b8381101561377657818101518382015260200161375e565b83811115613785576000848401525b50505050565b60208152600082518060208401526137aa81604085016020870161375b565b601f01601f19169190910160400192915050565b6001600160a01b0381168114612dbc57600080fd5b634e487b7160e01b600052604160045260246000fd5b604051601f8201601f191681016001600160401b0381118282101715613811576138116137d3565b604052919050565b600082601f83011261382a57600080fd5b81356001600160401b03811115613843576138436137d3565b613856601f8201601f19166020016137e9565b81815284602083860101111561386b57600080fd5b816020850160208301376000918101602001919091529392505050565b6000806000806080858703121561389e57600080fd5b84356138a9816137be565b935060208501356138b9816137be565b92506040850135915060608501356001600160401b038111156138db57600080fd5b6138e787828801613819565b91505092959194509250565b60006020828403121561390557600080fd5b5035919050565b634e487b7160e01b600052602160045260246000fd5b60208101600483106139365761393661390c565b91905290565b6000806040838503121561394f57600080fd5b823591506020830135613961816137be565b809150509250929050565b60006020828403121561397e57600080fd5b8135612a60816137be565b60006020828403121561399b57600080fd5b81356001600160401b038111156139b157600080fd5b61340484828501613819565b60008083601f8401126139cf57600080fd5b5081356001600160401b038111156139e657600080fd5b6020830191508360208260051b8501011115613a0157600080fd5b9250929050565b8015158114612dbc57600080fd5b600080600080600080600060e0888a031215613a3157600080fd5b87356001600160401b0380821115613a4857600080fd5b613a548b838c016139bd565b909950975060808a0191508a821115613a6c57600080fd5b60208a01965090359080821115613a8257600080fd5b50613a8f8a828b016139bd565b90955093505060a0880135613aa381613a08565b915060c0880135613ab381613a08565b8091505092959891949750929550565b60208101600283106139365761393661390c565b6000806000806000806101208789031215613af157600080fd5b6040870188811115613b0257600080fd5b87965060c0880189811115613b1657600080fd5b909550356001600160401b0380821115613b2f57600080fd5b613b3b8a838b016139bd565b909650945060e0890135915080821115613b5457600080fd5b50613b6189828a01613819565b92505061010087013590509295509295509295565b60008060008060808587031215613b8c57600080fd5b5050823594602084013594506040840135936060013592509050565b6020808252825182820181905260009190848201906040850190845b81811015613be2578351151583529284019291840191600101613bc4565b50909695505050505050565b60006001600160401b03821115613c0757613c076137d3565b5060051b60200190565b600082601f830112613c2257600080fd5b81356020613c37613c3283613bee565b6137e9565b82815260059290921b84018101918181019086841115613c5657600080fd5b8286015b84811015613c715780358352918301918301613c5a565b509695505050505050565b600080600080600060a08688031215613c9457600080fd5b8535613c9f816137be565b94506020860135613caf816137be565b935060408601356001600160401b0380821115613ccb57600080fd5b613cd789838a01613c11565b94506060880135915080821115613ced57600080fd5b613cf989838a01613c11565b93506080880135915080821115613d0f57600080fd5b50613d1c88828901613819565b9150509295509295909350565b60008060408385031215613d3c57600080fd5b50508035926020909101359150565b6020808252825182820181905260009190848201906040850190845b81811015613be25783516001600160a01b031683529284019291840191600101613d67565b60006020808385031215613d9f57600080fd5b82356001600160401b03811115613db557600080fd5b8301601f81018513613dc657600080fd5b8035613dd4613c3282613bee565b81815260059190911b82018301908381019087831115613df357600080fd5b928401925b82841015613e1a578335613e0b816137be565b82529284019290840190613df8565b979650505050505050565b600081518084526020808501945080840160005b83811015613e5557815187529582019590820190600101613e39565b509495945050505050565b602081526000612a606020830184613e25565b600080600080600060a08688031215613e8b57600080fd5b8535613e96816137be565b94506020860135613ea6816137be565b9350604086013592506060860135915060808601356001600160401b03811115613ecf57600080fd5b613d1c88828901613819565b600181811c90821680613eef57607f821691505b60208210811415612b8b57634e487b7160e01b600052602260045260246000fd5b634e487b7160e01b600052601160045260246000fd5b60008219821115613f3957613f39613f10565b500190565b600082821015613f5057613f50613f10565b500390565b60008251613f6781846020870161375b565b9190910192915050565b634e487b7160e01b600052603260045260246000fd5b6000823560be19833603018112613f6757600080fd5b6000808335601e19843603018112613fb457600080fd5b8301803591506001600160401b03821115613fce57600080fd5b6020019150600581901b3603821315613a0157600080fd5b6000600019821415613ffa57613ffa613f10565b5060010190565b803563ffffffff8116811461401557600080fd5b919050565b60006020828403121561402c57600080fd5b612a6082614001565b81835260006001600160fb1b0383111561404e57600080fd5b8260051b8083602087013760009401602001938452509192915050565b8183526000602080850194508260005b85811015613e5557813561408e816137be565b6001600160a01b03168752958201959082019060010161407b565b608080825281810187905260009060a080840160058a901b850182018b855b8c8110156141a957878303609f190184528135368f900360be190181126140ee57600080fd5b8e0160c081356140fd816137be565b6001600160a01b03168552602063ffffffff61411a848301614001565b1681870152604080840135601e1985360301811261413757600080fd5b840180356001600160401b0381111561414f57600080fd5b8060051b360386131561416157600080fd5b84838a0152614175858a0182868501614035565b606087810135908b01528c8701358d8b0152958b0135988b01989098525050958601959194505091909101906001016140c8565b50508915156020870152881515604087015285810360608701526141ce81888a61406b565b9c9b505050505050505050505050565b6000602082840312156141f057600080fd5b8151612a6081613a08565b60006101208289835b6002811015614236578135614218816137be565b6001600160a01b031683526020928301929190910190600101614204565b505050608088604085013760c083018190526142558184018789614035565b905082810360e08401526000855481600182811c91508083168061427a57607f831692505b602080841082141561429a57634e487b7160e01b86526022600452602486fd5b8387526020870196508180156142b757600181146142c8576142f3565b60ff198616885281880196506142f3565b60008c81526020902060005b868110156142ed5781548a8201529085019083016142d4565b89019750505b505050505050809250505082610100830152979650505050505050565b600081600019048311821515161561432a5761432a613f10565b500290565b8781528660208201528560408201528460608201528360808201528260a082015260e060c0820152600061436660e0830184613e25565b9998505050505050505050565b6001600160a01b0385811682528416602082015260a06040820181905260009061439f90830185613e25565b82810360608401526143b18185613e25565b838103608090940193909352505060008152602001949350505050565b7f416363657373436f6e74726f6c3a206163636f756e742000000000000000000081526000835161440681601785016020880161375b565b7001034b99036b4b9b9b4b733903937b6329607d1b601791840191820152835161443781602884016020880161375b565b01602801949350505050565b60008261446057634e487b7160e01b600052601260045260246000fd5b500490565b60008161447457614474613f10565b50600019019056fee926d122b799dcbe5c2eccdf60ae0aefbb1a4bc75a7848bb07befecf8c775f5ca49807205ce4d355092ef5a8a18f56e8913cf4a201fbe287825b095693c21775a2646970667358221220252635481fcd22cde9744f0d834c19bc974950c5a7c8be51ed7fe212df77485964736f6c63430008090033",
	"linkReferences": {},
	"deployedLinkReferences": {},
	"devdoc": {
		"kind": "dev",
		"methods": {
			"getRoleAdmin(bytes32)": {
				"details": "Returns the admin role that controls `role`. See {grantRole} and {revokeRole}. To change a role's admin, use {_setRoleAdmin}."
			},
			"grantRole(bytes32,address)": {
				"details": "Grants `role` to `account`. If `account` had not been already granted `role`, emits a {RoleGranted} event. Requirements: - the caller must have ``role``'s admin role."
			},
			"hasRole(bytes32,address)": {
				"details": "Returns `true` if `account` has been granted `role`."
			},
			"onERC721Received(address,address,uint256,bytes)": {
				"details": "See {IERC721Receiver-onERC721Received}. Always returns `IERC721Receiver.onERC721Received.selector`."
			},
			"renounceRole(bytes32,address)": {
				"details": "Revokes `role` from the calling account. Roles are often managed via {grantRole} and {revokeRole}: this function's purpose is to provide a mechanism for accounts to lose their privileges if they are compromised (such as when a trusted device is misplaced). If the calling account had been revoked `role`, emits a {RoleRevoked} event. Requirements: - the caller must be `account`."
			},
			"revokeRole(bytes32,address)": {
				"details": "Revokes `role` from `account`. If `account` had been granted `role`, emits a {RoleRevoked} event. Requirements: - the caller must have ``role``'s admin role."
			},
			"setBaseURI(string)": {
				"details": "it may not provide any value when the uri has been set in the collection before"
			}
		},
		"version": 1
	},
	"evm": {
		"bytecode": {
			"linkReferences": {},
			"opcodes": "PUSH1 0x80 PUSH1 0x40 MSTORE CALLVALUE DUP1 ISZERO PUSH2 0x10 JUMPI PUSH1 0x0 DUP1 REVERT JUMPDEST POP PUSH2 0x44F2 DUP1 PUSH2 0x20 PUSH1 0x0 CODECOPY PUSH1 0x0 RETURN INVALID PUSH1 0x80 PUSH1 0x40 MSTORE PUSH1 0x4 CALLDATASIZE LT PUSH2 0x426 JUMPI PUSH1 0x0 CALLDATALOAD PUSH1 0xE0 SHR DUP1 PUSH4 0x7CD6DFB0 GT PUSH2 0x229 JUMPI DUP1 PUSH4 0xBC197C81 GT PUSH2 0x12E JUMPI DUP1 PUSH4 0xD547741F GT PUSH2 0xB6 JUMPI DUP1 PUSH4 0xF23A6E61 GT PUSH2 0x7A JUMPI DUP1 PUSH4 0xF23A6E61 EQ PUSH2 0xCA1 JUMPI DUP1 PUSH4 0xF32506B1 EQ PUSH2 0xCCD JUMPI DUP1 PUSH4 0xF4A0A528 EQ PUSH2 0xCED JUMPI DUP1 PUSH4 0xF621CC48 EQ PUSH2 0xD0D JUMPI DUP1 PUSH4 0xF8BE73DD EQ PUSH2 0xDD6 JUMPI PUSH1 0x0 DUP1 REVERT JUMPDEST DUP1 PUSH4 0xD547741F EQ PUSH2 0xBD8 JUMPI DUP1 PUSH4 0xDEF9888D EQ PUSH2 0xBF8 JUMPI DUP1 PUSH4 0xDF15C37E EQ PUSH2 0xC32 JUMPI DUP1 PUSH4 0xE46BE16C EQ PUSH2 0xC54 JUMPI DUP1 PUSH4 0xEABBB704 EQ PUSH2 0xC74 JUMPI PUSH1 0x0 DUP1 REVERT JUMPDEST DUP1 PUSH4 0xC99E9BF7 GT PUSH2 0xFD JUMPI DUP1 PUSH4 0xC99E9BF7 EQ PUSH2 0xB5B JUMPI DUP1 PUSH4 0xCAFF99CE EQ PUSH2 0xB70 JUMPI DUP1 PUSH4 0xCC3E7516 EQ PUSH2 0xB92 JUMPI DUP1 PUSH4 0xCCBB6299 EQ PUSH2 0xBAB JUMPI DUP1 PUSH4 0xD182CF4D EQ PUSH2 0xBC2 JUMPI PUSH1 0x0 DUP1 REVERT JUMPDEST DUP1 PUSH4 0xBC197C81 EQ PUSH2 0xAB5 JUMPI DUP1 PUSH4 0xBFBED67C EQ PUSH2 0xAE1 JUMPI DUP1 PUSH4 0xC3DD93D6 EQ PUSH2 0xB1B JUMPI DUP1 PUSH4 0xC6C9BD47 EQ PUSH2 0xB3B JUMPI PUSH1 0x0 DUP1 REVERT JUMPDEST DUP1 PUSH4 0xA217FDDF GT PUSH2 0x1B1 JUMPI DUP1 PUSH4 0xABF792BE GT PUSH2 0x180 JUMPI DUP1 PUSH4 0xABF792BE EQ PUSH2 0xA29 JUMPI DUP1 PUSH4 0xB0FE6414 EQ PUSH2 0xA3E JUMPI DUP1 PUSH4 0xB5ADD717 EQ PUSH2 0xA55 JUMPI DUP1 PUSH4 0xB8662A3E EQ PUSH2 0xA68 JUMPI DUP1 PUSH4 0xBB8DF282 EQ PUSH2 0xA95 JUMPI PUSH1 0x0 DUP1 REVERT JUMPDEST DUP1 PUSH4 0xA217FDDF EQ PUSH2 0x542 JUMPI DUP1 PUSH4 0xA2FB1175 EQ PUSH2 0x9DD JUMPI DUP1 PUSH4 0xA870A5B2 EQ PUSH2 0x9FD JUMPI DUP1 PUSH4 0xA87D2C89 EQ PUSH2 0xA14 JUMPI PUSH1 0x0 DUP1 REVERT JUMPDEST DUP1 PUSH4 0x9711D7E5 GT PUSH2 0x1F8 JUMPI DUP1 PUSH4 0x9711D7E5 EQ PUSH2 0x93F JUMPI DUP1 PUSH4 0x98EEE484 EQ PUSH2 0x956 JUMPI DUP1 PUSH4 0x9B7D707D EQ PUSH2 0x96D JUMPI DUP1 PUSH4 0xA188F9BD EQ PUSH2 0x98E JUMPI DUP1 PUSH4 0xA1C9F0A5 EQ PUSH2 0x9C8 JUMPI PUSH1 0x0 DUP1 REVERT JUMPDEST DUP1 PUSH4 0x7CD6DFB0 EQ PUSH2 0x8C9 JUMPI DUP1 PUSH4 0x91D14854 EQ PUSH2 0x8E9 JUMPI DUP1 PUSH4 0x95D89B41 EQ PUSH2 0x909 JUMPI DUP1 PUSH4 0x95F148F7 EQ PUSH2 0x91E JUMPI PUSH1 0x0 DUP1 REVERT JUMPDEST DUP1 PUSH4 0x4070A0C9 GT PUSH2 0x32F JUMPI DUP1 PUSH4 0x6817C76C GT PUSH2 0x2B7 JUMPI DUP1 PUSH4 0x73EE4508 GT PUSH2 0x286 JUMPI DUP1 PUSH4 0x73EE4508 EQ PUSH2 0x844 JUMPI DUP1 PUSH4 0x756AF45F EQ PUSH2 0x85A JUMPI DUP1 PUSH4 0x75B238FC EQ PUSH2 0x87A JUMPI DUP1 PUSH4 0x76C71CA1 EQ PUSH2 0x89C JUMPI DUP1 PUSH4 0x77A714AE EQ PUSH2 0x8B3 JUMPI PUSH1 0x0 DUP1 REVERT JUMPDEST DUP1 PUSH4 0x6817C76C EQ PUSH2 0x7CE JUMPI DUP1 PUSH4 0x6C0360EB EQ PUSH2 0x7E5 JUMPI DUP1 PUSH4 0x6FAC889B EQ PUSH2 0x7FA JUMPI DUP1 PUSH4 0x707109B4 EQ PUSH2 0x822 JUMPI PUSH1 0x0 DUP1 REVERT JUMPDEST DUP1 PUSH4 0x4ECB3CB6 GT PUSH2 0x2FE JUMPI DUP1 PUSH4 0x4ECB3CB6 EQ PUSH2 0x71E JUMPI DUP1 PUSH4 0x55F804B3 EQ PUSH2 0x73E JUMPI DUP1 PUSH4 0x5813FD3D EQ PUSH2 0x75E JUMPI DUP1 PUSH4 0x59B3F435 EQ PUSH2 0x775 JUMPI DUP1 PUSH4 0x6588103B EQ PUSH2 0x795 JUMPI PUSH1 0x0 DUP1 REVERT JUMPDEST DUP1 PUSH4 0x4070A0C9 EQ PUSH2 0x695 JUMPI DUP1 PUSH4 0x4264F40D EQ PUSH2 0x6B5 JUMPI DUP1 PUSH4 0x4460BDD6 EQ PUSH2 0x6CC JUMPI DUP1 PUSH4 0x4B4FD03B EQ PUSH2 0x700 JUMPI PUSH1 0x0 DUP1 REVERT JUMPDEST DUP1 PUSH4 0x248A9CA3 GT PUSH2 0x3B2 JUMPI DUP1 PUSH4 0x32C60EEF GT PUSH2 0x381 JUMPI DUP1 PUSH4 0x32C60EEF EQ PUSH2 0x5ED JUMPI DUP1 PUSH4 0x36568ABE EQ PUSH2 0x604 JUMPI DUP1 PUSH4 0x3AF32ABF EQ PUSH2 0x624 JUMPI DUP1 PUSH4 0x3D779F32 EQ PUSH2 0x669 JUMPI DUP1 PUSH4 0x3E21D200 EQ PUSH2 0x680 JUMPI PUSH1 0x0 DUP1 REVERT JUMPDEST DUP1 PUSH4 0x248A9CA3 EQ PUSH2 0x557 JUMPI DUP1 PUSH4 0x295A5212 EQ PUSH2 0x587 JUMPI DUP1 PUSH4 0x2E4DB810 EQ PUSH2 0x5B4 JUMPI DUP1 PUSH4 0x2F2FF15D EQ PUSH2 0x5CB JUMPI PUSH1 0x0 DUP1 REVERT JUMPDEST DUP1 PUSH4 0x12F09746 GT PUSH2 0x3F9 JUMPI DUP1 PUSH4 0x12F09746 EQ PUSH2 0x4BA JUMPI DUP1 PUSH4 0x13AD88CA EQ PUSH2 0x4D1 JUMPI DUP1 PUSH4 0x150B7A02 EQ PUSH2 0x4E7 JUMPI DUP1 PUSH4 0x1649C6CE EQ PUSH2 0x52B JUMPI DUP1 PUSH4 0x1AE13C23 EQ PUSH2 0x542 JUMPI PUSH1 0x0 DUP1 REVERT JUMPDEST DUP1 PUSH4 0x1FFC9A7 EQ PUSH2 0x42B JUMPI DUP1 PUSH4 0x6FDDE03 EQ PUSH2 0x460 JUMPI DUP1 PUSH4 0xC26ABC3 EQ PUSH2 0x482 JUMPI DUP1 PUSH4 0x12065FE0 EQ PUSH2 0x4A7 JUMPI JUMPDEST PUSH1 0x0 DUP1 REVERT JUMPDEST CALLVALUE DUP1 ISZERO PUSH2 0x437 JUMPI PUSH1 0x0 DUP1 REVERT JUMPDEST POP PUSH2 0x44B PUSH2 0x446 CALLDATASIZE PUSH1 0x4 PUSH2 0x3731 JUMP JUMPDEST PUSH2 0xDF7 JUMP JUMPDEST PUSH1 0x40 MLOAD SWAP1 ISZERO ISZERO DUP2 MSTORE PUSH1 0x20 ADD JUMPDEST PUSH1 0x40 MLOAD DUP1 SWAP2 SUB SWAP1 RETURN JUMPDEST CALLVALUE DUP1 ISZERO PUSH2 0x46C JUMPI PUSH1 0x0 DUP1 REVERT JUMPDEST POP PUSH2 0x475 PUSH2 0xE22 JUMP JUMPDEST PUSH1 0x40 MLOAD PUSH2 0x457 SWAP2 SWAP1 PUSH2 0x378B JUMP JUMPDEST CALLVALUE DUP1 ISZERO PUSH2 0x48E JUMPI PUSH1 0x0 DUP1 REVERT JUMPDEST POP PUSH2 0x499 PUSH2 0x13A SLOAD DUP2 JUMP JUMPDEST PUSH1 0x40 MLOAD SWAP1 DUP2 MSTORE PUSH1 0x20 ADD PUSH2 0x457 JUMP JUMPDEST CALLVALUE DUP1 ISZERO PUSH2 0x4B3 JUMPI PUSH1 0x0 DUP1 REVERT JUMPDEST POP SELFBALANCE PUSH2 0x499 JUMP JUMPDEST CALLVALUE DUP1 ISZERO PUSH2 0x4C6 JUMPI PUSH1 0x0 DUP1 REVERT JUMPDEST POP PUSH2 0x499 PUSH2 0x138 SLOAD DUP2 JUMP JUMPDEST CALLVALUE DUP1 ISZERO PUSH2 0x4DD JUMPI PUSH1 0x0 DUP1 REVERT JUMPDEST POP PUSH2 0x499 PUSH2 0x2710 DUP2 JUMP JUMPDEST CALLVALUE DUP1 ISZERO PUSH2 0x4F3 JUMPI PUSH1 0x0 DUP1 REVERT JUMPDEST POP PUSH2 0x512 PUSH2 0x502 CALLDATASIZE PUSH1 0x4 PUSH2 0x3888 JUMP JUMPDEST PUSH4 0xA85BD01 PUSH1 0xE1 SHL SWAP5 SWAP4 POP POP POP POP JUMP JUMPDEST PUSH1 0x40 MLOAD PUSH1 0x1 PUSH1 0x1 PUSH1 0xE0 SHL SUB NOT SWAP1 SWAP2 AND DUP2 MSTORE PUSH1 0x20 ADD PUSH2 0x457 JUMP JUMPDEST CALLVALUE DUP1 ISZERO PUSH2 0x537 JUMPI PUSH1 0x0 DUP1 REVERT JUMPDEST POP PUSH2 0x499 PUSH2 0x12D SLOAD DUP2 JUMP JUMPDEST CALLVALUE DUP1 ISZERO PUSH2 0x54E JUMPI PUSH1 0x0 DUP1 REVERT JUMPDEST POP PUSH2 0x499 PUSH1 0x0 DUP2 JUMP JUMPDEST CALLVALUE DUP1 ISZERO PUSH2 0x563 JUMPI PUSH1 0x0 DUP1 REVERT JUMPDEST POP PUSH2 0x499 PUSH2 0x572 CALLDATASIZE PUSH1 0x4 PUSH2 0x38F3 JUMP JUMPDEST PUSH1 0x0 SWAP1 DUP2 MSTORE PUSH1 0xFB PUSH1 0x20 MSTORE PUSH1 0x40 SWAP1 KECCAK256 PUSH1 0x1 ADD SLOAD SWAP1 JUMP JUMPDEST CALLVALUE DUP1 ISZERO PUSH2 0x593 JUMPI PUSH1 0x0 DUP1 REVERT JUMPDEST POP PUSH2 0x143 SLOAD PUSH2 0x5A7 SWAP1 PUSH2 0x100 SWAP1 DIV PUSH1 0xFF AND DUP2 JUMP JUMPDEST PUSH1 0x40 MLOAD PUSH2 0x457 SWAP2 SWAP1 PUSH2 0x3922 JUMP JUMPDEST CALLVALUE DUP1 ISZERO PUSH2 0x5C0 JUMPI PUSH1 0x0 DUP1 REVERT JUMPDEST POP PUSH2 0x499 PUSH2 0x130 SLOAD DUP2 JUMP JUMPDEST CALLVALUE DUP1 ISZERO PUSH2 0x5D7 JUMPI PUSH1 0x0 DUP1 REVERT JUMPDEST POP PUSH2 0x5EB PUSH2 0x5E6 CALLDATASIZE PUSH1 0x4 PUSH2 0x393C JUMP JUMPDEST PUSH2 0xEB1 JUMP JUMPDEST STOP JUMPDEST CALLVALUE DUP1 ISZERO PUSH2 0x5F9 JUMPI PUSH1 0x0 DUP1 REVERT JUMPDEST POP PUSH2 0x499 PUSH2 0x133 SLOAD DUP2 JUMP JUMPDEST CALLVALUE DUP1 ISZERO PUSH2 0x610 JUMPI PUSH1 0x0 DUP1 REVERT JUMPDEST POP PUSH2 0x5EB PUSH2 0x61F CALLDATASIZE PUSH1 0x4 PUSH2 0x393C JUMP JUMPDEST PUSH2 0xEDB JUMP JUMPDEST CALLVALUE DUP1 ISZERO PUSH2 0x630 JUMPI PUSH1 0x0 DUP1 REVERT JUMPDEST POP PUSH2 0x44B PUSH2 0x63F CALLDATASIZE PUSH1 0x4 PUSH2 0x396C JUMP JUMPDEST PUSH1 0x1 PUSH1 0x1 PUSH1 0xA0 SHL SUB AND PUSH1 0x0 SWAP1 DUP2 MSTORE PUSH2 0x145 PUSH1 0x20 MSTORE PUSH1 0x40 SWAP1 KECCAK256 PUSH1 0x8 ADD SLOAD PUSH5 0x100000000 SWAP1 DIV PUSH1 0xFF AND SWAP1 JUMP JUMPDEST CALLVALUE DUP1 ISZERO PUSH2 0x675 JUMPI PUSH1 0x0 DUP1 REVERT JUMPDEST POP PUSH2 0x499 PUSH2 0x13F SLOAD DUP2 JUMP JUMPDEST CALLVALUE DUP1 ISZERO PUSH2 0x68C JUMPI PUSH1 0x0 DUP1 REVERT JUMPDEST POP PUSH2 0x5EB PUSH2 0xF5E JUMP JUMPDEST CALLVALUE DUP1 ISZERO PUSH2 0x6A1 JUMPI PUSH1 0x0 DUP1 REVERT JUMPDEST POP PUSH2 0x5EB PUSH2 0x6B0 CALLDATASIZE PUSH1 0x4 PUSH2 0x38F3 JUMP JUMPDEST PUSH2 0x100C JUMP JUMPDEST CALLVALUE DUP1 ISZERO PUSH2 0x6C1 JUMPI PUSH1 0x0 DUP1 REVERT JUMPDEST POP PUSH2 0x499 PUSH2 0x139 SLOAD DUP2 JUMP JUMPDEST CALLVALUE DUP1 ISZERO PUSH2 0x6D8 JUMPI PUSH1 0x0 DUP1 REVERT JUMPDEST POP PUSH2 0x499 PUSH32 0x7613A25ECC738585A232AD50A301178F12B3BA8887D13E138B523C4269C47689 DUP2 JUMP JUMPDEST CALLVALUE DUP1 ISZERO PUSH2 0x70C JUMPI PUSH1 0x0 DUP1 REVERT JUMPDEST POP PUSH2 0x143 SLOAD PUSH2 0x100 SWAP1 DIV PUSH1 0xFF AND PUSH2 0x5A7 JUMP JUMPDEST CALLVALUE DUP1 ISZERO PUSH2 0x72A JUMPI PUSH1 0x0 DUP1 REVERT JUMPDEST POP PUSH2 0x499 PUSH2 0x739 CALLDATASIZE PUSH1 0x4 PUSH2 0x396C JUMP JUMPDEST PUSH2 0x10A9 JUMP JUMPDEST CALLVALUE DUP1 ISZERO PUSH2 0x74A JUMPI PUSH1 0x0 DUP1 REVERT JUMPDEST POP PUSH2 0x5EB PUSH2 0x759 CALLDATASIZE PUSH1 0x4 PUSH2 0x3989 JUMP JUMPDEST PUSH2 0x10D7 JUMP JUMPDEST CALLVALUE DUP1 ISZERO PUSH2 0x76A JUMPI PUSH1 0x0 DUP1 REVERT JUMPDEST POP PUSH2 0x499 PUSH2 0x132 SLOAD DUP2 JUMP JUMPDEST CALLVALUE DUP1 ISZERO PUSH2 0x781 JUMPI PUSH1 0x0 DUP1 REVERT JUMPDEST POP PUSH2 0x5EB PUSH2 0x790 CALLDATASIZE PUSH1 0x4 PUSH2 0x3A16 JUMP JUMPDEST PUSH2 0x118A JUMP JUMPDEST CALLVALUE DUP1 ISZERO PUSH2 0x7A1 JUMPI PUSH1 0x0 DUP1 REVERT JUMPDEST POP PUSH2 0x13D SLOAD PUSH2 0x7B6 SWAP1 PUSH1 0x1 PUSH1 0x1 PUSH1 0xA0 SHL SUB AND DUP2 JUMP JUMPDEST PUSH1 0x40 MLOAD PUSH1 0x1 PUSH1 0x1 PUSH1 0xA0 SHL SUB SWAP1 SWAP2 AND DUP2 MSTORE PUSH1 0x20 ADD PUSH2 0x457 JUMP JUMPDEST CALLVALUE DUP1 ISZERO PUSH2 0x7DA JUMPI PUSH1 0x0 DUP1 REVERT JUMPDEST POP PUSH2 0x499 PUSH2 0x131 SLOAD DUP2 JUMP JUMPDEST CALLVALUE DUP1 ISZERO PUSH2 0x7F1 JUMPI PUSH1 0x0 DUP1 REVERT JUMPDEST POP PUSH2 0x475 PUSH2 0x1C7B JUMP JUMPDEST CALLVALUE DUP1 ISZERO PUSH2 0x806 JUMPI PUSH1 0x0 DUP1 REVERT JUMPDEST POP PUSH2 0x143 SLOAD PUSH2 0x815 SWAP1 PUSH1 0xFF AND DUP2 JUMP JUMPDEST PUSH1 0x40 MLOAD PUSH2 0x457 SWAP2 SWAP1 PUSH2 0x3AC3 JUMP JUMPDEST CALLVALUE DUP1 ISZERO PUSH2 0x82E JUMPI PUSH1 0x0 DUP1 REVERT JUMPDEST POP PUSH2 0x13E SLOAD PUSH2 0x44B SWAP1 PUSH1 0x1 PUSH1 0xA0 SHL SWAP1 DIV PUSH1 0xFF AND DUP2 JUMP JUMPDEST CALLVALUE DUP1 ISZERO PUSH2 0x850 JUMPI PUSH1 0x0 DUP1 REVERT JUMPDEST POP PUSH2 0x499 PUSH2 0x483 DUP2 JUMP JUMPDEST CALLVALUE DUP1 ISZERO PUSH2 0x866 JUMPI PUSH1 0x0 DUP1 REVERT JUMPDEST POP PUSH2 0x5EB PUSH2 0x875 CALLDATASIZE PUSH1 0x4 PUSH2 0x396C JUMP JUMPDEST PUSH2 0x1C89 JUMP JUMPDEST CALLVALUE DUP1 ISZERO PUSH2 0x886 JUMPI PUSH1 0x0 DUP1 REVERT JUMPDEST POP PUSH2 0x499 PUSH1 0x0 DUP1 MLOAD PUSH1 0x20 PUSH2 0x449D DUP4 CODECOPY DUP2 MLOAD SWAP2 MSTORE DUP2 JUMP JUMPDEST CALLVALUE DUP1 ISZERO PUSH2 0x8A8 JUMPI PUSH1 0x0 DUP1 REVERT JUMPDEST POP PUSH2 0x499 PUSH2 0x12E SLOAD DUP2 JUMP JUMPDEST CALLVALUE DUP1 ISZERO PUSH2 0x8BF JUMPI PUSH1 0x0 DUP1 REVERT JUMPDEST POP PUSH2 0x499 PUSH2 0x2D1 DUP2 JUMP JUMPDEST CALLVALUE DUP1 ISZERO PUSH2 0x8D5 JUMPI PUSH1 0x0 DUP1 REVERT JUMPDEST POP PUSH2 0x5EB PUSH2 0x8E4 CALLDATASIZE PUSH1 0x4 PUSH2 0x3AD7 JUMP JUMPDEST PUSH2 0x1D20 JUMP JUMPDEST CALLVALUE DUP1 ISZERO PUSH2 0x8F5 JUMPI PUSH1 0x0 DUP1 REVERT JUMPDEST POP PUSH2 0x44B PUSH2 0x904 CALLDATASIZE PUSH1 0x4 PUSH2 0x393C JUMP JUMPDEST PUSH2 0x2147 JUMP JUMPDEST CALLVALUE DUP1 ISZERO PUSH2 0x915 JUMPI PUSH1 0x0 DUP1 REVERT JUMPDEST POP PUSH2 0x475 PUSH2 0x2172 JUMP JUMPDEST CALLVALUE DUP1 ISZERO PUSH2 0x92A JUMPI PUSH1 0x0 DUP1 REVERT JUMPDEST POP PUSH2 0x13B SLOAD PUSH2 0x7B6 SWAP1 PUSH1 0x1 PUSH1 0x1 PUSH1 0xA0 SHL SUB AND DUP2 JUMP JUMPDEST CALLVALUE DUP1 ISZERO PUSH2 0x94B JUMPI PUSH1 0x0 DUP1 REVERT JUMPDEST POP PUSH2 0x499 PUSH2 0x136 SLOAD DUP2 JUMP JUMPDEST CALLVALUE DUP1 ISZERO PUSH2 0x962 JUMPI PUSH1 0x0 DUP1 REVERT JUMPDEST POP PUSH2 0x499 PUSH2 0x137 SLOAD DUP2 JUMP JUMPDEST CALLVALUE DUP1 ISZERO PUSH2 0x979 JUMPI PUSH1 0x0 DUP1 REVERT JUMPDEST POP PUSH2 0x13E SLOAD PUSH2 0x7B6 SWAP1 PUSH1 0x1 PUSH1 0x1 PUSH1 0xA0 SHL SUB AND DUP2 JUMP JUMPDEST CALLVALUE DUP1 ISZERO PUSH2 0x99A JUMPI PUSH1 0x0 DUP1 REVERT JUMPDEST POP PUSH2 0x499 PUSH2 0x9A9 CALLDATASIZE PUSH1 0x4 PUSH2 0x396C JUMP JUMPDEST PUSH1 0x1 PUSH1 0x1 PUSH1 0xA0 SHL SUB AND PUSH1 0x0 SWAP1 DUP2 MSTORE PUSH2 0x145 PUSH1 0x20 MSTORE PUSH1 0x40 SWAP1 KECCAK256 PUSH1 0x3 ADD SLOAD SWAP1 JUMP JUMPDEST CALLVALUE DUP1 ISZERO PUSH2 0x9D4 JUMPI PUSH1 0x0 DUP1 REVERT JUMPDEST POP PUSH2 0x499 PUSH2 0x2180 JUMP JUMPDEST CALLVALUE DUP1 ISZERO PUSH2 0x9E9 JUMPI PUSH1 0x0 DUP1 REVERT JUMPDEST POP PUSH2 0x7B6 PUSH2 0x9F8 CALLDATASIZE PUSH1 0x4 PUSH2 0x38F3 JUMP JUMPDEST PUSH2 0x219F JUMP JUMPDEST CALLVALUE DUP1 ISZERO PUSH2 0xA09 JUMPI PUSH1 0x0 DUP1 REVERT JUMPDEST POP PUSH2 0x499 PUSH2 0x135 SLOAD DUP2 JUMP JUMPDEST CALLVALUE DUP1 ISZERO PUSH2 0xA20 JUMPI PUSH1 0x0 DUP1 REVERT JUMPDEST POP PUSH2 0x5EB PUSH2 0x21CA JUMP JUMPDEST CALLVALUE DUP1 ISZERO PUSH2 0xA35 JUMPI PUSH1 0x0 DUP1 REVERT JUMPDEST POP PUSH2 0x5EB PUSH2 0x221A JUMP JUMPDEST CALLVALUE DUP1 ISZERO PUSH2 0xA4A JUMPI PUSH1 0x0 DUP1 REVERT JUMPDEST POP PUSH2 0x499 PUSH2 0x134 SLOAD DUP2 JUMP JUMPDEST PUSH2 0x5EB PUSH2 0xA63 CALLDATASIZE PUSH1 0x4 PUSH2 0x3B76 JUMP JUMPDEST PUSH2 0x2301 JUMP JUMPDEST CALLVALUE DUP1 ISZERO PUSH2 0xA74 JUMPI PUSH1 0x0 DUP1 REVERT JUMPDEST POP PUSH2 0xA88 PUSH2 0xA83 CALLDATASIZE PUSH1 0x4 PUSH2 0x396C JUMP JUMPDEST PUSH2 0x2987 JUMP JUMPDEST PUSH1 0x40 MLOAD PUSH2 0x457 SWAP2 SWAP1 PUSH2 0x3BA8 JUMP JUMPDEST CALLVALUE DUP1 ISZERO PUSH2 0xAA1 JUMPI PUSH1 0x0 DUP1 REVERT JUMPDEST POP PUSH2 0x499 PUSH2 0xAB0 CALLDATASIZE PUSH1 0x4 PUSH2 0x396C JUMP JUMPDEST PUSH2 0x2A17 JUMP JUMPDEST CALLVALUE DUP1 ISZERO PUSH2 0xAC1 JUMPI PUSH1 0x0 DUP1 REVERT JUMPDEST POP PUSH2 0x512 PUSH2 0xAD0 CALLDATASIZE PUSH1 0x4 PUSH2 0x3C7C JUMP JUMPDEST PUSH4 0xBC197C81 PUSH1 0xE0 SHL SWAP6 SWAP5 POP POP POP POP POP JUMP JUMPDEST CALLVALUE DUP1 ISZERO PUSH2 0xAED JUMPI PUSH1 0x0 DUP1 REVERT JUMPDEST POP PUSH2 0x499 PUSH2 0xAFC CALLDATASIZE PUSH1 0x4 PUSH2 0x396C JUMP JUMPDEST PUSH1 0x1 PUSH1 0x1 PUSH1 0xA0 SHL SUB AND PUSH1 0x0 SWAP1 DUP2 MSTORE PUSH2 0x145 PUSH1 0x20 MSTORE PUSH1 0x40 SWAP1 KECCAK256 PUSH1 0x2 ADD SLOAD SWAP1 JUMP JUMPDEST CALLVALUE DUP1 ISZERO PUSH2 0xB27 JUMPI PUSH1 0x0 DUP1 REVERT JUMPDEST POP PUSH2 0x499 PUSH2 0xB36 CALLDATASIZE PUSH1 0x4 PUSH2 0x3D29 JUMP JUMPDEST PUSH2 0x2A45 JUMP JUMPDEST CALLVALUE DUP1 ISZERO PUSH2 0xB47 JUMPI PUSH1 0x0 DUP1 REVERT JUMPDEST POP PUSH2 0x499 PUSH2 0xB56 CALLDATASIZE PUSH1 0x4 PUSH2 0x38F3 JUMP JUMPDEST PUSH2 0x2A67 JUMP JUMPDEST CALLVALUE DUP1 ISZERO PUSH2 0xB67 JUMPI PUSH1 0x0 DUP1 REVERT JUMPDEST POP PUSH2 0x499 PUSH2 0x2A89 JUMP JUMPDEST CALLVALUE DUP1 ISZERO PUSH2 0xB7C JUMPI PUSH1 0x0 DUP1 REVERT JUMPDEST POP PUSH2 0x499 PUSH1 0x0 DUP1 MLOAD PUSH1 0x20 PUSH2 0x447D DUP4 CODECOPY DUP2 MLOAD SWAP2 MSTORE DUP2 JUMP JUMPDEST CALLVALUE DUP1 ISZERO PUSH2 0xB9E JUMPI PUSH1 0x0 DUP1 REVERT JUMPDEST POP PUSH2 0x143 SLOAD PUSH1 0xFF AND PUSH2 0x815 JUMP JUMPDEST CALLVALUE DUP1 ISZERO PUSH2 0xBB7 JUMPI PUSH1 0x0 DUP1 REVERT JUMPDEST POP PUSH2 0x499 PUSH2 0x12F SLOAD DUP2 JUMP JUMPDEST CALLVALUE DUP1 ISZERO PUSH2 0xBCE JUMPI PUSH1 0x0 DUP1 REVERT JUMPDEST POP PUSH2 0x499 PUSH2 0x2711 DUP2 JUMP JUMPDEST CALLVALUE DUP1 ISZERO PUSH2 0xBE4 JUMPI PUSH1 0x0 DUP1 REVERT JUMPDEST POP PUSH2 0x5EB PUSH2 0xBF3 CALLDATASIZE PUSH1 0x4 PUSH2 0x393C JUMP JUMPDEST PUSH2 0x2A9D JUMP JUMPDEST CALLVALUE DUP1 ISZERO PUSH2 0xC04 JUMPI PUSH1 0x0 DUP1 REVERT JUMPDEST POP PUSH2 0x499 PUSH2 0xC13 CALLDATASIZE PUSH1 0x4 PUSH2 0x396C JUMP JUMPDEST PUSH1 0x1 PUSH1 0x1 PUSH1 0xA0 SHL SUB AND PUSH1 0x0 SWAP1 DUP2 MSTORE PUSH2 0x145 PUSH1 0x20 MSTORE PUSH1 0x40 SWAP1 KECCAK256 PUSH1 0x4 ADD SLOAD SWAP1 JUMP JUMPDEST CALLVALUE DUP1 ISZERO PUSH2 0xC3E JUMPI PUSH1 0x0 DUP1 REVERT JUMPDEST POP PUSH2 0xC47 PUSH2 0x2AC2 JUMP JUMPDEST PUSH1 0x40 MLOAD PUSH2 0x457 SWAP2 SWAP1 PUSH2 0x3D4B JUMP JUMPDEST CALLVALUE DUP1 ISZERO PUSH2 0xC60 JUMPI PUSH1 0x0 DUP1 REVERT JUMPDEST POP PUSH2 0x5EB PUSH2 0xC6F CALLDATASIZE PUSH1 0x4 PUSH2 0x3D8C JUMP JUMPDEST PUSH2 0x2B91 JUMP JUMPDEST CALLVALUE DUP1 ISZERO PUSH2 0xC80 JUMPI PUSH1 0x0 DUP1 REVERT JUMPDEST POP PUSH2 0xC94 PUSH2 0xC8F CALLDATASIZE PUSH1 0x4 PUSH2 0x396C JUMP JUMPDEST PUSH2 0x2C5F JUMP JUMPDEST PUSH1 0x40 MLOAD PUSH2 0x457 SWAP2 SWAP1 PUSH2 0x3E60 JUMP JUMPDEST CALLVALUE DUP1 ISZERO PUSH2 0xCAD JUMPI PUSH1 0x0 DUP1 REVERT JUMPDEST POP PUSH2 0x512 PUSH2 0xCBC CALLDATASIZE PUSH1 0x4 PUSH2 0x3E73 JUMP JUMPDEST PUSH4 0xF23A6E61 PUSH1 0xE0 SHL SWAP6 SWAP5 POP POP POP POP POP JUMP JUMPDEST CALLVALUE DUP1 ISZERO PUSH2 0xCD9 JUMPI PUSH1 0x0 DUP1 REVERT JUMPDEST POP PUSH2 0x499 PUSH2 0xCE8 CALLDATASIZE PUSH1 0x4 PUSH2 0x396C JUMP JUMPDEST PUSH2 0x2CCB JUMP JUMPDEST CALLVALUE DUP1 ISZERO PUSH2 0xCF9 JUMPI PUSH1 0x0 DUP1 REVERT JUMPDEST POP PUSH2 0x5EB PUSH2 0xD08 CALLDATASIZE PUSH1 0x4 PUSH2 0x38F3 JUMP JUMPDEST PUSH2 0x2CF9 JUMP JUMPDEST CALLVALUE DUP1 ISZERO PUSH2 0xD19 JUMPI PUSH1 0x0 DUP1 REVERT JUMPDEST POP PUSH2 0xD88 PUSH2 0xD28 CALLDATASIZE PUSH1 0x4 PUSH2 0x396C JUMP JUMPDEST PUSH2 0x145 PUSH1 0x20 MSTORE PUSH1 0x0 SWAP1 DUP2 MSTORE PUSH1 0x40 SWAP1 KECCAK256 PUSH1 0x2 DUP2 ADD SLOAD PUSH1 0x3 DUP3 ADD SLOAD PUSH1 0x4 DUP4 ADD SLOAD PUSH1 0x5 DUP5 ADD SLOAD PUSH1 0x6 DUP6 ADD SLOAD PUSH1 0x7 DUP7 ADD SLOAD PUSH1 0x8 SWAP1 SWAP7 ADD SLOAD SWAP5 SWAP6 SWAP4 SWAP5 SWAP3 SWAP4 SWAP2 SWAP3 SWAP1 SWAP2 SWAP1 PUSH4 0xFFFFFFFF DUP2 AND SWAP1 PUSH1 0xFF PUSH5 0x100000000 DUP3 DIV DUP2 AND SWAP2 PUSH6 0x10000000000 SWAP1 DIV AND DUP10 JUMP JUMPDEST PUSH1 0x40 DUP1 MLOAD SWAP10 DUP11 MSTORE PUSH1 0x20 DUP11 ADD SWAP9 SWAP1 SWAP9 MSTORE SWAP7 DUP9 ADD SWAP6 SWAP1 SWAP6 MSTORE PUSH1 0x60 DUP8 ADD SWAP4 SWAP1 SWAP4 MSTORE PUSH1 0x80 DUP7 ADD SWAP2 SWAP1 SWAP2 MSTORE PUSH1 0xA0 DUP6 ADD MSTORE PUSH4 0xFFFFFFFF AND PUSH1 0xC0 DUP5 ADD MSTORE ISZERO ISZERO PUSH1 0xE0 DUP4 ADD MSTORE ISZERO ISZERO PUSH2 0x100 DUP3 ADD MSTORE PUSH2 0x120 ADD PUSH2 0x457 JUMP JUMPDEST CALLVALUE DUP1 ISZERO PUSH2 0xDE2 JUMPI PUSH1 0x0 DUP1 REVERT JUMPDEST POP PUSH2 0x13C SLOAD PUSH2 0x7B6 SWAP1 PUSH1 0x1 PUSH1 0x1 PUSH1 0xA0 SHL SUB AND DUP2 JUMP JUMPDEST PUSH1 0x0 PUSH1 0x1 PUSH1 0x1 PUSH1 0xE0 SHL SUB NOT DUP3 AND PUSH4 0x92209DBF PUSH1 0xE0 SHL EQ DUP1 PUSH2 0xE1C JUMPI POP PUSH2 0xE1C DUP3 PUSH2 0x2D8D JUMP JUMPDEST SWAP3 SWAP2 POP POP JUMP JUMPDEST PUSH2 0x140 DUP1 SLOAD PUSH2 0xE30 SWAP1 PUSH2 0x3EDB JUMP JUMPDEST DUP1 PUSH1 0x1F ADD PUSH1 0x20 DUP1 SWAP2 DIV MUL PUSH1 0x20 ADD PUSH1 0x40 MLOAD SWAP1 DUP2 ADD PUSH1 0x40 MSTORE DUP1 SWAP3 SWAP2 SWAP1 DUP2 DUP2 MSTORE PUSH1 0x20 ADD DUP3 DUP1 SLOAD PUSH2 0xE5C SWAP1 PUSH2 0x3EDB JUMP JUMPDEST DUP1 ISZERO PUSH2 0xEA9 JUMPI DUP1 PUSH1 0x1F LT PUSH2 0xE7E JUMPI PUSH2 0x100 DUP1 DUP4 SLOAD DIV MUL DUP4 MSTORE SWAP2 PUSH1 0x20 ADD SWAP2 PUSH2 0xEA9 JUMP JUMPDEST DUP3 ADD SWAP2 SWAP1 PUSH1 0x0 MSTORE PUSH1 0x20 PUSH1 0x0 KECCAK256 SWAP1 JUMPDEST DUP2 SLOAD DUP2 MSTORE SWAP1 PUSH1 0x1 ADD SWAP1 PUSH1 0x20 ADD DUP1 DUP4 GT PUSH2 0xE8C JUMPI DUP3 SWAP1 SUB PUSH1 0x1F AND DUP3 ADD SWAP2 JUMPDEST POP POP POP POP POP DUP2 JUMP JUMPDEST PUSH1 0x0 DUP3 DUP2 MSTORE PUSH1 0xFB PUSH1 0x20 MSTORE PUSH1 0x40 SWAP1 KECCAK256 PUSH1 0x1 ADD SLOAD PUSH2 0xECC DUP2 PUSH2 0x2DB2 JUMP JUMPDEST PUSH2 0xED6 DUP4 DUP4 PUSH2 0x2DBF JUMP JUMPDEST POP POP POP JUMP JUMPDEST PUSH1 0x1 PUSH1 0x1 PUSH1 0xA0 SHL SUB DUP2 AND CALLER EQ PUSH2 0xF50 JUMPI PUSH1 0x40 MLOAD PUSH3 0x461BCD PUSH1 0xE5 SHL DUP2 MSTORE PUSH1 0x20 PUSH1 0x4 DUP3 ADD MSTORE PUSH1 0x2F PUSH1 0x24 DUP3 ADD MSTORE PUSH32 0x416363657373436F6E74726F6C3A2063616E206F6E6C792072656E6F756E6365 PUSH1 0x44 DUP3 ADD MSTORE PUSH15 0x103937B632B9903337B91039B2B633 PUSH1 0x89 SHL PUSH1 0x64 DUP3 ADD MSTORE PUSH1 0x84 ADD JUMPDEST PUSH1 0x40 MLOAD DUP1 SWAP2 SUB SWAP1 REVERT JUMPDEST PUSH2 0xF5A DUP3 DUP3 PUSH2 0x2E45 JUMP JUMPDEST POP POP JUMP JUMPDEST PUSH1 0x0 DUP1 MLOAD PUSH1 0x20 PUSH2 0x449D DUP4 CODECOPY DUP2 MLOAD SWAP2 MSTORE PUSH2 0xF76 DUP2 PUSH2 0x2DB2 JUMP JUMPDEST PUSH1 0x2 PUSH2 0x143 SLOAD PUSH2 0x100 SWAP1 DIV PUSH1 0xFF AND PUSH1 0x3 DUP2 GT ISZERO PUSH2 0xF95 JUMPI PUSH2 0xF95 PUSH2 0x390C JUMP JUMPDEST EQ DUP1 ISZERO PUSH2 0xFB2 JUMPI POP TIMESTAMP PUSH2 0x132 SLOAD PUSH2 0x13A SLOAD PUSH2 0xFB0 SWAP2 SWAP1 PUSH2 0x3F26 JUMP JUMPDEST GT JUMPDEST ISZERO PUSH2 0xFD0 JUMPI PUSH1 0x40 MLOAD PUSH4 0xAED6A6A9 PUSH1 0xE0 SHL DUP2 MSTORE PUSH1 0x4 ADD PUSH1 0x40 MLOAD DUP1 SWAP2 SUB SWAP1 REVERT JUMPDEST PUSH2 0x143 DUP1 SLOAD PUSH2 0xFF00 NOT AND PUSH2 0x300 OR SWAP1 SSTORE PUSH1 0x40 MLOAD PUSH32 0xEC3EFB8AC3D1F490AAEED77D96578DC66D299C77E9424182C3FCE563949FAA2D SWAP1 PUSH1 0x0 SWAP1 LOG1 POP JUMP JUMPDEST PUSH1 0x0 DUP1 MLOAD PUSH1 0x20 PUSH2 0x449D DUP4 CODECOPY DUP2 MLOAD SWAP2 MSTORE PUSH2 0x1024 DUP2 PUSH2 0x2DB2 JUMP JUMPDEST PUSH1 0x1 PUSH2 0x143 SLOAD PUSH2 0x100 SWAP1 DIV PUSH1 0xFF AND PUSH1 0x3 DUP2 GT ISZERO PUSH2 0x1043 JUMPI PUSH2 0x1043 PUSH2 0x390C JUMP JUMPDEST EQ PUSH2 0x1061 JUMPI PUSH1 0x40 MLOAD PUSH4 0x2120E739 PUSH1 0xE0 SHL DUP2 MSTORE PUSH1 0x4 ADD PUSH1 0x40 MLOAD DUP1 SWAP2 SUB SWAP1 REVERT JUMPDEST PUSH2 0x12E DUP1 SLOAD SWAP1 DUP4 SWAP1 SSTORE PUSH1 0x40 DUP1 MLOAD DUP5 DUP2 MSTORE PUSH1 0x20 DUP2 ADD DUP4 SWAP1 MSTORE PUSH32 0xC103DFFA33E864B3316844F917FB30D44487ABCD1857D90E7EE8C7E8E4982C31 SWAP2 ADD JUMPDEST PUSH1 0x40 MLOAD DUP1 SWAP2 SUB SWAP1 LOG1 POP POP POP JUMP JUMPDEST PUSH1 0x1 PUSH1 0x1 PUSH1 0xA0 SHL SUB DUP2 AND PUSH1 0x0 SWAP1 DUP2 MSTORE PUSH2 0x145 PUSH1 0x20 MSTORE PUSH1 0x40 DUP2 KECCAK256 PUSH1 0x5 DUP2 ADD SLOAD PUSH1 0x2 SWAP1 SWAP2 ADD SLOAD PUSH2 0xE1C SWAP2 SWAP1 PUSH2 0x3F3E JUMP JUMPDEST TIMESTAMP PUSH2 0x132 SLOAD PUSH2 0x13A SLOAD PUSH2 0x10EA SWAP2 SWAP1 PUSH2 0x3F26 JUMP JUMPDEST GT ISZERO PUSH2 0x1109 JUMPI PUSH1 0x40 MLOAD PUSH4 0x6144E941 PUSH1 0xE1 SHL DUP2 MSTORE PUSH1 0x4 ADD PUSH1 0x40 MLOAD DUP1 SWAP2 SUB SWAP1 REVERT JUMPDEST DUP1 MLOAD PUSH1 0x20 DUP3 ADD KECCAK256 PUSH2 0x13F SLOAD DUP2 EQ PUSH2 0x1133 JUMPI PUSH1 0x40 MLOAD PUSH4 0x123FFAAF PUSH1 0xE0 SHL DUP2 MSTORE PUSH1 0x4 ADD PUSH1 0x40 MLOAD DUP1 SWAP2 SUB SWAP1 REVERT JUMPDEST DUP2 MLOAD PUSH2 0x1147 SWAP1 PUSH2 0x142 SWAP1 PUSH1 0x20 DUP6 ADD SWAP1 PUSH2 0x3659 JUMP JUMPDEST POP DUP2 PUSH1 0x40 MLOAD PUSH2 0x1156 SWAP2 SWAP1 PUSH2 0x3F55 JUMP JUMPDEST PUSH1 0x40 MLOAD SWAP1 DUP2 SWAP1 SUB DUP2 KECCAK256 SWAP1 PUSH32 0xE9D738D6B178E227CF51AC49FDFC543527AABF742394E0DAE0B0583C802FCF00 SWAP1 PUSH1 0x0 SWAP1 LOG2 POP POP JUMP JUMPDEST PUSH1 0x0 DUP1 MLOAD PUSH1 0x20 PUSH2 0x449D DUP4 CODECOPY DUP2 MLOAD SWAP2 MSTORE PUSH2 0x11A2 DUP2 PUSH2 0x2DB2 JUMP JUMPDEST DUP2 ISZERO PUSH2 0x11C9 JUMPI PUSH2 0x11B5 PUSH2 0x146 PUSH1 0x0 PUSH2 0x36DD JUMP JUMPDEST PUSH1 0x0 PUSH2 0x137 DUP2 SWAP1 SSTORE PUSH2 0x138 SSTORE PUSH2 0x11C9 PUSH2 0x221A JUMP JUMPDEST PUSH1 0x1 PUSH2 0x143 SLOAD PUSH2 0x100 SWAP1 DIV PUSH1 0xFF AND PUSH1 0x3 DUP2 GT ISZERO PUSH2 0x11E8 JUMPI PUSH2 0x11E8 PUSH2 0x390C JUMP JUMPDEST EQ PUSH2 0x1206 JUMPI PUSH1 0x40 MLOAD PUSH4 0x2120E739 PUSH1 0xE0 SHL DUP2 MSTORE PUSH1 0x4 ADD PUSH1 0x40 MLOAD DUP1 SWAP2 SUB SWAP1 REVERT JUMPDEST PUSH2 0x120E PUSH2 0x2180 JUMP JUMPDEST PUSH1 0x40 DUP8 ADD CALLDATALOAD PUSH2 0x1222 PUSH1 0x20 DUP10 ADD CALLDATALOAD DUP10 CALLDATALOAD PUSH2 0x3F26 JUMP JUMPDEST PUSH2 0x122C SWAP2 SWAP1 PUSH2 0x3F26 JUMP JUMPDEST GT ISZERO PUSH2 0x124B JUMPI PUSH1 0x40 MLOAD PUSH4 0xBDD4D717 PUSH1 0xE0 SHL DUP2 MSTORE PUSH1 0x4 ADD PUSH1 0x40 MLOAD DUP1 SWAP2 SUB SWAP1 REVERT JUMPDEST DUP4 ISZERO PUSH2 0x128D JUMPI PUSH2 0x128D DUP6 DUP6 DUP1 DUP1 PUSH1 0x20 MUL PUSH1 0x20 ADD PUSH1 0x40 MLOAD SWAP1 DUP2 ADD PUSH1 0x40 MSTORE DUP1 SWAP4 SWAP3 SWAP2 SWAP1 DUP2 DUP2 MSTORE PUSH1 0x20 ADD DUP4 DUP4 PUSH1 0x20 MUL DUP1 DUP3 DUP5 CALLDATACOPY PUSH1 0x0 SWAP3 ADD SWAP2 SWAP1 SWAP2 MSTORE POP PUSH2 0x2EAC SWAP3 POP POP POP JUMP JUMPDEST PUSH1 0x0 JUMPDEST DUP8 DUP2 LT ISZERO PUSH2 0x1B9B JUMPI PUSH2 0x145 PUSH1 0x0 DUP11 DUP11 DUP5 DUP2 DUP2 LT PUSH2 0x12AF JUMPI PUSH2 0x12AF PUSH2 0x3F71 JUMP JUMPDEST SWAP1 POP PUSH1 0x20 MUL DUP2 ADD SWAP1 PUSH2 0x12C1 SWAP2 SWAP1 PUSH2 0x3F87 JUMP JUMPDEST PUSH2 0x12CF SWAP1 PUSH1 0x20 DUP2 ADD SWAP1 PUSH2 0x396C JUMP JUMPDEST PUSH1 0x1 PUSH1 0x1 PUSH1 0xA0 SHL SUB AND DUP2 MSTORE PUSH1 0x20 DUP2 ADD SWAP2 SWAP1 SWAP2 MSTORE PUSH1 0x40 ADD PUSH1 0x0 SWAP1 DUP2 KECCAK256 PUSH2 0x12F3 SWAP2 PUSH2 0x36DD JUMP JUMPDEST PUSH2 0x145 PUSH1 0x0 DUP11 DUP11 DUP5 DUP2 DUP2 LT PUSH2 0x130A JUMPI PUSH2 0x130A PUSH2 0x3F71 JUMP JUMPDEST SWAP1 POP PUSH1 0x20 MUL DUP2 ADD SWAP1 PUSH2 0x131C SWAP2 SWAP1 PUSH2 0x3F87 JUMP JUMPDEST PUSH2 0x132A SWAP1 PUSH1 0x20 DUP2 ADD SWAP1 PUSH2 0x396C JUMP JUMPDEST PUSH1 0x1 PUSH1 0x1 PUSH1 0xA0 SHL SUB AND PUSH1 0x1 PUSH1 0x1 PUSH1 0xA0 SHL SUB AND DUP2 MSTORE PUSH1 0x20 ADD SWAP1 DUP2 MSTORE PUSH1 0x20 ADD PUSH1 0x0 KECCAK256 PUSH1 0x1 ADD PUSH1 0x0 PUSH2 0x1359 SWAP2 SWAP1 PUSH2 0x36FB JUMP JUMPDEST PUSH1 0x0 DUP1 DUP1 DUP1 JUMPDEST DUP13 DUP13 DUP7 DUP2 DUP2 LT PUSH2 0x1371 JUMPI PUSH2 0x1371 PUSH2 0x3F71 JUMP JUMPDEST SWAP1 POP PUSH1 0x20 MUL DUP2 ADD SWAP1 PUSH2 0x1383 SWAP2 SWAP1 PUSH2 0x3F87 JUMP JUMPDEST PUSH2 0x1391 SWAP1 PUSH1 0x40 DUP2 ADD SWAP1 PUSH2 0x3F9D JUMP JUMPDEST SWAP1 POP DUP2 LT ISZERO PUSH2 0x16D8 JUMPI PUSH2 0x2711 DUP14 DUP14 DUP8 DUP2 DUP2 LT PUSH2 0x13AF JUMPI PUSH2 0x13AF PUSH2 0x3F71 JUMP JUMPDEST SWAP1 POP PUSH1 0x20 MUL DUP2 ADD SWAP1 PUSH2 0x13C1 SWAP2 SWAP1 PUSH2 0x3F87 JUMP JUMPDEST PUSH2 0x13CF SWAP1 PUSH1 0x40 DUP2 ADD SWAP1 PUSH2 0x3F9D JUMP JUMPDEST DUP4 DUP2 DUP2 LT PUSH2 0x13DF JUMPI PUSH2 0x13DF PUSH2 0x3F71 JUMP JUMPDEST SWAP1 POP PUSH1 0x20 MUL ADD CALLDATALOAD GT ISZERO PUSH2 0x1493 JUMPI DUP13 DUP13 DUP7 DUP2 DUP2 LT PUSH2 0x13FE JUMPI PUSH2 0x13FE PUSH2 0x3F71 JUMP JUMPDEST SWAP1 POP PUSH1 0x20 MUL DUP2 ADD SWAP1 PUSH2 0x1410 SWAP2 SWAP1 PUSH2 0x3F87 JUMP JUMPDEST PUSH2 0x141E SWAP1 PUSH1 0x20 DUP2 ADD SWAP1 PUSH2 0x396C JUMP JUMPDEST DUP14 DUP14 DUP8 DUP2 DUP2 LT PUSH2 0x1430 JUMPI PUSH2 0x1430 PUSH2 0x3F71 JUMP JUMPDEST SWAP1 POP PUSH1 0x20 MUL DUP2 ADD SWAP1 PUSH2 0x1442 SWAP2 SWAP1 PUSH2 0x3F87 JUMP JUMPDEST PUSH2 0x1450 SWAP1 PUSH1 0x40 DUP2 ADD SWAP1 PUSH2 0x3F9D JUMP JUMPDEST DUP4 DUP2 DUP2 LT PUSH2 0x1460 JUMPI PUSH2 0x1460 PUSH2 0x3F71 JUMP JUMPDEST PUSH1 0x40 MLOAD PUSH4 0x518C7F85 PUSH1 0xE1 SHL DUP2 MSTORE PUSH1 0x1 PUSH1 0x1 PUSH1 0xA0 SHL SUB SWAP1 SWAP5 AND PUSH1 0x4 DUP6 ADD MSTORE PUSH1 0x20 MUL SWAP2 SWAP1 SWAP2 ADD CALLDATALOAD PUSH1 0x24 DUP4 ADD MSTORE POP PUSH1 0x44 ADD PUSH2 0xF47 JUMP JUMPDEST PUSH1 0x0 DUP14 DUP14 DUP8 DUP2 DUP2 LT PUSH2 0x14A7 JUMPI PUSH2 0x14A7 PUSH2 0x3F71 JUMP JUMPDEST SWAP1 POP PUSH1 0x20 MUL DUP2 ADD SWAP1 PUSH2 0x14B9 SWAP2 SWAP1 PUSH2 0x3F87 JUMP JUMPDEST PUSH2 0x14C7 SWAP1 PUSH1 0x40 DUP2 ADD SWAP1 PUSH2 0x3F9D JUMP JUMPDEST DUP4 DUP2 DUP2 LT PUSH2 0x14D7 JUMPI PUSH2 0x14D7 PUSH2 0x3F71 JUMP JUMPDEST SWAP1 POP PUSH1 0x20 MUL ADD CALLDATALOAD EQ ISZERO PUSH2 0x14F6 JUMPI DUP2 PUSH2 0x14EE DUP2 PUSH2 0x3FE6 JUMP JUMPDEST SWAP3 POP POP PUSH2 0x1596 JUMP JUMPDEST PUSH2 0x2710 DUP14 DUP14 DUP8 DUP2 DUP2 LT PUSH2 0x150B JUMPI PUSH2 0x150B PUSH2 0x3F71 JUMP JUMPDEST SWAP1 POP PUSH1 0x20 MUL DUP2 ADD SWAP1 PUSH2 0x151D SWAP2 SWAP1 PUSH2 0x3F87 JUMP JUMPDEST PUSH2 0x152B SWAP1 PUSH1 0x40 DUP2 ADD SWAP1 PUSH2 0x3F9D JUMP JUMPDEST DUP4 DUP2 DUP2 LT PUSH2 0x153B JUMPI PUSH2 0x153B PUSH2 0x3F71 JUMP JUMPDEST SWAP1 POP PUSH1 0x20 MUL ADD CALLDATALOAD EQ ISZERO PUSH2 0x1571 JUMPI PUSH2 0x137 DUP1 SLOAD SWAP1 PUSH1 0x0 PUSH2 0x1559 DUP4 PUSH2 0x3FE6 JUMP JUMPDEST SWAP2 SWAP1 POP SSTORE POP DUP4 DUP1 PUSH2 0x1569 SWAP1 PUSH2 0x3FE6 JUMP JUMPDEST SWAP5 POP POP PUSH2 0x1596 JUMP JUMPDEST PUSH2 0x138 DUP1 SLOAD SWAP1 PUSH1 0x0 PUSH2 0x1582 DUP4 PUSH2 0x3FE6 JUMP JUMPDEST SWAP2 SWAP1 POP SSTORE POP DUP3 DUP1 PUSH2 0x1592 SWAP1 PUSH2 0x3FE6 JUMP JUMPDEST SWAP4 POP POP JUMPDEST PUSH2 0x145 PUSH1 0x0 DUP15 DUP15 DUP9 DUP2 DUP2 LT PUSH2 0x15AD JUMPI PUSH2 0x15AD PUSH2 0x3F71 JUMP JUMPDEST SWAP1 POP PUSH1 0x20 MUL DUP2 ADD SWAP1 PUSH2 0x15BF SWAP2 SWAP1 PUSH2 0x3F87 JUMP JUMPDEST PUSH2 0x15CD SWAP1 PUSH1 0x20 DUP2 ADD SWAP1 PUSH2 0x396C JUMP JUMPDEST PUSH1 0x1 PUSH1 0x1 PUSH1 0xA0 SHL SUB AND DUP2 MSTORE PUSH1 0x20 DUP2 ADD SWAP2 SWAP1 SWAP2 MSTORE PUSH1 0x40 ADD PUSH1 0x0 KECCAK256 DUP14 DUP14 DUP8 DUP2 DUP2 LT PUSH2 0x15F8 JUMPI PUSH2 0x15F8 PUSH2 0x3F71 JUMP JUMPDEST SWAP1 POP PUSH1 0x20 MUL DUP2 ADD SWAP1 PUSH2 0x160A SWAP2 SWAP1 PUSH2 0x3F87 JUMP JUMPDEST PUSH2 0x1618 SWAP1 PUSH1 0x40 DUP2 ADD SWAP1 PUSH2 0x3F9D JUMP JUMPDEST DUP4 DUP2 DUP2 LT PUSH2 0x1628 JUMPI PUSH2 0x1628 PUSH2 0x3F71 JUMP JUMPDEST DUP4 SLOAD PUSH1 0x1 DUP2 ADD DUP6 SSTORE PUSH1 0x0 SWAP5 DUP6 MSTORE PUSH1 0x20 DUP1 DUP7 KECCAK256 SWAP3 MUL SWAP4 SWAP1 SWAP4 ADD CALLDATALOAD SWAP3 ADD SWAP2 SWAP1 SWAP2 SSTORE POP PUSH2 0x145 SWAP1 DUP15 DUP15 DUP9 DUP2 DUP2 LT PUSH2 0x165E JUMPI PUSH2 0x165E PUSH2 0x3F71 JUMP JUMPDEST SWAP1 POP PUSH1 0x20 MUL DUP2 ADD SWAP1 PUSH2 0x1670 SWAP2 SWAP1 PUSH2 0x3F87 JUMP JUMPDEST PUSH2 0x167E SWAP1 PUSH1 0x20 DUP2 ADD SWAP1 PUSH2 0x396C JUMP JUMPDEST PUSH1 0x1 PUSH1 0x1 PUSH1 0xA0 SHL SUB AND DUP2 MSTORE PUSH1 0x20 DUP1 DUP3 ADD SWAP3 SWAP1 SWAP3 MSTORE PUSH1 0x40 ADD PUSH1 0x0 SWAP1 DUP2 KECCAK256 PUSH1 0x1 SWAP1 DUP2 ADD DUP1 SLOAD SWAP2 DUP3 ADD DUP2 SSTORE DUP3 MSTORE SWAP1 DUP3 SWAP1 KECCAK256 SWAP2 DUP2 DIV SWAP1 SWAP2 ADD DUP1 SLOAD PUSH1 0x1F SWAP1 SWAP3 AND PUSH2 0x100 EXP PUSH1 0xFF MUL NOT SWAP1 SWAP2 AND SWAP1 SSTORE DUP1 PUSH2 0x16D0 DUP2 PUSH2 0x3FE6 JUMP JUMPDEST SWAP2 POP POP PUSH2 0x135F JUMP JUMPDEST POP PUSH1 0x0 DUP2 PUSH2 0x16E6 DUP5 DUP7 PUSH2 0x3F26 JUMP JUMPDEST PUSH2 0x16F0 SWAP2 SWAP1 PUSH2 0x3F26 JUMP JUMPDEST SWAP1 POP PUSH2 0x12E SLOAD DUP2 GT ISZERO PUSH2 0x1716 JUMPI PUSH1 0x40 MLOAD PUSH4 0x2ACE3743 PUSH1 0xE2 SHL DUP2 MSTORE PUSH1 0x4 ADD PUSH1 0x40 MLOAD DUP1 SWAP2 SUB SWAP1 REVERT JUMPDEST DUP4 DUP14 DUP14 DUP8 DUP2 DUP2 LT PUSH2 0x1729 JUMPI PUSH2 0x1729 PUSH2 0x3F71 JUMP JUMPDEST SWAP1 POP PUSH1 0x20 MUL DUP2 ADD SWAP1 PUSH2 0x173B SWAP2 SWAP1 PUSH2 0x3F87 JUMP JUMPDEST PUSH1 0x60 ADD CALLDATALOAD EQ ISZERO PUSH2 0x179F JUMPI DUP4 PUSH2 0x145 PUSH1 0x0 DUP16 DUP16 DUP10 DUP2 DUP2 LT PUSH2 0x175D JUMPI PUSH2 0x175D PUSH2 0x3F71 JUMP JUMPDEST SWAP1 POP PUSH1 0x20 MUL DUP2 ADD SWAP1 PUSH2 0x176F SWAP2 SWAP1 PUSH2 0x3F87 JUMP JUMPDEST PUSH2 0x177D SWAP1 PUSH1 0x20 DUP2 ADD SWAP1 PUSH2 0x396C JUMP JUMPDEST PUSH1 0x1 PUSH1 0x1 PUSH1 0xA0 SHL SUB AND DUP2 MSTORE PUSH1 0x20 DUP2 ADD SWAP2 SWAP1 SWAP2 MSTORE PUSH1 0x40 ADD PUSH1 0x0 KECCAK256 PUSH1 0x2 ADD SSTORE PUSH2 0x17EB JUMP JUMPDEST DUP13 DUP13 DUP7 DUP2 DUP2 LT PUSH2 0x17B1 JUMPI PUSH2 0x17B1 PUSH2 0x3F71 JUMP JUMPDEST SWAP1 POP PUSH1 0x20 MUL DUP2 ADD SWAP1 PUSH2 0x17C3 SWAP2 SWAP1 PUSH2 0x3F87 JUMP JUMPDEST PUSH1 0x40 MLOAD PUSH4 0xF80B1975 PUSH1 0xE0 SHL DUP2 MSTORE PUSH1 0x60 SWAP2 SWAP1 SWAP2 ADD CALLDATALOAD PUSH1 0x4 DUP3 ADD MSTORE PUSH1 0x24 DUP2 ADD DUP6 SWAP1 MSTORE PUSH1 0x44 ADD PUSH2 0xF47 JUMP JUMPDEST DUP3 DUP14 DUP14 DUP8 DUP2 DUP2 LT PUSH2 0x17FE JUMPI PUSH2 0x17FE PUSH2 0x3F71 JUMP JUMPDEST SWAP1 POP PUSH1 0x20 MUL DUP2 ADD SWAP1 PUSH2 0x1810 SWAP2 SWAP1 PUSH2 0x3F87 JUMP JUMPDEST PUSH1 0x80 ADD CALLDATALOAD EQ ISZERO PUSH2 0x1874 JUMPI DUP3 PUSH2 0x145 PUSH1 0x0 DUP16 DUP16 DUP10 DUP2 DUP2 LT PUSH2 0x1832 JUMPI PUSH2 0x1832 PUSH2 0x3F71 JUMP JUMPDEST SWAP1 POP PUSH1 0x20 MUL DUP2 ADD SWAP1 PUSH2 0x1844 SWAP2 SWAP1 PUSH2 0x3F87 JUMP JUMPDEST PUSH2 0x1852 SWAP1 PUSH1 0x20 DUP2 ADD SWAP1 PUSH2 0x396C JUMP JUMPDEST PUSH1 0x1 PUSH1 0x1 PUSH1 0xA0 SHL SUB AND DUP2 MSTORE PUSH1 0x20 DUP2 ADD SWAP2 SWAP1 SWAP2 MSTORE PUSH1 0x40 ADD PUSH1 0x0 KECCAK256 PUSH1 0x3 ADD SSTORE PUSH2 0x18C0 JUMP JUMPDEST DUP13 DUP13 DUP7 DUP2 DUP2 LT PUSH2 0x1886 JUMPI PUSH2 0x1886 PUSH2 0x3F71 JUMP JUMPDEST SWAP1 POP PUSH1 0x20 MUL DUP2 ADD SWAP1 PUSH2 0x1898 SWAP2 SWAP1 PUSH2 0x3F87 JUMP JUMPDEST PUSH1 0x40 MLOAD PUSH4 0xEBCB737 PUSH1 0xE2 SHL DUP2 MSTORE PUSH1 0x80 SWAP2 SWAP1 SWAP2 ADD CALLDATALOAD PUSH1 0x4 DUP3 ADD MSTORE PUSH1 0x24 DUP2 ADD DUP5 SWAP1 MSTORE PUSH1 0x44 ADD PUSH2 0xF47 JUMP JUMPDEST DUP2 DUP14 DUP14 DUP8 DUP2 DUP2 LT PUSH2 0x18D3 JUMPI PUSH2 0x18D3 PUSH2 0x3F71 JUMP JUMPDEST SWAP1 POP PUSH1 0x20 MUL DUP2 ADD SWAP1 PUSH2 0x18E5 SWAP2 SWAP1 PUSH2 0x3F87 JUMP JUMPDEST PUSH1 0xA0 ADD CALLDATALOAD EQ ISZERO PUSH2 0x1949 JUMPI DUP2 PUSH2 0x145 PUSH1 0x0 DUP16 DUP16 DUP10 DUP2 DUP2 LT PUSH2 0x1907 JUMPI PUSH2 0x1907 PUSH2 0x3F71 JUMP JUMPDEST SWAP1 POP PUSH1 0x20 MUL DUP2 ADD SWAP1 PUSH2 0x1919 SWAP2 SWAP1 PUSH2 0x3F87 JUMP JUMPDEST PUSH2 0x1927 SWAP1 PUSH1 0x20 DUP2 ADD SWAP1 PUSH2 0x396C JUMP JUMPDEST PUSH1 0x1 PUSH1 0x1 PUSH1 0xA0 SHL SUB AND DUP2 MSTORE PUSH1 0x20 DUP2 ADD SWAP2 SWAP1 SWAP2 MSTORE PUSH1 0x40 ADD PUSH1 0x0 KECCAK256 PUSH1 0x4 ADD SSTORE PUSH2 0x1995 JUMP JUMPDEST DUP13 DUP13 DUP7 DUP2 DUP2 LT PUSH2 0x195B JUMPI PUSH2 0x195B PUSH2 0x3F71 JUMP JUMPDEST SWAP1 POP PUSH1 0x20 MUL DUP2 ADD SWAP1 PUSH2 0x196D SWAP2 SWAP1 PUSH2 0x3F87 JUMP JUMPDEST PUSH1 0x40 MLOAD PUSH4 0x2157EFE3 PUSH1 0xE0 SHL DUP2 MSTORE PUSH1 0xA0 SWAP2 SWAP1 SWAP2 ADD CALLDATALOAD PUSH1 0x4 DUP3 ADD MSTORE PUSH1 0x24 DUP2 ADD DUP4 SWAP1 MSTORE PUSH1 0x44 ADD PUSH2 0xF47 JUMP JUMPDEST PUSH2 0x146 SLOAD PUSH2 0x19A4 SWAP1 PUSH1 0x1 PUSH2 0x3F26 JUMP JUMPDEST DUP14 DUP14 DUP8 DUP2 DUP2 LT PUSH2 0x19B6 JUMPI PUSH2 0x19B6 PUSH2 0x3F71 JUMP JUMPDEST SWAP1 POP PUSH1 0x20 MUL DUP2 ADD SWAP1 PUSH2 0x19C8 SWAP2 SWAP1 PUSH2 0x3F87 JUMP JUMPDEST PUSH2 0x19D9 SWAP1 PUSH1 0x40 DUP2 ADD SWAP1 PUSH1 0x20 ADD PUSH2 0x401A JUMP JUMPDEST PUSH4 0xFFFFFFFF AND EQ PUSH2 0x19FD JUMPI PUSH1 0x40 MLOAD PUSH4 0x79B86D03 PUSH1 0xE1 SHL DUP2 MSTORE PUSH1 0x4 ADD PUSH1 0x40 MLOAD DUP1 SWAP2 SUB SWAP1 REVERT JUMPDEST DUP13 DUP13 DUP7 DUP2 DUP2 LT PUSH2 0x1A0F JUMPI PUSH2 0x1A0F PUSH2 0x3F71 JUMP JUMPDEST SWAP1 POP PUSH1 0x20 MUL DUP2 ADD SWAP1 PUSH2 0x1A21 SWAP2 SWAP1 PUSH2 0x3F87 JUMP JUMPDEST PUSH2 0x1A32 SWAP1 PUSH1 0x40 DUP2 ADD SWAP1 PUSH1 0x20 ADD PUSH2 0x401A JUMP JUMPDEST PUSH2 0x145 PUSH1 0x0 DUP16 DUP16 DUP10 DUP2 DUP2 LT PUSH2 0x1A49 JUMPI PUSH2 0x1A49 PUSH2 0x3F71 JUMP JUMPDEST SWAP1 POP PUSH1 0x20 MUL DUP2 ADD SWAP1 PUSH2 0x1A5B SWAP2 SWAP1 PUSH2 0x3F87 JUMP JUMPDEST PUSH2 0x1A69 SWAP1 PUSH1 0x20 DUP2 ADD SWAP1 PUSH2 0x396C JUMP JUMPDEST PUSH1 0x1 PUSH1 0x1 PUSH1 0xA0 SHL SUB AND PUSH1 0x1 PUSH1 0x1 PUSH1 0xA0 SHL SUB AND DUP2 MSTORE PUSH1 0x20 ADD SWAP1 DUP2 MSTORE PUSH1 0x20 ADD PUSH1 0x0 KECCAK256 PUSH1 0x8 ADD PUSH1 0x0 PUSH2 0x100 EXP DUP2 SLOAD DUP2 PUSH4 0xFFFFFFFF MUL NOT AND SWAP1 DUP4 PUSH4 0xFFFFFFFF AND MUL OR SWAP1 SSTORE POP PUSH1 0x1 PUSH2 0x145 PUSH1 0x0 DUP16 DUP16 DUP10 DUP2 DUP2 LT PUSH2 0x1AC3 JUMPI PUSH2 0x1AC3 PUSH2 0x3F71 JUMP JUMPDEST SWAP1 POP PUSH1 0x20 MUL DUP2 ADD SWAP1 PUSH2 0x1AD5 SWAP2 SWAP1 PUSH2 0x3F87 JUMP JUMPDEST PUSH2 0x1AE3 SWAP1 PUSH1 0x20 DUP2 ADD SWAP1 PUSH2 0x396C JUMP JUMPDEST PUSH1 0x1 PUSH1 0x1 PUSH1 0xA0 SHL SUB AND DUP2 MSTORE PUSH1 0x20 DUP2 ADD SWAP2 SWAP1 SWAP2 MSTORE PUSH1 0x40 ADD PUSH1 0x0 KECCAK256 PUSH1 0x8 ADD DUP1 SLOAD SWAP2 ISZERO ISZERO PUSH5 0x100000000 MUL PUSH5 0xFF00000000 NOT SWAP1 SWAP3 AND SWAP2 SWAP1 SWAP2 OR SWAP1 SSTORE PUSH2 0x146 DUP14 DUP14 DUP8 DUP2 DUP2 LT PUSH2 0x1B30 JUMPI PUSH2 0x1B30 PUSH2 0x3F71 JUMP JUMPDEST SWAP1 POP PUSH1 0x20 MUL DUP2 ADD SWAP1 PUSH2 0x1B42 SWAP2 SWAP1 PUSH2 0x3F87 JUMP JUMPDEST PUSH2 0x1B50 SWAP1 PUSH1 0x20 DUP2 ADD SWAP1 PUSH2 0x396C JUMP JUMPDEST DUP2 SLOAD PUSH1 0x1 DUP2 ADD DUP4 SSTORE PUSH1 0x0 SWAP3 DUP4 MSTORE PUSH1 0x20 SWAP1 SWAP3 KECCAK256 SWAP1 SWAP2 ADD DUP1 SLOAD PUSH1 0x1 PUSH1 0x1 PUSH1 0xA0 SHL SUB NOT AND PUSH1 0x1 PUSH1 0x1 PUSH1 0xA0 SHL SUB SWAP1 SWAP3 AND SWAP2 SWAP1 SWAP2 OR SWAP1 SSTORE POP DUP4 SWAP3 POP PUSH2 0x1B93 SWAP2 POP DUP3 SWAP1 POP PUSH2 0x3FE6 JUMP JUMPDEST SWAP2 POP POP PUSH2 0x1290 JUMP JUMPDEST POP PUSH2 0x137 SLOAD DUP7 CALLDATALOAD LT ISZERO PUSH2 0x1BD0 JUMPI PUSH2 0x137 SLOAD PUSH1 0x40 MLOAD PUSH4 0x86BF3995 PUSH1 0xE0 SHL DUP2 MSTORE PUSH1 0x4 DUP2 ADD SWAP2 SWAP1 SWAP2 MSTORE DUP7 CALLDATALOAD PUSH1 0x24 DUP3 ADD MSTORE PUSH1 0x44 ADD PUSH2 0xF47 JUMP JUMPDEST PUSH2 0x138 SLOAD PUSH1 0x20 DUP8 ADD CALLDATALOAD LT ISZERO PUSH2 0x1C0A JUMPI PUSH2 0x138 SLOAD PUSH1 0x40 MLOAD PUSH4 0xF290755 PUSH1 0xE3 SHL DUP2 MSTORE PUSH1 0x4 DUP2 ADD SWAP2 SWAP1 SWAP2 MSTORE PUSH1 0x20 DUP8 ADD CALLDATALOAD PUSH1 0x24 DUP3 ADD MSTORE PUSH1 0x44 ADD PUSH2 0xF47 JUMP JUMPDEST DUP6 CALLDATALOAD PUSH2 0x134 SSTORE PUSH1 0x20 DUP7 ADD CALLDATALOAD PUSH2 0x135 SSTORE PUSH1 0x40 DUP7 ADD CALLDATALOAD PUSH2 0x136 SSTORE DUP3 ISZERO PUSH2 0x1C30 JUMPI PUSH2 0x1C30 PUSH2 0x2F26 JUMP JUMPDEST PUSH32 0x3FBD0E6036CF99EEC9FFC75FD3D22EFF10FA7D6C549048B45F5EAFD2CB9A8CCF DUP9 DUP9 DUP6 DUP6 DUP10 DUP10 PUSH1 0x40 MLOAD PUSH2 0x1C69 SWAP7 SWAP6 SWAP5 SWAP4 SWAP3 SWAP2 SWAP1 PUSH2 0x40A9 JUMP JUMPDEST PUSH1 0x40 MLOAD DUP1 SWAP2 SUB SWAP1 LOG1 POP POP POP POP POP POP POP POP JUMP JUMPDEST PUSH2 0x142 DUP1 SLOAD PUSH2 0xE30 SWAP1 PUSH2 0x3EDB JUMP JUMPDEST PUSH1 0x0 DUP1 MLOAD PUSH1 0x20 PUSH2 0x447D DUP4 CODECOPY DUP2 MLOAD SWAP2 MSTORE PUSH2 0x1CA1 DUP2 PUSH2 0x2DB2 JUMP JUMPDEST PUSH1 0x40 MLOAD SELFBALANCE SWAP1 PUSH1 0x1 PUSH1 0x1 PUSH1 0xA0 SHL SUB DUP5 AND SWAP1 PUSH2 0x8FC DUP4 ISZERO MUL SWAP1 DUP4 SWAP1 PUSH1 0x0 DUP2 DUP2 DUP2 DUP6 DUP9 DUP9 CALL SWAP4 POP POP POP POP ISZERO DUP1 ISZERO PUSH2 0x1CD9 JUMPI RETURNDATASIZE PUSH1 0x0 DUP1 RETURNDATACOPY RETURNDATASIZE PUSH1 0x0 REVERT JUMPDEST POP PUSH1 0x40 DUP1 MLOAD CALLER DUP2 MSTORE PUSH1 0x1 PUSH1 0x1 PUSH1 0xA0 SHL SUB DUP6 AND PUSH1 0x20 DUP3 ADD MSTORE SWAP1 DUP2 ADD DUP3 SWAP1 MSTORE PUSH32 0x50630162AF2FE1B3638257703351230FBE331EC0B7368ABA0EB78F2DABD03C0C SWAP1 PUSH1 0x60 ADD PUSH2 0x109C JUMP JUMPDEST PUSH1 0x0 DUP1 MLOAD PUSH1 0x20 PUSH2 0x449D DUP4 CODECOPY DUP2 MLOAD SWAP2 MSTORE PUSH2 0x1D38 DUP2 PUSH2 0x2DB2 JUMP JUMPDEST PUSH1 0x0 PUSH2 0x143 SLOAD PUSH2 0x100 SWAP1 DIV PUSH1 0xFF AND PUSH1 0x3 DUP2 GT ISZERO PUSH2 0x1D57 JUMPI PUSH2 0x1D57 PUSH2 0x390C JUMP JUMPDEST EQ PUSH2 0x1D75 JUMPI PUSH1 0x40 MLOAD PUSH4 0x167F79D PUSH1 0xE5 SHL DUP2 MSTORE PUSH1 0x4 ADD PUSH1 0x40 MLOAD DUP1 SWAP2 SUB SWAP1 REVERT JUMPDEST TIMESTAMP PUSH2 0x12F SLOAD PUSH2 0x12D SLOAD PUSH2 0x1D88 SWAP2 SWAP1 PUSH2 0x3F26 JUMP JUMPDEST GT ISZERO PUSH2 0x1DA7 JUMPI PUSH1 0x40 MLOAD PUSH4 0xEE196B8D PUSH1 0xE0 SHL DUP2 MSTORE PUSH1 0x4 ADD PUSH1 0x40 MLOAD DUP1 SWAP2 SUB SWAP1 REVERT JUMPDEST DUP6 CALLDATALOAD PUSH2 0x2D1 EQ ISZERO PUSH2 0x1EBA JUMPI PUSH2 0x143 DUP1 SLOAD PUSH1 0xFF NOT AND SWAP1 SSTORE DUP3 MLOAD PUSH2 0x1DD1 SWAP1 PUSH2 0x141 SWAP1 PUSH1 0x20 DUP7 ADD SWAP1 PUSH2 0x3659 JUMP JUMPDEST POP PUSH2 0x1DDF PUSH1 0x20 DUP9 ADD DUP9 PUSH2 0x396C JUMP JUMPDEST PUSH1 0x40 MLOAD PUSH4 0x1FFC9A7 PUSH1 0xE0 SHL DUP2 MSTORE PUSH4 0x80AC58CD PUSH1 0xE0 SHL PUSH1 0x4 DUP3 ADD MSTORE PUSH1 0x1 PUSH1 0x1 PUSH1 0xA0 SHL SUB SWAP2 SWAP1 SWAP2 AND SWAP1 PUSH4 0x1FFC9A7 SWAP1 PUSH1 0x24 ADD PUSH1 0x20 PUSH1 0x40 MLOAD DUP1 DUP4 SUB DUP2 DUP7 DUP1 EXTCODESIZE ISZERO DUP1 ISZERO PUSH2 0x1E27 JUMPI PUSH1 0x0 DUP1 REVERT JUMPDEST POP GAS STATICCALL ISZERO DUP1 ISZERO PUSH2 0x1E3B JUMPI RETURNDATASIZE PUSH1 0x0 DUP1 RETURNDATACOPY RETURNDATASIZE PUSH1 0x0 REVERT JUMPDEST POP POP POP POP PUSH1 0x40 MLOAD RETURNDATASIZE PUSH1 0x1F NOT PUSH1 0x1F DUP3 ADD AND DUP3 ADD DUP1 PUSH1 0x40 MSTORE POP DUP2 ADD SWAP1 PUSH2 0x1E5F SWAP2 SWAP1 PUSH2 0x41DE JUMP JUMPDEST ISZERO PUSH2 0x1EA1 JUMPI DUP7 PUSH1 0x0 JUMPDEST PUSH1 0x20 MUL ADD PUSH1 0x20 DUP2 ADD SWAP1 PUSH2 0x1E7B SWAP2 SWAP1 PUSH2 0x396C JUMP JUMPDEST PUSH2 0x13D DUP1 SLOAD PUSH1 0x1 PUSH1 0x1 PUSH1 0xA0 SHL SUB NOT AND PUSH1 0x1 PUSH1 0x1 PUSH1 0xA0 SHL SUB SWAP3 SWAP1 SWAP3 AND SWAP2 SWAP1 SWAP2 OR SWAP1 SSTORE PUSH2 0x1F9F JUMP JUMPDEST PUSH1 0x40 MLOAD PUSH4 0x9BCD3DD7 PUSH1 0xE0 SHL DUP2 MSTORE PUSH1 0x4 ADD PUSH1 0x40 MLOAD DUP1 SWAP2 SUB SWAP1 REVERT JUMPDEST DUP6 CALLDATALOAD PUSH2 0x483 EQ ISZERO PUSH2 0x1F86 JUMPI PUSH2 0x143 DUP1 SLOAD PUSH1 0xFF NOT AND PUSH1 0x1 OR SWAP1 SSTORE PUSH2 0x1EE0 PUSH1 0x20 DUP9 ADD DUP9 PUSH2 0x396C JUMP JUMPDEST PUSH1 0x40 MLOAD PUSH4 0x1FFC9A7 PUSH1 0xE0 SHL DUP2 MSTORE PUSH4 0x6CDB3D13 PUSH1 0xE1 SHL PUSH1 0x4 DUP3 ADD MSTORE PUSH1 0x1 PUSH1 0x1 PUSH1 0xA0 SHL SUB SWAP2 SWAP1 SWAP2 AND SWAP1 PUSH4 0x1FFC9A7 SWAP1 PUSH1 0x24 ADD PUSH1 0x20 PUSH1 0x40 MLOAD DUP1 DUP4 SUB DUP2 DUP7 DUP1 EXTCODESIZE ISZERO DUP1 ISZERO PUSH2 0x1F28 JUMPI PUSH1 0x0 DUP1 REVERT JUMPDEST POP GAS STATICCALL ISZERO DUP1 ISZERO PUSH2 0x1F3C JUMPI RETURNDATASIZE PUSH1 0x0 DUP1 RETURNDATACOPY RETURNDATASIZE PUSH1 0x0 REVERT JUMPDEST POP POP POP POP PUSH1 0x40 MLOAD RETURNDATASIZE PUSH1 0x1F NOT PUSH1 0x1F DUP3 ADD AND DUP3 ADD DUP1 PUSH1 0x40 MSTORE POP DUP2 ADD SWAP1 PUSH2 0x1F60 SWAP2 SWAP1 PUSH2 0x41DE JUMP JUMPDEST ISZERO PUSH2 0x1F6D JUMPI DUP7 PUSH1 0x0 PUSH2 0x1E68 JUMP JUMPDEST PUSH1 0x40 MLOAD PUSH4 0x793FB303 PUSH1 0xE1 SHL DUP2 MSTORE PUSH1 0x4 ADD PUSH1 0x40 MLOAD DUP1 SWAP2 SUB SWAP1 REVERT JUMPDEST PUSH1 0x40 MLOAD PUSH4 0x19A2D27B PUSH1 0xE2 SHL DUP2 MSTORE PUSH1 0x4 ADD PUSH1 0x40 MLOAD DUP1 SWAP2 SUB SWAP1 REVERT JUMPDEST PUSH2 0x1FAF PUSH1 0x40 DUP9 ADD PUSH1 0x20 DUP10 ADD PUSH2 0x396C JUMP JUMPDEST PUSH2 0x13E DUP1 SLOAD PUSH1 0x1 PUSH1 0x1 PUSH1 0xA0 SHL SUB NOT AND PUSH1 0x1 PUSH1 0x1 PUSH1 0xA0 SHL SUB SWAP3 SWAP1 SWAP3 AND SWAP2 SWAP1 SWAP2 OR SWAP1 SSTORE PUSH2 0x1FF7 PUSH1 0x0 DUP1 MLOAD PUSH1 0x20 PUSH2 0x447D DUP4 CODECOPY DUP2 MLOAD SWAP2 MSTORE PUSH2 0x1FF2 PUSH1 0x40 DUP11 ADD PUSH1 0x20 DUP12 ADD PUSH2 0x396C JUMP JUMPDEST PUSH2 0x2FBD JUMP JUMPDEST PUSH2 0x200F PUSH1 0x0 DUP1 MLOAD PUSH1 0x20 PUSH2 0x447D DUP4 CODECOPY DUP2 MLOAD SWAP2 MSTORE CALLER PUSH2 0x2FBD JUMP JUMPDEST PUSH2 0x2035 PUSH1 0x0 DUP1 MLOAD PUSH1 0x20 PUSH2 0x447D DUP4 CODECOPY DUP2 MLOAD SWAP2 MSTORE PUSH1 0x0 DUP1 MLOAD PUSH1 0x20 PUSH2 0x449D DUP4 CODECOPY DUP2 MLOAD SWAP2 MSTORE PUSH2 0x2FC7 JUMP JUMPDEST PUSH1 0x20 DUP7 ADD CALLDATALOAD PUSH2 0x132 SSTORE PUSH1 0x40 DUP7 ADD CALLDATALOAD PUSH2 0x131 SSTORE PUSH1 0x60 DUP7 ADD CALLDATALOAD DUP5 LT ISZERO PUSH2 0x206C JUMPI PUSH1 0x40 MLOAD PUSH4 0x2BFDECA3 PUSH1 0xE1 SHL DUP2 MSTORE PUSH1 0x4 ADD PUSH1 0x40 MLOAD DUP1 SWAP2 SUB SWAP1 REVERT JUMPDEST PUSH1 0x60 DUP7 ADD CALLDATALOAD PUSH2 0x133 SSTORE PUSH2 0x147 SLOAD ISZERO PUSH2 0x208B JUMPI PUSH2 0x208B PUSH2 0x147 PUSH1 0x0 PUSH2 0x36DD JUMP JUMPDEST PUSH1 0x0 JUMPDEST DUP5 DUP2 LT ISZERO PUSH2 0x20DF JUMPI PUSH2 0x147 DUP7 DUP7 DUP4 DUP2 DUP2 LT PUSH2 0x20AB JUMPI PUSH2 0x20AB PUSH2 0x3F71 JUMP JUMPDEST DUP4 SLOAD PUSH1 0x1 DUP2 ADD DUP6 SSTORE PUSH1 0x0 SWAP5 DUP6 MSTORE PUSH1 0x20 SWAP5 DUP6 SWAP1 KECCAK256 SWAP2 SWAP1 SWAP5 MUL SWAP3 SWAP1 SWAP3 ADD CALLDATALOAD SWAP2 SWAP1 SWAP3 ADD SSTORE POP DUP1 PUSH2 0x20D7 DUP2 PUSH2 0x3FE6 JUMP JUMPDEST SWAP2 POP POP PUSH2 0x208E JUMP JUMPDEST POP PUSH2 0x13F DUP3 SWAP1 SSTORE PUSH2 0x13E DUP1 SLOAD PUSH1 0xFF PUSH1 0xA0 SHL NOT AND PUSH1 0x1 PUSH1 0xA0 SHL OR SWAP1 SSTORE PUSH1 0x40 MLOAD PUSH32 0x144521D6B7A00AB709CF0A3B3F94D3C8ED8E8AE75C7485F805EB5526786B0715 SWAP1 PUSH2 0x2136 SWAP1 DUP10 SWAP1 DUP10 SWAP1 DUP10 SWAP1 DUP10 SWAP1 PUSH2 0x141 SWAP1 DUP10 SWAP1 PUSH2 0x41FB JUMP JUMPDEST PUSH1 0x40 MLOAD DUP1 SWAP2 SUB SWAP1 LOG1 POP POP POP POP POP POP POP JUMP JUMPDEST PUSH1 0x0 SWAP2 DUP3 MSTORE PUSH1 0xFB PUSH1 0x20 SWAP1 DUP2 MSTORE PUSH1 0x40 DUP1 DUP5 KECCAK256 PUSH1 0x1 PUSH1 0x1 PUSH1 0xA0 SHL SUB SWAP4 SWAP1 SWAP4 AND DUP5 MSTORE SWAP2 SWAP1 MSTORE SWAP1 KECCAK256 SLOAD PUSH1 0xFF AND SWAP1 JUMP JUMPDEST PUSH2 0x141 DUP1 SLOAD PUSH2 0xE30 SWAP1 PUSH2 0x3EDB JUMP JUMPDEST PUSH1 0x0 PUSH2 0x218C PUSH2 0x144 SLOAD SWAP1 JUMP JUMPDEST PUSH2 0x133 SLOAD PUSH2 0x219A SWAP2 SWAP1 PUSH2 0x3F3E JUMP JUMPDEST SWAP1 POP SWAP1 JUMP JUMPDEST PUSH2 0x146 DUP2 DUP2 SLOAD DUP2 LT PUSH2 0x21B0 JUMPI PUSH1 0x0 DUP1 REVERT JUMPDEST PUSH1 0x0 SWAP2 DUP3 MSTORE PUSH1 0x20 SWAP1 SWAP2 KECCAK256 ADD SLOAD PUSH1 0x1 PUSH1 0x1 PUSH1 0xA0 SHL SUB AND SWAP1 POP DUP2 JUMP JUMPDEST PUSH1 0x0 DUP1 MLOAD PUSH1 0x20 PUSH2 0x449D DUP4 CODECOPY DUP2 MLOAD SWAP2 MSTORE PUSH2 0x21E2 DUP2 PUSH2 0x2DB2 JUMP JUMPDEST PUSH2 0x143 DUP1 SLOAD PUSH2 0xFF00 NOT AND SWAP1 SSTORE PUSH1 0x40 MLOAD PUSH32 0x59DE45FD4A94A0F965E3A4D9194EA5243E0E1575EE2437DC238B2ACAA1884DE1 SWAP1 PUSH1 0x0 SWAP1 LOG1 POP JUMP JUMPDEST PUSH1 0x0 DUP1 MLOAD PUSH1 0x20 PUSH2 0x449D DUP4 CODECOPY DUP2 MLOAD SWAP2 MSTORE PUSH2 0x2232 DUP2 PUSH2 0x2DB2 JUMP JUMPDEST PUSH2 0x13E SLOAD PUSH1 0x1 PUSH1 0xA0 SHL SWAP1 DIV PUSH1 0xFF AND PUSH2 0x225D JUMPI PUSH1 0x40 MLOAD PUSH4 0xAF33F4FD PUSH1 0xE0 SHL DUP2 MSTORE PUSH1 0x4 ADD PUSH1 0x40 MLOAD DUP1 SWAP2 SUB SWAP1 REVERT JUMPDEST PUSH1 0x2 PUSH2 0x143 SLOAD PUSH2 0x100 SWAP1 DIV PUSH1 0xFF AND PUSH1 0x3 DUP2 GT ISZERO PUSH2 0x227C JUMPI PUSH2 0x227C PUSH2 0x390C JUMP JUMPDEST EQ DUP1 ISZERO PUSH2 0x2299 JUMPI POP TIMESTAMP PUSH2 0x132 SLOAD PUSH2 0x13A SLOAD PUSH2 0x2297 SWAP2 SWAP1 PUSH2 0x3F26 JUMP JUMPDEST GT JUMPDEST DUP1 ISZERO PUSH2 0x22A7 JUMPI POP PUSH2 0x146 SLOAD ISZERO ISZERO JUMPDEST ISZERO PUSH2 0x22C5 JUMPI PUSH1 0x40 MLOAD PUSH4 0xAED6A6A9 PUSH1 0xE0 SHL DUP2 MSTORE PUSH1 0x4 ADD PUSH1 0x40 MLOAD DUP1 SWAP2 SUB SWAP1 REVERT JUMPDEST PUSH2 0x143 DUP1 SLOAD PUSH2 0xFF00 NOT AND PUSH2 0x100 OR SWAP1 SSTORE PUSH1 0x40 MLOAD PUSH32 0xC6B593B6D42393D9D99FAE27598A8A34E8FA1D7342AC9734145340E0B52D0E4A SWAP1 PUSH1 0x0 SWAP1 LOG1 POP JUMP JUMPDEST PUSH1 0x0 DUP1 DUP1 PUSH1 0x60 PUSH1 0x1 PUSH2 0x143 SLOAD PUSH2 0x100 SWAP1 DIV PUSH1 0xFF AND PUSH1 0x3 DUP2 GT ISZERO PUSH2 0x2326 JUMPI PUSH2 0x2326 PUSH2 0x390C JUMP JUMPDEST EQ ISZERO PUSH2 0x2383 JUMPI DUP5 PUSH2 0x2335 PUSH2 0x2180 JUMP JUMPDEST LT ISZERO PUSH2 0x2354 JUMPI PUSH1 0x40 MLOAD PUSH4 0x8562E985 PUSH1 0xE0 SHL DUP2 MSTORE PUSH1 0x4 ADD PUSH1 0x40 MLOAD DUP1 SWAP2 SUB SWAP1 REVERT JUMPDEST PUSH2 0x131 SLOAD PUSH2 0x2362 SWAP1 DUP7 PUSH2 0x4310 JUMP JUMPDEST SWAP4 POP PUSH2 0x236D DUP5 PUSH2 0x3012 JUMP JUMPDEST SWAP1 SWAP4 POP SWAP2 POP PUSH2 0x237C CALLER DUP7 PUSH2 0x30E6 JUMP JUMPDEST SWAP1 POP PUSH2 0x2930 JUMP JUMPDEST PUSH1 0x2 PUSH2 0x143 SLOAD PUSH2 0x100 SWAP1 DIV PUSH1 0xFF AND PUSH1 0x3 DUP2 GT ISZERO PUSH2 0x23A2 JUMPI PUSH2 0x23A2 PUSH2 0x390C JUMP JUMPDEST EQ ISZERO PUSH2 0x290E JUMPI TIMESTAMP PUSH2 0x132 SLOAD PUSH2 0x13A SLOAD PUSH2 0x23BB SWAP2 SWAP1 PUSH2 0x3F26 JUMP JUMPDEST LT ISZERO PUSH2 0x23DA JUMPI PUSH1 0x40 MLOAD PUSH4 0xC35E6FED PUSH1 0xE0 SHL DUP2 MSTORE PUSH1 0x4 ADD PUSH1 0x40 MLOAD DUP1 SWAP2 SUB SWAP1 REVERT JUMPDEST PUSH2 0x23E3 CALLER PUSH2 0x63F JUMP JUMPDEST PUSH2 0x2400 JUMPI PUSH1 0x40 MLOAD PUSH4 0xB094F27 PUSH1 0xE3 SHL DUP2 MSTORE PUSH1 0x4 ADD PUSH1 0x40 MLOAD DUP1 SWAP2 SUB SWAP1 REVERT JUMPDEST CALLER PUSH1 0x0 SWAP1 DUP2 MSTORE PUSH2 0x145 PUSH1 0x20 SWAP1 DUP2 MSTORE PUSH1 0x40 DUP1 DUP4 KECCAK256 DUP2 MLOAD DUP2 SLOAD SWAP4 DUP5 MUL DUP2 ADD PUSH2 0x180 SWAP1 DUP2 ADD SWAP1 SWAP4 MSTORE PUSH2 0x160 DUP2 ADD DUP5 DUP2 MSTORE SWAP1 SWAP4 SWAP2 SWAP3 DUP5 SWAP3 DUP5 SWAP2 DUP5 ADD DUP3 DUP3 DUP1 ISZERO PUSH2 0x2464 JUMPI PUSH1 0x20 MUL DUP3 ADD SWAP2 SWAP1 PUSH1 0x0 MSTORE PUSH1 0x20 PUSH1 0x0 KECCAK256 SWAP1 JUMPDEST DUP2 SLOAD DUP2 MSTORE PUSH1 0x20 ADD SWAP1 PUSH1 0x1 ADD SWAP1 DUP1 DUP4 GT PUSH2 0x2450 JUMPI JUMPDEST POP POP POP POP POP DUP2 MSTORE PUSH1 0x20 ADD PUSH1 0x1 DUP3 ADD DUP1 SLOAD DUP1 PUSH1 0x20 MUL PUSH1 0x20 ADD PUSH1 0x40 MLOAD SWAP1 DUP2 ADD PUSH1 0x40 MSTORE DUP1 SWAP3 SWAP2 SWAP1 DUP2 DUP2 MSTORE PUSH1 0x20 ADD DUP3 DUP1 SLOAD DUP1 ISZERO PUSH2 0x24DC JUMPI PUSH1 0x20 MUL DUP3 ADD SWAP2 SWAP1 PUSH1 0x0 MSTORE PUSH1 0x20 PUSH1 0x0 KECCAK256 SWAP1 PUSH1 0x0 SWAP1 JUMPDEST DUP3 SLOAD PUSH2 0x100 DUP4 SWAP1 EXP SWAP1 DIV PUSH1 0xFF AND ISZERO ISZERO DUP2 MSTORE PUSH1 0x20 PUSH1 0x1 SWAP3 DUP4 ADD DUP2 DUP2 DIV SWAP5 DUP6 ADD SWAP5 SWAP1 SWAP4 SUB SWAP1 SWAP3 MUL SWAP2 ADD DUP1 DUP5 GT PUSH2 0x24AB JUMPI SWAP1 POP JUMPDEST POP POP POP SWAP2 DUP4 MSTORE POP POP PUSH1 0x2 DUP3 ADD SLOAD PUSH1 0x20 DUP3 ADD MSTORE PUSH1 0x3 DUP3 ADD SLOAD PUSH1 0x40 DUP3 ADD MSTORE PUSH1 0x4 DUP3 ADD SLOAD PUSH1 0x60 DUP3 ADD MSTORE PUSH1 0x5 DUP3 ADD SLOAD PUSH1 0x80 DUP3 ADD MSTORE PUSH1 0x6 DUP3 ADD SLOAD PUSH1 0xA0 DUP3 ADD MSTORE PUSH1 0x7 DUP3 ADD SLOAD PUSH1 0xC0 DUP3 ADD MSTORE PUSH1 0x8 SWAP1 SWAP2 ADD SLOAD PUSH4 0xFFFFFFFF DUP2 AND PUSH1 0xE0 DUP4 ADD MSTORE PUSH1 0xFF PUSH5 0x100000000 DUP3 DIV DUP2 AND ISZERO ISZERO PUSH2 0x100 DUP5 ADD MSTORE PUSH6 0x10000000000 SWAP1 SWAP2 DIV AND ISZERO ISZERO PUSH2 0x120 SWAP1 SWAP2 ADD MSTORE PUSH2 0x140 DUP2 ADD MLOAD SWAP1 SWAP2 POP ISZERO PUSH2 0x2581 JUMPI PUSH1 0x40 MLOAD PUSH4 0x4B9129F1 PUSH1 0xE0 SHL DUP2 MSTORE PUSH1 0x4 ADD PUSH1 0x40 MLOAD DUP1 SWAP2 SUB SWAP1 REVERT JUMPDEST DUP9 PUSH2 0x258B CALLER PUSH2 0x10A9 JUMP JUMPDEST LT ISZERO PUSH2 0x25AA JUMPI PUSH1 0x40 MLOAD PUSH4 0x46EB921 PUSH1 0xE1 SHL DUP2 MSTORE PUSH1 0x4 ADD PUSH1 0x40 MLOAD DUP1 SWAP2 SUB SWAP1 REVERT JUMPDEST DUP8 PUSH2 0x25B4 CALLER PUSH2 0x2A17 JUMP JUMPDEST LT ISZERO PUSH2 0x25D3 JUMPI PUSH1 0x40 MLOAD PUSH4 0xA8366B09 PUSH1 0xE0 SHL DUP2 MSTORE PUSH1 0x4 ADD PUSH1 0x40 MLOAD DUP1 SWAP2 SUB SWAP1 REVERT JUMPDEST DUP7 PUSH2 0x25DD CALLER PUSH2 0x2CCB JUMP JUMPDEST LT ISZERO PUSH2 0x25FC JUMPI PUSH1 0x40 MLOAD PUSH4 0x5AFD535B PUSH1 0xE1 SHL DUP2 MSTORE PUSH1 0x4 ADD PUSH1 0x40 MLOAD DUP1 SWAP2 SUB SWAP1 REVERT JUMPDEST DUP7 PUSH2 0x2605 PUSH2 0x2A89 JUMP JUMPDEST LT ISZERO PUSH2 0x2624 JUMPI PUSH1 0x40 MLOAD PUSH4 0xFA4CB323 PUSH1 0xE0 SHL DUP2 MSTORE PUSH1 0x4 ADD PUSH1 0x40 MLOAD DUP1 SWAP2 SUB SWAP1 REVERT JUMPDEST PUSH1 0x0 DUP8 PUSH2 0x2631 DUP11 DUP13 PUSH2 0x3F26 JUMP JUMPDEST PUSH2 0x263B SWAP2 SWAP1 PUSH2 0x3F26 JUMP JUMPDEST SWAP1 POP DUP1 PUSH2 0x2646 PUSH2 0x2180 JUMP JUMPDEST LT ISZERO PUSH2 0x2665 JUMPI PUSH1 0x40 MLOAD PUSH4 0x1996B5F9 PUSH1 0xE2 SHL DUP2 MSTORE PUSH1 0x4 ADD PUSH1 0x40 MLOAD DUP1 SWAP2 SUB SWAP1 REVERT JUMPDEST PUSH2 0x266F DUP10 DUP10 PUSH2 0x2A45 JUMP JUMPDEST SWAP6 POP PUSH2 0x267A DUP7 PUSH2 0x3012 JUMP JUMPDEST SWAP1 SWAP6 POP SWAP4 POP DUP10 ISZERO PUSH2 0x26AA JUMPI DUP10 DUP3 PUSH1 0xA0 ADD MLOAD PUSH2 0x2695 SWAP2 SWAP1 PUSH2 0x3F26 JUMP JUMPDEST CALLER PUSH1 0x0 SWAP1 DUP2 MSTORE PUSH2 0x145 PUSH1 0x20 MSTORE PUSH1 0x40 SWAP1 KECCAK256 PUSH1 0x5 ADD SSTORE JUMPDEST DUP9 ISZERO PUSH2 0x26D5 JUMPI DUP9 DUP3 PUSH1 0xE0 ADD MLOAD PUSH2 0x26C0 SWAP2 SWAP1 PUSH2 0x3F26 JUMP JUMPDEST CALLER PUSH1 0x0 SWAP1 DUP2 MSTORE PUSH2 0x145 PUSH1 0x20 MSTORE PUSH1 0x40 SWAP1 KECCAK256 PUSH1 0x7 ADD SSTORE JUMPDEST DUP8 ISZERO PUSH2 0x2700 JUMPI DUP8 DUP3 PUSH1 0xC0 ADD MLOAD PUSH2 0x26EB SWAP2 SWAP1 PUSH2 0x3F26 JUMP JUMPDEST CALLER PUSH1 0x0 SWAP1 DUP2 MSTORE PUSH2 0x145 PUSH1 0x20 MSTORE PUSH1 0x40 SWAP1 KECCAK256 PUSH1 0x6 ADD SSTORE JUMPDEST PUSH1 0x0 DUP1 DUP1 DUP1 JUMPDEST DUP6 MLOAD MLOAD DUP2 LT ISZERO PUSH2 0x28F7 JUMPI DUP14 DUP5 GT ISZERO DUP1 ISZERO PUSH2 0x273E JUMPI POP PUSH2 0x2710 DUP7 PUSH1 0x0 ADD MLOAD DUP3 DUP2 MLOAD DUP2 LT PUSH2 0x2734 JUMPI PUSH2 0x2734 PUSH2 0x3F71 JUMP JUMPDEST PUSH1 0x20 MUL PUSH1 0x20 ADD ADD MLOAD EQ JUMPDEST ISZERO PUSH2 0x27A6 JUMPI CALLER PUSH1 0x0 SWAP1 DUP2 MSTORE PUSH2 0x145 PUSH1 0x20 MSTORE PUSH1 0x40 SWAP1 KECCAK256 PUSH1 0x1 SWAP1 DUP2 ADD DUP1 SLOAD DUP4 SWAP1 DUP2 LT PUSH2 0x276A JUMPI PUSH2 0x276A PUSH2 0x3F71 JUMP JUMPDEST SWAP1 PUSH1 0x0 MSTORE PUSH1 0x20 PUSH1 0x0 KECCAK256 SWAP1 PUSH1 0x20 SWAP2 DUP3 DUP3 DIV ADD SWAP2 SWAP1 MOD PUSH2 0x100 EXP DUP2 SLOAD DUP2 PUSH1 0xFF MUL NOT AND SWAP1 DUP4 ISZERO ISZERO MUL OR SWAP1 SSTORE POP DUP4 DUP1 PUSH2 0x279E SWAP1 PUSH2 0x3FE6 JUMP JUMPDEST SWAP5 POP POP PUSH2 0x28E5 JUMP JUMPDEST DUP13 DUP4 GT ISZERO DUP1 ISZERO PUSH2 0x27D4 JUMPI POP PUSH2 0x2711 DUP7 PUSH1 0x0 ADD MLOAD DUP3 DUP2 MLOAD DUP2 LT PUSH2 0x27CA JUMPI PUSH2 0x27CA PUSH2 0x3F71 JUMP JUMPDEST PUSH1 0x20 MUL PUSH1 0x20 ADD ADD MLOAD EQ JUMPDEST ISZERO PUSH2 0x283C JUMPI CALLER PUSH1 0x0 SWAP1 DUP2 MSTORE PUSH2 0x145 PUSH1 0x20 MSTORE PUSH1 0x40 SWAP1 KECCAK256 PUSH1 0x1 SWAP1 DUP2 ADD DUP1 SLOAD DUP4 SWAP1 DUP2 LT PUSH2 0x2800 JUMPI PUSH2 0x2800 PUSH2 0x3F71 JUMP JUMPDEST SWAP1 PUSH1 0x0 MSTORE PUSH1 0x20 PUSH1 0x0 KECCAK256 SWAP1 PUSH1 0x20 SWAP2 DUP3 DUP3 DIV ADD SWAP2 SWAP1 MOD PUSH2 0x100 EXP DUP2 SLOAD DUP2 PUSH1 0xFF MUL NOT AND SWAP1 DUP4 ISZERO ISZERO MUL OR SWAP1 SSTORE POP DUP3 DUP1 PUSH2 0x2834 SWAP1 PUSH2 0x3FE6 JUMP JUMPDEST SWAP4 POP POP PUSH2 0x28E5 JUMP JUMPDEST DUP12 DUP3 GT ISZERO DUP1 ISZERO PUSH2 0x2869 JUMPI POP PUSH1 0x0 DUP7 PUSH1 0x0 ADD MLOAD DUP3 DUP2 MLOAD DUP2 LT PUSH2 0x285F JUMPI PUSH2 0x285F PUSH2 0x3F71 JUMP JUMPDEST PUSH1 0x20 MUL PUSH1 0x20 ADD ADD MLOAD EQ JUMPDEST ISZERO PUSH2 0x28E5 JUMPI CALLER PUSH1 0x0 SWAP1 DUP2 MSTORE PUSH2 0x145 PUSH1 0x20 MSTORE PUSH1 0x40 SWAP1 KECCAK256 PUSH1 0x1 SWAP1 DUP2 ADD DUP1 SLOAD DUP4 SWAP1 DUP2 LT PUSH2 0x2895 JUMPI PUSH2 0x2895 PUSH2 0x3F71 JUMP JUMPDEST SWAP1 PUSH1 0x0 MSTORE PUSH1 0x20 PUSH1 0x0 KECCAK256 SWAP1 PUSH1 0x20 SWAP2 DUP3 DUP3 DIV ADD SWAP2 SWAP1 MOD PUSH2 0x100 EXP DUP2 SLOAD DUP2 PUSH1 0xFF MUL NOT AND SWAP1 DUP4 ISZERO ISZERO MUL OR SWAP1 SSTORE POP DUP2 DUP1 PUSH2 0x28C9 SWAP1 PUSH2 0x3FE6 JUMP JUMPDEST PUSH2 0x139 DUP1 SLOAD SWAP2 SWAP5 POP SWAP1 SWAP2 POP PUSH1 0x0 PUSH2 0x28DF DUP4 PUSH2 0x3FE6 JUMP JUMPDEST SWAP2 SWAP1 POP SSTORE POP JUMPDEST DUP1 PUSH2 0x28EF DUP2 PUSH2 0x3FE6 JUMP JUMPDEST SWAP2 POP POP PUSH2 0x2706 JUMP JUMPDEST POP PUSH2 0x2902 CALLER DUP6 PUSH2 0x30E6 JUMP JUMPDEST SWAP6 POP POP POP POP POP POP PUSH2 0x2930 JUMP JUMPDEST PUSH1 0x3 PUSH2 0x143 SLOAD PUSH2 0x100 SWAP1 DIV PUSH1 0xFF AND PUSH1 0x3 DUP2 GT ISZERO PUSH2 0x292D JUMPI PUSH2 0x292D PUSH2 0x390C JUMP JUMPDEST POP POP JUMPDEST CALLER PUSH1 0x1 PUSH1 0x1 PUSH1 0xA0 SHL SUB AND PUSH32 0x52BB4130ED89C2C892E5FC190DA1FA22ED6C9E7162029F2447338D518B24A78F DUP6 DUP6 DUP12 DUP7 DUP13 DUP13 DUP9 PUSH1 0x40 MLOAD PUSH2 0x2975 SWAP8 SWAP7 SWAP6 SWAP5 SWAP4 SWAP3 SWAP2 SWAP1 PUSH2 0x432F JUMP JUMPDEST PUSH1 0x40 MLOAD DUP1 SWAP2 SUB SWAP1 LOG2 POP POP POP POP POP POP POP POP JUMP JUMPDEST PUSH1 0x1 PUSH1 0x1 PUSH1 0xA0 SHL SUB DUP2 AND PUSH1 0x0 SWAP1 DUP2 MSTORE PUSH2 0x145 PUSH1 0x20 SWAP1 DUP2 MSTORE PUSH1 0x40 SWAP2 DUP3 SWAP1 KECCAK256 PUSH1 0x1 ADD DUP1 SLOAD DUP4 MLOAD DUP2 DUP5 MUL DUP2 ADD DUP5 ADD SWAP1 SWAP5 MSTORE DUP1 DUP5 MSTORE PUSH1 0x60 SWAP4 SWAP3 DUP4 ADD DUP3 DUP3 DUP1 ISZERO PUSH2 0x2A0B JUMPI PUSH1 0x20 MUL DUP3 ADD SWAP2 SWAP1 PUSH1 0x0 MSTORE PUSH1 0x20 PUSH1 0x0 KECCAK256 SWAP1 PUSH1 0x0 SWAP1 JUMPDEST DUP3 SLOAD PUSH2 0x100 DUP4 SWAP1 EXP SWAP1 DIV PUSH1 0xFF AND ISZERO ISZERO DUP2 MSTORE PUSH1 0x20 PUSH1 0x1 SWAP3 DUP4 ADD DUP2 DUP2 DIV SWAP5 DUP6 ADD SWAP5 SWAP1 SWAP4 SUB SWAP1 SWAP3 MUL SWAP2 ADD DUP1 DUP5 GT PUSH2 0x29DA JUMPI SWAP1 POP JUMPDEST POP POP POP POP POP SWAP1 POP SWAP2 SWAP1 POP JUMP JUMPDEST PUSH1 0x1 PUSH1 0x1 PUSH1 0xA0 SHL SUB DUP2 AND PUSH1 0x0 SWAP1 DUP2 MSTORE PUSH2 0x145 PUSH1 0x20 MSTORE PUSH1 0x40 DUP2 KECCAK256 PUSH1 0x7 DUP2 ADD SLOAD PUSH1 0x3 SWAP1 SWAP2 ADD SLOAD PUSH2 0xE1C SWAP2 SWAP1 PUSH2 0x3F3E JUMP JUMPDEST PUSH2 0x131 SLOAD PUSH1 0x0 SWAP1 PUSH2 0x2A56 DUP4 DUP6 PUSH2 0x3F26 JUMP JUMPDEST PUSH2 0x2A60 SWAP2 SWAP1 PUSH2 0x4310 JUMP JUMPDEST SWAP4 SWAP3 POP POP POP JUMP JUMPDEST PUSH2 0x147 DUP2 DUP2 SLOAD DUP2 LT PUSH2 0x2A78 JUMPI PUSH1 0x0 DUP1 REVERT JUMPDEST PUSH1 0x0 SWAP2 DUP3 MSTORE PUSH1 0x20 SWAP1 SWAP2 KECCAK256 ADD SLOAD SWAP1 POP DUP2 JUMP JUMPDEST PUSH1 0x0 PUSH2 0x139 SLOAD PUSH2 0x136 SLOAD PUSH2 0x219A SWAP2 SWAP1 PUSH2 0x3F3E JUMP JUMPDEST PUSH1 0x0 DUP3 DUP2 MSTORE PUSH1 0xFB PUSH1 0x20 MSTORE PUSH1 0x40 SWAP1 KECCAK256 PUSH1 0x1 ADD SLOAD PUSH2 0x2AB8 DUP2 PUSH2 0x2DB2 JUMP JUMPDEST PUSH2 0xED6 DUP4 DUP4 PUSH2 0x2E45 JUMP JUMPDEST PUSH2 0x146 SLOAD PUSH1 0x60 SWAP1 PUSH1 0x0 SWAP1 PUSH1 0x1 PUSH1 0x1 PUSH1 0x40 SHL SUB DUP2 GT ISZERO PUSH2 0x2AE3 JUMPI PUSH2 0x2AE3 PUSH2 0x37D3 JUMP JUMPDEST PUSH1 0x40 MLOAD SWAP1 DUP1 DUP3 MSTORE DUP1 PUSH1 0x20 MUL PUSH1 0x20 ADD DUP3 ADD PUSH1 0x40 MSTORE DUP1 ISZERO PUSH2 0x2B0C JUMPI DUP2 PUSH1 0x20 ADD PUSH1 0x20 DUP3 MUL DUP1 CALLDATASIZE DUP4 CALLDATACOPY ADD SWAP1 POP JUMPDEST POP SWAP1 POP PUSH1 0x0 JUMPDEST PUSH2 0x146 SLOAD DUP2 LT ISZERO PUSH2 0x2B8B JUMPI PUSH2 0x146 DUP2 DUP2 SLOAD DUP2 LT PUSH2 0x2B31 JUMPI PUSH2 0x2B31 PUSH2 0x3F71 JUMP JUMPDEST SWAP1 PUSH1 0x0 MSTORE PUSH1 0x20 PUSH1 0x0 KECCAK256 ADD PUSH1 0x0 SWAP1 SLOAD SWAP1 PUSH2 0x100 EXP SWAP1 DIV PUSH1 0x1 PUSH1 0x1 PUSH1 0xA0 SHL SUB AND DUP3 DUP3 DUP2 MLOAD DUP2 LT PUSH2 0x2B61 JUMPI PUSH2 0x2B61 PUSH2 0x3F71 JUMP JUMPDEST PUSH1 0x1 PUSH1 0x1 PUSH1 0xA0 SHL SUB SWAP1 SWAP3 AND PUSH1 0x20 SWAP3 DUP4 MUL SWAP2 SWAP1 SWAP2 ADD SWAP1 SWAP2 ADD MSTORE DUP1 PUSH2 0x2B83 DUP2 PUSH2 0x3FE6 JUMP JUMPDEST SWAP2 POP POP PUSH2 0x2B12 JUMP JUMPDEST POP SWAP2 SWAP1 POP JUMP JUMPDEST PUSH1 0x0 DUP1 MLOAD PUSH1 0x20 PUSH2 0x449D DUP4 CODECOPY DUP2 MLOAD SWAP2 MSTORE PUSH2 0x2BA9 DUP2 PUSH2 0x2DB2 JUMP JUMPDEST PUSH1 0x0 JUMPDEST DUP3 MLOAD DUP2 LT ISZERO PUSH2 0x2C23 JUMPI PUSH1 0x0 PUSH2 0x145 PUSH1 0x0 DUP6 DUP5 DUP2 MLOAD DUP2 LT PUSH2 0x2BCE JUMPI PUSH2 0x2BCE PUSH2 0x3F71 JUMP JUMPDEST PUSH1 0x20 MUL PUSH1 0x20 ADD ADD MLOAD PUSH1 0x1 PUSH1 0x1 PUSH1 0xA0 SHL SUB AND PUSH1 0x1 PUSH1 0x1 PUSH1 0xA0 SHL SUB AND DUP2 MSTORE PUSH1 0x20 ADD SWAP1 DUP2 MSTORE PUSH1 0x20 ADD PUSH1 0x0 KECCAK256 PUSH1 0x8 ADD PUSH1 0x5 PUSH2 0x100 EXP DUP2 SLOAD DUP2 PUSH1 0xFF MUL NOT AND SWAP1 DUP4 ISZERO ISZERO MUL OR SWAP1 SSTORE POP DUP1 DUP1 PUSH2 0x2C1B SWAP1 PUSH2 0x3FE6 JUMP JUMPDEST SWAP2 POP POP PUSH2 0x2BAC JUMP JUMPDEST POP PUSH32 0x3236A9533D81447296A4E6AD83F2E4402BDBDD6DA9A4741EBEF63D0E7B719239 DUP3 PUSH1 0x40 MLOAD PUSH2 0x2C53 SWAP2 SWAP1 PUSH2 0x3D4B JUMP JUMPDEST PUSH1 0x40 MLOAD DUP1 SWAP2 SUB SWAP1 LOG1 POP POP JUMP JUMPDEST PUSH1 0x1 PUSH1 0x1 PUSH1 0xA0 SHL SUB DUP2 AND PUSH1 0x0 SWAP1 DUP2 MSTORE PUSH2 0x145 PUSH1 0x20 SWAP1 DUP2 MSTORE PUSH1 0x40 SWAP2 DUP3 SWAP1 KECCAK256 DUP1 SLOAD DUP4 MLOAD DUP2 DUP5 MUL DUP2 ADD DUP5 ADD SWAP1 SWAP5 MSTORE DUP1 DUP5 MSTORE PUSH1 0x60 SWAP4 SWAP3 DUP4 ADD DUP3 DUP3 DUP1 ISZERO PUSH2 0x2A0B JUMPI PUSH1 0x20 MUL DUP3 ADD SWAP2 SWAP1 PUSH1 0x0 MSTORE PUSH1 0x20 PUSH1 0x0 KECCAK256 SWAP1 JUMPDEST DUP2 SLOAD DUP2 MSTORE PUSH1 0x20 ADD SWAP1 PUSH1 0x1 ADD SWAP1 DUP1 DUP4 GT PUSH2 0x2CAC JUMPI POP POP POP POP POP SWAP1 POP SWAP2 SWAP1 POP JUMP JUMPDEST PUSH1 0x1 PUSH1 0x1 PUSH1 0xA0 SHL SUB DUP2 AND PUSH1 0x0 SWAP1 DUP2 MSTORE PUSH2 0x145 PUSH1 0x20 MSTORE PUSH1 0x40 DUP2 KECCAK256 PUSH1 0x6 DUP2 ADD SLOAD PUSH1 0x4 SWAP1 SWAP2 ADD SLOAD PUSH2 0xE1C SWAP2 SWAP1 PUSH2 0x3F3E JUMP JUMPDEST PUSH1 0x0 DUP1 MLOAD PUSH1 0x20 PUSH2 0x449D DUP4 CODECOPY DUP2 MLOAD SWAP2 MSTORE PUSH2 0x2D11 DUP2 PUSH2 0x2DB2 JUMP JUMPDEST PUSH1 0x1 PUSH2 0x143 SLOAD PUSH2 0x100 SWAP1 DIV PUSH1 0xFF AND PUSH1 0x3 DUP2 GT ISZERO PUSH2 0x2D30 JUMPI PUSH2 0x2D30 PUSH2 0x390C JUMP JUMPDEST EQ PUSH2 0x2D4E JUMPI PUSH1 0x40 MLOAD PUSH4 0x2120E739 PUSH1 0xE0 SHL DUP2 MSTORE PUSH1 0x4 ADD PUSH1 0x40 MLOAD DUP1 SWAP2 SUB SWAP1 REVERT JUMPDEST PUSH2 0x131 DUP1 SLOAD SWAP1 DUP4 SWAP1 SSTORE PUSH1 0x40 DUP1 MLOAD DUP5 DUP2 MSTORE PUSH1 0x20 DUP2 ADD DUP4 SWAP1 MSTORE PUSH32 0xCAAB71B360BB6A7DE7628BE9BF4ED3C17AEB9E51A00CDB9C946BD71F0FC1FCB8 SWAP2 ADD PUSH2 0x109C JUMP JUMPDEST PUSH1 0x0 PUSH1 0x1 PUSH1 0x1 PUSH1 0xE0 SHL SUB NOT DUP3 AND PUSH4 0x7965DB0B PUSH1 0xE0 SHL EQ DUP1 PUSH2 0xE1C JUMPI POP PUSH2 0xE1C DUP3 PUSH2 0x340C JUMP JUMPDEST PUSH2 0x2DBC DUP2 CALLER PUSH2 0x3441 JUMP JUMPDEST POP JUMP JUMPDEST PUSH2 0x2DC9 DUP3 DUP3 PUSH2 0x2147 JUMP JUMPDEST PUSH2 0xF5A JUMPI PUSH1 0x0 DUP3 DUP2 MSTORE PUSH1 0xFB PUSH1 0x20 SWAP1 DUP2 MSTORE PUSH1 0x40 DUP1 DUP4 KECCAK256 PUSH1 0x1 PUSH1 0x1 PUSH1 0xA0 SHL SUB DUP6 AND DUP5 MSTORE SWAP1 SWAP2 MSTORE SWAP1 KECCAK256 DUP1 SLOAD PUSH1 0xFF NOT AND PUSH1 0x1 OR SWAP1 SSTORE PUSH2 0x2E01 CALLER SWAP1 JUMP JUMPDEST PUSH1 0x1 PUSH1 0x1 PUSH1 0xA0 SHL SUB AND DUP2 PUSH1 0x1 PUSH1 0x1 PUSH1 0xA0 SHL SUB AND DUP4 PUSH32 0x2F8788117E7EFF1D82E926EC794901D17C78024A50270940304540A733656F0D PUSH1 0x40 MLOAD PUSH1 0x40 MLOAD DUP1 SWAP2 SUB SWAP1 LOG4 POP POP JUMP JUMPDEST PUSH2 0x2E4F DUP3 DUP3 PUSH2 0x2147 JUMP JUMPDEST ISZERO PUSH2 0xF5A JUMPI PUSH1 0x0 DUP3 DUP2 MSTORE PUSH1 0xFB PUSH1 0x20 SWAP1 DUP2 MSTORE PUSH1 0x40 DUP1 DUP4 KECCAK256 PUSH1 0x1 PUSH1 0x1 PUSH1 0xA0 SHL SUB DUP6 AND DUP1 DUP6 MSTORE SWAP3 MSTORE DUP1 DUP4 KECCAK256 DUP1 SLOAD PUSH1 0xFF NOT AND SWAP1 SSTORE MLOAD CALLER SWAP3 DUP6 SWAP2 PUSH32 0xF6391F5C32D9C69D2A47EA670B442974B53935D1EDC7FD64EB21E047A839171B SWAP2 SWAP1 LOG4 POP POP JUMP JUMPDEST PUSH1 0x0 JUMPDEST DUP2 MLOAD DUP2 LT ISZERO PUSH2 0xF5A JUMPI PUSH1 0x1 PUSH2 0x145 PUSH1 0x0 DUP5 DUP5 DUP2 MLOAD DUP2 LT PUSH2 0x2ED1 JUMPI PUSH2 0x2ED1 PUSH2 0x3F71 JUMP JUMPDEST PUSH1 0x20 MUL PUSH1 0x20 ADD ADD MLOAD PUSH1 0x1 PUSH1 0x1 PUSH1 0xA0 SHL SUB AND PUSH1 0x1 PUSH1 0x1 PUSH1 0xA0 SHL SUB AND DUP2 MSTORE PUSH1 0x20 ADD SWAP1 DUP2 MSTORE PUSH1 0x20 ADD PUSH1 0x0 KECCAK256 PUSH1 0x8 ADD PUSH1 0x5 PUSH2 0x100 EXP DUP2 SLOAD DUP2 PUSH1 0xFF MUL NOT AND SWAP1 DUP4 ISZERO ISZERO MUL OR SWAP1 SSTORE POP DUP1 DUP1 PUSH2 0x2F1E SWAP1 PUSH2 0x3FE6 JUMP JUMPDEST SWAP2 POP POP PUSH2 0x2EAF JUMP JUMPDEST PUSH1 0x0 DUP1 MLOAD PUSH1 0x20 PUSH2 0x449D DUP4 CODECOPY DUP2 MLOAD SWAP2 MSTORE PUSH2 0x2F3E DUP2 PUSH2 0x2DB2 JUMP JUMPDEST PUSH1 0x2 PUSH2 0x143 SLOAD PUSH2 0x100 SWAP1 DIV PUSH1 0xFF AND PUSH1 0x3 DUP2 GT ISZERO PUSH2 0x2F5D JUMPI PUSH2 0x2F5D PUSH2 0x390C JUMP JUMPDEST EQ ISZERO PUSH2 0x2F7C JUMPI PUSH1 0x40 MLOAD PUSH4 0x52137E35 PUSH1 0xE0 SHL DUP2 MSTORE PUSH1 0x4 ADD PUSH1 0x40 MLOAD DUP1 SWAP2 SUB SWAP1 REVERT JUMPDEST TIMESTAMP PUSH2 0x13A SSTORE PUSH2 0x143 DUP1 SLOAD PUSH2 0xFF00 NOT AND PUSH2 0x200 OR SWAP1 SSTORE PUSH1 0x40 MLOAD PUSH32 0x8FE4C227F2B6201EF98F1D240A8A3E0966B3846D06CF8DF5DF396F94BE9B589 SWAP1 PUSH1 0x0 SWAP1 LOG1 POP JUMP JUMPDEST PUSH2 0xF5A DUP3 DUP3 PUSH2 0x2DBF JUMP JUMPDEST PUSH1 0x0 DUP3 DUP2 MSTORE PUSH1 0xFB PUSH1 0x20 MSTORE PUSH1 0x40 DUP1 DUP3 KECCAK256 PUSH1 0x1 ADD DUP1 SLOAD SWAP1 DUP5 SWAP1 SSTORE SWAP1 MLOAD SWAP1 SWAP2 DUP4 SWAP2 DUP4 SWAP2 DUP7 SWAP2 PUSH32 0xBD79B86FFE0AB8E8776151514217CD7CACD52C909F66475C3AF44E129F0B00FF SWAP2 SWAP1 LOG4 POP POP POP JUMP JUMPDEST PUSH1 0x0 DUP1 CALLVALUE DUP4 GT ISZERO PUSH2 0x303F JUMPI PUSH1 0x40 MLOAD PUSH4 0x7C83FCF PUSH1 0xE4 SHL DUP2 MSTORE CALLVALUE PUSH1 0x4 DUP3 ADD MSTORE PUSH1 0x24 DUP2 ADD DUP5 SWAP1 MSTORE PUSH1 0x44 ADD PUSH2 0xF47 JUMP JUMPDEST DUP3 CALLVALUE GT PUSH2 0x304D JUMPI PUSH1 0x0 PUSH2 0x3057 JUMP JUMPDEST PUSH2 0x3057 DUP4 CALLVALUE PUSH2 0x3F3E JUMP JUMPDEST SWAP2 POP PUSH2 0x306F PUSH2 0x130 SLOAD DUP5 PUSH2 0x34A5 SWAP1 SWAP2 SWAP1 PUSH4 0xFFFFFFFF AND JUMP JUMPDEST PUSH2 0x13C SLOAD PUSH1 0x40 MLOAD SWAP2 SWAP3 POP PUSH1 0x1 PUSH1 0x1 PUSH1 0xA0 SHL SUB AND SWAP1 DUP3 ISZERO PUSH2 0x8FC MUL SWAP1 DUP4 SWAP1 PUSH1 0x0 DUP2 DUP2 DUP2 DUP6 DUP9 DUP9 CALL SWAP4 POP POP POP POP ISZERO DUP1 ISZERO PUSH2 0x30AB JUMPI RETURNDATASIZE PUSH1 0x0 DUP1 RETURNDATACOPY RETURNDATASIZE PUSH1 0x0 REVERT JUMPDEST POP DUP2 ISZERO PUSH2 0x30E1 JUMPI PUSH1 0x40 MLOAD CALLER SWAP1 DUP4 ISZERO PUSH2 0x8FC MUL SWAP1 DUP5 SWAP1 PUSH1 0x0 DUP2 DUP2 DUP2 DUP6 DUP9 DUP9 CALL SWAP4 POP POP POP POP ISZERO DUP1 ISZERO PUSH2 0x30DF JUMPI RETURNDATASIZE PUSH1 0x0 DUP1 RETURNDATACOPY RETURNDATASIZE PUSH1 0x0 REVERT JUMPDEST POP JUMPDEST SWAP2 POP SWAP2 JUMP JUMPDEST PUSH1 0x60 PUSH1 0x0 DUP1 DUP4 PUSH1 0x1 PUSH1 0x1 PUSH1 0x40 SHL SUB DUP2 GT ISZERO PUSH2 0x3103 JUMPI PUSH2 0x3103 PUSH2 0x37D3 JUMP JUMPDEST PUSH1 0x40 MLOAD SWAP1 DUP1 DUP3 MSTORE DUP1 PUSH1 0x20 MUL PUSH1 0x20 ADD DUP3 ADD PUSH1 0x40 MSTORE DUP1 ISZERO PUSH2 0x312C JUMPI DUP2 PUSH1 0x20 ADD PUSH1 0x20 DUP3 MUL DUP1 CALLDATASIZE DUP4 CALLDATACOPY ADD SWAP1 POP JUMPDEST POP SWAP1 POP PUSH1 0x0 PUSH2 0x143 SLOAD PUSH1 0xFF AND PUSH1 0x1 DUP2 GT ISZERO PUSH2 0x3149 JUMPI PUSH2 0x3149 PUSH2 0x390C JUMP JUMPDEST EQ ISZERO PUSH2 0x3238 JUMPI PUSH1 0x0 JUMPDEST DUP5 DUP2 LT ISZERO PUSH2 0x3232 JUMPI PUSH2 0x147 PUSH2 0x3167 PUSH2 0x144 SLOAD SWAP1 JUMP JUMPDEST DUP2 SLOAD DUP2 LT PUSH2 0x3177 JUMPI PUSH2 0x3177 PUSH2 0x3F71 JUMP JUMPDEST SWAP1 PUSH1 0x0 MSTORE PUSH1 0x20 PUSH1 0x0 KECCAK256 ADD SLOAD SWAP3 POP DUP3 DUP3 DUP3 DUP2 MLOAD DUP2 LT PUSH2 0x3197 JUMPI PUSH2 0x3197 PUSH2 0x3F71 JUMP JUMPDEST PUSH1 0x20 MUL PUSH1 0x20 ADD ADD DUP2 DUP2 MSTORE POP POP PUSH2 0x31B2 PUSH2 0x144 DUP1 SLOAD PUSH1 0x1 ADD SWAP1 SSTORE JUMP JUMPDEST PUSH2 0x13D SLOAD PUSH1 0x40 MLOAD PUSH4 0x21421707 PUSH1 0xE1 SHL DUP2 MSTORE ADDRESS PUSH1 0x4 DUP3 ADD MSTORE PUSH1 0x1 PUSH1 0x1 PUSH1 0xA0 SHL SUB DUP9 DUP2 AND PUSH1 0x24 DUP4 ADD MSTORE PUSH1 0x44 DUP3 ADD DUP7 SWAP1 MSTORE SWAP1 SWAP2 AND SWAP1 PUSH4 0x42842E0E SWAP1 PUSH1 0x64 ADD PUSH1 0x0 PUSH1 0x40 MLOAD DUP1 DUP4 SUB DUP2 PUSH1 0x0 DUP8 DUP1 EXTCODESIZE ISZERO DUP1 ISZERO PUSH2 0x3207 JUMPI PUSH1 0x0 DUP1 REVERT JUMPDEST POP GAS CALL ISZERO DUP1 ISZERO PUSH2 0x321B JUMPI RETURNDATASIZE PUSH1 0x0 DUP1 RETURNDATACOPY RETURNDATASIZE PUSH1 0x0 REVERT JUMPDEST POP POP POP POP DUP1 DUP1 PUSH2 0x322A SWAP1 PUSH2 0x3FE6 JUMP JUMPDEST SWAP2 POP POP PUSH2 0x3152 JUMP JUMPDEST POP PUSH2 0x3404 JUMP JUMPDEST PUSH1 0x1 PUSH2 0x143 SLOAD PUSH1 0xFF AND PUSH1 0x1 DUP2 GT ISZERO PUSH2 0x3252 JUMPI PUSH2 0x3252 PUSH2 0x390C JUMP JUMPDEST EQ ISZERO PUSH2 0x3404 JUMPI PUSH1 0x0 DUP5 PUSH1 0x1 PUSH1 0x1 PUSH1 0x40 SHL SUB DUP2 GT ISZERO PUSH2 0x3272 JUMPI PUSH2 0x3272 PUSH2 0x37D3 JUMP JUMPDEST PUSH1 0x40 MLOAD SWAP1 DUP1 DUP3 MSTORE DUP1 PUSH1 0x20 MUL PUSH1 0x20 ADD DUP3 ADD PUSH1 0x40 MSTORE DUP1 ISZERO PUSH2 0x329B JUMPI DUP2 PUSH1 0x20 ADD PUSH1 0x20 DUP3 MUL DUP1 CALLDATASIZE DUP4 CALLDATACOPY ADD SWAP1 POP JUMPDEST POP SWAP1 POP PUSH1 0x0 DUP6 PUSH1 0x1 PUSH1 0x1 PUSH1 0x40 SHL SUB DUP2 GT ISZERO PUSH2 0x32B8 JUMPI PUSH2 0x32B8 PUSH2 0x37D3 JUMP JUMPDEST PUSH1 0x40 MLOAD SWAP1 DUP1 DUP3 MSTORE DUP1 PUSH1 0x20 MUL PUSH1 0x20 ADD DUP3 ADD PUSH1 0x40 MSTORE DUP1 ISZERO PUSH2 0x32E1 JUMPI DUP2 PUSH1 0x20 ADD PUSH1 0x20 DUP3 MUL DUP1 CALLDATASIZE DUP4 CALLDATACOPY ADD SWAP1 POP JUMPDEST POP SWAP1 POP PUSH1 0x0 JUMPDEST DUP7 DUP2 LT ISZERO PUSH2 0x3397 JUMPI PUSH2 0x147 PUSH2 0x32FC PUSH2 0x144 SLOAD SWAP1 JUMP JUMPDEST DUP2 SLOAD DUP2 LT PUSH2 0x330C JUMPI PUSH2 0x330C PUSH2 0x3F71 JUMP JUMPDEST SWAP1 PUSH1 0x0 MSTORE PUSH1 0x20 PUSH1 0x0 KECCAK256 ADD SLOAD SWAP5 POP DUP5 DUP5 DUP3 DUP2 MLOAD DUP2 LT PUSH2 0x332C JUMPI PUSH2 0x332C PUSH2 0x3F71 JUMP JUMPDEST PUSH1 0x20 MUL PUSH1 0x20 ADD ADD DUP2 DUP2 MSTORE POP POP PUSH2 0x3347 PUSH2 0x144 DUP1 SLOAD PUSH1 0x1 ADD SWAP1 SSTORE JUMP JUMPDEST DUP5 DUP4 DUP3 DUP2 MLOAD DUP2 LT PUSH2 0x335A JUMPI PUSH2 0x335A PUSH2 0x3F71 JUMP JUMPDEST PUSH1 0x20 MUL PUSH1 0x20 ADD ADD DUP2 DUP2 MSTORE POP POP PUSH1 0x1 DUP3 DUP3 DUP2 MLOAD DUP2 LT PUSH2 0x337A JUMPI PUSH2 0x337A PUSH2 0x3F71 JUMP JUMPDEST PUSH1 0x20 SWAP1 DUP2 MUL SWAP2 SWAP1 SWAP2 ADD ADD MSTORE DUP1 PUSH2 0x338F DUP2 PUSH2 0x3FE6 JUMP JUMPDEST SWAP2 POP POP PUSH2 0x32E7 JUMP JUMPDEST POP PUSH2 0x13D SLOAD PUSH1 0x40 MLOAD PUSH4 0x1759616B PUSH1 0xE1 SHL DUP2 MSTORE PUSH1 0x1 PUSH1 0x1 PUSH1 0xA0 SHL SUB SWAP1 SWAP2 AND SWAP1 PUSH4 0x2EB2C2D6 SWAP1 PUSH2 0x33CF SWAP1 ADDRESS SWAP1 DUP12 SWAP1 DUP8 SWAP1 DUP8 SWAP1 PUSH1 0x4 ADD PUSH2 0x4373 JUMP JUMPDEST PUSH1 0x0 PUSH1 0x40 MLOAD DUP1 DUP4 SUB DUP2 PUSH1 0x0 DUP8 DUP1 EXTCODESIZE ISZERO DUP1 ISZERO PUSH2 0x33E9 JUMPI PUSH1 0x0 DUP1 REVERT JUMPDEST POP GAS CALL ISZERO DUP1 ISZERO PUSH2 0x33FD JUMPI RETURNDATASIZE PUSH1 0x0 DUP1 RETURNDATACOPY RETURNDATASIZE PUSH1 0x0 REVERT JUMPDEST POP POP POP POP POP POP JUMPDEST SWAP5 SWAP4 POP POP POP POP JUMP JUMPDEST PUSH1 0x0 PUSH1 0x1 PUSH1 0x1 PUSH1 0xE0 SHL SUB NOT DUP3 AND PUSH4 0x2711897 PUSH1 0xE5 SHL EQ DUP1 PUSH2 0xE1C JUMPI POP PUSH4 0x1FFC9A7 PUSH1 0xE0 SHL PUSH1 0x1 PUSH1 0x1 PUSH1 0xE0 SHL SUB NOT DUP4 AND EQ PUSH2 0xE1C JUMP JUMPDEST PUSH2 0x344B DUP3 DUP3 PUSH2 0x2147 JUMP JUMPDEST PUSH2 0xF5A JUMPI PUSH2 0x3463 DUP2 PUSH1 0x1 PUSH1 0x1 PUSH1 0xA0 SHL SUB AND PUSH1 0x14 PUSH2 0x34BE JUMP JUMPDEST PUSH2 0x346E DUP4 PUSH1 0x20 PUSH2 0x34BE JUMP JUMPDEST PUSH1 0x40 MLOAD PUSH1 0x20 ADD PUSH2 0x347F SWAP3 SWAP2 SWAP1 PUSH2 0x43CE JUMP JUMPDEST PUSH1 0x40 DUP1 MLOAD PUSH1 0x1F NOT DUP2 DUP5 SUB ADD DUP2 MSTORE SWAP1 DUP3 SWAP1 MSTORE PUSH3 0x461BCD PUSH1 0xE5 SHL DUP3 MSTORE PUSH2 0xF47 SWAP2 PUSH1 0x4 ADD PUSH2 0x378B JUMP JUMPDEST PUSH1 0x0 PUSH2 0x2710 PUSH2 0x34B4 DUP4 DUP6 PUSH2 0x4310 JUMP JUMPDEST PUSH2 0x2A60 SWAP2 SWAP1 PUSH2 0x4443 JUMP JUMPDEST PUSH1 0x60 PUSH1 0x0 PUSH2 0x34CD DUP4 PUSH1 0x2 PUSH2 0x4310 JUMP JUMPDEST PUSH2 0x34D8 SWAP1 PUSH1 0x2 PUSH2 0x3F26 JUMP JUMPDEST PUSH1 0x1 PUSH1 0x1 PUSH1 0x40 SHL SUB DUP2 GT ISZERO PUSH2 0x34EF JUMPI PUSH2 0x34EF PUSH2 0x37D3 JUMP JUMPDEST PUSH1 0x40 MLOAD SWAP1 DUP1 DUP3 MSTORE DUP1 PUSH1 0x1F ADD PUSH1 0x1F NOT AND PUSH1 0x20 ADD DUP3 ADD PUSH1 0x40 MSTORE DUP1 ISZERO PUSH2 0x3519 JUMPI PUSH1 0x20 DUP3 ADD DUP2 DUP1 CALLDATASIZE DUP4 CALLDATACOPY ADD SWAP1 POP JUMPDEST POP SWAP1 POP PUSH1 0x3 PUSH1 0xFC SHL DUP2 PUSH1 0x0 DUP2 MLOAD DUP2 LT PUSH2 0x3534 JUMPI PUSH2 0x3534 PUSH2 0x3F71 JUMP JUMPDEST PUSH1 0x20 ADD ADD SWAP1 PUSH1 0x1 PUSH1 0x1 PUSH1 0xF8 SHL SUB NOT AND SWAP1 DUP2 PUSH1 0x0 BYTE SWAP1 MSTORE8 POP PUSH1 0xF PUSH1 0xFB SHL DUP2 PUSH1 0x1 DUP2 MLOAD DUP2 LT PUSH2 0x3563 JUMPI PUSH2 0x3563 PUSH2 0x3F71 JUMP JUMPDEST PUSH1 0x20 ADD ADD SWAP1 PUSH1 0x1 PUSH1 0x1 PUSH1 0xF8 SHL SUB NOT AND SWAP1 DUP2 PUSH1 0x0 BYTE SWAP1 MSTORE8 POP PUSH1 0x0 PUSH2 0x3587 DUP5 PUSH1 0x2 PUSH2 0x4310 JUMP JUMPDEST PUSH2 0x3592 SWAP1 PUSH1 0x1 PUSH2 0x3F26 JUMP JUMPDEST SWAP1 POP JUMPDEST PUSH1 0x1 DUP2 GT ISZERO PUSH2 0x360A JUMPI PUSH16 0x181899199A1A9B1B9C1CB0B131B232B3 PUSH1 0x81 SHL DUP6 PUSH1 0xF AND PUSH1 0x10 DUP2 LT PUSH2 0x35C6 JUMPI PUSH2 0x35C6 PUSH2 0x3F71 JUMP JUMPDEST BYTE PUSH1 0xF8 SHL DUP3 DUP3 DUP2 MLOAD DUP2 LT PUSH2 0x35DC JUMPI PUSH2 0x35DC PUSH2 0x3F71 JUMP JUMPDEST PUSH1 0x20 ADD ADD SWAP1 PUSH1 0x1 PUSH1 0x1 PUSH1 0xF8 SHL SUB NOT AND SWAP1 DUP2 PUSH1 0x0 BYTE SWAP1 MSTORE8 POP PUSH1 0x4 SWAP5 SWAP1 SWAP5 SHR SWAP4 PUSH2 0x3603 DUP2 PUSH2 0x4465 JUMP JUMPDEST SWAP1 POP PUSH2 0x3595 JUMP JUMPDEST POP DUP4 ISZERO PUSH2 0x2A60 JUMPI PUSH1 0x40 MLOAD PUSH3 0x461BCD PUSH1 0xE5 SHL DUP2 MSTORE PUSH1 0x20 PUSH1 0x4 DUP3 ADD DUP2 SWAP1 MSTORE PUSH1 0x24 DUP3 ADD MSTORE PUSH32 0x537472696E67733A20686578206C656E67746820696E73756666696369656E74 PUSH1 0x44 DUP3 ADD MSTORE PUSH1 0x64 ADD PUSH2 0xF47 JUMP JUMPDEST DUP3 DUP1 SLOAD PUSH2 0x3665 SWAP1 PUSH2 0x3EDB JUMP JUMPDEST SWAP1 PUSH1 0x0 MSTORE PUSH1 0x20 PUSH1 0x0 KECCAK256 SWAP1 PUSH1 0x1F ADD PUSH1 0x20 SWAP1 DIV DUP2 ADD SWAP3 DUP3 PUSH2 0x3687 JUMPI PUSH1 0x0 DUP6 SSTORE PUSH2 0x36CD JUMP JUMPDEST DUP3 PUSH1 0x1F LT PUSH2 0x36A0 JUMPI DUP1 MLOAD PUSH1 0xFF NOT AND DUP4 DUP1 ADD OR DUP6 SSTORE PUSH2 0x36CD JUMP JUMPDEST DUP3 DUP1 ADD PUSH1 0x1 ADD DUP6 SSTORE DUP3 ISZERO PUSH2 0x36CD JUMPI SWAP2 DUP3 ADD JUMPDEST DUP3 DUP2 GT ISZERO PUSH2 0x36CD JUMPI DUP3 MLOAD DUP3 SSTORE SWAP2 PUSH1 0x20 ADD SWAP2 SWAP1 PUSH1 0x1 ADD SWAP1 PUSH2 0x36B2 JUMP JUMPDEST POP PUSH2 0x36D9 SWAP3 SWAP2 POP PUSH2 0x371C JUMP JUMPDEST POP SWAP1 JUMP JUMPDEST POP DUP1 SLOAD PUSH1 0x0 DUP3 SSTORE SWAP1 PUSH1 0x0 MSTORE PUSH1 0x20 PUSH1 0x0 KECCAK256 SWAP1 DUP2 ADD SWAP1 PUSH2 0x2DBC SWAP2 SWAP1 PUSH2 0x371C JUMP JUMPDEST POP DUP1 SLOAD PUSH1 0x0 DUP3 SSTORE PUSH1 0x1F ADD PUSH1 0x20 SWAP1 DIV SWAP1 PUSH1 0x0 MSTORE PUSH1 0x20 PUSH1 0x0 KECCAK256 SWAP1 DUP2 ADD SWAP1 PUSH2 0x2DBC SWAP2 SWAP1 JUMPDEST JUMPDEST DUP1 DUP3 GT ISZERO PUSH2 0x36D9 JUMPI PUSH1 0x0 DUP2 SSTORE PUSH1 0x1 ADD PUSH2 0x371D JUMP JUMPDEST PUSH1 0x0 PUSH1 0x20 DUP3 DUP5 SUB SLT ISZERO PUSH2 0x3743 JUMPI PUSH1 0x0 DUP1 REVERT JUMPDEST DUP2 CALLDATALOAD PUSH1 0x1 PUSH1 0x1 PUSH1 0xE0 SHL SUB NOT DUP2 AND DUP2 EQ PUSH2 0x2A60 JUMPI PUSH1 0x0 DUP1 REVERT JUMPDEST PUSH1 0x0 JUMPDEST DUP4 DUP2 LT ISZERO PUSH2 0x3776 JUMPI DUP2 DUP2 ADD MLOAD DUP4 DUP3 ADD MSTORE PUSH1 0x20 ADD PUSH2 0x375E JUMP JUMPDEST DUP4 DUP2 GT ISZERO PUSH2 0x3785 JUMPI PUSH1 0x0 DUP5 DUP5 ADD MSTORE JUMPDEST POP POP POP POP JUMP JUMPDEST PUSH1 0x20 DUP2 MSTORE PUSH1 0x0 DUP3 MLOAD DUP1 PUSH1 0x20 DUP5 ADD MSTORE PUSH2 0x37AA DUP2 PUSH1 0x40 DUP6 ADD PUSH1 0x20 DUP8 ADD PUSH2 0x375B JUMP JUMPDEST PUSH1 0x1F ADD PUSH1 0x1F NOT AND SWAP2 SWAP1 SWAP2 ADD PUSH1 0x40 ADD SWAP3 SWAP2 POP POP JUMP JUMPDEST PUSH1 0x1 PUSH1 0x1 PUSH1 0xA0 SHL SUB DUP2 AND DUP2 EQ PUSH2 0x2DBC JUMPI PUSH1 0x0 DUP1 REVERT JUMPDEST PUSH4 0x4E487B71 PUSH1 0xE0 SHL PUSH1 0x0 MSTORE PUSH1 0x41 PUSH1 0x4 MSTORE PUSH1 0x24 PUSH1 0x0 REVERT JUMPDEST PUSH1 0x40 MLOAD PUSH1 0x1F DUP3 ADD PUSH1 0x1F NOT AND DUP2 ADD PUSH1 0x1 PUSH1 0x1 PUSH1 0x40 SHL SUB DUP2 GT DUP3 DUP3 LT OR ISZERO PUSH2 0x3811 JUMPI PUSH2 0x3811 PUSH2 0x37D3 JUMP JUMPDEST PUSH1 0x40 MSTORE SWAP2 SWAP1 POP JUMP JUMPDEST PUSH1 0x0 DUP3 PUSH1 0x1F DUP4 ADD SLT PUSH2 0x382A JUMPI PUSH1 0x0 DUP1 REVERT JUMPDEST DUP2 CALLDATALOAD PUSH1 0x1 PUSH1 0x1 PUSH1 0x40 SHL SUB DUP2 GT ISZERO PUSH2 0x3843 JUMPI PUSH2 0x3843 PUSH2 0x37D3 JUMP JUMPDEST PUSH2 0x3856 PUSH1 0x1F DUP3 ADD PUSH1 0x1F NOT AND PUSH1 0x20 ADD PUSH2 0x37E9 JUMP JUMPDEST DUP2 DUP2 MSTORE DUP5 PUSH1 0x20 DUP4 DUP7 ADD ADD GT ISZERO PUSH2 0x386B JUMPI PUSH1 0x0 DUP1 REVERT JUMPDEST DUP2 PUSH1 0x20 DUP6 ADD PUSH1 0x20 DUP4 ADD CALLDATACOPY PUSH1 0x0 SWAP2 DUP2 ADD PUSH1 0x20 ADD SWAP2 SWAP1 SWAP2 MSTORE SWAP4 SWAP3 POP POP POP JUMP JUMPDEST PUSH1 0x0 DUP1 PUSH1 0x0 DUP1 PUSH1 0x80 DUP6 DUP8 SUB SLT ISZERO PUSH2 0x389E JUMPI PUSH1 0x0 DUP1 REVERT JUMPDEST DUP5 CALLDATALOAD PUSH2 0x38A9 DUP2 PUSH2 0x37BE JUMP JUMPDEST SWAP4 POP PUSH1 0x20 DUP6 ADD CALLDATALOAD PUSH2 0x38B9 DUP2 PUSH2 0x37BE JUMP JUMPDEST SWAP3 POP PUSH1 0x40 DUP6 ADD CALLDATALOAD SWAP2 POP PUSH1 0x60 DUP6 ADD CALLDATALOAD PUSH1 0x1 PUSH1 0x1 PUSH1 0x40 SHL SUB DUP2 GT ISZERO PUSH2 0x38DB JUMPI PUSH1 0x0 DUP1 REVERT JUMPDEST PUSH2 0x38E7 DUP8 DUP3 DUP9 ADD PUSH2 0x3819 JUMP JUMPDEST SWAP2 POP POP SWAP3 SWAP6 SWAP2 SWAP5 POP SWAP3 POP JUMP JUMPDEST PUSH1 0x0 PUSH1 0x20 DUP3 DUP5 SUB SLT ISZERO PUSH2 0x3905 JUMPI PUSH1 0x0 DUP1 REVERT JUMPDEST POP CALLDATALOAD SWAP2 SWAP1 POP JUMP JUMPDEST PUSH4 0x4E487B71 PUSH1 0xE0 SHL PUSH1 0x0 MSTORE PUSH1 0x21 PUSH1 0x4 MSTORE PUSH1 0x24 PUSH1 0x0 REVERT JUMPDEST PUSH1 0x20 DUP2 ADD PUSH1 0x4 DUP4 LT PUSH2 0x3936 JUMPI PUSH2 0x3936 PUSH2 0x390C JUMP JUMPDEST SWAP2 SWAP1 MSTORE SWAP1 JUMP JUMPDEST PUSH1 0x0 DUP1 PUSH1 0x40 DUP4 DUP6 SUB SLT ISZERO PUSH2 0x394F JUMPI PUSH1 0x0 DUP1 REVERT JUMPDEST DUP3 CALLDATALOAD SWAP2 POP PUSH1 0x20 DUP4 ADD CALLDATALOAD PUSH2 0x3961 DUP2 PUSH2 0x37BE JUMP JUMPDEST DUP1 SWAP2 POP POP SWAP3 POP SWAP3 SWAP1 POP JUMP JUMPDEST PUSH1 0x0 PUSH1 0x20 DUP3 DUP5 SUB SLT ISZERO PUSH2 0x397E JUMPI PUSH1 0x0 DUP1 REVERT JUMPDEST DUP2 CALLDATALOAD PUSH2 0x2A60 DUP2 PUSH2 0x37BE JUMP JUMPDEST PUSH1 0x0 PUSH1 0x20 DUP3 DUP5 SUB SLT ISZERO PUSH2 0x399B JUMPI PUSH1 0x0 DUP1 REVERT JUMPDEST DUP2 CALLDATALOAD PUSH1 0x1 PUSH1 0x1 PUSH1 0x40 SHL SUB DUP2 GT ISZERO PUSH2 0x39B1 JUMPI PUSH1 0x0 DUP1 REVERT JUMPDEST PUSH2 0x3404 DUP5 DUP3 DUP6 ADD PUSH2 0x3819 JUMP JUMPDEST PUSH1 0x0 DUP1 DUP4 PUSH1 0x1F DUP5 ADD SLT PUSH2 0x39CF JUMPI PUSH1 0x0 DUP1 REVERT JUMPDEST POP DUP2 CALLDATALOAD PUSH1 0x1 PUSH1 0x1 PUSH1 0x40 SHL SUB DUP2 GT ISZERO PUSH2 0x39E6 JUMPI PUSH1 0x0 DUP1 REVERT JUMPDEST PUSH1 0x20 DUP4 ADD SWAP2 POP DUP4 PUSH1 0x20 DUP3 PUSH1 0x5 SHL DUP6 ADD ADD GT ISZERO PUSH2 0x3A01 JUMPI PUSH1 0x0 DUP1 REVERT JUMPDEST SWAP3 POP SWAP3 SWAP1 POP JUMP JUMPDEST DUP1 ISZERO ISZERO DUP2 EQ PUSH2 0x2DBC JUMPI PUSH1 0x0 DUP1 REVERT JUMPDEST PUSH1 0x0 DUP1 PUSH1 0x0 DUP1 PUSH1 0x0 DUP1 PUSH1 0x0 PUSH1 0xE0 DUP9 DUP11 SUB SLT ISZERO PUSH2 0x3A31 JUMPI PUSH1 0x0 DUP1 REVERT JUMPDEST DUP8 CALLDATALOAD PUSH1 0x1 PUSH1 0x1 PUSH1 0x40 SHL SUB DUP1 DUP3 GT ISZERO PUSH2 0x3A48 JUMPI PUSH1 0x0 DUP1 REVERT JUMPDEST PUSH2 0x3A54 DUP12 DUP4 DUP13 ADD PUSH2 0x39BD JUMP JUMPDEST SWAP1 SWAP10 POP SWAP8 POP PUSH1 0x80 DUP11 ADD SWAP2 POP DUP11 DUP3 GT ISZERO PUSH2 0x3A6C JUMPI PUSH1 0x0 DUP1 REVERT JUMPDEST PUSH1 0x20 DUP11 ADD SWAP7 POP SWAP1 CALLDATALOAD SWAP1 DUP1 DUP3 GT ISZERO PUSH2 0x3A82 JUMPI PUSH1 0x0 DUP1 REVERT JUMPDEST POP PUSH2 0x3A8F DUP11 DUP3 DUP12 ADD PUSH2 0x39BD JUMP JUMPDEST SWAP1 SWAP6 POP SWAP4 POP POP PUSH1 0xA0 DUP9 ADD CALLDATALOAD PUSH2 0x3AA3 DUP2 PUSH2 0x3A08 JUMP JUMPDEST SWAP2 POP PUSH1 0xC0 DUP9 ADD CALLDATALOAD PUSH2 0x3AB3 DUP2 PUSH2 0x3A08 JUMP JUMPDEST DUP1 SWAP2 POP POP SWAP3 SWAP6 SWAP9 SWAP2 SWAP5 SWAP8 POP SWAP3 SWAP6 POP JUMP JUMPDEST PUSH1 0x20 DUP2 ADD PUSH1 0x2 DUP4 LT PUSH2 0x3936 JUMPI PUSH2 0x3936 PUSH2 0x390C JUMP JUMPDEST PUSH1 0x0 DUP1 PUSH1 0x0 DUP1 PUSH1 0x0 DUP1 PUSH2 0x120 DUP8 DUP10 SUB SLT ISZERO PUSH2 0x3AF1 JUMPI PUSH1 0x0 DUP1 REVERT JUMPDEST PUSH1 0x40 DUP8 ADD DUP9 DUP2 GT ISZERO PUSH2 0x3B02 JUMPI PUSH1 0x0 DUP1 REVERT JUMPDEST DUP8 SWAP7 POP PUSH1 0xC0 DUP9 ADD DUP10 DUP2 GT ISZERO PUSH2 0x3B16 JUMPI PUSH1 0x0 DUP1 REVERT JUMPDEST SWAP1 SWAP6 POP CALLDATALOAD PUSH1 0x1 PUSH1 0x1 PUSH1 0x40 SHL SUB DUP1 DUP3 GT ISZERO PUSH2 0x3B2F JUMPI PUSH1 0x0 DUP1 REVERT JUMPDEST PUSH2 0x3B3B DUP11 DUP4 DUP12 ADD PUSH2 0x39BD JUMP JUMPDEST SWAP1 SWAP7 POP SWAP5 POP PUSH1 0xE0 DUP10 ADD CALLDATALOAD SWAP2 POP DUP1 DUP3 GT ISZERO PUSH2 0x3B54 JUMPI PUSH1 0x0 DUP1 REVERT JUMPDEST POP PUSH2 0x3B61 DUP10 DUP3 DUP11 ADD PUSH2 0x3819 JUMP JUMPDEST SWAP3 POP POP PUSH2 0x100 DUP8 ADD CALLDATALOAD SWAP1 POP SWAP3 SWAP6 POP SWAP3 SWAP6 POP SWAP3 SWAP6 JUMP JUMPDEST PUSH1 0x0 DUP1 PUSH1 0x0 DUP1 PUSH1 0x80 DUP6 DUP8 SUB SLT ISZERO PUSH2 0x3B8C JUMPI PUSH1 0x0 DUP1 REVERT JUMPDEST POP POP DUP3 CALLDATALOAD SWAP5 PUSH1 0x20 DUP5 ADD CALLDATALOAD SWAP5 POP PUSH1 0x40 DUP5 ADD CALLDATALOAD SWAP4 PUSH1 0x60 ADD CALLDATALOAD SWAP3 POP SWAP1 POP JUMP JUMPDEST PUSH1 0x20 DUP1 DUP3 MSTORE DUP3 MLOAD DUP3 DUP3 ADD DUP2 SWAP1 MSTORE PUSH1 0x0 SWAP2 SWAP1 DUP5 DUP3 ADD SWAP1 PUSH1 0x40 DUP6 ADD SWAP1 DUP5 JUMPDEST DUP2 DUP2 LT ISZERO PUSH2 0x3BE2 JUMPI DUP4 MLOAD ISZERO ISZERO DUP4 MSTORE SWAP3 DUP5 ADD SWAP3 SWAP2 DUP5 ADD SWAP2 PUSH1 0x1 ADD PUSH2 0x3BC4 JUMP JUMPDEST POP SWAP1 SWAP7 SWAP6 POP POP POP POP POP POP JUMP JUMPDEST PUSH1 0x0 PUSH1 0x1 PUSH1 0x1 PUSH1 0x40 SHL SUB DUP3 GT ISZERO PUSH2 0x3C07 JUMPI PUSH2 0x3C07 PUSH2 0x37D3 JUMP JUMPDEST POP PUSH1 0x5 SHL PUSH1 0x20 ADD SWAP1 JUMP JUMPDEST PUSH1 0x0 DUP3 PUSH1 0x1F DUP4 ADD SLT PUSH2 0x3C22 JUMPI PUSH1 0x0 DUP1 REVERT JUMPDEST DUP2 CALLDATALOAD PUSH1 0x20 PUSH2 0x3C37 PUSH2 0x3C32 DUP4 PUSH2 0x3BEE JUMP JUMPDEST PUSH2 0x37E9 JUMP JUMPDEST DUP3 DUP2 MSTORE PUSH1 0x5 SWAP3 SWAP1 SWAP3 SHL DUP5 ADD DUP2 ADD SWAP2 DUP2 DUP2 ADD SWAP1 DUP7 DUP5 GT ISZERO PUSH2 0x3C56 JUMPI PUSH1 0x0 DUP1 REVERT JUMPDEST DUP3 DUP7 ADD JUMPDEST DUP5 DUP2 LT ISZERO PUSH2 0x3C71 JUMPI DUP1 CALLDATALOAD DUP4 MSTORE SWAP2 DUP4 ADD SWAP2 DUP4 ADD PUSH2 0x3C5A JUMP JUMPDEST POP SWAP7 SWAP6 POP POP POP POP POP POP JUMP JUMPDEST PUSH1 0x0 DUP1 PUSH1 0x0 DUP1 PUSH1 0x0 PUSH1 0xA0 DUP7 DUP9 SUB SLT ISZERO PUSH2 0x3C94 JUMPI PUSH1 0x0 DUP1 REVERT JUMPDEST DUP6 CALLDATALOAD PUSH2 0x3C9F DUP2 PUSH2 0x37BE JUMP JUMPDEST SWAP5 POP PUSH1 0x20 DUP7 ADD CALLDATALOAD PUSH2 0x3CAF DUP2 PUSH2 0x37BE JUMP JUMPDEST SWAP4 POP PUSH1 0x40 DUP7 ADD CALLDATALOAD PUSH1 0x1 PUSH1 0x1 PUSH1 0x40 SHL SUB DUP1 DUP3 GT ISZERO PUSH2 0x3CCB JUMPI PUSH1 0x0 DUP1 REVERT JUMPDEST PUSH2 0x3CD7 DUP10 DUP4 DUP11 ADD PUSH2 0x3C11 JUMP JUMPDEST SWAP5 POP PUSH1 0x60 DUP9 ADD CALLDATALOAD SWAP2 POP DUP1 DUP3 GT ISZERO PUSH2 0x3CED JUMPI PUSH1 0x0 DUP1 REVERT JUMPDEST PUSH2 0x3CF9 DUP10 DUP4 DUP11 ADD PUSH2 0x3C11 JUMP JUMPDEST SWAP4 POP PUSH1 0x80 DUP9 ADD CALLDATALOAD SWAP2 POP DUP1 DUP3 GT ISZERO PUSH2 0x3D0F JUMPI PUSH1 0x0 DUP1 REVERT JUMPDEST POP PUSH2 0x3D1C DUP9 DUP3 DUP10 ADD PUSH2 0x3819 JUMP JUMPDEST SWAP2 POP POP SWAP3 SWAP6 POP SWAP3 SWAP6 SWAP1 SWAP4 POP JUMP JUMPDEST PUSH1 0x0 DUP1 PUSH1 0x40 DUP4 DUP6 SUB SLT ISZERO PUSH2 0x3D3C JUMPI PUSH1 0x0 DUP1 REVERT JUMPDEST POP POP DUP1 CALLDATALOAD SWAP3 PUSH1 0x20 SWAP1 SWAP2 ADD CALLDATALOAD SWAP2 POP JUMP JUMPDEST PUSH1 0x20 DUP1 DUP3 MSTORE DUP3 MLOAD DUP3 DUP3 ADD DUP2 SWAP1 MSTORE PUSH1 0x0 SWAP2 SWAP1 DUP5 DUP3 ADD SWAP1 PUSH1 0x40 DUP6 ADD SWAP1 DUP5 JUMPDEST DUP2 DUP2 LT ISZERO PUSH2 0x3BE2 JUMPI DUP4 MLOAD PUSH1 0x1 PUSH1 0x1 PUSH1 0xA0 SHL SUB AND DUP4 MSTORE SWAP3 DUP5 ADD SWAP3 SWAP2 DUP5 ADD SWAP2 PUSH1 0x1 ADD PUSH2 0x3D67 JUMP JUMPDEST PUSH1 0x0 PUSH1 0x20 DUP1 DUP4 DUP6 SUB SLT ISZERO PUSH2 0x3D9F JUMPI PUSH1 0x0 DUP1 REVERT JUMPDEST DUP3 CALLDATALOAD PUSH1 0x1 PUSH1 0x1 PUSH1 0x40 SHL SUB DUP2 GT ISZERO PUSH2 0x3DB5 JUMPI PUSH1 0x0 DUP1 REVERT JUMPDEST DUP4 ADD PUSH1 0x1F DUP2 ADD DUP6 SGT PUSH2 0x3DC6 JUMPI PUSH1 0x0 DUP1 REVERT JUMPDEST DUP1 CALLDATALOAD PUSH2 0x3DD4 PUSH2 0x3C32 DUP3 PUSH2 0x3BEE JUMP JUMPDEST DUP2 DUP2 MSTORE PUSH1 0x5 SWAP2 SWAP1 SWAP2 SHL DUP3 ADD DUP4 ADD SWAP1 DUP4 DUP2 ADD SWAP1 DUP8 DUP4 GT ISZERO PUSH2 0x3DF3 JUMPI PUSH1 0x0 DUP1 REVERT JUMPDEST SWAP3 DUP5 ADD SWAP3 JUMPDEST DUP3 DUP5 LT ISZERO PUSH2 0x3E1A JUMPI DUP4 CALLDATALOAD PUSH2 0x3E0B DUP2 PUSH2 0x37BE JUMP JUMPDEST DUP3 MSTORE SWAP3 DUP5 ADD SWAP3 SWAP1 DUP5 ADD SWAP1 PUSH2 0x3DF8 JUMP JUMPDEST SWAP8 SWAP7 POP POP POP POP POP POP POP JUMP JUMPDEST PUSH1 0x0 DUP2 MLOAD DUP1 DUP5 MSTORE PUSH1 0x20 DUP1 DUP6 ADD SWAP5 POP DUP1 DUP5 ADD PUSH1 0x0 JUMPDEST DUP4 DUP2 LT ISZERO PUSH2 0x3E55 JUMPI DUP2 MLOAD DUP8 MSTORE SWAP6 DUP3 ADD SWAP6 SWAP1 DUP3 ADD SWAP1 PUSH1 0x1 ADD PUSH2 0x3E39 JUMP JUMPDEST POP SWAP5 SWAP6 SWAP5 POP POP POP POP POP JUMP JUMPDEST PUSH1 0x20 DUP2 MSTORE PUSH1 0x0 PUSH2 0x2A60 PUSH1 0x20 DUP4 ADD DUP5 PUSH2 0x3E25 JUMP JUMPDEST PUSH1 0x0 DUP1 PUSH1 0x0 DUP1 PUSH1 0x0 PUSH1 0xA0 DUP7 DUP9 SUB SLT ISZERO PUSH2 0x3E8B JUMPI PUSH1 0x0 DUP1 REVERT JUMPDEST DUP6 CALLDATALOAD PUSH2 0x3E96 DUP2 PUSH2 0x37BE JUMP JUMPDEST SWAP5 POP PUSH1 0x20 DUP7 ADD CALLDATALOAD PUSH2 0x3EA6 DUP2 PUSH2 0x37BE JUMP JUMPDEST SWAP4 POP PUSH1 0x40 DUP7 ADD CALLDATALOAD SWAP3 POP PUSH1 0x60 DUP7 ADD CALLDATALOAD SWAP2 POP PUSH1 0x80 DUP7 ADD CALLDATALOAD PUSH1 0x1 PUSH1 0x1 PUSH1 0x40 SHL SUB DUP2 GT ISZERO PUSH2 0x3ECF JUMPI PUSH1 0x0 DUP1 REVERT JUMPDEST PUSH2 0x3D1C DUP9 DUP3 DUP10 ADD PUSH2 0x3819 JUMP JUMPDEST PUSH1 0x1 DUP2 DUP2 SHR SWAP1 DUP3 AND DUP1 PUSH2 0x3EEF JUMPI PUSH1 0x7F DUP3 AND SWAP2 POP JUMPDEST PUSH1 0x20 DUP3 LT DUP2 EQ ISZERO PUSH2 0x2B8B JUMPI PUSH4 0x4E487B71 PUSH1 0xE0 SHL PUSH1 0x0 MSTORE PUSH1 0x22 PUSH1 0x4 MSTORE PUSH1 0x24 PUSH1 0x0 REVERT JUMPDEST PUSH4 0x4E487B71 PUSH1 0xE0 SHL PUSH1 0x0 MSTORE PUSH1 0x11 PUSH1 0x4 MSTORE PUSH1 0x24 PUSH1 0x0 REVERT JUMPDEST PUSH1 0x0 DUP3 NOT DUP3 GT ISZERO PUSH2 0x3F39 JUMPI PUSH2 0x3F39 PUSH2 0x3F10 JUMP JUMPDEST POP ADD SWAP1 JUMP JUMPDEST PUSH1 0x0 DUP3 DUP3 LT ISZERO PUSH2 0x3F50 JUMPI PUSH2 0x3F50 PUSH2 0x3F10 JUMP JUMPDEST POP SUB SWAP1 JUMP JUMPDEST PUSH1 0x0 DUP3 MLOAD PUSH2 0x3F67 DUP2 DUP5 PUSH1 0x20 DUP8 ADD PUSH2 0x375B JUMP JUMPDEST SWAP2 SWAP1 SWAP2 ADD SWAP3 SWAP2 POP POP JUMP JUMPDEST PUSH4 0x4E487B71 PUSH1 0xE0 SHL PUSH1 0x0 MSTORE PUSH1 0x32 PUSH1 0x4 MSTORE PUSH1 0x24 PUSH1 0x0 REVERT JUMPDEST PUSH1 0x0 DUP3 CALLDATALOAD PUSH1 0xBE NOT DUP4 CALLDATASIZE SUB ADD DUP2 SLT PUSH2 0x3F67 JUMPI PUSH1 0x0 DUP1 REVERT JUMPDEST PUSH1 0x0 DUP1 DUP4 CALLDATALOAD PUSH1 0x1E NOT DUP5 CALLDATASIZE SUB ADD DUP2 SLT PUSH2 0x3FB4 JUMPI PUSH1 0x0 DUP1 REVERT JUMPDEST DUP4 ADD DUP1 CALLDATALOAD SWAP2 POP PUSH1 0x1 PUSH1 0x1 PUSH1 0x40 SHL SUB DUP3 GT ISZERO PUSH2 0x3FCE JUMPI PUSH1 0x0 DUP1 REVERT JUMPDEST PUSH1 0x20 ADD SWAP2 POP PUSH1 0x5 DUP2 SWAP1 SHL CALLDATASIZE SUB DUP3 SGT ISZERO PUSH2 0x3A01 JUMPI PUSH1 0x0 DUP1 REVERT JUMPDEST PUSH1 0x0 PUSH1 0x0 NOT DUP3 EQ ISZERO PUSH2 0x3FFA JUMPI PUSH2 0x3FFA PUSH2 0x3F10 JUMP JUMPDEST POP PUSH1 0x1 ADD SWAP1 JUMP JUMPDEST DUP1 CALLDATALOAD PUSH4 0xFFFFFFFF DUP2 AND DUP2 EQ PUSH2 0x4015 JUMPI PUSH1 0x0 DUP1 REVERT JUMPDEST SWAP2 SWAP1 POP JUMP JUMPDEST PUSH1 0x0 PUSH1 0x20 DUP3 DUP5 SUB SLT ISZERO PUSH2 0x402C JUMPI PUSH1 0x0 DUP1 REVERT JUMPDEST PUSH2 0x2A60 DUP3 PUSH2 0x4001 JUMP JUMPDEST DUP2 DUP4 MSTORE PUSH1 0x0 PUSH1 0x1 PUSH1 0x1 PUSH1 0xFB SHL SUB DUP4 GT ISZERO PUSH2 0x404E JUMPI PUSH1 0x0 DUP1 REVERT JUMPDEST DUP3 PUSH1 0x5 SHL DUP1 DUP4 PUSH1 0x20 DUP8 ADD CALLDATACOPY PUSH1 0x0 SWAP5 ADD PUSH1 0x20 ADD SWAP4 DUP5 MSTORE POP SWAP2 SWAP3 SWAP2 POP POP JUMP JUMPDEST DUP2 DUP4 MSTORE PUSH1 0x0 PUSH1 0x20 DUP1 DUP6 ADD SWAP5 POP DUP3 PUSH1 0x0 JUMPDEST DUP6 DUP2 LT ISZERO PUSH2 0x3E55 JUMPI DUP2 CALLDATALOAD PUSH2 0x408E DUP2 PUSH2 0x37BE JUMP JUMPDEST PUSH1 0x1 PUSH1 0x1 PUSH1 0xA0 SHL SUB AND DUP8 MSTORE SWAP6 DUP3 ADD SWAP6 SWAP1 DUP3 ADD SWAP1 PUSH1 0x1 ADD PUSH2 0x407B JUMP JUMPDEST PUSH1 0x80 DUP1 DUP3 MSTORE DUP2 DUP2 ADD DUP8 SWAP1 MSTORE PUSH1 0x0 SWAP1 PUSH1 0xA0 DUP1 DUP5 ADD PUSH1 0x5 DUP11 SWAP1 SHL DUP6 ADD DUP3 ADD DUP12 DUP6 JUMPDEST DUP13 DUP2 LT ISZERO PUSH2 0x41A9 JUMPI DUP8 DUP4 SUB PUSH1 0x9F NOT ADD DUP5 MSTORE DUP2 CALLDATALOAD CALLDATASIZE DUP16 SWAP1 SUB PUSH1 0xBE NOT ADD DUP2 SLT PUSH2 0x40EE JUMPI PUSH1 0x0 DUP1 REVERT JUMPDEST DUP15 ADD PUSH1 0xC0 DUP2 CALLDATALOAD PUSH2 0x40FD DUP2 PUSH2 0x37BE JUMP JUMPDEST PUSH1 0x1 PUSH1 0x1 PUSH1 0xA0 SHL SUB AND DUP6 MSTORE PUSH1 0x20 PUSH4 0xFFFFFFFF PUSH2 0x411A DUP5 DUP4 ADD PUSH2 0x4001 JUMP JUMPDEST AND DUP2 DUP8 ADD MSTORE PUSH1 0x40 DUP1 DUP5 ADD CALLDATALOAD PUSH1 0x1E NOT DUP6 CALLDATASIZE SUB ADD DUP2 SLT PUSH2 0x4137 JUMPI PUSH1 0x0 DUP1 REVERT JUMPDEST DUP5 ADD DUP1 CALLDATALOAD PUSH1 0x1 PUSH1 0x1 PUSH1 0x40 SHL SUB DUP2 GT ISZERO PUSH2 0x414F JUMPI PUSH1 0x0 DUP1 REVERT JUMPDEST DUP1 PUSH1 0x5 SHL CALLDATASIZE SUB DUP7 SGT ISZERO PUSH2 0x4161 JUMPI PUSH1 0x0 DUP1 REVERT JUMPDEST DUP5 DUP4 DUP11 ADD MSTORE PUSH2 0x4175 DUP6 DUP11 ADD DUP3 DUP7 DUP6 ADD PUSH2 0x4035 JUMP JUMPDEST PUSH1 0x60 DUP8 DUP2 ADD CALLDATALOAD SWAP1 DUP12 ADD MSTORE DUP13 DUP8 ADD CALLDATALOAD DUP14 DUP12 ADD MSTORE SWAP6 DUP12 ADD CALLDATALOAD SWAP9 DUP12 ADD SWAP9 SWAP1 SWAP9 MSTORE POP POP SWAP6 DUP7 ADD SWAP6 SWAP2 SWAP5 POP POP SWAP2 SWAP1 SWAP2 ADD SWAP1 PUSH1 0x1 ADD PUSH2 0x40C8 JUMP JUMPDEST POP POP DUP10 ISZERO ISZERO PUSH1 0x20 DUP8 ADD MSTORE DUP9 ISZERO ISZERO PUSH1 0x40 DUP8 ADD MSTORE DUP6 DUP2 SUB PUSH1 0x60 DUP8 ADD MSTORE PUSH2 0x41CE DUP2 DUP9 DUP11 PUSH2 0x406B JUMP JUMPDEST SWAP13 SWAP12 POP POP POP POP POP POP POP POP POP POP POP POP JUMP JUMPDEST PUSH1 0x0 PUSH1 0x20 DUP3 DUP5 SUB SLT ISZERO PUSH2 0x41F0 JUMPI PUSH1 0x0 DUP1 REVERT JUMPDEST DUP2 MLOAD PUSH2 0x2A60 DUP2 PUSH2 0x3A08 JUMP JUMPDEST PUSH1 0x0 PUSH2 0x120 DUP3 DUP10 DUP4 JUMPDEST PUSH1 0x2 DUP2 LT ISZERO PUSH2 0x4236 JUMPI DUP2 CALLDATALOAD PUSH2 0x4218 DUP2 PUSH2 0x37BE JUMP JUMPDEST PUSH1 0x1 PUSH1 0x1 PUSH1 0xA0 SHL SUB AND DUP4 MSTORE PUSH1 0x20 SWAP3 DUP4 ADD SWAP3 SWAP2 SWAP1 SWAP2 ADD SWAP1 PUSH1 0x1 ADD PUSH2 0x4204 JUMP JUMPDEST POP POP POP PUSH1 0x80 DUP9 PUSH1 0x40 DUP6 ADD CALLDATACOPY PUSH1 0xC0 DUP4 ADD DUP2 SWAP1 MSTORE PUSH2 0x4255 DUP2 DUP5 ADD DUP8 DUP10 PUSH2 0x4035 JUMP JUMPDEST SWAP1 POP DUP3 DUP2 SUB PUSH1 0xE0 DUP5 ADD MSTORE PUSH1 0x0 DUP6 SLOAD DUP2 PUSH1 0x1 DUP3 DUP2 SHR SWAP2 POP DUP1 DUP4 AND DUP1 PUSH2 0x427A JUMPI PUSH1 0x7F DUP4 AND SWAP3 POP JUMPDEST PUSH1 0x20 DUP1 DUP5 LT DUP3 EQ ISZERO PUSH2 0x429A JUMPI PUSH4 0x4E487B71 PUSH1 0xE0 SHL DUP7 MSTORE PUSH1 0x22 PUSH1 0x4 MSTORE PUSH1 0x24 DUP7 REVERT JUMPDEST DUP4 DUP8 MSTORE PUSH1 0x20 DUP8 ADD SWAP7 POP DUP2 DUP1 ISZERO PUSH2 0x42B7 JUMPI PUSH1 0x1 DUP2 EQ PUSH2 0x42C8 JUMPI PUSH2 0x42F3 JUMP JUMPDEST PUSH1 0xFF NOT DUP7 AND DUP9 MSTORE DUP2 DUP9 ADD SWAP7 POP PUSH2 0x42F3 JUMP JUMPDEST PUSH1 0x0 DUP13 DUP2 MSTORE PUSH1 0x20 SWAP1 KECCAK256 PUSH1 0x0 JUMPDEST DUP7 DUP2 LT ISZERO PUSH2 0x42ED JUMPI DUP2 SLOAD DUP11 DUP3 ADD MSTORE SWAP1 DUP6 ADD SWAP1 DUP4 ADD PUSH2 0x42D4 JUMP JUMPDEST DUP10 ADD SWAP8 POP POP JUMPDEST POP POP POP POP POP POP DUP1 SWAP3 POP POP POP DUP3 PUSH2 0x100 DUP4 ADD MSTORE SWAP8 SWAP7 POP POP POP POP POP POP POP JUMP JUMPDEST PUSH1 0x0 DUP2 PUSH1 0x0 NOT DIV DUP4 GT DUP3 ISZERO ISZERO AND ISZERO PUSH2 0x432A JUMPI PUSH2 0x432A PUSH2 0x3F10 JUMP JUMPDEST POP MUL SWAP1 JUMP JUMPDEST DUP8 DUP2 MSTORE DUP7 PUSH1 0x20 DUP3 ADD MSTORE DUP6 PUSH1 0x40 DUP3 ADD MSTORE DUP5 PUSH1 0x60 DUP3 ADD MSTORE DUP4 PUSH1 0x80 DUP3 ADD MSTORE DUP3 PUSH1 0xA0 DUP3 ADD MSTORE PUSH1 0xE0 PUSH1 0xC0 DUP3 ADD MSTORE PUSH1 0x0 PUSH2 0x4366 PUSH1 0xE0 DUP4 ADD DUP5 PUSH2 0x3E25 JUMP JUMPDEST SWAP10 SWAP9 POP POP POP POP POP POP POP POP POP JUMP JUMPDEST PUSH1 0x1 PUSH1 0x1 PUSH1 0xA0 SHL SUB DUP6 DUP2 AND DUP3 MSTORE DUP5 AND PUSH1 0x20 DUP3 ADD MSTORE PUSH1 0xA0 PUSH1 0x40 DUP3 ADD DUP2 SWAP1 MSTORE PUSH1 0x0 SWAP1 PUSH2 0x439F SWAP1 DUP4 ADD DUP6 PUSH2 0x3E25 JUMP JUMPDEST DUP3 DUP2 SUB PUSH1 0x60 DUP5 ADD MSTORE PUSH2 0x43B1 DUP2 DUP6 PUSH2 0x3E25 JUMP JUMPDEST DUP4 DUP2 SUB PUSH1 0x80 SWAP1 SWAP5 ADD SWAP4 SWAP1 SWAP4 MSTORE POP POP PUSH1 0x0 DUP2 MSTORE PUSH1 0x20 ADD SWAP5 SWAP4 POP POP POP POP JUMP JUMPDEST PUSH32 0x416363657373436F6E74726F6C3A206163636F756E7420000000000000000000 DUP2 MSTORE PUSH1 0x0 DUP4 MLOAD PUSH2 0x4406 DUP2 PUSH1 0x17 DUP6 ADD PUSH1 0x20 DUP9 ADD PUSH2 0x375B JUMP JUMPDEST PUSH17 0x1034B99036B4B9B9B4B733903937B6329 PUSH1 0x7D SHL PUSH1 0x17 SWAP2 DUP5 ADD SWAP2 DUP3 ADD MSTORE DUP4 MLOAD PUSH2 0x4437 DUP2 PUSH1 0x28 DUP5 ADD PUSH1 0x20 DUP9 ADD PUSH2 0x375B JUMP JUMPDEST ADD PUSH1 0x28 ADD SWAP5 SWAP4 POP POP POP POP JUMP JUMPDEST PUSH1 0x0 DUP3 PUSH2 0x4460 JUMPI PUSH4 0x4E487B71 PUSH1 0xE0 SHL PUSH1 0x0 MSTORE PUSH1 0x12 PUSH1 0x4 MSTORE PUSH1 0x24 PUSH1 0x0 REVERT JUMPDEST POP DIV SWAP1 JUMP JUMPDEST PUSH1 0x0 DUP2 PUSH2 0x4474 JUMPI PUSH2 0x4474 PUSH2 0x3F10 JUMP JUMPDEST POP PUSH1 0x0 NOT ADD SWAP1 JUMP INVALID 0xE9 0x26 0xD1 0x22 0xB7 SWAP10 0xDC 0xBE 0x5C 0x2E 0xCC 0xDF PUSH1 0xAE EXP 0xEF 0xBB BYTE 0x4B 0xC7 GAS PUSH25 0x48BB07BEFECF8C775F5CA49807205CE4D355092EF5A8A18F56 0xE8 SWAP2 EXTCODECOPY DELEGATECALL LOG2 ADD 0xFB 0xE2 DUP8 DUP3 JUMPDEST MULMOD JUMP SWAP4 0xC2 OR PUSH22 0xA2646970667358221220252635481FCD22CDE9744F0D DUP4 0x4C NOT 0xBC SWAP8 0x49 POP 0xC5 0xA7 0xC8 0xBE MLOAD 0xED PUSH32 0xE212DF77485964736F6C63430008090033000000000000000000000000000000 "
		},
		"gasEstimates": {
			"creation": {
				"codeDepositCost": "3530000",
				"executionCost": "3958",
				"totalCost": "3533958"
			},
			"external": {
				"ADMIN_ROLE()": "infinite",
				"COLLECTION_CREATOR_ROLE()": "infinite",
				"DEFAULT_ADMIN_ROLE()": "263",
				"ERC1155Token()": "262",
				"ERC721Token()": "350",
				"SUPER_ADMIN_ROLE()": "308",
				"baseURI()": "infinite",
				"baseURIHash()": "2429",
				"claim(uint256,uint256,uint256,uint256)": "infinite",
				"creatorFeeWallet()": "2449",
				"freeSpot()": "286",
				"getBalance()": "330",
				"getMode()": "2491",
				"getNFTType()": "2456",
				"getNumberOfRaceSpots(address)": "2626",
				"getNumberOfRemainingFreeSpots(address)": "4809",
				"getNumberOfRemainingGuaranteedSpots(address)": "4896",
				"getNumberOfRemainingRaceSpots(address)": "4829",
				"getNumberOfTotalRemainingNFTs()": "4656",
				"getNumberOfTotalRemainingRaceNFTs()": "4552",
				"getRoleAdmin(bytes32)": "2513",
				"getTotalClaimPrice(uint256,uint256)": "2696",
				"getTotalNumberOfFreeSpots(address)": "2627",
				"getTotalNumberOfGuaranteedSpots(address)": "2671",
				"getUserMintedSpots(address)": "infinite",
				"getUserSpots(address)": "infinite",
				"getWinners()": "infinite",
				"grantRole(bytes32,address)": "infinite",
				"guaranteedWithNoDiscountSpot()": "350",
				"hasRole(bytes32,address)": "2744",
				"importNFTData(address[2],uint256[4],uint256[],string,bytes32)": "infinite",
				"isWhitelisted(address)": "2661",
				"launchpadFeePercentage()": "2408",
				"launchpadFeeWallet()": "2491",
				"maxMintCount()": "2363",
				"mintCap()": "2428",
				"mintExpirationTime()": "2407",
				"mintPrice()": "2363",
				"mode()": "2453",
				"name()": "infinite",
				"nftBankImpl()": "2472",
				"nftBankLaunchDate()": "2430",
				"nftCollection()": "2493",
				"nftDataImported()": "2450",
				"nftIds(uint256)": "4709",
				"nftImportExpirationTime()": "2428",
				"nftType()": "2463",
				"numberOfFreeNFTs()": "2384",
				"numberOfGuaranteedNFTs()": "2407",
				"numberOfRaceNFTs()": "2363",
				"onERC1155BatchReceived(address,address,uint256[],uint256[],bytes)": "infinite",
				"onERC1155Received(address,address,uint256,uint256,bytes)": "infinite",
				"onERC721Received(address,address,uint256,bytes)": "infinite",
				"raceSpot()": "352",
				"renounceRole(bytes32,address)": "29090",
				"revokeRole(bytes32,address)": "infinite",
				"setBaseURI(string)": "infinite",
				"setMintCap(uint256)": "infinite",
				"setMintPrice(uint256)": "infinite",
				"setPreparationMode()": "infinite",
				"setPrivateMode()": "infinite",
				"setPublicMode()": "infinite",
				"setWhitelistedUsers((address,uint32,uint256[],uint256,uint256,uint256)[],uint256[3],address[],bool,bool)": "infinite",
				"supportsInterface(bytes4)": "infinite",
				"symbol()": "infinite",
				"totalFreeAllocated()": "2385",
				"totalGuaranteedAllocated()": "2364",
				"totalRaceMinted()": "2386",
				"unfreezeUsers(address[])": "infinite",
				"whitelistMintStartDate()": "2409",
				"whitelistedUsers(address)": "15570",
				"winners(uint256)": "4704",
				"withdrawBalance(address)": "infinite"
			},
			"internal": {
				"_claimToken(address,uint256)": "infinite",
				"_deleteWinners(address[] memory)": "infinite",
				"_tokenPurchase(uint256)": "infinite",
				"setWhitelistMode()": "infinite"
			}
		},
		"methodIdentifiers": {
			"ADMIN_ROLE()": "75b238fc",
			"COLLECTION_CREATOR_ROLE()": "caff99ce",
			"DEFAULT_ADMIN_ROLE()": "a217fddf",
			"ERC1155Token()": "73ee4508",
			"ERC721Token()": "77a714ae",
			"SUPER_ADMIN_ROLE()": "4460bdd6",
			"baseURI()": "6c0360eb",
			"baseURIHash()": "3d779f32",
			"claim(uint256,uint256,uint256,uint256)": "b5add717",
			"creatorFeeWallet()": "9b7d707d",
			"freeSpot()": "13ad88ca",
			"getBalance()": "12065fe0",
			"getMode()": "4b4fd03b",
			"getNFTType()": "cc3e7516",
			"getNumberOfRaceSpots(address)": "def9888d",
			"getNumberOfRemainingFreeSpots(address)": "4ecb3cb6",
			"getNumberOfRemainingGuaranteedSpots(address)": "bb8df282",
			"getNumberOfRemainingRaceSpots(address)": "f32506b1",
			"getNumberOfTotalRemainingNFTs()": "a1c9f0a5",
			"getNumberOfTotalRemainingRaceNFTs()": "c99e9bf7",
			"getRoleAdmin(bytes32)": "248a9ca3",
			"getTotalClaimPrice(uint256,uint256)": "c3dd93d6",
			"getTotalNumberOfFreeSpots(address)": "bfbed67c",
			"getTotalNumberOfGuaranteedSpots(address)": "a188f9bd",
			"getUserMintedSpots(address)": "b8662a3e",
			"getUserSpots(address)": "eabbb704",
			"getWinners()": "df15c37e",
			"grantRole(bytes32,address)": "2f2ff15d",
			"guaranteedWithNoDiscountSpot()": "d182cf4d",
			"hasRole(bytes32,address)": "91d14854",
			"importNFTData(address[2],uint256[4],uint256[],string,bytes32)": "7cd6dfb0",
			"isWhitelisted(address)": "3af32abf",
			"launchpadFeePercentage()": "2e4db810",
			"launchpadFeeWallet()": "f8be73dd",
			"maxMintCount()": "32c60eef",
			"mintCap()": "76c71ca1",
			"mintExpirationTime()": "5813fd3d",
			"mintPrice()": "6817c76c",
			"mode()": "295a5212",
			"name()": "06fdde03",
			"nftBankImpl()": "95f148f7",
			"nftBankLaunchDate()": "1649c6ce",
			"nftCollection()": "6588103b",
			"nftDataImported()": "707109b4",
			"nftIds(uint256)": "c6c9bd47",
			"nftImportExpirationTime()": "ccbb6299",
			"nftType()": "6fac889b",
			"numberOfFreeNFTs()": "b0fe6414",
			"numberOfGuaranteedNFTs()": "a870a5b2",
			"numberOfRaceNFTs()": "9711d7e5",
			"onERC1155BatchReceived(address,address,uint256[],uint256[],bytes)": "bc197c81",
			"onERC1155Received(address,address,uint256,uint256,bytes)": "f23a6e61",
			"onERC721Received(address,address,uint256,bytes)": "150b7a02",
			"raceSpot()": "1ae13c23",
			"renounceRole(bytes32,address)": "36568abe",
			"revokeRole(bytes32,address)": "d547741f",
			"setBaseURI(string)": "55f804b3",
			"setMintCap(uint256)": "4070a0c9",
			"setMintPrice(uint256)": "f4a0a528",
			"setPreparationMode()": "a87d2c89",
			"setPrivateMode()": "abf792be",
			"setPublicMode()": "3e21d200",
			"setWhitelistedUsers((address,uint32,uint256[],uint256,uint256,uint256)[],uint256[3],address[],bool,bool)": "59b3f435",
			"supportsInterface(bytes4)": "01ffc9a7",
			"symbol()": "95d89b41",
			"totalFreeAllocated()": "98eee484",
			"totalGuaranteedAllocated()": "12f09746",
			"totalRaceMinted()": "4264f40d",
			"unfreezeUsers(address[])": "e46be16c",
			"whitelistMintStartDate()": "0c26abc3",
			"whitelistedUsers(address)": "f621cc48",
			"winners(uint256)": "a2fb1175",
			"withdrawBalance(address)": "756af45f"
		}
	},
	"storageLayout": {
		"storage": [
			{
				"astId": 465,
				"contract": "contracts/NFT/NFTBank/NFTBankImpl.sol:NFTBankImpl",
				"label": "_initialized",
				"offset": 0,
				"slot": "0",
				"type": "t_uint8"
			},
			{
				"astId": 468,
				"contract": "contracts/NFT/NFTBank/NFTBankImpl.sol:NFTBankImpl",
				"label": "_initializing",
				"offset": 1,
				"slot": "0",
				"type": "t_bool"
			},
			{
				"astId": 3583,
				"contract": "contracts/NFT/NFTBank/NFTBankImpl.sol:NFTBankImpl",
				"label": "__gap",
				"offset": 0,
				"slot": "1",
				"type": "t_array(t_uint256)50_storage"
			},
			{
				"astId": 3868,
				"contract": "contracts/NFT/NFTBank/NFTBankImpl.sol:NFTBankImpl",
				"label": "__gap",
				"offset": 0,
				"slot": "51",
				"type": "t_array(t_uint256)50_storage"
			},
			{
				"astId": 4189,
				"contract": "contracts/NFT/NFTBank/NFTBankImpl.sol:NFTBankImpl",
				"label": "__gap",
				"offset": 0,
				"slot": "101",
				"type": "t_array(t_uint256)50_storage"
			},
			{
				"astId": 2258,
				"contract": "contracts/NFT/NFTBank/NFTBankImpl.sol:NFTBankImpl",
				"label": "__gap",
				"offset": 0,
				"slot": "151",
				"type": "t_array(t_uint256)50_storage"
			},
			{
				"astId": 2204,
				"contract": "contracts/NFT/NFTBank/NFTBankImpl.sol:NFTBankImpl",
				"label": "__gap",
				"offset": 0,
				"slot": "201",
				"type": "t_array(t_uint256)50_storage"
			},
			{
				"astId": 85,
				"contract": "contracts/NFT/NFTBank/NFTBankImpl.sol:NFTBankImpl",
				"label": "_roles",
				"offset": 0,
				"slot": "251",
				"type": "t_mapping(t_bytes32,t_struct(RoleData)80_storage)"
			},
			{
				"astId": 384,
				"contract": "contracts/NFT/NFTBank/NFTBankImpl.sol:NFTBankImpl",
				"label": "__gap",
				"offset": 0,
				"slot": "252",
				"type": "t_array(t_uint256)49_storage"
			},
			{
				"astId": 16060,
				"contract": "contracts/NFT/NFTBank/NFTBankImpl.sol:NFTBankImpl",
				"label": "nftBankLaunchDate",
				"offset": 0,
				"slot": "301",
				"type": "t_uint256"
			},
			{
				"astId": 16062,
				"contract": "contracts/NFT/NFTBank/NFTBankImpl.sol:NFTBankImpl",
				"label": "mintCap",
				"offset": 0,
				"slot": "302",
				"type": "t_uint256"
			},
			{
				"astId": 16064,
				"contract": "contracts/NFT/NFTBank/NFTBankImpl.sol:NFTBankImpl",
				"label": "nftImportExpirationTime",
				"offset": 0,
				"slot": "303",
				"type": "t_uint256"
			},
			{
				"astId": 16066,
				"contract": "contracts/NFT/NFTBank/NFTBankImpl.sol:NFTBankImpl",
				"label": "launchpadFeePercentage",
				"offset": 0,
				"slot": "304",
				"type": "t_uint256"
			},
			{
				"astId": 16068,
				"contract": "contracts/NFT/NFTBank/NFTBankImpl.sol:NFTBankImpl",
				"label": "mintPrice",
				"offset": 0,
				"slot": "305",
				"type": "t_uint256"
			},
			{
				"astId": 16070,
				"contract": "contracts/NFT/NFTBank/NFTBankImpl.sol:NFTBankImpl",
				"label": "mintExpirationTime",
				"offset": 0,
				"slot": "306",
				"type": "t_uint256"
			},
			{
				"astId": 16072,
				"contract": "contracts/NFT/NFTBank/NFTBankImpl.sol:NFTBankImpl",
				"label": "maxMintCount",
				"offset": 0,
				"slot": "307",
				"type": "t_uint256"
			},
			{
				"astId": 16074,
				"contract": "contracts/NFT/NFTBank/NFTBankImpl.sol:NFTBankImpl",
				"label": "numberOfFreeNFTs",
				"offset": 0,
				"slot": "308",
				"type": "t_uint256"
			},
			{
				"astId": 16076,
				"contract": "contracts/NFT/NFTBank/NFTBankImpl.sol:NFTBankImpl",
				"label": "numberOfGuaranteedNFTs",
				"offset": 0,
				"slot": "309",
				"type": "t_uint256"
			},
			{
				"astId": 16078,
				"contract": "contracts/NFT/NFTBank/NFTBankImpl.sol:NFTBankImpl",
				"label": "numberOfRaceNFTs",
				"offset": 0,
				"slot": "310",
				"type": "t_uint256"
			},
			{
				"astId": 16080,
				"contract": "contracts/NFT/NFTBank/NFTBankImpl.sol:NFTBankImpl",
				"label": "totalFreeAllocated",
				"offset": 0,
				"slot": "311",
				"type": "t_uint256"
			},
			{
				"astId": 16082,
				"contract": "contracts/NFT/NFTBank/NFTBankImpl.sol:NFTBankImpl",
				"label": "totalGuaranteedAllocated",
				"offset": 0,
				"slot": "312",
				"type": "t_uint256"
			},
			{
				"astId": 16084,
				"contract": "contracts/NFT/NFTBank/NFTBankImpl.sol:NFTBankImpl",
				"label": "totalRaceMinted",
				"offset": 0,
				"slot": "313",
				"type": "t_uint256"
			},
			{
				"astId": 16086,
				"contract": "contracts/NFT/NFTBank/NFTBankImpl.sol:NFTBankImpl",
				"label": "whitelistMintStartDate",
				"offset": 0,
				"slot": "314",
				"type": "t_uint256"
			},
			{
				"astId": 16088,
				"contract": "contracts/NFT/NFTBank/NFTBankImpl.sol:NFTBankImpl",
				"label": "nftBankImpl",
				"offset": 0,
				"slot": "315",
				"type": "t_address"
			},
			{
				"astId": 16090,
				"contract": "contracts/NFT/NFTBank/NFTBankImpl.sol:NFTBankImpl",
				"label": "launchpadFeeWallet",
				"offset": 0,
				"slot": "316",
				"type": "t_address_payable"
			},
			{
				"astId": 16092,
				"contract": "contracts/NFT/NFTBank/NFTBankImpl.sol:NFTBankImpl",
				"label": "nftCollection",
				"offset": 0,
				"slot": "317",
				"type": "t_address"
			},
			{
				"astId": 16094,
				"contract": "contracts/NFT/NFTBank/NFTBankImpl.sol:NFTBankImpl",
				"label": "creatorFeeWallet",
				"offset": 0,
				"slot": "318",
				"type": "t_address_payable"
			},
			{
				"astId": 16096,
				"contract": "contracts/NFT/NFTBank/NFTBankImpl.sol:NFTBankImpl",
				"label": "nftDataImported",
				"offset": 20,
				"slot": "318",
				"type": "t_bool"
			},
			{
				"astId": 16098,
				"contract": "contracts/NFT/NFTBank/NFTBankImpl.sol:NFTBankImpl",
				"label": "baseURIHash",
				"offset": 0,
				"slot": "319",
				"type": "t_bytes32"
			},
			{
				"astId": 16100,
				"contract": "contracts/NFT/NFTBank/NFTBankImpl.sol:NFTBankImpl",
				"label": "name",
				"offset": 0,
				"slot": "320",
				"type": "t_string_storage"
			},
			{
				"astId": 16102,
				"contract": "contracts/NFT/NFTBank/NFTBankImpl.sol:NFTBankImpl",
				"label": "symbol",
				"offset": 0,
				"slot": "321",
				"type": "t_string_storage"
			},
			{
				"astId": 16104,
				"contract": "contracts/NFT/NFTBank/NFTBankImpl.sol:NFTBankImpl",
				"label": "baseURI",
				"offset": 0,
				"slot": "322",
				"type": "t_string_storage"
			},
			{
				"astId": 16107,
				"contract": "contracts/NFT/NFTBank/NFTBankImpl.sol:NFTBankImpl",
				"label": "nftType",
				"offset": 0,
				"slot": "323",
				"type": "t_enum(NFTType)17717"
			},
			{
				"astId": 16110,
				"contract": "contracts/NFT/NFTBank/NFTBankImpl.sol:NFTBankImpl",
				"label": "mode",
				"offset": 1,
				"slot": "323",
				"type": "t_enum(Mode)17714"
			},
			{
				"astId": 16113,
				"contract": "contracts/NFT/NFTBank/NFTBankImpl.sol:NFTBankImpl",
				"label": "_tokenIdIndexes",
				"offset": 0,
				"slot": "324",
				"type": "t_struct(Counter)3875_storage"
			},
			{
				"astId": 16118,
				"contract": "contracts/NFT/NFTBank/NFTBankImpl.sol:NFTBankImpl",
				"label": "whitelistedUsers",
				"offset": 0,
				"slot": "325",
				"type": "t_mapping(t_address,t_struct(Mintables)17695_storage)"
			},
			{
				"astId": 16121,
				"contract": "contracts/NFT/NFTBank/NFTBankImpl.sol:NFTBankImpl",
				"label": "winners",
				"offset": 0,
				"slot": "326",
				"type": "t_array(t_address)dyn_storage"
			},
			{
				"astId": 16124,
				"contract": "contracts/NFT/NFTBank/NFTBankImpl.sol:NFTBankImpl",
				"label": "nftIds",
				"offset": 0,
				"slot": "327",
				"type": "t_array(t_uint256)dyn_storage"
			}
		],
		"types": {
			"t_address": {
				"encoding": "inplace",
				"label": "address",
				"numberOfBytes": "20"
			},
			"t_address_payable": {
				"encoding": "inplace",
				"label": "address payable",
				"numberOfBytes": "20"
			},
			"t_array(t_address)dyn_storage": {
				"base": "t_address",
				"encoding": "dynamic_array",
				"label": "address[]",
				"numberOfBytes": "32"
			},
			"t_array(t_bool)dyn_storage": {
				"base": "t_bool",
				"encoding": "dynamic_array",
				"label": "bool[]",
				"numberOfBytes": "32"
			},
			"t_array(t_uint256)49_storage": {
				"base": "t_uint256",
				"encoding": "inplace",
				"label": "uint256[49]",
				"numberOfBytes": "1568"
			},
			"t_array(t_uint256)50_storage": {
				"base": "t_uint256",
				"encoding": "inplace",
				"label": "uint256[50]",
				"numberOfBytes": "1600"
			},
			"t_array(t_uint256)dyn_storage": {
				"base": "t_uint256",
				"encoding": "dynamic_array",
				"label": "uint256[]",
				"numberOfBytes": "32"
			},
			"t_bool": {
				"encoding": "inplace",
				"label": "bool",
				"numberOfBytes": "1"
			},
			"t_bytes32": {
				"encoding": "inplace",
				"label": "bytes32",
				"numberOfBytes": "32"
			},
			"t_enum(Mode)17714": {
				"encoding": "inplace",
				"label": "enum INFTBank.Mode",
				"numberOfBytes": "1"
			},
			"t_enum(NFTType)17717": {
				"encoding": "inplace",
				"label": "enum INFTBank.NFTType",
				"numberOfBytes": "1"
			},
			"t_mapping(t_address,t_bool)": {
				"encoding": "mapping",
				"key": "t_address",
				"label": "mapping(address => bool)",
				"numberOfBytes": "32",
				"value": "t_bool"
			},
			"t_mapping(t_address,t_struct(Mintables)17695_storage)": {
				"encoding": "mapping",
				"key": "t_address",
				"label": "mapping(address => struct INFTBank.Mintables)",
				"numberOfBytes": "32",
				"value": "t_struct(Mintables)17695_storage"
			},
			"t_mapping(t_bytes32,t_struct(RoleData)80_storage)": {
				"encoding": "mapping",
				"key": "t_bytes32",
				"label": "mapping(bytes32 => struct AccessControlUpgradeable.RoleData)",
				"numberOfBytes": "32",
				"value": "t_struct(RoleData)80_storage"
			},
			"t_string_storage": {
				"encoding": "bytes",
				"label": "string",
				"numberOfBytes": "32"
			},
			"t_struct(Counter)3875_storage": {
				"encoding": "inplace",
				"label": "struct CountersUpgradeable.Counter",
				"members": [
					{
						"astId": 3874,
						"contract": "contracts/NFT/NFTBank/NFTBankImpl.sol:NFTBankImpl",
						"label": "_value",
						"offset": 0,
						"slot": "0",
						"type": "t_uint256"
					}
				],
				"numberOfBytes": "32"
			},
			"t_struct(Mintables)17695_storage": {
				"encoding": "inplace",
				"label": "struct INFTBank.Mintables",
				"members": [
					{
						"astId": 17673,
						"contract": "contracts/NFT/NFTBank/NFTBankImpl.sol:NFTBankImpl",
						"label": "spots",
						"offset": 0,
						"slot": "0",
						"type": "t_array(t_uint256)dyn_storage"
					},
					{
						"astId": 17676,
						"contract": "contracts/NFT/NFTBank/NFTBankImpl.sol:NFTBankImpl",
						"label": "mintedSpots",
						"offset": 0,
						"slot": "1",
						"type": "t_array(t_bool)dyn_storage"
					},
					{
						"astId": 17678,
						"contract": "contracts/NFT/NFTBank/NFTBankImpl.sol:NFTBankImpl",
						"label": "freeSpots",
						"offset": 0,
						"slot": "2",
						"type": "t_uint256"
					},
					{
						"astId": 17680,
						"contract": "contracts/NFT/NFTBank/NFTBankImpl.sol:NFTBankImpl",
						"label": "guaranteedSpots",
						"offset": 0,
						"slot": "3",
						"type": "t_uint256"
					},
					{
						"astId": 17682,
						"contract": "contracts/NFT/NFTBank/NFTBankImpl.sol:NFTBankImpl",
						"label": "raceSpots",
						"offset": 0,
						"slot": "4",
						"type": "t_uint256"
					},
					{
						"astId": 17684,
						"contract": "contracts/NFT/NFTBank/NFTBankImpl.sol:NFTBankImpl",
						"label": "freeSpotsMinted",
						"offset": 0,
						"slot": "5",
						"type": "t_uint256"
					},
					{
						"astId": 17686,
						"contract": "contracts/NFT/NFTBank/NFTBankImpl.sol:NFTBankImpl",
						"label": "raceSpotsMinted",
						"offset": 0,
						"slot": "6",
						"type": "t_uint256"
					},
					{
						"astId": 17688,
						"contract": "contracts/NFT/NFTBank/NFTBankImpl.sol:NFTBankImpl",
						"label": "guaranteedSpotsMinted",
						"offset": 0,
						"slot": "7",
						"type": "t_uint256"
					},
					{
						"astId": 17690,
						"contract": "contracts/NFT/NFTBank/NFTBankImpl.sol:NFTBankImpl",
						"label": "rank",
						"offset": 0,
						"slot": "8",
						"type": "t_uint32"
					},
					{
						"astId": 17692,
						"contract": "contracts/NFT/NFTBank/NFTBankImpl.sol:NFTBankImpl",
						"label": "isWhitelisted",
						"offset": 4,
						"slot": "8",
						"type": "t_bool"
					},
					{
						"astId": 17694,
						"contract": "contracts/NFT/NFTBank/NFTBankImpl.sol:NFTBankImpl",
						"label": "isFreezed",
						"offset": 5,
						"slot": "8",
						"type": "t_bool"
					}
				],
				"numberOfBytes": "288"
			},
			"t_struct(RoleData)80_storage": {
				"encoding": "inplace",
				"label": "struct AccessControlUpgradeable.RoleData",
				"members": [
					{
						"astId": 77,
						"contract": "contracts/NFT/NFTBank/NFTBankImpl.sol:NFTBankImpl",
						"label": "members",
						"offset": 0,
						"slot": "0",
						"type": "t_mapping(t_address,t_bool)"
					},
					{
						"astId": 79,
						"contract": "contracts/NFT/NFTBank/NFTBankImpl.sol:NFTBankImpl",
						"label": "adminRole",
						"offset": 0,
						"slot": "1",
						"type": "t_bytes32"
					}
				],
				"numberOfBytes": "64"
			},
			"t_uint256": {
				"encoding": "inplace",
				"label": "uint256",
				"numberOfBytes": "32"
			},
			"t_uint32": {
				"encoding": "inplace",
				"label": "uint32",
				"numberOfBytes": "4"
			},
			"t_uint8": {
				"encoding": "inplace",
				"label": "uint8",
				"numberOfBytes": "1"
			}
		}
	},
	"userdoc": {
		"kind": "user",
		"methods": {},
		"version": 1
	}
}