{
	"contractName": "NFTBankFactory",
	"abi": [
		{
			"inputs": [
				{
					"internalType": "address",
					"name": "_launchpadFeeWallet",
					"type": "address"
				},
				{
					"internalType": "address",
					"name": "_nftBankImpl",
					"type": "address"
				},
				{
					"internalType": "address",
					"name": "_superAdmin",
					"type": "address"
				},
				{
					"internalType": "uint256",
					"name": "_launchpadFeePercentage",
					"type": "uint256"
				},
				{
					"internalType": "uint256",
					"name": "_mintCap",
					"type": "uint256"
				}
			],
			"stateMutability": "nonpayable",
			"type": "constructor"
		},
		{
			"inputs": [],
			"name": "DoesNotSupportINFTBank",
			"type": "error"
		},
		{
			"inputs": [],
			"name": "NotADifferentImpl",
			"type": "error"
		},
		{
			"anonymous": false,
			"inputs": [
				{
					"indexed": true,
					"internalType": "address",
					"name": "nftBankProxyAddress",
					"type": "address"
				},
				{
					"indexed": true,
					"internalType": "string",
					"name": "name",
					"type": "string"
				},
				{
					"indexed": false,
					"internalType": "uint256",
					"name": "launchpadFee",
					"type": "uint256"
				},
				{
					"indexed": false,
					"internalType": "uint256",
					"name": "nftImportExpirationTime",
					"type": "uint256"
				}
			],
			"name": "NFTBankCreated",
			"type": "event"
		},
		{
			"anonymous": false,
			"inputs": [
				{
					"indexed": false,
					"internalType": "uint256",
					"name": "newLaunchpadFeePercentage",
					"type": "uint256"
				},
				{
					"indexed": false,
					"internalType": "uint256",
					"name": "oldLaunchpadFeePercentage",
					"type": "uint256"
				}
			],
			"name": "NewLaunchpadFeeWasSet",
			"type": "event"
		},
		{
			"anonymous": false,
			"inputs": [
				{
					"indexed": false,
					"internalType": "uint256",
					"name": "newMintCap",
					"type": "uint256"
				},
				{
					"indexed": false,
					"internalType": "uint256",
					"name": "oldMintCap",
					"type": "uint256"
				}
			],
			"name": "NewMintCapWasSet",
			"type": "event"
		},
		{
			"anonymous": false,
			"inputs": [
				{
					"indexed": false,
					"internalType": "address",
					"name": "newImpl",
					"type": "address"
				},
				{
					"indexed": false,
					"internalType": "address",
					"name": "oldImpl",
					"type": "address"
				}
			],
			"name": "NewNFTBankImplWasSet",
			"type": "event"
		},
		{
			"anonymous": false,
			"inputs": [
				{
					"indexed": false,
					"internalType": "address",
					"name": "newSuperAdmin",
					"type": "address"
				},
				{
					"indexed": false,
					"internalType": "address",
					"name": "oldSuperAdmin",
					"type": "address"
				}
			],
			"name": "NewSuperAdminWasSet",
			"type": "event"
		},
		{
			"anonymous": false,
			"inputs": [
				{
					"indexed": true,
					"internalType": "bytes32",
					"name": "role",
					"type": "bytes32"
				},
				{
					"indexed": true,
					"internalType": "bytes32",
					"name": "previousAdminRole",
					"type": "bytes32"
				},
				{
					"indexed": true,
					"internalType": "bytes32",
					"name": "newAdminRole",
					"type": "bytes32"
				}
			],
			"name": "RoleAdminChanged",
			"type": "event"
		},
		{
			"anonymous": false,
			"inputs": [
				{
					"indexed": true,
					"internalType": "bytes32",
					"name": "role",
					"type": "bytes32"
				},
				{
					"indexed": true,
					"internalType": "address",
					"name": "account",
					"type": "address"
				},
				{
					"indexed": true,
					"internalType": "address",
					"name": "sender",
					"type": "address"
				}
			],
			"name": "RoleGranted",
			"type": "event"
		},
		{
			"anonymous": false,
			"inputs": [
				{
					"indexed": true,
					"internalType": "bytes32",
					"name": "role",
					"type": "bytes32"
				},
				{
					"indexed": true,
					"internalType": "address",
					"name": "account",
					"type": "address"
				},
				{
					"indexed": true,
					"internalType": "address",
					"name": "sender",
					"type": "address"
				}
			],
			"name": "RoleRevoked",
			"type": "event"
		},
		{
			"inputs": [],
			"name": "ADMIN_ROLE",
			"outputs": [
				{
					"internalType": "bytes32",
					"name": "",
					"type": "bytes32"
				}
			],
			"stateMutability": "view",
			"type": "function"
		},
		{
			"inputs": [],
			"name": "BANK_CREATOR_ROLE",
			"outputs": [
				{
					"internalType": "bytes32",
					"name": "",
					"type": "bytes32"
				}
			],
			"stateMutability": "view",
			"type": "function"
		},
		{
			"inputs": [],
			"name": "DEFAULT_ADMIN_ROLE",
			"outputs": [
				{
					"internalType": "bytes32",
					"name": "",
					"type": "bytes32"
				}
			],
			"stateMutability": "view",
			"type": "function"
		},
		{
			"inputs": [
				{
					"internalType": "string",
					"name": "name",
					"type": "string"
				},
				{
					"internalType": "uint256",
					"name": "nftImportExpirationTime",
					"type": "uint256"
				}
			],
			"name": "createBankProxy",
			"outputs": [
				{
					"internalType": "address",
					"name": "",
					"type": "address"
				}
			],
			"stateMutability": "nonpayable",
			"type": "function"
		},
		{
			"inputs": [
				{
					"internalType": "bytes32",
					"name": "role",
					"type": "bytes32"
				}
			],
			"name": "getRoleAdmin",
			"outputs": [
				{
					"internalType": "bytes32",
					"name": "",
					"type": "bytes32"
				}
			],
			"stateMutability": "view",
			"type": "function"
		},
		{
			"inputs": [
				{
					"internalType": "bytes32",
					"name": "role",
					"type": "bytes32"
				},
				{
					"internalType": "address",
					"name": "account",
					"type": "address"
				}
			],
			"name": "grantRole",
			"outputs": [],
			"stateMutability": "nonpayable",
			"type": "function"
		},
		{
			"inputs": [
				{
					"internalType": "bytes32",
					"name": "role",
					"type": "bytes32"
				},
				{
					"internalType": "address",
					"name": "account",
					"type": "address"
				}
			],
			"name": "hasRole",
			"outputs": [
				{
					"internalType": "bool",
					"name": "",
					"type": "bool"
				}
			],
			"stateMutability": "view",
			"type": "function"
		},
		{
			"inputs": [],
			"name": "launchpadFeePercentage",
			"outputs": [
				{
					"internalType": "uint256",
					"name": "",
					"type": "uint256"
				}
			],
			"stateMutability": "view",
			"type": "function"
		},
		{
			"inputs": [],
			"name": "launchpadFeeWallet",
			"outputs": [
				{
					"internalType": "address",
					"name": "",
					"type": "address"
				}
			],
			"stateMutability": "view",
			"type": "function"
		},
		{
			"inputs": [],
			"name": "mintCap",
			"outputs": [
				{
					"internalType": "uint256",
					"name": "",
					"type": "uint256"
				}
			],
			"stateMutability": "view",
			"type": "function"
		},
		{
			"inputs": [],
			"name": "nftBankImpl",
			"outputs": [
				{
					"internalType": "address",
					"name": "",
					"type": "address"
				}
			],
			"stateMutability": "view",
			"type": "function"
		},
		{
			"inputs": [
				{
					"internalType": "bytes32",
					"name": "role",
					"type": "bytes32"
				},
				{
					"internalType": "address",
					"name": "account",
					"type": "address"
				}
			],
			"name": "renounceRole",
			"outputs": [],
			"stateMutability": "nonpayable",
			"type": "function"
		},
		{
			"inputs": [
				{
					"internalType": "bytes32",
					"name": "role",
					"type": "bytes32"
				},
				{
					"internalType": "address",
					"name": "account",
					"type": "address"
				}
			],
			"name": "revokeRole",
			"outputs": [],
			"stateMutability": "nonpayable",
			"type": "function"
		},
		{
			"inputs": [
				{
					"internalType": "uint256",
					"name": "_launchpadFeePercentage",
					"type": "uint256"
				}
			],
			"name": "setLaunchpadFeePercentage",
			"outputs": [],
			"stateMutability": "nonpayable",
			"type": "function"
		},
		{
			"inputs": [
				{
					"internalType": "uint256",
					"name": "_mintCap",
					"type": "uint256"
				}
			],
			"name": "setMintCap",
			"outputs": [],
			"stateMutability": "nonpayable",
			"type": "function"
		},
		{
			"inputs": [
				{
					"internalType": "address",
					"name": "ImpAdr",
					"type": "address"
				}
			],
			"name": "setNewBankImplAddress",
			"outputs": [],
			"stateMutability": "nonpayable",
			"type": "function"
		},
		{
			"inputs": [
				{
					"internalType": "address",
					"name": "_superAdmin",
					"type": "address"
				}
			],
			"name": "setNewSuperAdmin",
			"outputs": [],
			"stateMutability": "nonpayable",
			"type": "function"
		},
		{
			"inputs": [],
			"name": "superAdmin",
			"outputs": [
				{
					"internalType": "address",
					"name": "",
					"type": "address"
				}
			],
			"stateMutability": "view",
			"type": "function"
		},
		{
			"inputs": [
				{
					"internalType": "bytes4",
					"name": "interfaceId",
					"type": "bytes4"
				}
			],
			"name": "supportsInterface",
			"outputs": [
				{
					"internalType": "bool",
					"name": "",
					"type": "bool"
				}
			],
			"stateMutability": "view",
			"type": "function"
		}
	],
	"bytecode": "0x60806040527fa49807205ce4d355092ef5a8a18f56e8913cf4a201fbe287825b095693c217756001557f9f44b334a89ed2764ab332a7faa64bec31e526154eb4d5a7659c666048fd49146002553480156200005957600080fd5b5060405162002c0638038062002c068339810160408190526200007c916200023d565b600480546001600160a01b038087166001600160a01b0319928316179092556003805492861692909116919091179055600154620000c290620000bc3390565b62000125565b600254620000d1903362000125565b600154620000e0908062000135565b620000f66002546001546200013560201b60201c565b600580546001600160a01b0319166001600160a01b03969096169590951790945560065550506007556200029a565b62000131828262000180565b5050565b600082815260208190526040808220600101805490849055905190918391839186917fbd79b86ffe0ab8e8776151514217cd7cacd52c909f66475c3af44e129f0b00ff9190a4505050565b6000828152602081815260408083206001600160a01b038516845290915290205460ff1662000131576000828152602081815260408083206001600160a01b03851684529091529020805460ff19166001179055620001dc3390565b6001600160a01b0316816001600160a01b0316837f2f8788117e7eff1d82e926ec794901d17c78024a50270940304540a733656f0d60405160405180910390a45050565b80516001600160a01b03811681146200023857600080fd5b919050565b600080600080600060a086880312156200025657600080fd5b620002618662000220565b9450620002716020870162000220565b9350620002816040870162000220565b6060870151608090970151959894975095949392505050565b61295c80620002aa6000396000f3fe608060405234801561001057600080fd5b50600436106101215760003560e01c806375b238fc116100ad578063b6c3ef2711610071578063b6c3ef2714610254578063ce791ce314610267578063d547741f1461027a578063ec5eb5da1461028d578063f8be73dd1461029657600080fd5b806375b238fc1461021457806376c71ca11461021d57806391d148541461022657806395f148f714610239578063a217fddf1461024c57600080fd5b806329575f6a116100f457806329575f6a146101a75780632e4db810146101d25780632f2ff15d146101db57806336568abe146101ee5780634070a0c91461020157600080fd5b806301ffc9a71461012657806303745a0e1461014e57806313877cea14610163578063248a9ca314610176575b600080fd5b610139610134366004610abe565b6102a9565b60405190151581526020015b60405180910390f35b61016161015c366004610b04565b6102e0565b005b610161610171366004610b1f565b61041c565b610199610184366004610b1f565b60009081526020819052604090206001015490565b604051908152602001610145565b6003546101ba906001600160a01b031681565b6040516001600160a01b039091168152602001610145565b61019960065481565b6101616101e9366004610b38565b610466565b6101616101fc366004610b38565b610490565b61016161020f366004610b1f565b61050f565b61019960015481565b61019960075481565b610139610234366004610b38565b610559565b6004546101ba906001600160a01b031681565b610199600081565b610161610262366004610b04565b610582565b6101ba610275366004610b7a565b6105e6565b610161610288366004610b38565b61078f565b61019960025481565b6005546101ba906001600160a01b031681565b60006001600160e01b03198216637965db0b60e01b14806102da57506301ffc9a760e01b6001600160e01b03198316145b92915050565b6001546102ec816107b4565b6004546001600160a01b038381169116141561031b5760405163ba501c4d60e01b815260040160405180910390fd5b6040516301ffc9a760e01b81526392209dbf60e01b60048201526001600160a01b038316906301ffc9a79060240160206040518083038186803b15801561036157600080fd5b505afa158015610375573d6000803e3d6000fd5b505050506040513d601f19601f820116820180604052508101906103999190610c2f565b156103ff57600480546001600160a01b038481166001600160a01b03198316811790935560408051938452911660208301819052917fef71174d9cb18ecb75827201470103b3ca2e98bffc6a123c181a4294aacd665b91015b60405180910390a1505050565b604051631dc9bba760e31b815260040160405180910390fd5b5050565b600154610428816107b4565b600680549083905560408051848152602081018390527fa5bdea0442f92d4f8cfcb2ef097cbef895dee459e114d0a2d1dfc94e7b9637ce91016103f2565b600082815260208190526040902060010154610481816107b4565b61048b83836107c1565b505050565b6001600160a01b03811633146105055760405162461bcd60e51b815260206004820152602f60248201527f416363657373436f6e74726f6c3a2063616e206f6e6c792072656e6f756e636560448201526e103937b632b9903337b91039b2b63360891b60648201526084015b60405180910390fd5b6104188282610845565b60015461051b816107b4565b600780549083905560408051848152602081018390527fde0f3e82f0d197e64e2b50a8428517693190e0c2b6beaa3511c60e0ff031dda391016103f2565b6000918252602082815260408084206001600160a01b0393909316845291905290205460ff1690565b60015461058e816107b4565b600380546001600160a01b038481166001600160a01b03198316811790935560408051938452911660208301819052917f4bf62747831e52566c95db9dc765944d67440aa79e4be5784042e4bff7e955f691016103f2565b60006002546105f4816107b4565b600060405161060290610ab1565b604051809103906000f08015801561061e573d6000803e3d6000fd5b5060048054604051631b2ce7f360e11b81526001600160a01b03918216928101929092529192508291821690633659cfe690602401600060405180830381600087803b15801561066d57600080fd5b505af1158015610681573d6000803e3d6000fd5b505060408051606080820183526005546001600160a01b0390811683526003548116602080850191909152338486015284519283018552600754835282018b9052600654828501529251630eb65d8f60e21b8152919450925090851690633ad9763c906106f6908b9085908790600401610cad565b600060405180830381600087803b15801561071057600080fd5b505af1158015610724573d6000803e3d6000fd5b50505050876040516107369190610d25565b604080519182900382206006548352602083018a9052916001600160a01b038616917f37cd716b957e7c7bcfb2f5ae26d6d900abef16103b3d6e068c3d9b73c5c277ae910160405180910390a350909695505050505050565b6000828152602081905260409020600101546107aa816107b4565b61048b8383610845565b6107be81336108aa565b50565b6107cb8282610559565b610418576000828152602081815260408083206001600160a01b03851684529091529020805460ff191660011790556108013390565b6001600160a01b0316816001600160a01b0316837f2f8788117e7eff1d82e926ec794901d17c78024a50270940304540a733656f0d60405160405180910390a45050565b61084f8282610559565b15610418576000828152602081815260408083206001600160a01b0385168085529252808320805460ff1916905551339285917ff6391f5c32d9c69d2a47ea670b442974b53935d1edc7fd64eb21e047a839171b9190a45050565b6108b48282610559565b610418576108cc816001600160a01b0316601461090e565b6108d783602061090e565b6040516020016108e8929190610d41565b60408051601f198184030181529082905262461bcd60e51b82526104fc91600401610db6565b6060600061091d836002610ddf565b610928906002610dfe565b67ffffffffffffffff81111561094057610940610b64565b6040519080825280601f01601f19166020018201604052801561096a576020820181803683370190505b509050600360fc1b8160008151811061098557610985610e16565b60200101906001600160f81b031916908160001a905350600f60fb1b816001815181106109b4576109b4610e16565b60200101906001600160f81b031916908160001a90535060006109d8846002610ddf565b6109e3906001610dfe565b90505b6001811115610a5b576f181899199a1a9b1b9c1cb0b131b232b360811b85600f1660108110610a1757610a17610e16565b1a60f81b828281518110610a2d57610a2d610e16565b60200101906001600160f81b031916908160001a90535060049490941c93610a5481610e2c565b90506109e6565b508315610aaa5760405162461bcd60e51b815260206004820181905260248201527f537472696e67733a20686578206c656e67746820696e73756666696369656e7460448201526064016104fc565b9392505050565b611ae380610e4483390190565b600060208284031215610ad057600080fd5b81356001600160e01b031981168114610aaa57600080fd5b80356001600160a01b0381168114610aff57600080fd5b919050565b600060208284031215610b1657600080fd5b610aaa82610ae8565b600060208284031215610b3157600080fd5b5035919050565b60008060408385031215610b4b57600080fd5b82359150610b5b60208401610ae8565b90509250929050565b634e487b7160e01b600052604160045260246000fd5b60008060408385031215610b8d57600080fd5b823567ffffffffffffffff80821115610ba557600080fd5b818501915085601f830112610bb957600080fd5b813581811115610bcb57610bcb610b64565b604051601f8201601f19908116603f01168101908382118183101715610bf357610bf3610b64565b81604052828152886020848701011115610c0c57600080fd5b826020860160208301376000602093820184015298969091013596505050505050565b600060208284031215610c4157600080fd5b81518015158114610aaa57600080fd5b60005b83811015610c6c578181015183820152602001610c54565b83811115610c7b576000848401525b50505050565b60008151808452610c99816020860160208601610c51565b601f01601f19169290920160200192915050565b60e081526000610cc060e0830186610c81565b905060208083018560005b6003811015610ce857815183529183019190830190600101610ccb565b505050608083018460005b6003811015610d195781516001600160a01b031683529183019190830190600101610cf3565b50505050949350505050565b60008251610d37818460208701610c51565b9190910192915050565b7f416363657373436f6e74726f6c3a206163636f756e7420000000000000000000815260008351610d79816017850160208801610c51565b7001034b99036b4b9b9b4b733903937b6329607d1b6017918401918201528351610daa816028840160208801610c51565b01602801949350505050565b602081526000610aaa6020830184610c81565b634e487b7160e01b600052601160045260246000fd5b6000816000190483118215151615610df957610df9610dc9565b500290565b60008219821115610e1157610e11610dc9565b500190565b634e487b7160e01b600052603260045260246000fd5b600081610e3b57610e3b610dc9565b50600019019056fe608060405234801561001057600080fd5b5061003b7f7613a25ecc738585a232ad50a301178f12b3ba8887d13e138b523c4269c4768933610040565b6100f0565b61004a828261004e565b5050565b600082815260fb602090815260408083206001600160a01b038516845290915290205460ff1661004a57600082815260fb602090815260408083206001600160a01b03851684529091529020805460ff191660011790556100ac3390565b6001600160a01b0316816001600160a01b0316837f2f8788117e7eff1d82e926ec794901d17c78024a50270940304540a733656f0d60405160405180910390a45050565b6119e380620001006000396000f3fe6080604052600436106102975760003560e01c8063707109b41161015a578063a2fb1175116100c1578063ccbb62991161007a578063ccbb6299146107ff578063d182cf4d14610816578063d547741f1461082c578063f23a6e611461084c578063f621cc4814610878578063f8be73dd146109415761029e565b8063a2fb117514610731578063a870a5b214610751578063b0fe641414610768578063bc197c811461077f578063c6c9bd47146107ab578063caff99ce146107cb5761029e565b806395d89b411161011357806395d89b41146106ac57806395f148f7146106c15780639711d7e5146106e257806398eee484146106f95780639b7d707d14610710578063a217fddf146103dd5761029e565b8063707109b4146105f357806373ee45081461061557806375b238fc1461062b57806376c71ca11461065f57806377a714ae1461067657806391d148541461068c5761029e565b806332c60eef116101fe5780634460bdd6116101b75780634460bdd61461052d5780635813fd3d1461054f5780636588103b146105665780636817c76c1461059f5780636c0360eb146105b65780636fac889b146105cb5761029e565b806332c60eef1461048857806336568abe1461049f5780633659cfe6146104bf5780633ad9763c146104df5780633d779f32146104ff5780634264f40d146105165761029e565b80631649c6ce116102505780631649c6ce146103c65780631ae13c23146103dd578063248a9ca3146103f2578063295a5212146104225780632e4db8101461044f5780632f2ff15d146104665761029e565b806301ffc9a7146102d957806306fdde031461030e5780630c26abc31461033057806312f097461461035557806313ad88ca1461036c578063150b7a02146103825761029e565b3661029e57005b61013b546001600160a01b0316806102b557600080fd5b3660008037600080366000845af43d6000803e8080156102d4573d6000f35b3d6000fd5b3480156102e557600080fd5b506102f96102f43660046112eb565b610962565b60405190151581526020015b60405180910390f35b34801561031a57600080fd5b5061032361098d565b6040516103059190611341565b34801561033c57600080fd5b5061034761013a5481565b604051908152602001610305565b34801561036157600080fd5b506103476101385481565b34801561037857600080fd5b5061034761271081565b34801561038e57600080fd5b506103ad61039d366004611473565b630a85bd0160e11b949350505050565b6040516001600160e01b03199091168152602001610305565b3480156103d257600080fd5b5061034761012d5481565b3480156103e957600080fd5b50610347600081565b3480156103fe57600080fd5b5061034761040d3660046114db565b600090815260fb602052604090206001015490565b34801561042e57600080fd5b506101435461044290610100900460ff1681565b604051610305919061150a565b34801561045b57600080fd5b506103476101305481565b34801561047257600080fd5b50610486610481366004611524565b610a1c565b005b34801561049457600080fd5b506103476101335481565b3480156104ab57600080fd5b506104866104ba366004611524565b610a46565b3480156104cb57600080fd5b506104866104da366004611550565b610ac9565b3480156104eb57600080fd5b506104866104fa3660046115c2565b610b1a565b34801561050b57600080fd5b5061034761013f5481565b34801561052257600080fd5b506103476101395481565b34801561053957600080fd5b5061034760008051602061198e83398151915281565b34801561055b57600080fd5b506103476101325481565b34801561057257600080fd5b5061013d54610587906001600160a01b031681565b6040516001600160a01b039091168152602001610305565b3480156105ab57600080fd5b506103476101315481565b3480156105c257600080fd5b50610323610c9d565b3480156105d757600080fd5b50610143546105e69060ff1681565b6040516103059190611672565b3480156105ff57600080fd5b5061013e546102f990600160a01b900460ff1681565b34801561062157600080fd5b5061034761048381565b34801561063757600080fd5b506103477fa49807205ce4d355092ef5a8a18f56e8913cf4a201fbe287825b095693c2177581565b34801561066b57600080fd5b5061034761012e5481565b34801561068257600080fd5b506103476102d181565b34801561069857600080fd5b506102f96106a7366004611524565b610cab565b3480156106b857600080fd5b50610323610cd6565b3480156106cd57600080fd5b5061013b54610587906001600160a01b031681565b3480156106ee57600080fd5b506103476101365481565b34801561070557600080fd5b506103476101375481565b34801561071c57600080fd5b5061013e54610587906001600160a01b031681565b34801561073d57600080fd5b5061058761074c3660046114db565b610ce4565b34801561075d57600080fd5b506103476101355481565b34801561077457600080fd5b506103476101345481565b34801561078b57600080fd5b506103ad61079a366004611706565b63bc197c8160e01b95945050505050565b3480156107b757600080fd5b506103476107c63660046114db565b610d0f565b3480156107d757600080fd5b506103477fe926d122b799dcbe5c2eccdf60ae0aefbb1a4bc75a7848bb07befecf8c775f5c81565b34801561080b57600080fd5b5061034761012f5481565b34801561082257600080fd5b5061034761271181565b34801561083857600080fd5b50610486610847366004611524565b610d31565b34801561085857600080fd5b506103ad6108673660046117b0565b63f23a6e6160e01b95945050505050565b34801561088457600080fd5b506108f3610893366004611550565b610145602052600090815260409020600281015460038201546004830154600584015460068501546007860154600890960154949593949293919290919063ffffffff81169060ff64010000000082048116916501000000000090041689565b60408051998a5260208a0198909852968801959095526060870193909352608086019190915260a085015263ffffffff1660c0840152151560e0830152151561010082015261012001610305565b34801561094d57600080fd5b5061013c54610587906001600160a01b031681565b60006001600160e01b031982166392209dbf60e01b1480610987575061098782610d56565b92915050565b610140805461099b90611815565b80601f01602080910402602001604051908101604052809291908181526020018280546109c790611815565b8015610a145780601f106109e957610100808354040283529160200191610a14565b820191906000526020600020905b8154815290600101906020018083116109f757829003601f168201915b505050505081565b600082815260fb6020526040902060010154610a3781610d7b565b610a418383610d88565b505050565b6001600160a01b0381163314610abb5760405162461bcd60e51b815260206004820152602f60248201527f416363657373436f6e74726f6c3a2063616e206f6e6c792072656e6f756e636560448201526e103937b632b9903337b91039b2b63360891b60648201526084015b60405180910390fd5b610ac58282610e0e565b5050565b60008051602061198e833981519152610ae181610d7b565b61013b546001600160a01b0383811691161415610b115760405163ba501c4d60e01b815260040160405180910390fd5b610ac582610e75565b6000610b266001610ec7565b90508015610b3e576000805461ff0019166101001790555b60008051602061198e833981519152610b5681610d7b565b610b5e610f54565b610b66610f54565b610b6e610f54565b8451610b8290610140906020880190611252565b50825161013c80546001600160a01b0319166001600160a01b03909216919091179055835161012e55602084015161012f556040840151610130554261012d55610be260008051602061198e8339815191528460015b6020020151610fc1565b610c0e7fa49807205ce4d355092ef5a8a18f56e8913cf4a201fbe287825b095693c21775846002610bd8565b610c2660008051602061198e83398151915280610fcb565b610c507fa49807205ce4d355092ef5a8a18f56e8913cf4a201fbe287825b095693c2177580610fcb565b508015610c97576000805461ff0019169055604051600181527f7f26b83ff96e1f2b6a682f133852f6798a09c465da95921460cefb38474024989060200160405180910390a15b50505050565b610142805461099b90611815565b600091825260fb602090815260408084206001600160a01b0393909316845291905290205460ff1690565b610141805461099b90611815565b6101468181548110610cf557600080fd5b6000918252602090912001546001600160a01b0316905081565b6101478181548110610d2057600080fd5b600091825260209091200154905081565b600082815260fb6020526040902060010154610d4c81610d7b565b610a418383610e0e565b60006001600160e01b03198216637965db0b60e01b1480610987575061098782611016565b610d85813361104b565b50565b610d928282610cab565b610ac557600082815260fb602090815260408083206001600160a01b03851684529091529020805460ff19166001179055610dca3390565b6001600160a01b0316816001600160a01b0316837f2f8788117e7eff1d82e926ec794901d17c78024a50270940304540a733656f0d60405160405180910390a45050565b610e188282610cab565b15610ac557600082815260fb602090815260408083206001600160a01b0385168085529252808320805460ff1916905551339285917ff6391f5c32d9c69d2a47ea670b442974b53935d1edc7fd64eb21e047a839171b9190a45050565b61013b80546001600160a01b038381166001600160a01b03198316811790935560405191169182917fd2d601ff50517068c7174bc2a7e6e8ea802702e59da429ebb0d6b381b2785c5d90600090a35050565b60008054610100900460ff1615610f0e578160ff166001148015610eea5750303b155b610f065760405162461bcd60e51b8152600401610ab290611866565b506000919050565b60005460ff808416911610610f355760405162461bcd60e51b8152600401610ab290611866565b506000805460ff191660ff92909216919091179055600190565b919050565b600054610100900460ff16610fbf5760405162461bcd60e51b815260206004820152602b60248201527f496e697469616c697a61626c653a20636f6e7472616374206973206e6f74206960448201526a6e697469616c697a696e6760a81b6064820152608401610ab2565b565b610ac58282610d88565b600082815260fb6020526040808220600101805490849055905190918391839186917fbd79b86ffe0ab8e8776151514217cd7cacd52c909f66475c3af44e129f0b00ff9190a4505050565b60006001600160e01b03198216630271189760e51b148061098757506301ffc9a760e01b6001600160e01b0319831614610987565b6110558282610cab565b610ac55761106d816001600160a01b031660146110af565b6110788360206110af565b6040516020016110899291906118b4565b60408051601f198184030181529082905262461bcd60e51b8252610ab291600401611341565b606060006110be83600261193f565b6110c990600261195e565b67ffffffffffffffff8111156110e1576110e161138b565b6040519080825280601f01601f19166020018201604052801561110b576020820181803683370190505b509050600360fc1b8160008151811061112657611126611850565b60200101906001600160f81b031916908160001a905350600f60fb1b8160018151811061115557611155611850565b60200101906001600160f81b031916908160001a905350600061117984600261193f565b61118490600161195e565b90505b60018111156111fc576f181899199a1a9b1b9c1cb0b131b232b360811b85600f16601081106111b8576111b8611850565b1a60f81b8282815181106111ce576111ce611850565b60200101906001600160f81b031916908160001a90535060049490941c936111f581611976565b9050611187565b50831561124b5760405162461bcd60e51b815260206004820181905260248201527f537472696e67733a20686578206c656e67746820696e73756666696369656e746044820152606401610ab2565b9392505050565b82805461125e90611815565b90600052602060002090601f01602090048101928261128057600085556112c6565b82601f1061129957805160ff19168380011785556112c6565b828001600101855582156112c6579182015b828111156112c65782518255916020019190600101906112ab565b506112d29291506112d6565b5090565b5b808211156112d257600081556001016112d7565b6000602082840312156112fd57600080fd5b81356001600160e01b03198116811461124b57600080fd5b60005b83811015611330578181015183820152602001611318565b83811115610c975750506000910152565b6020815260008251806020840152611360816040850160208701611315565b601f01601f19169190910160400192915050565b80356001600160a01b0381168114610f4f57600080fd5b634e487b7160e01b600052604160045260246000fd5b6040516060810167ffffffffffffffff811182821017156113c4576113c461138b565b60405290565b604051601f8201601f1916810167ffffffffffffffff811182821017156113f3576113f361138b565b604052919050565b600067ffffffffffffffff8311156114155761141561138b565b611428601f8401601f19166020016113ca565b905082815283838301111561143c57600080fd5b828260208301376000602084830101529392505050565b600082601f83011261146457600080fd5b61124b838335602085016113fb565b6000806000806080858703121561148957600080fd5b61149285611374565b93506114a060208601611374565b925060408501359150606085013567ffffffffffffffff8111156114c357600080fd5b6114cf87828801611453565b91505092959194509250565b6000602082840312156114ed57600080fd5b5035919050565b634e487b7160e01b600052602160045260246000fd5b602081016004831061151e5761151e6114f4565b91905290565b6000806040838503121561153757600080fd5b8235915061154760208401611374565b90509250929050565b60006020828403121561156257600080fd5b61124b82611374565b600082601f83011261157c57600080fd5b6115846113a1565b80606084018581111561159657600080fd5b845b818110156115b7576115a981611374565b845260209384019301611598565b509095945050505050565b600080600060e084860312156115d757600080fd5b833567ffffffffffffffff8111156115ee57600080fd5b8401601f810186136115ff57600080fd5b602061160f8783358385016113fb565b945086603f87011261162057600080fd5b6116286113a1565b915081608087018881111561163c57600080fd5b8288015b818110156116575780358552938301938301611640565b50819550611665898261156b565b9450505050509250925092565b602081016002831061151e5761151e6114f4565b600082601f83011261169757600080fd5b8135602067ffffffffffffffff8211156116b3576116b361138b565b8160051b6116c28282016113ca565b92835284810182019282810190878511156116dc57600080fd5b83870192505b848310156116fb578235825291830191908301906116e2565b979650505050505050565b600080600080600060a0868803121561171e57600080fd5b61172786611374565b945061173560208701611374565b9350604086013567ffffffffffffffff8082111561175257600080fd5b61175e89838a01611686565b9450606088013591508082111561177457600080fd5b61178089838a01611686565b9350608088013591508082111561179657600080fd5b506117a388828901611453565b9150509295509295909350565b600080600080600060a086880312156117c857600080fd5b6117d186611374565b94506117df60208701611374565b93506040860135925060608601359150608086013567ffffffffffffffff81111561180957600080fd5b6117a388828901611453565b600181811c9082168061182957607f821691505b6020821081141561184a57634e487b7160e01b600052602260045260246000fd5b50919050565b634e487b7160e01b600052603260045260246000fd5b6020808252602e908201527f496e697469616c697a61626c653a20636f6e747261637420697320616c72656160408201526d191e481a5b9a5d1a585b1a5e995960921b606082015260800190565b7f416363657373436f6e74726f6c3a206163636f756e74200000000000000000008152600083516118ec816017850160208801611315565b7001034b99036b4b9b9b4b733903937b6329607d1b601791840191820152835161191d816028840160208801611315565b01602801949350505050565b634e487b7160e01b600052601160045260246000fd5b600081600019048311821515161561195957611959611929565b500290565b6000821982111561197157611971611929565b500190565b60008161198557611985611929565b50600019019056fe7613a25ecc738585a232ad50a301178f12b3ba8887d13e138b523c4269c47689a2646970667358221220cdc768b8097d59911042fe10f7c68660f584181bcecce5b055e2a8e20a5a4b2264736f6c63430008090033a26469706673582212206512a31bb540c2eb08d49f8a84cf8dd58c92f0703a0e23aca1ab46cd8a48bafc64736f6c63430008090033",
	"linkReferences": {},
	"deployedLinkReferences": {},
	"devdoc": {
		"kind": "dev",
		"methods": {
			"getRoleAdmin(bytes32)": {
				"details": "Returns the admin role that controls `role`. See {grantRole} and {revokeRole}. To change a role's admin, use {_setRoleAdmin}."
			},
			"grantRole(bytes32,address)": {
				"details": "Grants `role` to `account`. If `account` had not been already granted `role`, emits a {RoleGranted} event. Requirements: - the caller must have ``role``'s admin role."
			},
			"hasRole(bytes32,address)": {
				"details": "Returns `true` if `account` has been granted `role`."
			},
			"renounceRole(bytes32,address)": {
				"details": "Revokes `role` from the calling account. Roles are often managed via {grantRole} and {revokeRole}: this function's purpose is to provide a mechanism for accounts to lose their privileges if they are compromised (such as when a trusted device is misplaced). If the calling account had been revoked `role`, emits a {RoleRevoked} event. Requirements: - the caller must be `account`."
			},
			"revokeRole(bytes32,address)": {
				"details": "Revokes `role` from `account`. If `account` had been granted `role`, emits a {RoleRevoked} event. Requirements: - the caller must have ``role``'s admin role."
			},
			"supportsInterface(bytes4)": {
				"details": "See {IERC165-supportsInterface}."
			}
		},
		"version": 1
	},
	"evm": {
		"bytecode": {
			"linkReferences": {},
			"opcodes": "PUSH1 0x80 PUSH1 0x40 MSTORE PUSH32 0xA49807205CE4D355092EF5A8A18F56E8913CF4A201FBE287825B095693C21775 PUSH1 0x1 SSTORE PUSH32 0x9F44B334A89ED2764AB332A7FAA64BEC31E526154EB4D5A7659C666048FD4914 PUSH1 0x2 SSTORE CALLVALUE DUP1 ISZERO PUSH3 0x59 JUMPI PUSH1 0x0 DUP1 REVERT JUMPDEST POP PUSH1 0x40 MLOAD PUSH3 0x2C06 CODESIZE SUB DUP1 PUSH3 0x2C06 DUP4 CODECOPY DUP2 ADD PUSH1 0x40 DUP2 SWAP1 MSTORE PUSH3 0x7C SWAP2 PUSH3 0x23D JUMP JUMPDEST PUSH1 0x4 DUP1 SLOAD PUSH1 0x1 PUSH1 0x1 PUSH1 0xA0 SHL SUB DUP1 DUP8 AND PUSH1 0x1 PUSH1 0x1 PUSH1 0xA0 SHL SUB NOT SWAP3 DUP4 AND OR SWAP1 SWAP3 SSTORE PUSH1 0x3 DUP1 SLOAD SWAP3 DUP7 AND SWAP3 SWAP1 SWAP2 AND SWAP2 SWAP1 SWAP2 OR SWAP1 SSTORE PUSH1 0x1 SLOAD PUSH3 0xC2 SWAP1 PUSH3 0xBC CALLER SWAP1 JUMP JUMPDEST PUSH3 0x125 JUMP JUMPDEST PUSH1 0x2 SLOAD PUSH3 0xD1 SWAP1 CALLER PUSH3 0x125 JUMP JUMPDEST PUSH1 0x1 SLOAD PUSH3 0xE0 SWAP1 DUP1 PUSH3 0x135 JUMP JUMPDEST PUSH3 0xF6 PUSH1 0x2 SLOAD PUSH1 0x1 SLOAD PUSH3 0x135 PUSH1 0x20 SHL PUSH1 0x20 SHR JUMP JUMPDEST PUSH1 0x5 DUP1 SLOAD PUSH1 0x1 PUSH1 0x1 PUSH1 0xA0 SHL SUB NOT AND PUSH1 0x1 PUSH1 0x1 PUSH1 0xA0 SHL SUB SWAP7 SWAP1 SWAP7 AND SWAP6 SWAP1 SWAP6 OR SWAP1 SWAP5 SSTORE PUSH1 0x6 SSTORE POP POP PUSH1 0x7 SSTORE PUSH3 0x29A JUMP JUMPDEST PUSH3 0x131 DUP3 DUP3 PUSH3 0x180 JUMP JUMPDEST POP POP JUMP JUMPDEST PUSH1 0x0 DUP3 DUP2 MSTORE PUSH1 0x20 DUP2 SWAP1 MSTORE PUSH1 0x40 DUP1 DUP3 KECCAK256 PUSH1 0x1 ADD DUP1 SLOAD SWAP1 DUP5 SWAP1 SSTORE SWAP1 MLOAD SWAP1 SWAP2 DUP4 SWAP2 DUP4 SWAP2 DUP7 SWAP2 PUSH32 0xBD79B86FFE0AB8E8776151514217CD7CACD52C909F66475C3AF44E129F0B00FF SWAP2 SWAP1 LOG4 POP POP POP JUMP JUMPDEST PUSH1 0x0 DUP3 DUP2 MSTORE PUSH1 0x20 DUP2 DUP2 MSTORE PUSH1 0x40 DUP1 DUP4 KECCAK256 PUSH1 0x1 PUSH1 0x1 PUSH1 0xA0 SHL SUB DUP6 AND DUP5 MSTORE SWAP1 SWAP2 MSTORE SWAP1 KECCAK256 SLOAD PUSH1 0xFF AND PUSH3 0x131 JUMPI PUSH1 0x0 DUP3 DUP2 MSTORE PUSH1 0x20 DUP2 DUP2 MSTORE PUSH1 0x40 DUP1 DUP4 KECCAK256 PUSH1 0x1 PUSH1 0x1 PUSH1 0xA0 SHL SUB DUP6 AND DUP5 MSTORE SWAP1 SWAP2 MSTORE SWAP1 KECCAK256 DUP1 SLOAD PUSH1 0xFF NOT AND PUSH1 0x1 OR SWAP1 SSTORE PUSH3 0x1DC CALLER SWAP1 JUMP JUMPDEST PUSH1 0x1 PUSH1 0x1 PUSH1 0xA0 SHL SUB AND DUP2 PUSH1 0x1 PUSH1 0x1 PUSH1 0xA0 SHL SUB AND DUP4 PUSH32 0x2F8788117E7EFF1D82E926EC794901D17C78024A50270940304540A733656F0D PUSH1 0x40 MLOAD PUSH1 0x40 MLOAD DUP1 SWAP2 SUB SWAP1 LOG4 POP POP JUMP JUMPDEST DUP1 MLOAD PUSH1 0x1 PUSH1 0x1 PUSH1 0xA0 SHL SUB DUP2 AND DUP2 EQ PUSH3 0x238 JUMPI PUSH1 0x0 DUP1 REVERT JUMPDEST SWAP2 SWAP1 POP JUMP JUMPDEST PUSH1 0x0 DUP1 PUSH1 0x0 DUP1 PUSH1 0x0 PUSH1 0xA0 DUP7 DUP9 SUB SLT ISZERO PUSH3 0x256 JUMPI PUSH1 0x0 DUP1 REVERT JUMPDEST PUSH3 0x261 DUP7 PUSH3 0x220 JUMP JUMPDEST SWAP5 POP PUSH3 0x271 PUSH1 0x20 DUP8 ADD PUSH3 0x220 JUMP JUMPDEST SWAP4 POP PUSH3 0x281 PUSH1 0x40 DUP8 ADD PUSH3 0x220 JUMP JUMPDEST PUSH1 0x60 DUP8 ADD MLOAD PUSH1 0x80 SWAP1 SWAP8 ADD MLOAD SWAP6 SWAP9 SWAP5 SWAP8 POP SWAP6 SWAP5 SWAP4 SWAP3 POP POP POP JUMP JUMPDEST PUSH2 0x295C DUP1 PUSH3 0x2AA PUSH1 0x0 CODECOPY PUSH1 0x0 RETURN INVALID PUSH1 0x80 PUSH1 0x40 MSTORE CALLVALUE DUP1 ISZERO PUSH2 0x10 JUMPI PUSH1 0x0 DUP1 REVERT JUMPDEST POP PUSH1 0x4 CALLDATASIZE LT PUSH2 0x121 JUMPI PUSH1 0x0 CALLDATALOAD PUSH1 0xE0 SHR DUP1 PUSH4 0x75B238FC GT PUSH2 0xAD JUMPI DUP1 PUSH4 0xB6C3EF27 GT PUSH2 0x71 JUMPI DUP1 PUSH4 0xB6C3EF27 EQ PUSH2 0x254 JUMPI DUP1 PUSH4 0xCE791CE3 EQ PUSH2 0x267 JUMPI DUP1 PUSH4 0xD547741F EQ PUSH2 0x27A JUMPI DUP1 PUSH4 0xEC5EB5DA EQ PUSH2 0x28D JUMPI DUP1 PUSH4 0xF8BE73DD EQ PUSH2 0x296 JUMPI PUSH1 0x0 DUP1 REVERT JUMPDEST DUP1 PUSH4 0x75B238FC EQ PUSH2 0x214 JUMPI DUP1 PUSH4 0x76C71CA1 EQ PUSH2 0x21D JUMPI DUP1 PUSH4 0x91D14854 EQ PUSH2 0x226 JUMPI DUP1 PUSH4 0x95F148F7 EQ PUSH2 0x239 JUMPI DUP1 PUSH4 0xA217FDDF EQ PUSH2 0x24C JUMPI PUSH1 0x0 DUP1 REVERT JUMPDEST DUP1 PUSH4 0x29575F6A GT PUSH2 0xF4 JUMPI DUP1 PUSH4 0x29575F6A EQ PUSH2 0x1A7 JUMPI DUP1 PUSH4 0x2E4DB810 EQ PUSH2 0x1D2 JUMPI DUP1 PUSH4 0x2F2FF15D EQ PUSH2 0x1DB JUMPI DUP1 PUSH4 0x36568ABE EQ PUSH2 0x1EE JUMPI DUP1 PUSH4 0x4070A0C9 EQ PUSH2 0x201 JUMPI PUSH1 0x0 DUP1 REVERT JUMPDEST DUP1 PUSH4 0x1FFC9A7 EQ PUSH2 0x126 JUMPI DUP1 PUSH4 0x3745A0E EQ PUSH2 0x14E JUMPI DUP1 PUSH4 0x13877CEA EQ PUSH2 0x163 JUMPI DUP1 PUSH4 0x248A9CA3 EQ PUSH2 0x176 JUMPI JUMPDEST PUSH1 0x0 DUP1 REVERT JUMPDEST PUSH2 0x139 PUSH2 0x134 CALLDATASIZE PUSH1 0x4 PUSH2 0xABE JUMP JUMPDEST PUSH2 0x2A9 JUMP JUMPDEST PUSH1 0x40 MLOAD SWAP1 ISZERO ISZERO DUP2 MSTORE PUSH1 0x20 ADD JUMPDEST PUSH1 0x40 MLOAD DUP1 SWAP2 SUB SWAP1 RETURN JUMPDEST PUSH2 0x161 PUSH2 0x15C CALLDATASIZE PUSH1 0x4 PUSH2 0xB04 JUMP JUMPDEST PUSH2 0x2E0 JUMP JUMPDEST STOP JUMPDEST PUSH2 0x161 PUSH2 0x171 CALLDATASIZE PUSH1 0x4 PUSH2 0xB1F JUMP JUMPDEST PUSH2 0x41C JUMP JUMPDEST PUSH2 0x199 PUSH2 0x184 CALLDATASIZE PUSH1 0x4 PUSH2 0xB1F JUMP JUMPDEST PUSH1 0x0 SWAP1 DUP2 MSTORE PUSH1 0x20 DUP2 SWAP1 MSTORE PUSH1 0x40 SWAP1 KECCAK256 PUSH1 0x1 ADD SLOAD SWAP1 JUMP JUMPDEST PUSH1 0x40 MLOAD SWAP1 DUP2 MSTORE PUSH1 0x20 ADD PUSH2 0x145 JUMP JUMPDEST PUSH1 0x3 SLOAD PUSH2 0x1BA SWAP1 PUSH1 0x1 PUSH1 0x1 PUSH1 0xA0 SHL SUB AND DUP2 JUMP JUMPDEST PUSH1 0x40 MLOAD PUSH1 0x1 PUSH1 0x1 PUSH1 0xA0 SHL SUB SWAP1 SWAP2 AND DUP2 MSTORE PUSH1 0x20 ADD PUSH2 0x145 JUMP JUMPDEST PUSH2 0x199 PUSH1 0x6 SLOAD DUP2 JUMP JUMPDEST PUSH2 0x161 PUSH2 0x1E9 CALLDATASIZE PUSH1 0x4 PUSH2 0xB38 JUMP JUMPDEST PUSH2 0x466 JUMP JUMPDEST PUSH2 0x161 PUSH2 0x1FC CALLDATASIZE PUSH1 0x4 PUSH2 0xB38 JUMP JUMPDEST PUSH2 0x490 JUMP JUMPDEST PUSH2 0x161 PUSH2 0x20F CALLDATASIZE PUSH1 0x4 PUSH2 0xB1F JUMP JUMPDEST PUSH2 0x50F JUMP JUMPDEST PUSH2 0x199 PUSH1 0x1 SLOAD DUP2 JUMP JUMPDEST PUSH2 0x199 PUSH1 0x7 SLOAD DUP2 JUMP JUMPDEST PUSH2 0x139 PUSH2 0x234 CALLDATASIZE PUSH1 0x4 PUSH2 0xB38 JUMP JUMPDEST PUSH2 0x559 JUMP JUMPDEST PUSH1 0x4 SLOAD PUSH2 0x1BA SWAP1 PUSH1 0x1 PUSH1 0x1 PUSH1 0xA0 SHL SUB AND DUP2 JUMP JUMPDEST PUSH2 0x199 PUSH1 0x0 DUP2 JUMP JUMPDEST PUSH2 0x161 PUSH2 0x262 CALLDATASIZE PUSH1 0x4 PUSH2 0xB04 JUMP JUMPDEST PUSH2 0x582 JUMP JUMPDEST PUSH2 0x1BA PUSH2 0x275 CALLDATASIZE PUSH1 0x4 PUSH2 0xB7A JUMP JUMPDEST PUSH2 0x5E6 JUMP JUMPDEST PUSH2 0x161 PUSH2 0x288 CALLDATASIZE PUSH1 0x4 PUSH2 0xB38 JUMP JUMPDEST PUSH2 0x78F JUMP JUMPDEST PUSH2 0x199 PUSH1 0x2 SLOAD DUP2 JUMP JUMPDEST PUSH1 0x5 SLOAD PUSH2 0x1BA SWAP1 PUSH1 0x1 PUSH1 0x1 PUSH1 0xA0 SHL SUB AND DUP2 JUMP JUMPDEST PUSH1 0x0 PUSH1 0x1 PUSH1 0x1 PUSH1 0xE0 SHL SUB NOT DUP3 AND PUSH4 0x7965DB0B PUSH1 0xE0 SHL EQ DUP1 PUSH2 0x2DA JUMPI POP PUSH4 0x1FFC9A7 PUSH1 0xE0 SHL PUSH1 0x1 PUSH1 0x1 PUSH1 0xE0 SHL SUB NOT DUP4 AND EQ JUMPDEST SWAP3 SWAP2 POP POP JUMP JUMPDEST PUSH1 0x1 SLOAD PUSH2 0x2EC DUP2 PUSH2 0x7B4 JUMP JUMPDEST PUSH1 0x4 SLOAD PUSH1 0x1 PUSH1 0x1 PUSH1 0xA0 SHL SUB DUP4 DUP2 AND SWAP2 AND EQ ISZERO PUSH2 0x31B JUMPI PUSH1 0x40 MLOAD PUSH4 0xBA501C4D PUSH1 0xE0 SHL DUP2 MSTORE PUSH1 0x4 ADD PUSH1 0x40 MLOAD DUP1 SWAP2 SUB SWAP1 REVERT JUMPDEST PUSH1 0x40 MLOAD PUSH4 0x1FFC9A7 PUSH1 0xE0 SHL DUP2 MSTORE PUSH4 0x92209DBF PUSH1 0xE0 SHL PUSH1 0x4 DUP3 ADD MSTORE PUSH1 0x1 PUSH1 0x1 PUSH1 0xA0 SHL SUB DUP4 AND SWAP1 PUSH4 0x1FFC9A7 SWAP1 PUSH1 0x24 ADD PUSH1 0x20 PUSH1 0x40 MLOAD DUP1 DUP4 SUB DUP2 DUP7 DUP1 EXTCODESIZE ISZERO DUP1 ISZERO PUSH2 0x361 JUMPI PUSH1 0x0 DUP1 REVERT JUMPDEST POP GAS STATICCALL ISZERO DUP1 ISZERO PUSH2 0x375 JUMPI RETURNDATASIZE PUSH1 0x0 DUP1 RETURNDATACOPY RETURNDATASIZE PUSH1 0x0 REVERT JUMPDEST POP POP POP POP PUSH1 0x40 MLOAD RETURNDATASIZE PUSH1 0x1F NOT PUSH1 0x1F DUP3 ADD AND DUP3 ADD DUP1 PUSH1 0x40 MSTORE POP DUP2 ADD SWAP1 PUSH2 0x399 SWAP2 SWAP1 PUSH2 0xC2F JUMP JUMPDEST ISZERO PUSH2 0x3FF JUMPI PUSH1 0x4 DUP1 SLOAD PUSH1 0x1 PUSH1 0x1 PUSH1 0xA0 SHL SUB DUP5 DUP2 AND PUSH1 0x1 PUSH1 0x1 PUSH1 0xA0 SHL SUB NOT DUP4 AND DUP2 OR SWAP1 SWAP4 SSTORE PUSH1 0x40 DUP1 MLOAD SWAP4 DUP5 MSTORE SWAP2 AND PUSH1 0x20 DUP4 ADD DUP2 SWAP1 MSTORE SWAP2 PUSH32 0xEF71174D9CB18ECB75827201470103B3CA2E98BFFC6A123C181A4294AACD665B SWAP2 ADD JUMPDEST PUSH1 0x40 MLOAD DUP1 SWAP2 SUB SWAP1 LOG1 POP POP POP JUMP JUMPDEST PUSH1 0x40 MLOAD PUSH4 0x1DC9BBA7 PUSH1 0xE3 SHL DUP2 MSTORE PUSH1 0x4 ADD PUSH1 0x40 MLOAD DUP1 SWAP2 SUB SWAP1 REVERT JUMPDEST POP POP JUMP JUMPDEST PUSH1 0x1 SLOAD PUSH2 0x428 DUP2 PUSH2 0x7B4 JUMP JUMPDEST PUSH1 0x6 DUP1 SLOAD SWAP1 DUP4 SWAP1 SSTORE PUSH1 0x40 DUP1 MLOAD DUP5 DUP2 MSTORE PUSH1 0x20 DUP2 ADD DUP4 SWAP1 MSTORE PUSH32 0xA5BDEA0442F92D4F8CFCB2EF097CBEF895DEE459E114D0A2D1DFC94E7B9637CE SWAP2 ADD PUSH2 0x3F2 JUMP JUMPDEST PUSH1 0x0 DUP3 DUP2 MSTORE PUSH1 0x20 DUP2 SWAP1 MSTORE PUSH1 0x40 SWAP1 KECCAK256 PUSH1 0x1 ADD SLOAD PUSH2 0x481 DUP2 PUSH2 0x7B4 JUMP JUMPDEST PUSH2 0x48B DUP4 DUP4 PUSH2 0x7C1 JUMP JUMPDEST POP POP POP JUMP JUMPDEST PUSH1 0x1 PUSH1 0x1 PUSH1 0xA0 SHL SUB DUP2 AND CALLER EQ PUSH2 0x505 JUMPI PUSH1 0x40 MLOAD PUSH3 0x461BCD PUSH1 0xE5 SHL DUP2 MSTORE PUSH1 0x20 PUSH1 0x4 DUP3 ADD MSTORE PUSH1 0x2F PUSH1 0x24 DUP3 ADD MSTORE PUSH32 0x416363657373436F6E74726F6C3A2063616E206F6E6C792072656E6F756E6365 PUSH1 0x44 DUP3 ADD MSTORE PUSH15 0x103937B632B9903337B91039B2B633 PUSH1 0x89 SHL PUSH1 0x64 DUP3 ADD MSTORE PUSH1 0x84 ADD JUMPDEST PUSH1 0x40 MLOAD DUP1 SWAP2 SUB SWAP1 REVERT JUMPDEST PUSH2 0x418 DUP3 DUP3 PUSH2 0x845 JUMP JUMPDEST PUSH1 0x1 SLOAD PUSH2 0x51B DUP2 PUSH2 0x7B4 JUMP JUMPDEST PUSH1 0x7 DUP1 SLOAD SWAP1 DUP4 SWAP1 SSTORE PUSH1 0x40 DUP1 MLOAD DUP5 DUP2 MSTORE PUSH1 0x20 DUP2 ADD DUP4 SWAP1 MSTORE PUSH32 0xDE0F3E82F0D197E64E2B50A8428517693190E0C2B6BEAA3511C60E0FF031DDA3 SWAP2 ADD PUSH2 0x3F2 JUMP JUMPDEST PUSH1 0x0 SWAP2 DUP3 MSTORE PUSH1 0x20 DUP3 DUP2 MSTORE PUSH1 0x40 DUP1 DUP5 KECCAK256 PUSH1 0x1 PUSH1 0x1 PUSH1 0xA0 SHL SUB SWAP4 SWAP1 SWAP4 AND DUP5 MSTORE SWAP2 SWAP1 MSTORE SWAP1 KECCAK256 SLOAD PUSH1 0xFF AND SWAP1 JUMP JUMPDEST PUSH1 0x1 SLOAD PUSH2 0x58E DUP2 PUSH2 0x7B4 JUMP JUMPDEST PUSH1 0x3 DUP1 SLOAD PUSH1 0x1 PUSH1 0x1 PUSH1 0xA0 SHL SUB DUP5 DUP2 AND PUSH1 0x1 PUSH1 0x1 PUSH1 0xA0 SHL SUB NOT DUP4 AND DUP2 OR SWAP1 SWAP4 SSTORE PUSH1 0x40 DUP1 MLOAD SWAP4 DUP5 MSTORE SWAP2 AND PUSH1 0x20 DUP4 ADD DUP2 SWAP1 MSTORE SWAP2 PUSH32 0x4BF62747831E52566C95DB9DC765944D67440AA79E4BE5784042E4BFF7E955F6 SWAP2 ADD PUSH2 0x3F2 JUMP JUMPDEST PUSH1 0x0 PUSH1 0x2 SLOAD PUSH2 0x5F4 DUP2 PUSH2 0x7B4 JUMP JUMPDEST PUSH1 0x0 PUSH1 0x40 MLOAD PUSH2 0x602 SWAP1 PUSH2 0xAB1 JUMP JUMPDEST PUSH1 0x40 MLOAD DUP1 SWAP2 SUB SWAP1 PUSH1 0x0 CREATE DUP1 ISZERO DUP1 ISZERO PUSH2 0x61E JUMPI RETURNDATASIZE PUSH1 0x0 DUP1 RETURNDATACOPY RETURNDATASIZE PUSH1 0x0 REVERT JUMPDEST POP PUSH1 0x4 DUP1 SLOAD PUSH1 0x40 MLOAD PUSH4 0x1B2CE7F3 PUSH1 0xE1 SHL DUP2 MSTORE PUSH1 0x1 PUSH1 0x1 PUSH1 0xA0 SHL SUB SWAP2 DUP3 AND SWAP3 DUP2 ADD SWAP3 SWAP1 SWAP3 MSTORE SWAP2 SWAP3 POP DUP3 SWAP2 DUP3 AND SWAP1 PUSH4 0x3659CFE6 SWAP1 PUSH1 0x24 ADD PUSH1 0x0 PUSH1 0x40 MLOAD DUP1 DUP4 SUB DUP2 PUSH1 0x0 DUP8 DUP1 EXTCODESIZE ISZERO DUP1 ISZERO PUSH2 0x66D JUMPI PUSH1 0x0 DUP1 REVERT JUMPDEST POP GAS CALL ISZERO DUP1 ISZERO PUSH2 0x681 JUMPI RETURNDATASIZE PUSH1 0x0 DUP1 RETURNDATACOPY RETURNDATASIZE PUSH1 0x0 REVERT JUMPDEST POP POP PUSH1 0x40 DUP1 MLOAD PUSH1 0x60 DUP1 DUP3 ADD DUP4 MSTORE PUSH1 0x5 SLOAD PUSH1 0x1 PUSH1 0x1 PUSH1 0xA0 SHL SUB SWAP1 DUP2 AND DUP4 MSTORE PUSH1 0x3 SLOAD DUP2 AND PUSH1 0x20 DUP1 DUP6 ADD SWAP2 SWAP1 SWAP2 MSTORE CALLER DUP5 DUP7 ADD MSTORE DUP5 MLOAD SWAP3 DUP4 ADD DUP6 MSTORE PUSH1 0x7 SLOAD DUP4 MSTORE DUP3 ADD DUP12 SWAP1 MSTORE PUSH1 0x6 SLOAD DUP3 DUP6 ADD MSTORE SWAP3 MLOAD PUSH4 0xEB65D8F PUSH1 0xE2 SHL DUP2 MSTORE SWAP2 SWAP5 POP SWAP3 POP SWAP1 DUP6 AND SWAP1 PUSH4 0x3AD9763C SWAP1 PUSH2 0x6F6 SWAP1 DUP12 SWAP1 DUP6 SWAP1 DUP8 SWAP1 PUSH1 0x4 ADD PUSH2 0xCAD JUMP JUMPDEST PUSH1 0x0 PUSH1 0x40 MLOAD DUP1 DUP4 SUB DUP2 PUSH1 0x0 DUP8 DUP1 EXTCODESIZE ISZERO DUP1 ISZERO PUSH2 0x710 JUMPI PUSH1 0x0 DUP1 REVERT JUMPDEST POP GAS CALL ISZERO DUP1 ISZERO PUSH2 0x724 JUMPI RETURNDATASIZE PUSH1 0x0 DUP1 RETURNDATACOPY RETURNDATASIZE PUSH1 0x0 REVERT JUMPDEST POP POP POP POP DUP8 PUSH1 0x40 MLOAD PUSH2 0x736 SWAP2 SWAP1 PUSH2 0xD25 JUMP JUMPDEST PUSH1 0x40 DUP1 MLOAD SWAP2 DUP3 SWAP1 SUB DUP3 KECCAK256 PUSH1 0x6 SLOAD DUP4 MSTORE PUSH1 0x20 DUP4 ADD DUP11 SWAP1 MSTORE SWAP2 PUSH1 0x1 PUSH1 0x1 PUSH1 0xA0 SHL SUB DUP7 AND SWAP2 PUSH32 0x37CD716B957E7C7BCFB2F5AE26D6D900ABEF16103B3D6E068C3D9B73C5C277AE SWAP2 ADD PUSH1 0x40 MLOAD DUP1 SWAP2 SUB SWAP1 LOG3 POP SWAP1 SWAP7 SWAP6 POP POP POP POP POP POP JUMP JUMPDEST PUSH1 0x0 DUP3 DUP2 MSTORE PUSH1 0x20 DUP2 SWAP1 MSTORE PUSH1 0x40 SWAP1 KECCAK256 PUSH1 0x1 ADD SLOAD PUSH2 0x7AA DUP2 PUSH2 0x7B4 JUMP JUMPDEST PUSH2 0x48B DUP4 DUP4 PUSH2 0x845 JUMP JUMPDEST PUSH2 0x7BE DUP2 CALLER PUSH2 0x8AA JUMP JUMPDEST POP JUMP JUMPDEST PUSH2 0x7CB DUP3 DUP3 PUSH2 0x559 JUMP JUMPDEST PUSH2 0x418 JUMPI PUSH1 0x0 DUP3 DUP2 MSTORE PUSH1 0x20 DUP2 DUP2 MSTORE PUSH1 0x40 DUP1 DUP4 KECCAK256 PUSH1 0x1 PUSH1 0x1 PUSH1 0xA0 SHL SUB DUP6 AND DUP5 MSTORE SWAP1 SWAP2 MSTORE SWAP1 KECCAK256 DUP1 SLOAD PUSH1 0xFF NOT AND PUSH1 0x1 OR SWAP1 SSTORE PUSH2 0x801 CALLER SWAP1 JUMP JUMPDEST PUSH1 0x1 PUSH1 0x1 PUSH1 0xA0 SHL SUB AND DUP2 PUSH1 0x1 PUSH1 0x1 PUSH1 0xA0 SHL SUB AND DUP4 PUSH32 0x2F8788117E7EFF1D82E926EC794901D17C78024A50270940304540A733656F0D PUSH1 0x40 MLOAD PUSH1 0x40 MLOAD DUP1 SWAP2 SUB SWAP1 LOG4 POP POP JUMP JUMPDEST PUSH2 0x84F DUP3 DUP3 PUSH2 0x559 JUMP JUMPDEST ISZERO PUSH2 0x418 JUMPI PUSH1 0x0 DUP3 DUP2 MSTORE PUSH1 0x20 DUP2 DUP2 MSTORE PUSH1 0x40 DUP1 DUP4 KECCAK256 PUSH1 0x1 PUSH1 0x1 PUSH1 0xA0 SHL SUB DUP6 AND DUP1 DUP6 MSTORE SWAP3 MSTORE DUP1 DUP4 KECCAK256 DUP1 SLOAD PUSH1 0xFF NOT AND SWAP1 SSTORE MLOAD CALLER SWAP3 DUP6 SWAP2 PUSH32 0xF6391F5C32D9C69D2A47EA670B442974B53935D1EDC7FD64EB21E047A839171B SWAP2 SWAP1 LOG4 POP POP JUMP JUMPDEST PUSH2 0x8B4 DUP3 DUP3 PUSH2 0x559 JUMP JUMPDEST PUSH2 0x418 JUMPI PUSH2 0x8CC DUP2 PUSH1 0x1 PUSH1 0x1 PUSH1 0xA0 SHL SUB AND PUSH1 0x14 PUSH2 0x90E JUMP JUMPDEST PUSH2 0x8D7 DUP4 PUSH1 0x20 PUSH2 0x90E JUMP JUMPDEST PUSH1 0x40 MLOAD PUSH1 0x20 ADD PUSH2 0x8E8 SWAP3 SWAP2 SWAP1 PUSH2 0xD41 JUMP JUMPDEST PUSH1 0x40 DUP1 MLOAD PUSH1 0x1F NOT DUP2 DUP5 SUB ADD DUP2 MSTORE SWAP1 DUP3 SWAP1 MSTORE PUSH3 0x461BCD PUSH1 0xE5 SHL DUP3 MSTORE PUSH2 0x4FC SWAP2 PUSH1 0x4 ADD PUSH2 0xDB6 JUMP JUMPDEST PUSH1 0x60 PUSH1 0x0 PUSH2 0x91D DUP4 PUSH1 0x2 PUSH2 0xDDF JUMP JUMPDEST PUSH2 0x928 SWAP1 PUSH1 0x2 PUSH2 0xDFE JUMP JUMPDEST PUSH8 0xFFFFFFFFFFFFFFFF DUP2 GT ISZERO PUSH2 0x940 JUMPI PUSH2 0x940 PUSH2 0xB64 JUMP JUMPDEST PUSH1 0x40 MLOAD SWAP1 DUP1 DUP3 MSTORE DUP1 PUSH1 0x1F ADD PUSH1 0x1F NOT AND PUSH1 0x20 ADD DUP3 ADD PUSH1 0x40 MSTORE DUP1 ISZERO PUSH2 0x96A JUMPI PUSH1 0x20 DUP3 ADD DUP2 DUP1 CALLDATASIZE DUP4 CALLDATACOPY ADD SWAP1 POP JUMPDEST POP SWAP1 POP PUSH1 0x3 PUSH1 0xFC SHL DUP2 PUSH1 0x0 DUP2 MLOAD DUP2 LT PUSH2 0x985 JUMPI PUSH2 0x985 PUSH2 0xE16 JUMP JUMPDEST PUSH1 0x20 ADD ADD SWAP1 PUSH1 0x1 PUSH1 0x1 PUSH1 0xF8 SHL SUB NOT AND SWAP1 DUP2 PUSH1 0x0 BYTE SWAP1 MSTORE8 POP PUSH1 0xF PUSH1 0xFB SHL DUP2 PUSH1 0x1 DUP2 MLOAD DUP2 LT PUSH2 0x9B4 JUMPI PUSH2 0x9B4 PUSH2 0xE16 JUMP JUMPDEST PUSH1 0x20 ADD ADD SWAP1 PUSH1 0x1 PUSH1 0x1 PUSH1 0xF8 SHL SUB NOT AND SWAP1 DUP2 PUSH1 0x0 BYTE SWAP1 MSTORE8 POP PUSH1 0x0 PUSH2 0x9D8 DUP5 PUSH1 0x2 PUSH2 0xDDF JUMP JUMPDEST PUSH2 0x9E3 SWAP1 PUSH1 0x1 PUSH2 0xDFE JUMP JUMPDEST SWAP1 POP JUMPDEST PUSH1 0x1 DUP2 GT ISZERO PUSH2 0xA5B JUMPI PUSH16 0x181899199A1A9B1B9C1CB0B131B232B3 PUSH1 0x81 SHL DUP6 PUSH1 0xF AND PUSH1 0x10 DUP2 LT PUSH2 0xA17 JUMPI PUSH2 0xA17 PUSH2 0xE16 JUMP JUMPDEST BYTE PUSH1 0xF8 SHL DUP3 DUP3 DUP2 MLOAD DUP2 LT PUSH2 0xA2D JUMPI PUSH2 0xA2D PUSH2 0xE16 JUMP JUMPDEST PUSH1 0x20 ADD ADD SWAP1 PUSH1 0x1 PUSH1 0x1 PUSH1 0xF8 SHL SUB NOT AND SWAP1 DUP2 PUSH1 0x0 BYTE SWAP1 MSTORE8 POP PUSH1 0x4 SWAP5 SWAP1 SWAP5 SHR SWAP4 PUSH2 0xA54 DUP2 PUSH2 0xE2C JUMP JUMPDEST SWAP1 POP PUSH2 0x9E6 JUMP JUMPDEST POP DUP4 ISZERO PUSH2 0xAAA JUMPI PUSH1 0x40 MLOAD PUSH3 0x461BCD PUSH1 0xE5 SHL DUP2 MSTORE PUSH1 0x20 PUSH1 0x4 DUP3 ADD DUP2 SWAP1 MSTORE PUSH1 0x24 DUP3 ADD MSTORE PUSH32 0x537472696E67733A20686578206C656E67746820696E73756666696369656E74 PUSH1 0x44 DUP3 ADD MSTORE PUSH1 0x64 ADD PUSH2 0x4FC JUMP JUMPDEST SWAP4 SWAP3 POP POP POP JUMP JUMPDEST PUSH2 0x1AE3 DUP1 PUSH2 0xE44 DUP4 CODECOPY ADD SWAP1 JUMP JUMPDEST PUSH1 0x0 PUSH1 0x20 DUP3 DUP5 SUB SLT ISZERO PUSH2 0xAD0 JUMPI PUSH1 0x0 DUP1 REVERT JUMPDEST DUP2 CALLDATALOAD PUSH1 0x1 PUSH1 0x1 PUSH1 0xE0 SHL SUB NOT DUP2 AND DUP2 EQ PUSH2 0xAAA JUMPI PUSH1 0x0 DUP1 REVERT JUMPDEST DUP1 CALLDATALOAD PUSH1 0x1 PUSH1 0x1 PUSH1 0xA0 SHL SUB DUP2 AND DUP2 EQ PUSH2 0xAFF JUMPI PUSH1 0x0 DUP1 REVERT JUMPDEST SWAP2 SWAP1 POP JUMP JUMPDEST PUSH1 0x0 PUSH1 0x20 DUP3 DUP5 SUB SLT ISZERO PUSH2 0xB16 JUMPI PUSH1 0x0 DUP1 REVERT JUMPDEST PUSH2 0xAAA DUP3 PUSH2 0xAE8 JUMP JUMPDEST PUSH1 0x0 PUSH1 0x20 DUP3 DUP5 SUB SLT ISZERO PUSH2 0xB31 JUMPI PUSH1 0x0 DUP1 REVERT JUMPDEST POP CALLDATALOAD SWAP2 SWAP1 POP JUMP JUMPDEST PUSH1 0x0 DUP1 PUSH1 0x40 DUP4 DUP6 SUB SLT ISZERO PUSH2 0xB4B JUMPI PUSH1 0x0 DUP1 REVERT JUMPDEST DUP3 CALLDATALOAD SWAP2 POP PUSH2 0xB5B PUSH1 0x20 DUP5 ADD PUSH2 0xAE8 JUMP JUMPDEST SWAP1 POP SWAP3 POP SWAP3 SWAP1 POP JUMP JUMPDEST PUSH4 0x4E487B71 PUSH1 0xE0 SHL PUSH1 0x0 MSTORE PUSH1 0x41 PUSH1 0x4 MSTORE PUSH1 0x24 PUSH1 0x0 REVERT JUMPDEST PUSH1 0x0 DUP1 PUSH1 0x40 DUP4 DUP6 SUB SLT ISZERO PUSH2 0xB8D JUMPI PUSH1 0x0 DUP1 REVERT JUMPDEST DUP3 CALLDATALOAD PUSH8 0xFFFFFFFFFFFFFFFF DUP1 DUP3 GT ISZERO PUSH2 0xBA5 JUMPI PUSH1 0x0 DUP1 REVERT JUMPDEST DUP2 DUP6 ADD SWAP2 POP DUP6 PUSH1 0x1F DUP4 ADD SLT PUSH2 0xBB9 JUMPI PUSH1 0x0 DUP1 REVERT JUMPDEST DUP2 CALLDATALOAD DUP2 DUP2 GT ISZERO PUSH2 0xBCB JUMPI PUSH2 0xBCB PUSH2 0xB64 JUMP JUMPDEST PUSH1 0x40 MLOAD PUSH1 0x1F DUP3 ADD PUSH1 0x1F NOT SWAP1 DUP2 AND PUSH1 0x3F ADD AND DUP2 ADD SWAP1 DUP4 DUP3 GT DUP2 DUP4 LT OR ISZERO PUSH2 0xBF3 JUMPI PUSH2 0xBF3 PUSH2 0xB64 JUMP JUMPDEST DUP2 PUSH1 0x40 MSTORE DUP3 DUP2 MSTORE DUP9 PUSH1 0x20 DUP5 DUP8 ADD ADD GT ISZERO PUSH2 0xC0C JUMPI PUSH1 0x0 DUP1 REVERT JUMPDEST DUP3 PUSH1 0x20 DUP7 ADD PUSH1 0x20 DUP4 ADD CALLDATACOPY PUSH1 0x0 PUSH1 0x20 SWAP4 DUP3 ADD DUP5 ADD MSTORE SWAP9 SWAP7 SWAP1 SWAP2 ADD CALLDATALOAD SWAP7 POP POP POP POP POP POP JUMP JUMPDEST PUSH1 0x0 PUSH1 0x20 DUP3 DUP5 SUB SLT ISZERO PUSH2 0xC41 JUMPI PUSH1 0x0 DUP1 REVERT JUMPDEST DUP2 MLOAD DUP1 ISZERO ISZERO DUP2 EQ PUSH2 0xAAA JUMPI PUSH1 0x0 DUP1 REVERT JUMPDEST PUSH1 0x0 JUMPDEST DUP4 DUP2 LT ISZERO PUSH2 0xC6C JUMPI DUP2 DUP2 ADD MLOAD DUP4 DUP3 ADD MSTORE PUSH1 0x20 ADD PUSH2 0xC54 JUMP JUMPDEST DUP4 DUP2 GT ISZERO PUSH2 0xC7B JUMPI PUSH1 0x0 DUP5 DUP5 ADD MSTORE JUMPDEST POP POP POP POP JUMP JUMPDEST PUSH1 0x0 DUP2 MLOAD DUP1 DUP5 MSTORE PUSH2 0xC99 DUP2 PUSH1 0x20 DUP7 ADD PUSH1 0x20 DUP7 ADD PUSH2 0xC51 JUMP JUMPDEST PUSH1 0x1F ADD PUSH1 0x1F NOT AND SWAP3 SWAP1 SWAP3 ADD PUSH1 0x20 ADD SWAP3 SWAP2 POP POP JUMP JUMPDEST PUSH1 0xE0 DUP2 MSTORE PUSH1 0x0 PUSH2 0xCC0 PUSH1 0xE0 DUP4 ADD DUP7 PUSH2 0xC81 JUMP JUMPDEST SWAP1 POP PUSH1 0x20 DUP1 DUP4 ADD DUP6 PUSH1 0x0 JUMPDEST PUSH1 0x3 DUP2 LT ISZERO PUSH2 0xCE8 JUMPI DUP2 MLOAD DUP4 MSTORE SWAP2 DUP4 ADD SWAP2 SWAP1 DUP4 ADD SWAP1 PUSH1 0x1 ADD PUSH2 0xCCB JUMP JUMPDEST POP POP POP PUSH1 0x80 DUP4 ADD DUP5 PUSH1 0x0 JUMPDEST PUSH1 0x3 DUP2 LT ISZERO PUSH2 0xD19 JUMPI DUP2 MLOAD PUSH1 0x1 PUSH1 0x1 PUSH1 0xA0 SHL SUB AND DUP4 MSTORE SWAP2 DUP4 ADD SWAP2 SWAP1 DUP4 ADD SWAP1 PUSH1 0x1 ADD PUSH2 0xCF3 JUMP JUMPDEST POP POP POP POP SWAP5 SWAP4 POP POP POP POP JUMP JUMPDEST PUSH1 0x0 DUP3 MLOAD PUSH2 0xD37 DUP2 DUP5 PUSH1 0x20 DUP8 ADD PUSH2 0xC51 JUMP JUMPDEST SWAP2 SWAP1 SWAP2 ADD SWAP3 SWAP2 POP POP JUMP JUMPDEST PUSH32 0x416363657373436F6E74726F6C3A206163636F756E7420000000000000000000 DUP2 MSTORE PUSH1 0x0 DUP4 MLOAD PUSH2 0xD79 DUP2 PUSH1 0x17 DUP6 ADD PUSH1 0x20 DUP9 ADD PUSH2 0xC51 JUMP JUMPDEST PUSH17 0x1034B99036B4B9B9B4B733903937B6329 PUSH1 0x7D SHL PUSH1 0x17 SWAP2 DUP5 ADD SWAP2 DUP3 ADD MSTORE DUP4 MLOAD PUSH2 0xDAA DUP2 PUSH1 0x28 DUP5 ADD PUSH1 0x20 DUP9 ADD PUSH2 0xC51 JUMP JUMPDEST ADD PUSH1 0x28 ADD SWAP5 SWAP4 POP POP POP POP JUMP JUMPDEST PUSH1 0x20 DUP2 MSTORE PUSH1 0x0 PUSH2 0xAAA PUSH1 0x20 DUP4 ADD DUP5 PUSH2 0xC81 JUMP JUMPDEST PUSH4 0x4E487B71 PUSH1 0xE0 SHL PUSH1 0x0 MSTORE PUSH1 0x11 PUSH1 0x4 MSTORE PUSH1 0x24 PUSH1 0x0 REVERT JUMPDEST PUSH1 0x0 DUP2 PUSH1 0x0 NOT DIV DUP4 GT DUP3 ISZERO ISZERO AND ISZERO PUSH2 0xDF9 JUMPI PUSH2 0xDF9 PUSH2 0xDC9 JUMP JUMPDEST POP MUL SWAP1 JUMP JUMPDEST PUSH1 0x0 DUP3 NOT DUP3 GT ISZERO PUSH2 0xE11 JUMPI PUSH2 0xE11 PUSH2 0xDC9 JUMP JUMPDEST POP ADD SWAP1 JUMP JUMPDEST PUSH4 0x4E487B71 PUSH1 0xE0 SHL PUSH1 0x0 MSTORE PUSH1 0x32 PUSH1 0x4 MSTORE PUSH1 0x24 PUSH1 0x0 REVERT JUMPDEST PUSH1 0x0 DUP2 PUSH2 0xE3B JUMPI PUSH2 0xE3B PUSH2 0xDC9 JUMP JUMPDEST POP PUSH1 0x0 NOT ADD SWAP1 JUMP INVALID PUSH1 0x80 PUSH1 0x40 MSTORE CALLVALUE DUP1 ISZERO PUSH2 0x10 JUMPI PUSH1 0x0 DUP1 REVERT JUMPDEST POP PUSH2 0x3B PUSH32 0x7613A25ECC738585A232AD50A301178F12B3BA8887D13E138B523C4269C47689 CALLER PUSH2 0x40 JUMP JUMPDEST PUSH2 0xF0 JUMP JUMPDEST PUSH2 0x4A DUP3 DUP3 PUSH2 0x4E JUMP JUMPDEST POP POP JUMP JUMPDEST PUSH1 0x0 DUP3 DUP2 MSTORE PUSH1 0xFB PUSH1 0x20 SWAP1 DUP2 MSTORE PUSH1 0x40 DUP1 DUP4 KECCAK256 PUSH1 0x1 PUSH1 0x1 PUSH1 0xA0 SHL SUB DUP6 AND DUP5 MSTORE SWAP1 SWAP2 MSTORE SWAP1 KECCAK256 SLOAD PUSH1 0xFF AND PUSH2 0x4A JUMPI PUSH1 0x0 DUP3 DUP2 MSTORE PUSH1 0xFB PUSH1 0x20 SWAP1 DUP2 MSTORE PUSH1 0x40 DUP1 DUP4 KECCAK256 PUSH1 0x1 PUSH1 0x1 PUSH1 0xA0 SHL SUB DUP6 AND DUP5 MSTORE SWAP1 SWAP2 MSTORE SWAP1 KECCAK256 DUP1 SLOAD PUSH1 0xFF NOT AND PUSH1 0x1 OR SWAP1 SSTORE PUSH2 0xAC CALLER SWAP1 JUMP JUMPDEST PUSH1 0x1 PUSH1 0x1 PUSH1 0xA0 SHL SUB AND DUP2 PUSH1 0x1 PUSH1 0x1 PUSH1 0xA0 SHL SUB AND DUP4 PUSH32 0x2F8788117E7EFF1D82E926EC794901D17C78024A50270940304540A733656F0D PUSH1 0x40 MLOAD PUSH1 0x40 MLOAD DUP1 SWAP2 SUB SWAP1 LOG4 POP POP JUMP JUMPDEST PUSH2 0x19E3 DUP1 PUSH3 0x100 PUSH1 0x0 CODECOPY PUSH1 0x0 RETURN INVALID PUSH1 0x80 PUSH1 0x40 MSTORE PUSH1 0x4 CALLDATASIZE LT PUSH2 0x297 JUMPI PUSH1 0x0 CALLDATALOAD PUSH1 0xE0 SHR DUP1 PUSH4 0x707109B4 GT PUSH2 0x15A JUMPI DUP1 PUSH4 0xA2FB1175 GT PUSH2 0xC1 JUMPI DUP1 PUSH4 0xCCBB6299 GT PUSH2 0x7A JUMPI DUP1 PUSH4 0xCCBB6299 EQ PUSH2 0x7FF JUMPI DUP1 PUSH4 0xD182CF4D EQ PUSH2 0x816 JUMPI DUP1 PUSH4 0xD547741F EQ PUSH2 0x82C JUMPI DUP1 PUSH4 0xF23A6E61 EQ PUSH2 0x84C JUMPI DUP1 PUSH4 0xF621CC48 EQ PUSH2 0x878 JUMPI DUP1 PUSH4 0xF8BE73DD EQ PUSH2 0x941 JUMPI PUSH2 0x29E JUMP JUMPDEST DUP1 PUSH4 0xA2FB1175 EQ PUSH2 0x731 JUMPI DUP1 PUSH4 0xA870A5B2 EQ PUSH2 0x751 JUMPI DUP1 PUSH4 0xB0FE6414 EQ PUSH2 0x768 JUMPI DUP1 PUSH4 0xBC197C81 EQ PUSH2 0x77F JUMPI DUP1 PUSH4 0xC6C9BD47 EQ PUSH2 0x7AB JUMPI DUP1 PUSH4 0xCAFF99CE EQ PUSH2 0x7CB JUMPI PUSH2 0x29E JUMP JUMPDEST DUP1 PUSH4 0x95D89B41 GT PUSH2 0x113 JUMPI DUP1 PUSH4 0x95D89B41 EQ PUSH2 0x6AC JUMPI DUP1 PUSH4 0x95F148F7 EQ PUSH2 0x6C1 JUMPI DUP1 PUSH4 0x9711D7E5 EQ PUSH2 0x6E2 JUMPI DUP1 PUSH4 0x98EEE484 EQ PUSH2 0x6F9 JUMPI DUP1 PUSH4 0x9B7D707D EQ PUSH2 0x710 JUMPI DUP1 PUSH4 0xA217FDDF EQ PUSH2 0x3DD JUMPI PUSH2 0x29E JUMP JUMPDEST DUP1 PUSH4 0x707109B4 EQ PUSH2 0x5F3 JUMPI DUP1 PUSH4 0x73EE4508 EQ PUSH2 0x615 JUMPI DUP1 PUSH4 0x75B238FC EQ PUSH2 0x62B JUMPI DUP1 PUSH4 0x76C71CA1 EQ PUSH2 0x65F JUMPI DUP1 PUSH4 0x77A714AE EQ PUSH2 0x676 JUMPI DUP1 PUSH4 0x91D14854 EQ PUSH2 0x68C JUMPI PUSH2 0x29E JUMP JUMPDEST DUP1 PUSH4 0x32C60EEF GT PUSH2 0x1FE JUMPI DUP1 PUSH4 0x4460BDD6 GT PUSH2 0x1B7 JUMPI DUP1 PUSH4 0x4460BDD6 EQ PUSH2 0x52D JUMPI DUP1 PUSH4 0x5813FD3D EQ PUSH2 0x54F JUMPI DUP1 PUSH4 0x6588103B EQ PUSH2 0x566 JUMPI DUP1 PUSH4 0x6817C76C EQ PUSH2 0x59F JUMPI DUP1 PUSH4 0x6C0360EB EQ PUSH2 0x5B6 JUMPI DUP1 PUSH4 0x6FAC889B EQ PUSH2 0x5CB JUMPI PUSH2 0x29E JUMP JUMPDEST DUP1 PUSH4 0x32C60EEF EQ PUSH2 0x488 JUMPI DUP1 PUSH4 0x36568ABE EQ PUSH2 0x49F JUMPI DUP1 PUSH4 0x3659CFE6 EQ PUSH2 0x4BF JUMPI DUP1 PUSH4 0x3AD9763C EQ PUSH2 0x4DF JUMPI DUP1 PUSH4 0x3D779F32 EQ PUSH2 0x4FF JUMPI DUP1 PUSH4 0x4264F40D EQ PUSH2 0x516 JUMPI PUSH2 0x29E JUMP JUMPDEST DUP1 PUSH4 0x1649C6CE GT PUSH2 0x250 JUMPI DUP1 PUSH4 0x1649C6CE EQ PUSH2 0x3C6 JUMPI DUP1 PUSH4 0x1AE13C23 EQ PUSH2 0x3DD JUMPI DUP1 PUSH4 0x248A9CA3 EQ PUSH2 0x3F2 JUMPI DUP1 PUSH4 0x295A5212 EQ PUSH2 0x422 JUMPI DUP1 PUSH4 0x2E4DB810 EQ PUSH2 0x44F JUMPI DUP1 PUSH4 0x2F2FF15D EQ PUSH2 0x466 JUMPI PUSH2 0x29E JUMP JUMPDEST DUP1 PUSH4 0x1FFC9A7 EQ PUSH2 0x2D9 JUMPI DUP1 PUSH4 0x6FDDE03 EQ PUSH2 0x30E JUMPI DUP1 PUSH4 0xC26ABC3 EQ PUSH2 0x330 JUMPI DUP1 PUSH4 0x12F09746 EQ PUSH2 0x355 JUMPI DUP1 PUSH4 0x13AD88CA EQ PUSH2 0x36C JUMPI DUP1 PUSH4 0x150B7A02 EQ PUSH2 0x382 JUMPI PUSH2 0x29E JUMP JUMPDEST CALLDATASIZE PUSH2 0x29E JUMPI STOP JUMPDEST PUSH2 0x13B SLOAD PUSH1 0x1 PUSH1 0x1 PUSH1 0xA0 SHL SUB AND DUP1 PUSH2 0x2B5 JUMPI PUSH1 0x0 DUP1 REVERT JUMPDEST CALLDATASIZE PUSH1 0x0 DUP1 CALLDATACOPY PUSH1 0x0 DUP1 CALLDATASIZE PUSH1 0x0 DUP5 GAS DELEGATECALL RETURNDATASIZE PUSH1 0x0 DUP1 RETURNDATACOPY DUP1 DUP1 ISZERO PUSH2 0x2D4 JUMPI RETURNDATASIZE PUSH1 0x0 RETURN JUMPDEST RETURNDATASIZE PUSH1 0x0 REVERT JUMPDEST CALLVALUE DUP1 ISZERO PUSH2 0x2E5 JUMPI PUSH1 0x0 DUP1 REVERT JUMPDEST POP PUSH2 0x2F9 PUSH2 0x2F4 CALLDATASIZE PUSH1 0x4 PUSH2 0x12EB JUMP JUMPDEST PUSH2 0x962 JUMP JUMPDEST PUSH1 0x40 MLOAD SWAP1 ISZERO ISZERO DUP2 MSTORE PUSH1 0x20 ADD JUMPDEST PUSH1 0x40 MLOAD DUP1 SWAP2 SUB SWAP1 RETURN JUMPDEST CALLVALUE DUP1 ISZERO PUSH2 0x31A JUMPI PUSH1 0x0 DUP1 REVERT JUMPDEST POP PUSH2 0x323 PUSH2 0x98D JUMP JUMPDEST PUSH1 0x40 MLOAD PUSH2 0x305 SWAP2 SWAP1 PUSH2 0x1341 JUMP JUMPDEST CALLVALUE DUP1 ISZERO PUSH2 0x33C JUMPI PUSH1 0x0 DUP1 REVERT JUMPDEST POP PUSH2 0x347 PUSH2 0x13A SLOAD DUP2 JUMP JUMPDEST PUSH1 0x40 MLOAD SWAP1 DUP2 MSTORE PUSH1 0x20 ADD PUSH2 0x305 JUMP JUMPDEST CALLVALUE DUP1 ISZERO PUSH2 0x361 JUMPI PUSH1 0x0 DUP1 REVERT JUMPDEST POP PUSH2 0x347 PUSH2 0x138 SLOAD DUP2 JUMP JUMPDEST CALLVALUE DUP1 ISZERO PUSH2 0x378 JUMPI PUSH1 0x0 DUP1 REVERT JUMPDEST POP PUSH2 0x347 PUSH2 0x2710 DUP2 JUMP JUMPDEST CALLVALUE DUP1 ISZERO PUSH2 0x38E JUMPI PUSH1 0x0 DUP1 REVERT JUMPDEST POP PUSH2 0x3AD PUSH2 0x39D CALLDATASIZE PUSH1 0x4 PUSH2 0x1473 JUMP JUMPDEST PUSH4 0xA85BD01 PUSH1 0xE1 SHL SWAP5 SWAP4 POP POP POP POP JUMP JUMPDEST PUSH1 0x40 MLOAD PUSH1 0x1 PUSH1 0x1 PUSH1 0xE0 SHL SUB NOT SWAP1 SWAP2 AND DUP2 MSTORE PUSH1 0x20 ADD PUSH2 0x305 JUMP JUMPDEST CALLVALUE DUP1 ISZERO PUSH2 0x3D2 JUMPI PUSH1 0x0 DUP1 REVERT JUMPDEST POP PUSH2 0x347 PUSH2 0x12D SLOAD DUP2 JUMP JUMPDEST CALLVALUE DUP1 ISZERO PUSH2 0x3E9 JUMPI PUSH1 0x0 DUP1 REVERT JUMPDEST POP PUSH2 0x347 PUSH1 0x0 DUP2 JUMP JUMPDEST CALLVALUE DUP1 ISZERO PUSH2 0x3FE JUMPI PUSH1 0x0 DUP1 REVERT JUMPDEST POP PUSH2 0x347 PUSH2 0x40D CALLDATASIZE PUSH1 0x4 PUSH2 0x14DB JUMP JUMPDEST PUSH1 0x0 SWAP1 DUP2 MSTORE PUSH1 0xFB PUSH1 0x20 MSTORE PUSH1 0x40 SWAP1 KECCAK256 PUSH1 0x1 ADD SLOAD SWAP1 JUMP JUMPDEST CALLVALUE DUP1 ISZERO PUSH2 0x42E JUMPI PUSH1 0x0 DUP1 REVERT JUMPDEST POP PUSH2 0x143 SLOAD PUSH2 0x442 SWAP1 PUSH2 0x100 SWAP1 DIV PUSH1 0xFF AND DUP2 JUMP JUMPDEST PUSH1 0x40 MLOAD PUSH2 0x305 SWAP2 SWAP1 PUSH2 0x150A JUMP JUMPDEST CALLVALUE DUP1 ISZERO PUSH2 0x45B JUMPI PUSH1 0x0 DUP1 REVERT JUMPDEST POP PUSH2 0x347 PUSH2 0x130 SLOAD DUP2 JUMP JUMPDEST CALLVALUE DUP1 ISZERO PUSH2 0x472 JUMPI PUSH1 0x0 DUP1 REVERT JUMPDEST POP PUSH2 0x486 PUSH2 0x481 CALLDATASIZE PUSH1 0x4 PUSH2 0x1524 JUMP JUMPDEST PUSH2 0xA1C JUMP JUMPDEST STOP JUMPDEST CALLVALUE DUP1 ISZERO PUSH2 0x494 JUMPI PUSH1 0x0 DUP1 REVERT JUMPDEST POP PUSH2 0x347 PUSH2 0x133 SLOAD DUP2 JUMP JUMPDEST CALLVALUE DUP1 ISZERO PUSH2 0x4AB JUMPI PUSH1 0x0 DUP1 REVERT JUMPDEST POP PUSH2 0x486 PUSH2 0x4BA CALLDATASIZE PUSH1 0x4 PUSH2 0x1524 JUMP JUMPDEST PUSH2 0xA46 JUMP JUMPDEST CALLVALUE DUP1 ISZERO PUSH2 0x4CB JUMPI PUSH1 0x0 DUP1 REVERT JUMPDEST POP PUSH2 0x486 PUSH2 0x4DA CALLDATASIZE PUSH1 0x4 PUSH2 0x1550 JUMP JUMPDEST PUSH2 0xAC9 JUMP JUMPDEST CALLVALUE DUP1 ISZERO PUSH2 0x4EB JUMPI PUSH1 0x0 DUP1 REVERT JUMPDEST POP PUSH2 0x486 PUSH2 0x4FA CALLDATASIZE PUSH1 0x4 PUSH2 0x15C2 JUMP JUMPDEST PUSH2 0xB1A JUMP JUMPDEST CALLVALUE DUP1 ISZERO PUSH2 0x50B JUMPI PUSH1 0x0 DUP1 REVERT JUMPDEST POP PUSH2 0x347 PUSH2 0x13F SLOAD DUP2 JUMP JUMPDEST CALLVALUE DUP1 ISZERO PUSH2 0x522 JUMPI PUSH1 0x0 DUP1 REVERT JUMPDEST POP PUSH2 0x347 PUSH2 0x139 SLOAD DUP2 JUMP JUMPDEST CALLVALUE DUP1 ISZERO PUSH2 0x539 JUMPI PUSH1 0x0 DUP1 REVERT JUMPDEST POP PUSH2 0x347 PUSH1 0x0 DUP1 MLOAD PUSH1 0x20 PUSH2 0x198E DUP4 CODECOPY DUP2 MLOAD SWAP2 MSTORE DUP2 JUMP JUMPDEST CALLVALUE DUP1 ISZERO PUSH2 0x55B JUMPI PUSH1 0x0 DUP1 REVERT JUMPDEST POP PUSH2 0x347 PUSH2 0x132 SLOAD DUP2 JUMP JUMPDEST CALLVALUE DUP1 ISZERO PUSH2 0x572 JUMPI PUSH1 0x0 DUP1 REVERT JUMPDEST POP PUSH2 0x13D SLOAD PUSH2 0x587 SWAP1 PUSH1 0x1 PUSH1 0x1 PUSH1 0xA0 SHL SUB AND DUP2 JUMP JUMPDEST PUSH1 0x40 MLOAD PUSH1 0x1 PUSH1 0x1 PUSH1 0xA0 SHL SUB SWAP1 SWAP2 AND DUP2 MSTORE PUSH1 0x20 ADD PUSH2 0x305 JUMP JUMPDEST CALLVALUE DUP1 ISZERO PUSH2 0x5AB JUMPI PUSH1 0x0 DUP1 REVERT JUMPDEST POP PUSH2 0x347 PUSH2 0x131 SLOAD DUP2 JUMP JUMPDEST CALLVALUE DUP1 ISZERO PUSH2 0x5C2 JUMPI PUSH1 0x0 DUP1 REVERT JUMPDEST POP PUSH2 0x323 PUSH2 0xC9D JUMP JUMPDEST CALLVALUE DUP1 ISZERO PUSH2 0x5D7 JUMPI PUSH1 0x0 DUP1 REVERT JUMPDEST POP PUSH2 0x143 SLOAD PUSH2 0x5E6 SWAP1 PUSH1 0xFF AND DUP2 JUMP JUMPDEST PUSH1 0x40 MLOAD PUSH2 0x305 SWAP2 SWAP1 PUSH2 0x1672 JUMP JUMPDEST CALLVALUE DUP1 ISZERO PUSH2 0x5FF JUMPI PUSH1 0x0 DUP1 REVERT JUMPDEST POP PUSH2 0x13E SLOAD PUSH2 0x2F9 SWAP1 PUSH1 0x1 PUSH1 0xA0 SHL SWAP1 DIV PUSH1 0xFF AND DUP2 JUMP JUMPDEST CALLVALUE DUP1 ISZERO PUSH2 0x621 JUMPI PUSH1 0x0 DUP1 REVERT JUMPDEST POP PUSH2 0x347 PUSH2 0x483 DUP2 JUMP JUMPDEST CALLVALUE DUP1 ISZERO PUSH2 0x637 JUMPI PUSH1 0x0 DUP1 REVERT JUMPDEST POP PUSH2 0x347 PUSH32 0xA49807205CE4D355092EF5A8A18F56E8913CF4A201FBE287825B095693C21775 DUP2 JUMP JUMPDEST CALLVALUE DUP1 ISZERO PUSH2 0x66B JUMPI PUSH1 0x0 DUP1 REVERT JUMPDEST POP PUSH2 0x347 PUSH2 0x12E SLOAD DUP2 JUMP JUMPDEST CALLVALUE DUP1 ISZERO PUSH2 0x682 JUMPI PUSH1 0x0 DUP1 REVERT JUMPDEST POP PUSH2 0x347 PUSH2 0x2D1 DUP2 JUMP JUMPDEST CALLVALUE DUP1 ISZERO PUSH2 0x698 JUMPI PUSH1 0x0 DUP1 REVERT JUMPDEST POP PUSH2 0x2F9 PUSH2 0x6A7 CALLDATASIZE PUSH1 0x4 PUSH2 0x1524 JUMP JUMPDEST PUSH2 0xCAB JUMP JUMPDEST CALLVALUE DUP1 ISZERO PUSH2 0x6B8 JUMPI PUSH1 0x0 DUP1 REVERT JUMPDEST POP PUSH2 0x323 PUSH2 0xCD6 JUMP JUMPDEST CALLVALUE DUP1 ISZERO PUSH2 0x6CD JUMPI PUSH1 0x0 DUP1 REVERT JUMPDEST POP PUSH2 0x13B SLOAD PUSH2 0x587 SWAP1 PUSH1 0x1 PUSH1 0x1 PUSH1 0xA0 SHL SUB AND DUP2 JUMP JUMPDEST CALLVALUE DUP1 ISZERO PUSH2 0x6EE JUMPI PUSH1 0x0 DUP1 REVERT JUMPDEST POP PUSH2 0x347 PUSH2 0x136 SLOAD DUP2 JUMP JUMPDEST CALLVALUE DUP1 ISZERO PUSH2 0x705 JUMPI PUSH1 0x0 DUP1 REVERT JUMPDEST POP PUSH2 0x347 PUSH2 0x137 SLOAD DUP2 JUMP JUMPDEST CALLVALUE DUP1 ISZERO PUSH2 0x71C JUMPI PUSH1 0x0 DUP1 REVERT JUMPDEST POP PUSH2 0x13E SLOAD PUSH2 0x587 SWAP1 PUSH1 0x1 PUSH1 0x1 PUSH1 0xA0 SHL SUB AND DUP2 JUMP JUMPDEST CALLVALUE DUP1 ISZERO PUSH2 0x73D JUMPI PUSH1 0x0 DUP1 REVERT JUMPDEST POP PUSH2 0x587 PUSH2 0x74C CALLDATASIZE PUSH1 0x4 PUSH2 0x14DB JUMP JUMPDEST PUSH2 0xCE4 JUMP JUMPDEST CALLVALUE DUP1 ISZERO PUSH2 0x75D JUMPI PUSH1 0x0 DUP1 REVERT JUMPDEST POP PUSH2 0x347 PUSH2 0x135 SLOAD DUP2 JUMP JUMPDEST CALLVALUE DUP1 ISZERO PUSH2 0x774 JUMPI PUSH1 0x0 DUP1 REVERT JUMPDEST POP PUSH2 0x347 PUSH2 0x134 SLOAD DUP2 JUMP JUMPDEST CALLVALUE DUP1 ISZERO PUSH2 0x78B JUMPI PUSH1 0x0 DUP1 REVERT JUMPDEST POP PUSH2 0x3AD PUSH2 0x79A CALLDATASIZE PUSH1 0x4 PUSH2 0x1706 JUMP JUMPDEST PUSH4 0xBC197C81 PUSH1 0xE0 SHL SWAP6 SWAP5 POP POP POP POP POP JUMP JUMPDEST CALLVALUE DUP1 ISZERO PUSH2 0x7B7 JUMPI PUSH1 0x0 DUP1 REVERT JUMPDEST POP PUSH2 0x347 PUSH2 0x7C6 CALLDATASIZE PUSH1 0x4 PUSH2 0x14DB JUMP JUMPDEST PUSH2 0xD0F JUMP JUMPDEST CALLVALUE DUP1 ISZERO PUSH2 0x7D7 JUMPI PUSH1 0x0 DUP1 REVERT JUMPDEST POP PUSH2 0x347 PUSH32 0xE926D122B799DCBE5C2ECCDF60AE0AEFBB1A4BC75A7848BB07BEFECF8C775F5C DUP2 JUMP JUMPDEST CALLVALUE DUP1 ISZERO PUSH2 0x80B JUMPI PUSH1 0x0 DUP1 REVERT JUMPDEST POP PUSH2 0x347 PUSH2 0x12F SLOAD DUP2 JUMP JUMPDEST CALLVALUE DUP1 ISZERO PUSH2 0x822 JUMPI PUSH1 0x0 DUP1 REVERT JUMPDEST POP PUSH2 0x347 PUSH2 0x2711 DUP2 JUMP JUMPDEST CALLVALUE DUP1 ISZERO PUSH2 0x838 JUMPI PUSH1 0x0 DUP1 REVERT JUMPDEST POP PUSH2 0x486 PUSH2 0x847 CALLDATASIZE PUSH1 0x4 PUSH2 0x1524 JUMP JUMPDEST PUSH2 0xD31 JUMP JUMPDEST CALLVALUE DUP1 ISZERO PUSH2 0x858 JUMPI PUSH1 0x0 DUP1 REVERT JUMPDEST POP PUSH2 0x3AD PUSH2 0x867 CALLDATASIZE PUSH1 0x4 PUSH2 0x17B0 JUMP JUMPDEST PUSH4 0xF23A6E61 PUSH1 0xE0 SHL SWAP6 SWAP5 POP POP POP POP POP JUMP JUMPDEST CALLVALUE DUP1 ISZERO PUSH2 0x884 JUMPI PUSH1 0x0 DUP1 REVERT JUMPDEST POP PUSH2 0x8F3 PUSH2 0x893 CALLDATASIZE PUSH1 0x4 PUSH2 0x1550 JUMP JUMPDEST PUSH2 0x145 PUSH1 0x20 MSTORE PUSH1 0x0 SWAP1 DUP2 MSTORE PUSH1 0x40 SWAP1 KECCAK256 PUSH1 0x2 DUP2 ADD SLOAD PUSH1 0x3 DUP3 ADD SLOAD PUSH1 0x4 DUP4 ADD SLOAD PUSH1 0x5 DUP5 ADD SLOAD PUSH1 0x6 DUP6 ADD SLOAD PUSH1 0x7 DUP7 ADD SLOAD PUSH1 0x8 SWAP1 SWAP7 ADD SLOAD SWAP5 SWAP6 SWAP4 SWAP5 SWAP3 SWAP4 SWAP2 SWAP3 SWAP1 SWAP2 SWAP1 PUSH4 0xFFFFFFFF DUP2 AND SWAP1 PUSH1 0xFF PUSH5 0x100000000 DUP3 DIV DUP2 AND SWAP2 PUSH6 0x10000000000 SWAP1 DIV AND DUP10 JUMP JUMPDEST PUSH1 0x40 DUP1 MLOAD SWAP10 DUP11 MSTORE PUSH1 0x20 DUP11 ADD SWAP9 SWAP1 SWAP9 MSTORE SWAP7 DUP9 ADD SWAP6 SWAP1 SWAP6 MSTORE PUSH1 0x60 DUP8 ADD SWAP4 SWAP1 SWAP4 MSTORE PUSH1 0x80 DUP7 ADD SWAP2 SWAP1 SWAP2 MSTORE PUSH1 0xA0 DUP6 ADD MSTORE PUSH4 0xFFFFFFFF AND PUSH1 0xC0 DUP5 ADD MSTORE ISZERO ISZERO PUSH1 0xE0 DUP4 ADD MSTORE ISZERO ISZERO PUSH2 0x100 DUP3 ADD MSTORE PUSH2 0x120 ADD PUSH2 0x305 JUMP JUMPDEST CALLVALUE DUP1 ISZERO PUSH2 0x94D JUMPI PUSH1 0x0 DUP1 REVERT JUMPDEST POP PUSH2 0x13C SLOAD PUSH2 0x587 SWAP1 PUSH1 0x1 PUSH1 0x1 PUSH1 0xA0 SHL SUB AND DUP2 JUMP JUMPDEST PUSH1 0x0 PUSH1 0x1 PUSH1 0x1 PUSH1 0xE0 SHL SUB NOT DUP3 AND PUSH4 0x92209DBF PUSH1 0xE0 SHL EQ DUP1 PUSH2 0x987 JUMPI POP PUSH2 0x987 DUP3 PUSH2 0xD56 JUMP JUMPDEST SWAP3 SWAP2 POP POP JUMP JUMPDEST PUSH2 0x140 DUP1 SLOAD PUSH2 0x99B SWAP1 PUSH2 0x1815 JUMP JUMPDEST DUP1 PUSH1 0x1F ADD PUSH1 0x20 DUP1 SWAP2 DIV MUL PUSH1 0x20 ADD PUSH1 0x40 MLOAD SWAP1 DUP2 ADD PUSH1 0x40 MSTORE DUP1 SWAP3 SWAP2 SWAP1 DUP2 DUP2 MSTORE PUSH1 0x20 ADD DUP3 DUP1 SLOAD PUSH2 0x9C7 SWAP1 PUSH2 0x1815 JUMP JUMPDEST DUP1 ISZERO PUSH2 0xA14 JUMPI DUP1 PUSH1 0x1F LT PUSH2 0x9E9 JUMPI PUSH2 0x100 DUP1 DUP4 SLOAD DIV MUL DUP4 MSTORE SWAP2 PUSH1 0x20 ADD SWAP2 PUSH2 0xA14 JUMP JUMPDEST DUP3 ADD SWAP2 SWAP1 PUSH1 0x0 MSTORE PUSH1 0x20 PUSH1 0x0 KECCAK256 SWAP1 JUMPDEST DUP2 SLOAD DUP2 MSTORE SWAP1 PUSH1 0x1 ADD SWAP1 PUSH1 0x20 ADD DUP1 DUP4 GT PUSH2 0x9F7 JUMPI DUP3 SWAP1 SUB PUSH1 0x1F AND DUP3 ADD SWAP2 JUMPDEST POP POP POP POP POP DUP2 JUMP JUMPDEST PUSH1 0x0 DUP3 DUP2 MSTORE PUSH1 0xFB PUSH1 0x20 MSTORE PUSH1 0x40 SWAP1 KECCAK256 PUSH1 0x1 ADD SLOAD PUSH2 0xA37 DUP2 PUSH2 0xD7B JUMP JUMPDEST PUSH2 0xA41 DUP4 DUP4 PUSH2 0xD88 JUMP JUMPDEST POP POP POP JUMP JUMPDEST PUSH1 0x1 PUSH1 0x1 PUSH1 0xA0 SHL SUB DUP2 AND CALLER EQ PUSH2 0xABB JUMPI PUSH1 0x40 MLOAD PUSH3 0x461BCD PUSH1 0xE5 SHL DUP2 MSTORE PUSH1 0x20 PUSH1 0x4 DUP3 ADD MSTORE PUSH1 0x2F PUSH1 0x24 DUP3 ADD MSTORE PUSH32 0x416363657373436F6E74726F6C3A2063616E206F6E6C792072656E6F756E6365 PUSH1 0x44 DUP3 ADD MSTORE PUSH15 0x103937B632B9903337B91039B2B633 PUSH1 0x89 SHL PUSH1 0x64 DUP3 ADD MSTORE PUSH1 0x84 ADD JUMPDEST PUSH1 0x40 MLOAD DUP1 SWAP2 SUB SWAP1 REVERT JUMPDEST PUSH2 0xAC5 DUP3 DUP3 PUSH2 0xE0E JUMP JUMPDEST POP POP JUMP JUMPDEST PUSH1 0x0 DUP1 MLOAD PUSH1 0x20 PUSH2 0x198E DUP4 CODECOPY DUP2 MLOAD SWAP2 MSTORE PUSH2 0xAE1 DUP2 PUSH2 0xD7B JUMP JUMPDEST PUSH2 0x13B SLOAD PUSH1 0x1 PUSH1 0x1 PUSH1 0xA0 SHL SUB DUP4 DUP2 AND SWAP2 AND EQ ISZERO PUSH2 0xB11 JUMPI PUSH1 0x40 MLOAD PUSH4 0xBA501C4D PUSH1 0xE0 SHL DUP2 MSTORE PUSH1 0x4 ADD PUSH1 0x40 MLOAD DUP1 SWAP2 SUB SWAP1 REVERT JUMPDEST PUSH2 0xAC5 DUP3 PUSH2 0xE75 JUMP JUMPDEST PUSH1 0x0 PUSH2 0xB26 PUSH1 0x1 PUSH2 0xEC7 JUMP JUMPDEST SWAP1 POP DUP1 ISZERO PUSH2 0xB3E JUMPI PUSH1 0x0 DUP1 SLOAD PUSH2 0xFF00 NOT AND PUSH2 0x100 OR SWAP1 SSTORE JUMPDEST PUSH1 0x0 DUP1 MLOAD PUSH1 0x20 PUSH2 0x198E DUP4 CODECOPY DUP2 MLOAD SWAP2 MSTORE PUSH2 0xB56 DUP2 PUSH2 0xD7B JUMP JUMPDEST PUSH2 0xB5E PUSH2 0xF54 JUMP JUMPDEST PUSH2 0xB66 PUSH2 0xF54 JUMP JUMPDEST PUSH2 0xB6E PUSH2 0xF54 JUMP JUMPDEST DUP5 MLOAD PUSH2 0xB82 SWAP1 PUSH2 0x140 SWAP1 PUSH1 0x20 DUP9 ADD SWAP1 PUSH2 0x1252 JUMP JUMPDEST POP DUP3 MLOAD PUSH2 0x13C DUP1 SLOAD PUSH1 0x1 PUSH1 0x1 PUSH1 0xA0 SHL SUB NOT AND PUSH1 0x1 PUSH1 0x1 PUSH1 0xA0 SHL SUB SWAP1 SWAP3 AND SWAP2 SWAP1 SWAP2 OR SWAP1 SSTORE DUP4 MLOAD PUSH2 0x12E SSTORE PUSH1 0x20 DUP5 ADD MLOAD PUSH2 0x12F SSTORE PUSH1 0x40 DUP5 ADD MLOAD PUSH2 0x130 SSTORE TIMESTAMP PUSH2 0x12D SSTORE PUSH2 0xBE2 PUSH1 0x0 DUP1 MLOAD PUSH1 0x20 PUSH2 0x198E DUP4 CODECOPY DUP2 MLOAD SWAP2 MSTORE DUP5 PUSH1 0x1 JUMPDEST PUSH1 0x20 MUL ADD MLOAD PUSH2 0xFC1 JUMP JUMPDEST PUSH2 0xC0E PUSH32 0xA49807205CE4D355092EF5A8A18F56E8913CF4A201FBE287825B095693C21775 DUP5 PUSH1 0x2 PUSH2 0xBD8 JUMP JUMPDEST PUSH2 0xC26 PUSH1 0x0 DUP1 MLOAD PUSH1 0x20 PUSH2 0x198E DUP4 CODECOPY DUP2 MLOAD SWAP2 MSTORE DUP1 PUSH2 0xFCB JUMP JUMPDEST PUSH2 0xC50 PUSH32 0xA49807205CE4D355092EF5A8A18F56E8913CF4A201FBE287825B095693C21775 DUP1 PUSH2 0xFCB JUMP JUMPDEST POP DUP1 ISZERO PUSH2 0xC97 JUMPI PUSH1 0x0 DUP1 SLOAD PUSH2 0xFF00 NOT AND SWAP1 SSTORE PUSH1 0x40 MLOAD PUSH1 0x1 DUP2 MSTORE PUSH32 0x7F26B83FF96E1F2B6A682F133852F6798A09C465DA95921460CEFB3847402498 SWAP1 PUSH1 0x20 ADD PUSH1 0x40 MLOAD DUP1 SWAP2 SUB SWAP1 LOG1 JUMPDEST POP POP POP POP JUMP JUMPDEST PUSH2 0x142 DUP1 SLOAD PUSH2 0x99B SWAP1 PUSH2 0x1815 JUMP JUMPDEST PUSH1 0x0 SWAP2 DUP3 MSTORE PUSH1 0xFB PUSH1 0x20 SWAP1 DUP2 MSTORE PUSH1 0x40 DUP1 DUP5 KECCAK256 PUSH1 0x1 PUSH1 0x1 PUSH1 0xA0 SHL SUB SWAP4 SWAP1 SWAP4 AND DUP5 MSTORE SWAP2 SWAP1 MSTORE SWAP1 KECCAK256 SLOAD PUSH1 0xFF AND SWAP1 JUMP JUMPDEST PUSH2 0x141 DUP1 SLOAD PUSH2 0x99B SWAP1 PUSH2 0x1815 JUMP JUMPDEST PUSH2 0x146 DUP2 DUP2 SLOAD DUP2 LT PUSH2 0xCF5 JUMPI PUSH1 0x0 DUP1 REVERT JUMPDEST PUSH1 0x0 SWAP2 DUP3 MSTORE PUSH1 0x20 SWAP1 SWAP2 KECCAK256 ADD SLOAD PUSH1 0x1 PUSH1 0x1 PUSH1 0xA0 SHL SUB AND SWAP1 POP DUP2 JUMP JUMPDEST PUSH2 0x147 DUP2 DUP2 SLOAD DUP2 LT PUSH2 0xD20 JUMPI PUSH1 0x0 DUP1 REVERT JUMPDEST PUSH1 0x0 SWAP2 DUP3 MSTORE PUSH1 0x20 SWAP1 SWAP2 KECCAK256 ADD SLOAD SWAP1 POP DUP2 JUMP JUMPDEST PUSH1 0x0 DUP3 DUP2 MSTORE PUSH1 0xFB PUSH1 0x20 MSTORE PUSH1 0x40 SWAP1 KECCAK256 PUSH1 0x1 ADD SLOAD PUSH2 0xD4C DUP2 PUSH2 0xD7B JUMP JUMPDEST PUSH2 0xA41 DUP4 DUP4 PUSH2 0xE0E JUMP JUMPDEST PUSH1 0x0 PUSH1 0x1 PUSH1 0x1 PUSH1 0xE0 SHL SUB NOT DUP3 AND PUSH4 0x7965DB0B PUSH1 0xE0 SHL EQ DUP1 PUSH2 0x987 JUMPI POP PUSH2 0x987 DUP3 PUSH2 0x1016 JUMP JUMPDEST PUSH2 0xD85 DUP2 CALLER PUSH2 0x104B JUMP JUMPDEST POP JUMP JUMPDEST PUSH2 0xD92 DUP3 DUP3 PUSH2 0xCAB JUMP JUMPDEST PUSH2 0xAC5 JUMPI PUSH1 0x0 DUP3 DUP2 MSTORE PUSH1 0xFB PUSH1 0x20 SWAP1 DUP2 MSTORE PUSH1 0x40 DUP1 DUP4 KECCAK256 PUSH1 0x1 PUSH1 0x1 PUSH1 0xA0 SHL SUB DUP6 AND DUP5 MSTORE SWAP1 SWAP2 MSTORE SWAP1 KECCAK256 DUP1 SLOAD PUSH1 0xFF NOT AND PUSH1 0x1 OR SWAP1 SSTORE PUSH2 0xDCA CALLER SWAP1 JUMP JUMPDEST PUSH1 0x1 PUSH1 0x1 PUSH1 0xA0 SHL SUB AND DUP2 PUSH1 0x1 PUSH1 0x1 PUSH1 0xA0 SHL SUB AND DUP4 PUSH32 0x2F8788117E7EFF1D82E926EC794901D17C78024A50270940304540A733656F0D PUSH1 0x40 MLOAD PUSH1 0x40 MLOAD DUP1 SWAP2 SUB SWAP1 LOG4 POP POP JUMP JUMPDEST PUSH2 0xE18 DUP3 DUP3 PUSH2 0xCAB JUMP JUMPDEST ISZERO PUSH2 0xAC5 JUMPI PUSH1 0x0 DUP3 DUP2 MSTORE PUSH1 0xFB PUSH1 0x20 SWAP1 DUP2 MSTORE PUSH1 0x40 DUP1 DUP4 KECCAK256 PUSH1 0x1 PUSH1 0x1 PUSH1 0xA0 SHL SUB DUP6 AND DUP1 DUP6 MSTORE SWAP3 MSTORE DUP1 DUP4 KECCAK256 DUP1 SLOAD PUSH1 0xFF NOT AND SWAP1 SSTORE MLOAD CALLER SWAP3 DUP6 SWAP2 PUSH32 0xF6391F5C32D9C69D2A47EA670B442974B53935D1EDC7FD64EB21E047A839171B SWAP2 SWAP1 LOG4 POP POP JUMP JUMPDEST PUSH2 0x13B DUP1 SLOAD PUSH1 0x1 PUSH1 0x1 PUSH1 0xA0 SHL SUB DUP4 DUP2 AND PUSH1 0x1 PUSH1 0x1 PUSH1 0xA0 SHL SUB NOT DUP4 AND DUP2 OR SWAP1 SWAP4 SSTORE PUSH1 0x40 MLOAD SWAP2 AND SWAP2 DUP3 SWAP2 PUSH32 0xD2D601FF50517068C7174BC2A7E6E8EA802702E59DA429EBB0D6B381B2785C5D SWAP1 PUSH1 0x0 SWAP1 LOG3 POP POP JUMP JUMPDEST PUSH1 0x0 DUP1 SLOAD PUSH2 0x100 SWAP1 DIV PUSH1 0xFF AND ISZERO PUSH2 0xF0E JUMPI DUP2 PUSH1 0xFF AND PUSH1 0x1 EQ DUP1 ISZERO PUSH2 0xEEA JUMPI POP ADDRESS EXTCODESIZE ISZERO JUMPDEST PUSH2 0xF06 JUMPI PUSH1 0x40 MLOAD PUSH3 0x461BCD PUSH1 0xE5 SHL DUP2 MSTORE PUSH1 0x4 ADD PUSH2 0xAB2 SWAP1 PUSH2 0x1866 JUMP JUMPDEST POP PUSH1 0x0 SWAP2 SWAP1 POP JUMP JUMPDEST PUSH1 0x0 SLOAD PUSH1 0xFF DUP1 DUP5 AND SWAP2 AND LT PUSH2 0xF35 JUMPI PUSH1 0x40 MLOAD PUSH3 0x461BCD PUSH1 0xE5 SHL DUP2 MSTORE PUSH1 0x4 ADD PUSH2 0xAB2 SWAP1 PUSH2 0x1866 JUMP JUMPDEST POP PUSH1 0x0 DUP1 SLOAD PUSH1 0xFF NOT AND PUSH1 0xFF SWAP3 SWAP1 SWAP3 AND SWAP2 SWAP1 SWAP2 OR SWAP1 SSTORE PUSH1 0x1 SWAP1 JUMP JUMPDEST SWAP2 SWAP1 POP JUMP JUMPDEST PUSH1 0x0 SLOAD PUSH2 0x100 SWAP1 DIV PUSH1 0xFF AND PUSH2 0xFBF JUMPI PUSH1 0x40 MLOAD PUSH3 0x461BCD PUSH1 0xE5 SHL DUP2 MSTORE PUSH1 0x20 PUSH1 0x4 DUP3 ADD MSTORE PUSH1 0x2B PUSH1 0x24 DUP3 ADD MSTORE PUSH32 0x496E697469616C697A61626C653A20636F6E7472616374206973206E6F742069 PUSH1 0x44 DUP3 ADD MSTORE PUSH11 0x6E697469616C697A696E67 PUSH1 0xA8 SHL PUSH1 0x64 DUP3 ADD MSTORE PUSH1 0x84 ADD PUSH2 0xAB2 JUMP JUMPDEST JUMP JUMPDEST PUSH2 0xAC5 DUP3 DUP3 PUSH2 0xD88 JUMP JUMPDEST PUSH1 0x0 DUP3 DUP2 MSTORE PUSH1 0xFB PUSH1 0x20 MSTORE PUSH1 0x40 DUP1 DUP3 KECCAK256 PUSH1 0x1 ADD DUP1 SLOAD SWAP1 DUP5 SWAP1 SSTORE SWAP1 MLOAD SWAP1 SWAP2 DUP4 SWAP2 DUP4 SWAP2 DUP7 SWAP2 PUSH32 0xBD79B86FFE0AB8E8776151514217CD7CACD52C909F66475C3AF44E129F0B00FF SWAP2 SWAP1 LOG4 POP POP POP JUMP JUMPDEST PUSH1 0x0 PUSH1 0x1 PUSH1 0x1 PUSH1 0xE0 SHL SUB NOT DUP3 AND PUSH4 0x2711897 PUSH1 0xE5 SHL EQ DUP1 PUSH2 0x987 JUMPI POP PUSH4 0x1FFC9A7 PUSH1 0xE0 SHL PUSH1 0x1 PUSH1 0x1 PUSH1 0xE0 SHL SUB NOT DUP4 AND EQ PUSH2 0x987 JUMP JUMPDEST PUSH2 0x1055 DUP3 DUP3 PUSH2 0xCAB JUMP JUMPDEST PUSH2 0xAC5 JUMPI PUSH2 0x106D DUP2 PUSH1 0x1 PUSH1 0x1 PUSH1 0xA0 SHL SUB AND PUSH1 0x14 PUSH2 0x10AF JUMP JUMPDEST PUSH2 0x1078 DUP4 PUSH1 0x20 PUSH2 0x10AF JUMP JUMPDEST PUSH1 0x40 MLOAD PUSH1 0x20 ADD PUSH2 0x1089 SWAP3 SWAP2 SWAP1 PUSH2 0x18B4 JUMP JUMPDEST PUSH1 0x40 DUP1 MLOAD PUSH1 0x1F NOT DUP2 DUP5 SUB ADD DUP2 MSTORE SWAP1 DUP3 SWAP1 MSTORE PUSH3 0x461BCD PUSH1 0xE5 SHL DUP3 MSTORE PUSH2 0xAB2 SWAP2 PUSH1 0x4 ADD PUSH2 0x1341 JUMP JUMPDEST PUSH1 0x60 PUSH1 0x0 PUSH2 0x10BE DUP4 PUSH1 0x2 PUSH2 0x193F JUMP JUMPDEST PUSH2 0x10C9 SWAP1 PUSH1 0x2 PUSH2 0x195E JUMP JUMPDEST PUSH8 0xFFFFFFFFFFFFFFFF DUP2 GT ISZERO PUSH2 0x10E1 JUMPI PUSH2 0x10E1 PUSH2 0x138B JUMP JUMPDEST PUSH1 0x40 MLOAD SWAP1 DUP1 DUP3 MSTORE DUP1 PUSH1 0x1F ADD PUSH1 0x1F NOT AND PUSH1 0x20 ADD DUP3 ADD PUSH1 0x40 MSTORE DUP1 ISZERO PUSH2 0x110B JUMPI PUSH1 0x20 DUP3 ADD DUP2 DUP1 CALLDATASIZE DUP4 CALLDATACOPY ADD SWAP1 POP JUMPDEST POP SWAP1 POP PUSH1 0x3 PUSH1 0xFC SHL DUP2 PUSH1 0x0 DUP2 MLOAD DUP2 LT PUSH2 0x1126 JUMPI PUSH2 0x1126 PUSH2 0x1850 JUMP JUMPDEST PUSH1 0x20 ADD ADD SWAP1 PUSH1 0x1 PUSH1 0x1 PUSH1 0xF8 SHL SUB NOT AND SWAP1 DUP2 PUSH1 0x0 BYTE SWAP1 MSTORE8 POP PUSH1 0xF PUSH1 0xFB SHL DUP2 PUSH1 0x1 DUP2 MLOAD DUP2 LT PUSH2 0x1155 JUMPI PUSH2 0x1155 PUSH2 0x1850 JUMP JUMPDEST PUSH1 0x20 ADD ADD SWAP1 PUSH1 0x1 PUSH1 0x1 PUSH1 0xF8 SHL SUB NOT AND SWAP1 DUP2 PUSH1 0x0 BYTE SWAP1 MSTORE8 POP PUSH1 0x0 PUSH2 0x1179 DUP5 PUSH1 0x2 PUSH2 0x193F JUMP JUMPDEST PUSH2 0x1184 SWAP1 PUSH1 0x1 PUSH2 0x195E JUMP JUMPDEST SWAP1 POP JUMPDEST PUSH1 0x1 DUP2 GT ISZERO PUSH2 0x11FC JUMPI PUSH16 0x181899199A1A9B1B9C1CB0B131B232B3 PUSH1 0x81 SHL DUP6 PUSH1 0xF AND PUSH1 0x10 DUP2 LT PUSH2 0x11B8 JUMPI PUSH2 0x11B8 PUSH2 0x1850 JUMP JUMPDEST BYTE PUSH1 0xF8 SHL DUP3 DUP3 DUP2 MLOAD DUP2 LT PUSH2 0x11CE JUMPI PUSH2 0x11CE PUSH2 0x1850 JUMP JUMPDEST PUSH1 0x20 ADD ADD SWAP1 PUSH1 0x1 PUSH1 0x1 PUSH1 0xF8 SHL SUB NOT AND SWAP1 DUP2 PUSH1 0x0 BYTE SWAP1 MSTORE8 POP PUSH1 0x4 SWAP5 SWAP1 SWAP5 SHR SWAP4 PUSH2 0x11F5 DUP2 PUSH2 0x1976 JUMP JUMPDEST SWAP1 POP PUSH2 0x1187 JUMP JUMPDEST POP DUP4 ISZERO PUSH2 0x124B JUMPI PUSH1 0x40 MLOAD PUSH3 0x461BCD PUSH1 0xE5 SHL DUP2 MSTORE PUSH1 0x20 PUSH1 0x4 DUP3 ADD DUP2 SWAP1 MSTORE PUSH1 0x24 DUP3 ADD MSTORE PUSH32 0x537472696E67733A20686578206C656E67746820696E73756666696369656E74 PUSH1 0x44 DUP3 ADD MSTORE PUSH1 0x64 ADD PUSH2 0xAB2 JUMP JUMPDEST SWAP4 SWAP3 POP POP POP JUMP JUMPDEST DUP3 DUP1 SLOAD PUSH2 0x125E SWAP1 PUSH2 0x1815 JUMP JUMPDEST SWAP1 PUSH1 0x0 MSTORE PUSH1 0x20 PUSH1 0x0 KECCAK256 SWAP1 PUSH1 0x1F ADD PUSH1 0x20 SWAP1 DIV DUP2 ADD SWAP3 DUP3 PUSH2 0x1280 JUMPI PUSH1 0x0 DUP6 SSTORE PUSH2 0x12C6 JUMP JUMPDEST DUP3 PUSH1 0x1F LT PUSH2 0x1299 JUMPI DUP1 MLOAD PUSH1 0xFF NOT AND DUP4 DUP1 ADD OR DUP6 SSTORE PUSH2 0x12C6 JUMP JUMPDEST DUP3 DUP1 ADD PUSH1 0x1 ADD DUP6 SSTORE DUP3 ISZERO PUSH2 0x12C6 JUMPI SWAP2 DUP3 ADD JUMPDEST DUP3 DUP2 GT ISZERO PUSH2 0x12C6 JUMPI DUP3 MLOAD DUP3 SSTORE SWAP2 PUSH1 0x20 ADD SWAP2 SWAP1 PUSH1 0x1 ADD SWAP1 PUSH2 0x12AB JUMP JUMPDEST POP PUSH2 0x12D2 SWAP3 SWAP2 POP PUSH2 0x12D6 JUMP JUMPDEST POP SWAP1 JUMP JUMPDEST JUMPDEST DUP1 DUP3 GT ISZERO PUSH2 0x12D2 JUMPI PUSH1 0x0 DUP2 SSTORE PUSH1 0x1 ADD PUSH2 0x12D7 JUMP JUMPDEST PUSH1 0x0 PUSH1 0x20 DUP3 DUP5 SUB SLT ISZERO PUSH2 0x12FD JUMPI PUSH1 0x0 DUP1 REVERT JUMPDEST DUP2 CALLDATALOAD PUSH1 0x1 PUSH1 0x1 PUSH1 0xE0 SHL SUB NOT DUP2 AND DUP2 EQ PUSH2 0x124B JUMPI PUSH1 0x0 DUP1 REVERT JUMPDEST PUSH1 0x0 JUMPDEST DUP4 DUP2 LT ISZERO PUSH2 0x1330 JUMPI DUP2 DUP2 ADD MLOAD DUP4 DUP3 ADD MSTORE PUSH1 0x20 ADD PUSH2 0x1318 JUMP JUMPDEST DUP4 DUP2 GT ISZERO PUSH2 0xC97 JUMPI POP POP PUSH1 0x0 SWAP2 ADD MSTORE JUMP JUMPDEST PUSH1 0x20 DUP2 MSTORE PUSH1 0x0 DUP3 MLOAD DUP1 PUSH1 0x20 DUP5 ADD MSTORE PUSH2 0x1360 DUP2 PUSH1 0x40 DUP6 ADD PUSH1 0x20 DUP8 ADD PUSH2 0x1315 JUMP JUMPDEST PUSH1 0x1F ADD PUSH1 0x1F NOT AND SWAP2 SWAP1 SWAP2 ADD PUSH1 0x40 ADD SWAP3 SWAP2 POP POP JUMP JUMPDEST DUP1 CALLDATALOAD PUSH1 0x1 PUSH1 0x1 PUSH1 0xA0 SHL SUB DUP2 AND DUP2 EQ PUSH2 0xF4F JUMPI PUSH1 0x0 DUP1 REVERT JUMPDEST PUSH4 0x4E487B71 PUSH1 0xE0 SHL PUSH1 0x0 MSTORE PUSH1 0x41 PUSH1 0x4 MSTORE PUSH1 0x24 PUSH1 0x0 REVERT JUMPDEST PUSH1 0x40 MLOAD PUSH1 0x60 DUP2 ADD PUSH8 0xFFFFFFFFFFFFFFFF DUP2 GT DUP3 DUP3 LT OR ISZERO PUSH2 0x13C4 JUMPI PUSH2 0x13C4 PUSH2 0x138B JUMP JUMPDEST PUSH1 0x40 MSTORE SWAP1 JUMP JUMPDEST PUSH1 0x40 MLOAD PUSH1 0x1F DUP3 ADD PUSH1 0x1F NOT AND DUP2 ADD PUSH8 0xFFFFFFFFFFFFFFFF DUP2 GT DUP3 DUP3 LT OR ISZERO PUSH2 0x13F3 JUMPI PUSH2 0x13F3 PUSH2 0x138B JUMP JUMPDEST PUSH1 0x40 MSTORE SWAP2 SWAP1 POP JUMP JUMPDEST PUSH1 0x0 PUSH8 0xFFFFFFFFFFFFFFFF DUP4 GT ISZERO PUSH2 0x1415 JUMPI PUSH2 0x1415 PUSH2 0x138B JUMP JUMPDEST PUSH2 0x1428 PUSH1 0x1F DUP5 ADD PUSH1 0x1F NOT AND PUSH1 0x20 ADD PUSH2 0x13CA JUMP JUMPDEST SWAP1 POP DUP3 DUP2 MSTORE DUP4 DUP4 DUP4 ADD GT ISZERO PUSH2 0x143C JUMPI PUSH1 0x0 DUP1 REVERT JUMPDEST DUP3 DUP3 PUSH1 0x20 DUP4 ADD CALLDATACOPY PUSH1 0x0 PUSH1 0x20 DUP5 DUP4 ADD ADD MSTORE SWAP4 SWAP3 POP POP POP JUMP JUMPDEST PUSH1 0x0 DUP3 PUSH1 0x1F DUP4 ADD SLT PUSH2 0x1464 JUMPI PUSH1 0x0 DUP1 REVERT JUMPDEST PUSH2 0x124B DUP4 DUP4 CALLDATALOAD PUSH1 0x20 DUP6 ADD PUSH2 0x13FB JUMP JUMPDEST PUSH1 0x0 DUP1 PUSH1 0x0 DUP1 PUSH1 0x80 DUP6 DUP8 SUB SLT ISZERO PUSH2 0x1489 JUMPI PUSH1 0x0 DUP1 REVERT JUMPDEST PUSH2 0x1492 DUP6 PUSH2 0x1374 JUMP JUMPDEST SWAP4 POP PUSH2 0x14A0 PUSH1 0x20 DUP7 ADD PUSH2 0x1374 JUMP JUMPDEST SWAP3 POP PUSH1 0x40 DUP6 ADD CALLDATALOAD SWAP2 POP PUSH1 0x60 DUP6 ADD CALLDATALOAD PUSH8 0xFFFFFFFFFFFFFFFF DUP2 GT ISZERO PUSH2 0x14C3 JUMPI PUSH1 0x0 DUP1 REVERT JUMPDEST PUSH2 0x14CF DUP8 DUP3 DUP9 ADD PUSH2 0x1453 JUMP JUMPDEST SWAP2 POP POP SWAP3 SWAP6 SWAP2 SWAP5 POP SWAP3 POP JUMP JUMPDEST PUSH1 0x0 PUSH1 0x20 DUP3 DUP5 SUB SLT ISZERO PUSH2 0x14ED JUMPI PUSH1 0x0 DUP1 REVERT JUMPDEST POP CALLDATALOAD SWAP2 SWAP1 POP JUMP JUMPDEST PUSH4 0x4E487B71 PUSH1 0xE0 SHL PUSH1 0x0 MSTORE PUSH1 0x21 PUSH1 0x4 MSTORE PUSH1 0x24 PUSH1 0x0 REVERT JUMPDEST PUSH1 0x20 DUP2 ADD PUSH1 0x4 DUP4 LT PUSH2 0x151E JUMPI PUSH2 0x151E PUSH2 0x14F4 JUMP JUMPDEST SWAP2 SWAP1 MSTORE SWAP1 JUMP JUMPDEST PUSH1 0x0 DUP1 PUSH1 0x40 DUP4 DUP6 SUB SLT ISZERO PUSH2 0x1537 JUMPI PUSH1 0x0 DUP1 REVERT JUMPDEST DUP3 CALLDATALOAD SWAP2 POP PUSH2 0x1547 PUSH1 0x20 DUP5 ADD PUSH2 0x1374 JUMP JUMPDEST SWAP1 POP SWAP3 POP SWAP3 SWAP1 POP JUMP JUMPDEST PUSH1 0x0 PUSH1 0x20 DUP3 DUP5 SUB SLT ISZERO PUSH2 0x1562 JUMPI PUSH1 0x0 DUP1 REVERT JUMPDEST PUSH2 0x124B DUP3 PUSH2 0x1374 JUMP JUMPDEST PUSH1 0x0 DUP3 PUSH1 0x1F DUP4 ADD SLT PUSH2 0x157C JUMPI PUSH1 0x0 DUP1 REVERT JUMPDEST PUSH2 0x1584 PUSH2 0x13A1 JUMP JUMPDEST DUP1 PUSH1 0x60 DUP5 ADD DUP6 DUP2 GT ISZERO PUSH2 0x1596 JUMPI PUSH1 0x0 DUP1 REVERT JUMPDEST DUP5 JUMPDEST DUP2 DUP2 LT ISZERO PUSH2 0x15B7 JUMPI PUSH2 0x15A9 DUP2 PUSH2 0x1374 JUMP JUMPDEST DUP5 MSTORE PUSH1 0x20 SWAP4 DUP5 ADD SWAP4 ADD PUSH2 0x1598 JUMP JUMPDEST POP SWAP1 SWAP6 SWAP5 POP POP POP POP POP JUMP JUMPDEST PUSH1 0x0 DUP1 PUSH1 0x0 PUSH1 0xE0 DUP5 DUP7 SUB SLT ISZERO PUSH2 0x15D7 JUMPI PUSH1 0x0 DUP1 REVERT JUMPDEST DUP4 CALLDATALOAD PUSH8 0xFFFFFFFFFFFFFFFF DUP2 GT ISZERO PUSH2 0x15EE JUMPI PUSH1 0x0 DUP1 REVERT JUMPDEST DUP5 ADD PUSH1 0x1F DUP2 ADD DUP7 SGT PUSH2 0x15FF JUMPI PUSH1 0x0 DUP1 REVERT JUMPDEST PUSH1 0x20 PUSH2 0x160F DUP8 DUP4 CALLDATALOAD DUP4 DUP6 ADD PUSH2 0x13FB JUMP JUMPDEST SWAP5 POP DUP7 PUSH1 0x3F DUP8 ADD SLT PUSH2 0x1620 JUMPI PUSH1 0x0 DUP1 REVERT JUMPDEST PUSH2 0x1628 PUSH2 0x13A1 JUMP JUMPDEST SWAP2 POP DUP2 PUSH1 0x80 DUP8 ADD DUP9 DUP2 GT ISZERO PUSH2 0x163C JUMPI PUSH1 0x0 DUP1 REVERT JUMPDEST DUP3 DUP9 ADD JUMPDEST DUP2 DUP2 LT ISZERO PUSH2 0x1657 JUMPI DUP1 CALLDATALOAD DUP6 MSTORE SWAP4 DUP4 ADD SWAP4 DUP4 ADD PUSH2 0x1640 JUMP JUMPDEST POP DUP2 SWAP6 POP PUSH2 0x1665 DUP10 DUP3 PUSH2 0x156B JUMP JUMPDEST SWAP5 POP POP POP POP POP SWAP3 POP SWAP3 POP SWAP3 JUMP JUMPDEST PUSH1 0x20 DUP2 ADD PUSH1 0x2 DUP4 LT PUSH2 0x151E JUMPI PUSH2 0x151E PUSH2 0x14F4 JUMP JUMPDEST PUSH1 0x0 DUP3 PUSH1 0x1F DUP4 ADD SLT PUSH2 0x1697 JUMPI PUSH1 0x0 DUP1 REVERT JUMPDEST DUP2 CALLDATALOAD PUSH1 0x20 PUSH8 0xFFFFFFFFFFFFFFFF DUP3 GT ISZERO PUSH2 0x16B3 JUMPI PUSH2 0x16B3 PUSH2 0x138B JUMP JUMPDEST DUP2 PUSH1 0x5 SHL PUSH2 0x16C2 DUP3 DUP3 ADD PUSH2 0x13CA JUMP JUMPDEST SWAP3 DUP4 MSTORE DUP5 DUP2 ADD DUP3 ADD SWAP3 DUP3 DUP2 ADD SWAP1 DUP8 DUP6 GT ISZERO PUSH2 0x16DC JUMPI PUSH1 0x0 DUP1 REVERT JUMPDEST DUP4 DUP8 ADD SWAP3 POP JUMPDEST DUP5 DUP4 LT ISZERO PUSH2 0x16FB JUMPI DUP3 CALLDATALOAD DUP3 MSTORE SWAP2 DUP4 ADD SWAP2 SWAP1 DUP4 ADD SWAP1 PUSH2 0x16E2 JUMP JUMPDEST SWAP8 SWAP7 POP POP POP POP POP POP POP JUMP JUMPDEST PUSH1 0x0 DUP1 PUSH1 0x0 DUP1 PUSH1 0x0 PUSH1 0xA0 DUP7 DUP9 SUB SLT ISZERO PUSH2 0x171E JUMPI PUSH1 0x0 DUP1 REVERT JUMPDEST PUSH2 0x1727 DUP7 PUSH2 0x1374 JUMP JUMPDEST SWAP5 POP PUSH2 0x1735 PUSH1 0x20 DUP8 ADD PUSH2 0x1374 JUMP JUMPDEST SWAP4 POP PUSH1 0x40 DUP7 ADD CALLDATALOAD PUSH8 0xFFFFFFFFFFFFFFFF DUP1 DUP3 GT ISZERO PUSH2 0x1752 JUMPI PUSH1 0x0 DUP1 REVERT JUMPDEST PUSH2 0x175E DUP10 DUP4 DUP11 ADD PUSH2 0x1686 JUMP JUMPDEST SWAP5 POP PUSH1 0x60 DUP9 ADD CALLDATALOAD SWAP2 POP DUP1 DUP3 GT ISZERO PUSH2 0x1774 JUMPI PUSH1 0x0 DUP1 REVERT JUMPDEST PUSH2 0x1780 DUP10 DUP4 DUP11 ADD PUSH2 0x1686 JUMP JUMPDEST SWAP4 POP PUSH1 0x80 DUP9 ADD CALLDATALOAD SWAP2 POP DUP1 DUP3 GT ISZERO PUSH2 0x1796 JUMPI PUSH1 0x0 DUP1 REVERT JUMPDEST POP PUSH2 0x17A3 DUP9 DUP3 DUP10 ADD PUSH2 0x1453 JUMP JUMPDEST SWAP2 POP POP SWAP3 SWAP6 POP SWAP3 SWAP6 SWAP1 SWAP4 POP JUMP JUMPDEST PUSH1 0x0 DUP1 PUSH1 0x0 DUP1 PUSH1 0x0 PUSH1 0xA0 DUP7 DUP9 SUB SLT ISZERO PUSH2 0x17C8 JUMPI PUSH1 0x0 DUP1 REVERT JUMPDEST PUSH2 0x17D1 DUP7 PUSH2 0x1374 JUMP JUMPDEST SWAP5 POP PUSH2 0x17DF PUSH1 0x20 DUP8 ADD PUSH2 0x1374 JUMP JUMPDEST SWAP4 POP PUSH1 0x40 DUP7 ADD CALLDATALOAD SWAP3 POP PUSH1 0x60 DUP7 ADD CALLDATALOAD SWAP2 POP PUSH1 0x80 DUP7 ADD CALLDATALOAD PUSH8 0xFFFFFFFFFFFFFFFF DUP2 GT ISZERO PUSH2 0x1809 JUMPI PUSH1 0x0 DUP1 REVERT JUMPDEST PUSH2 0x17A3 DUP9 DUP3 DUP10 ADD PUSH2 0x1453 JUMP JUMPDEST PUSH1 0x1 DUP2 DUP2 SHR SWAP1 DUP3 AND DUP1 PUSH2 0x1829 JUMPI PUSH1 0x7F DUP3 AND SWAP2 POP JUMPDEST PUSH1 0x20 DUP3 LT DUP2 EQ ISZERO PUSH2 0x184A JUMPI PUSH4 0x4E487B71 PUSH1 0xE0 SHL PUSH1 0x0 MSTORE PUSH1 0x22 PUSH1 0x4 MSTORE PUSH1 0x24 PUSH1 0x0 REVERT JUMPDEST POP SWAP2 SWAP1 POP JUMP JUMPDEST PUSH4 0x4E487B71 PUSH1 0xE0 SHL PUSH1 0x0 MSTORE PUSH1 0x32 PUSH1 0x4 MSTORE PUSH1 0x24 PUSH1 0x0 REVERT JUMPDEST PUSH1 0x20 DUP1 DUP3 MSTORE PUSH1 0x2E SWAP1 DUP3 ADD MSTORE PUSH32 0x496E697469616C697A61626C653A20636F6E747261637420697320616C726561 PUSH1 0x40 DUP3 ADD MSTORE PUSH14 0x191E481A5B9A5D1A585B1A5E9959 PUSH1 0x92 SHL PUSH1 0x60 DUP3 ADD MSTORE PUSH1 0x80 ADD SWAP1 JUMP JUMPDEST PUSH32 0x416363657373436F6E74726F6C3A206163636F756E7420000000000000000000 DUP2 MSTORE PUSH1 0x0 DUP4 MLOAD PUSH2 0x18EC DUP2 PUSH1 0x17 DUP6 ADD PUSH1 0x20 DUP9 ADD PUSH2 0x1315 JUMP JUMPDEST PUSH17 0x1034B99036B4B9B9B4B733903937B6329 PUSH1 0x7D SHL PUSH1 0x17 SWAP2 DUP5 ADD SWAP2 DUP3 ADD MSTORE DUP4 MLOAD PUSH2 0x191D DUP2 PUSH1 0x28 DUP5 ADD PUSH1 0x20 DUP9 ADD PUSH2 0x1315 JUMP JUMPDEST ADD PUSH1 0x28 ADD SWAP5 SWAP4 POP POP POP POP JUMP JUMPDEST PUSH4 0x4E487B71 PUSH1 0xE0 SHL PUSH1 0x0 MSTORE PUSH1 0x11 PUSH1 0x4 MSTORE PUSH1 0x24 PUSH1 0x0 REVERT JUMPDEST PUSH1 0x0 DUP2 PUSH1 0x0 NOT DIV DUP4 GT DUP3 ISZERO ISZERO AND ISZERO PUSH2 0x1959 JUMPI PUSH2 0x1959 PUSH2 0x1929 JUMP JUMPDEST POP MUL SWAP1 JUMP JUMPDEST PUSH1 0x0 DUP3 NOT DUP3 GT ISZERO PUSH2 0x1971 JUMPI PUSH2 0x1971 PUSH2 0x1929 JUMP JUMPDEST POP ADD SWAP1 JUMP JUMPDEST PUSH1 0x0 DUP2 PUSH2 0x1985 JUMPI PUSH2 0x1985 PUSH2 0x1929 JUMP JUMPDEST POP PUSH1 0x0 NOT ADD SWAP1 JUMP INVALID PUSH23 0x13A25ECC738585A232AD50A301178F12B3BA8887D13E13 DUP12 MSTORE EXTCODECOPY TIMESTAMP PUSH10 0xC47689A2646970667358 0x22 SLT KECCAK256 0xCD 0xC7 PUSH9 0xB8097D59911042FE10 0xF7 0xC6 DUP7 PUSH1 0xF5 DUP5 XOR SHL 0xCE 0xCC 0xE5 0xB0 SSTORE 0xE2 0xA8 0xE2 EXP GAS 0x4B 0x22 PUSH5 0x736F6C6343 STOP ADDMOD MULMOD STOP CALLER LOG2 PUSH5 0x6970667358 0x22 SLT KECCAK256 PUSH6 0x12A31BB540C2 0xEB ADDMOD 0xD4 SWAP16 DUP11 DUP5 0xCF DUP14 0xD5 DUP13 SWAP3 CREATE PUSH17 0x3A0E23ACA1AB46CD8A48BAFC64736F6C63 NUMBER STOP ADDMOD MULMOD STOP CALLER "
		},
		"gasEstimates": {
			"creation": {
				"codeDepositCost": "2117600",
				"executionCost": "infinite",
				"totalCost": "infinite"
			},
			"external": {
				"ADMIN_ROLE()": "2318",
				"BANK_CREATOR_ROLE()": "2383",
				"DEFAULT_ADMIN_ROLE()": "306",
				"createBankProxy(string,uint256)": "infinite",
				"getRoleAdmin(bytes32)": "2537",
				"grantRole(bytes32,address)": "infinite",
				"hasRole(bytes32,address)": "2718",
				"launchpadFeePercentage()": "2340",
				"launchpadFeeWallet()": "2447",
				"mintCap()": "2340",
				"nftBankImpl()": "2426",
				"renounceRole(bytes32,address)": "29084",
				"revokeRole(bytes32,address)": "infinite",
				"setLaunchpadFeePercentage(uint256)": "infinite",
				"setMintCap(uint256)": "infinite",
				"setNewBankImplAddress(address)": "infinite",
				"setNewSuperAdmin(address)": "infinite",
				"superAdmin()": "2360",
				"supportsInterface(bytes4)": "450"
			}
		},
		"methodIdentifiers": {
			"ADMIN_ROLE()": "75b238fc",
			"BANK_CREATOR_ROLE()": "ec5eb5da",
			"DEFAULT_ADMIN_ROLE()": "a217fddf",
			"createBankProxy(string,uint256)": "ce791ce3",
			"getRoleAdmin(bytes32)": "248a9ca3",
			"grantRole(bytes32,address)": "2f2ff15d",
			"hasRole(bytes32,address)": "91d14854",
			"launchpadFeePercentage()": "2e4db810",
			"launchpadFeeWallet()": "f8be73dd",
			"mintCap()": "76c71ca1",
			"nftBankImpl()": "95f148f7",
			"renounceRole(bytes32,address)": "36568abe",
			"revokeRole(bytes32,address)": "d547741f",
			"setLaunchpadFeePercentage(uint256)": "13877cea",
			"setMintCap(uint256)": "4070a0c9",
			"setNewBankImplAddress(address)": "03745a0e",
			"setNewSuperAdmin(address)": "b6c3ef27",
			"superAdmin()": "29575f6a",
			"supportsInterface(bytes4)": "01ffc9a7"
		}
	},
	"storageLayout": {
		"storage": [
			{
				"astId": 4227,
				"contract": "contracts/NFT/NFTBank/NFTBankFactory.sol:NFTBankFactory",
				"label": "_roles",
				"offset": 0,
				"slot": "0",
				"type": "t_mapping(t_bytes32,t_struct(RoleData)4222_storage)"
			},
			{
				"astId": 13823,
				"contract": "contracts/NFT/NFTBank/NFTBankFactory.sol:NFTBankFactory",
				"label": "ADMIN_ROLE",
				"offset": 0,
				"slot": "1",
				"type": "t_bytes32"
			},
			{
				"astId": 13828,
				"contract": "contracts/NFT/NFTBank/NFTBankFactory.sol:NFTBankFactory",
				"label": "BANK_CREATOR_ROLE",
				"offset": 0,
				"slot": "2",
				"type": "t_bytes32"
			},
			{
				"astId": 13830,
				"contract": "contracts/NFT/NFTBank/NFTBankFactory.sol:NFTBankFactory",
				"label": "superAdmin",
				"offset": 0,
				"slot": "3",
				"type": "t_address"
			},
			{
				"astId": 13832,
				"contract": "contracts/NFT/NFTBank/NFTBankFactory.sol:NFTBankFactory",
				"label": "nftBankImpl",
				"offset": 0,
				"slot": "4",
				"type": "t_address"
			},
			{
				"astId": 13834,
				"contract": "contracts/NFT/NFTBank/NFTBankFactory.sol:NFTBankFactory",
				"label": "launchpadFeeWallet",
				"offset": 0,
				"slot": "5",
				"type": "t_address"
			},
			{
				"astId": 13836,
				"contract": "contracts/NFT/NFTBank/NFTBankFactory.sol:NFTBankFactory",
				"label": "launchpadFeePercentage",
				"offset": 0,
				"slot": "6",
				"type": "t_uint256"
			},
			{
				"astId": 13838,
				"contract": "contracts/NFT/NFTBank/NFTBankFactory.sol:NFTBankFactory",
				"label": "mintCap",
				"offset": 0,
				"slot": "7",
				"type": "t_uint256"
			}
		],
		"types": {
			"t_address": {
				"encoding": "inplace",
				"label": "address",
				"numberOfBytes": "20"
			},
			"t_bool": {
				"encoding": "inplace",
				"label": "bool",
				"numberOfBytes": "1"
			},
			"t_bytes32": {
				"encoding": "inplace",
				"label": "bytes32",
				"numberOfBytes": "32"
			},
			"t_mapping(t_address,t_bool)": {
				"encoding": "mapping",
				"key": "t_address",
				"label": "mapping(address => bool)",
				"numberOfBytes": "32",
				"value": "t_bool"
			},
			"t_mapping(t_bytes32,t_struct(RoleData)4222_storage)": {
				"encoding": "mapping",
				"key": "t_bytes32",
				"label": "mapping(bytes32 => struct AccessControl.RoleData)",
				"numberOfBytes": "32",
				"value": "t_struct(RoleData)4222_storage"
			},
			"t_struct(RoleData)4222_storage": {
				"encoding": "inplace",
				"label": "struct AccessControl.RoleData",
				"members": [
					{
						"astId": 4219,
						"contract": "contracts/NFT/NFTBank/NFTBankFactory.sol:NFTBankFactory",
						"label": "members",
						"offset": 0,
						"slot": "0",
						"type": "t_mapping(t_address,t_bool)"
					},
					{
						"astId": 4221,
						"contract": "contracts/NFT/NFTBank/NFTBankFactory.sol:NFTBankFactory",
						"label": "adminRole",
						"offset": 0,
						"slot": "1",
						"type": "t_bytes32"
					}
				],
				"numberOfBytes": "64"
			},
			"t_uint256": {
				"encoding": "inplace",
				"label": "uint256",
				"numberOfBytes": "32"
			}
		}
	},
	"userdoc": {
		"kind": "user",
		"methods": {},
		"version": 1
	}
}